{
  "_format": "hh-sol-artifact-1",
  "contractName": "Factory",
  "sourceName": "contracts/Factory.sol",
  "abi": [
    {
      "inputs": [],
      "stateMutability": "nonpayable",
      "type": "constructor"
    },
    {
      "anonymous": false,
      "inputs": [
        {
          "indexed": true,
          "internalType": "address",
          "name": "previousOwner",
          "type": "address"
        },
        {
          "indexed": true,
          "internalType": "address",
          "name": "newOwner",
          "type": "address"
        }
      ],
      "name": "OwnershipTransferred",
      "type": "event"
    },
    {
      "inputs": [
        {
          "internalType": "address",
          "name": "creator",
          "type": "address"
        },
        {
          "internalType": "uint256",
          "name": "start",
          "type": "uint256"
        },
        {
          "internalType": "uint256",
          "name": "count",
          "type": "uint256"
        }
      ],
      "name": "find",
      "outputs": [
        {
          "internalType": "address[]",
          "name": "",
          "type": "address[]"
        }
      ],
      "stateMutability": "view",
      "type": "function"
    },
    {
      "inputs": [
        {
          "internalType": "uint256",
          "name": "_index",
          "type": "uint256"
        },
        {
          "internalType": "string",
          "name": "name",
          "type": "string"
        },
        {
          "internalType": "string",
          "name": "symbol",
          "type": "string"
        }
      ],
      "name": "genesis",
      "outputs": [
        {
          "internalType": "address",
          "name": "",
          "type": "address"
        }
      ],
      "stateMutability": "payable",
      "type": "function"
    },
    {
      "inputs": [],
      "name": "implementation",
      "outputs": [
        {
          "internalType": "address",
          "name": "",
          "type": "address"
        }
      ],
      "stateMutability": "view",
      "type": "function"
    },
    {
      "inputs": [],
      "name": "owner",
      "outputs": [
        {
          "internalType": "address",
          "name": "",
          "type": "address"
        }
      ],
      "stateMutability": "view",
      "type": "function"
    },
    {
      "inputs": [],
      "name": "renounceOwnership",
      "outputs": [],
      "stateMutability": "nonpayable",
      "type": "function"
    },
    {
      "inputs": [
        {
          "internalType": "address",
          "name": "newOwner",
          "type": "address"
        }
      ],
      "name": "transferOwnership",
      "outputs": [],
      "stateMutability": "nonpayable",
      "type": "function"
    }
  ],
  "bytecode": "0x60a06040523480156200001157600080fd5b506040516001906200002390620002ad565b8190604051809103906000f590508015801562000044573d6000803e3d6000fd5b506001600160a01b03166080526200005b62000061565b620002bb565b600054610100900460ff16806200007b575060005460ff16155b620000d35760405162461bcd60e51b815260206004820152602e60248201526000805160206200598583398151915260448201526d191e481a5b9a5d1a585b1a5e995960921b60648201526084015b60405180910390fd5b600054610100900460ff16158015620000f6576000805461ffff19166101011790555b6200010062000120565b6200010a620001c5565b80156200011d576000805461ff00191690555b50565b600054610100900460ff16806200013a575060005460ff16155b6200018e5760405162461bcd60e51b815260206004820152602e60248201526000805160206200598583398151915260448201526d191e481a5b9a5d1a585b1a5e995960921b6064820152608401620000ca565b600054610100900460ff161580156200010a576000805461ffff191661010117905580156200011d576000805461ff001916905550565b600054610100900460ff1680620001df575060005460ff16155b620002335760405162461bcd60e51b815260206004820152602e60248201526000805160206200598583398151915260448201526d191e481a5b9a5d1a585b1a5e995960921b6064820152608401620000ca565b600054610100900460ff1615801562000256576000805461ffff19166101011790555b6200010a33603380546001600160a01b038381166001600160a01b0319831681179093556040519116919082907f8be0079c531659141344cd1fd0a4f28419497f9722a3daafe3b4186f6b6457e090600090a35050565b614d488062000c3d83390190565b608051610959620002e46000396000818160ac01528181610199015261037701526109596000f3fe6080604052600436106100655760003560e01c8063715018a611610043578063715018a6146100fb5780638da5cb5b14610112578063f2fde38b1461013057600080fd5b80634d51709d1461006a5780635c60da1b1461009a5780635f8745cb146100ce575b600080fd5b61007d610078366004610722565b610150565b6040516001600160a01b0390911681526020015b60405180910390f35b3480156100a657600080fd5b5061007d7f000000000000000000000000000000000000000000000000000000000000000081565b3480156100da57600080fd5b506100ee6100e93660046107b8565b6102d4565b60405161009191906107eb565b34801561010757600080fd5b506101106103e2565b005b34801561011e57600080fd5b506033546001600160a01b031661007d565b34801561013c57600080fd5b5061011061014b366004610838565b61044d565b6040516bffffffffffffffffffffffff193360601b16602082015260348101869052600090819060540160405160208183030381529060405280519060200120905060006101be7f00000000000000000000000000000000000000000000000000000000000000008361052f565b6040517f4cd88b7600000000000000000000000000000000000000000000000000000000815290915081906001600160a01b03821690634cd88b769061020e908b908b908b908b9060040161087c565b600060405180830381600087803b15801561022857600080fd5b505af115801561023c573d6000803e3d6000fd5b50505050806001600160a01b031663f2fde38b6102563390565b6040517fffffffff0000000000000000000000000000000000000000000000000000000060e084901b1681526001600160a01b039091166004820152602401600060405180830381600087803b1580156102af57600080fd5b505af11580156102c3573d6000803e3d6000fd5b50939b9a5050505050505050505050565b606060008267ffffffffffffffff8111156102f1576102f16108ae565b60405190808252806020026020018201604052801561031a578160200160208202803683370190505b50905060005b838110156103d95760008661033587846108da565b60405160609290921b6bffffffffffffffffffffffff19166020830152603482015260540160405160208183030381529060405280519060200120905061039c7f0000000000000000000000000000000000000000000000000000000000000000826105ec565b8383815181106103ae576103ae6108f2565b6001600160a01b039092166020928302919091019091015250806103d181610908565b915050610320565b50949350505050565b6033546001600160a01b031633146104415760405162461bcd60e51b815260206004820181905260248201527f4f776e61626c653a2063616c6c6572206973206e6f7420746865206f776e657260448201526064015b60405180910390fd5b61044b600061066f565b565b6033546001600160a01b031633146104a75760405162461bcd60e51b815260206004820181905260248201527f4f776e61626c653a2063616c6c6572206973206e6f7420746865206f776e65726044820152606401610438565b6001600160a01b0381166105235760405162461bcd60e51b815260206004820152602660248201527f4f776e61626c653a206e6577206f776e657220697320746865207a65726f206160448201527f64647265737300000000000000000000000000000000000000000000000000006064820152608401610438565b61052c8161066f565b50565b60006040517f3d602d80600a3d3981f3363d3d373d3d3d363d7300000000000000000000000081528360601b60148201527f5af43d82803e903d91602b57fd5bf300000000000000000000000000000000006028820152826037826000f59150506001600160a01b0381166105e65760405162461bcd60e51b815260206004820152601760248201527f455243313136373a2063726561746532206661696c65640000000000000000006044820152606401610438565b92915050565b60006106688383306040517f3d602d80600a3d3981f3363d3d373d3d3d363d730000000000000000000000008152606093841b60148201527f5af43d82803e903d91602b57fd5bf3ff000000000000000000000000000000006028820152921b6038830152604c8201526037808220606c830152605591012090565b9392505050565b603380546001600160a01b038381167fffffffffffffffffffffffff0000000000000000000000000000000000000000831681179093556040519116919082907f8be0079c531659141344cd1fd0a4f28419497f9722a3daafe3b4186f6b6457e090600090a35050565b60008083601f8401126106eb57600080fd5b50813567ffffffffffffffff81111561070357600080fd5b60208301915083602082850101111561071b57600080fd5b9250929050565b60008060008060006060868803121561073a57600080fd5b85359450602086013567ffffffffffffffff8082111561075957600080fd5b61076589838a016106d9565b9096509450604088013591508082111561077e57600080fd5b5061078b888289016106d9565b969995985093965092949392505050565b80356001600160a01b03811681146107b357600080fd5b919050565b6000806000606084860312156107cd57600080fd5b6107d68461079c565b95602085013595506040909401359392505050565b6020808252825182820181905260009190848201906040850190845b8181101561082c5783516001600160a01b031683529284019291840191600101610807565b50909695505050505050565b60006020828403121561084a57600080fd5b6106688261079c565b81835281816020850137506000828201602090810191909152601f909101601f19169091010190565b604081526000610890604083018688610853565b82810360208401526108a3818587610853565b979650505050505050565b634e487b7160e01b600052604160045260246000fd5b634e487b7160e01b600052601160045260246000fd5b600082198211156108ed576108ed6108c4565b500190565b634e487b7160e01b600052603260045260246000fd5b600060001982141561091c5761091c6108c4565b506001019056fea2646970667358221220f8707ddcf89076f5970e282ab0078374779f7ecd329412130e437415284c075664736f6c63430008090033608060405234801561001057600080fd5b50614d28806100206000396000f3fe60806040526004361061021d5760003560e01c80638da5cb5b1161011d578063c19d93fb116100b0578063ceb07baf1161007f578063e814cb7111610064578063e814cb71146106a0578063e985e9c514610719578063f2fde38b1461076257600080fd5b8063ceb07baf14610659578063e1b220461461066c57600080fd5b8063c19d93fb146105a2578063c87b56dd146105b9578063ccc0b1ec146105d9578063cdc184241461060d57600080fd5b8063a22cb465116100ec578063a22cb46514610522578063a9e966b714610542578063b80f55c914610562578063b88d4fde1461058257600080fd5b80638da5cb5b1461049a5780638ec74e24146104b857806393d19f6d146104cb57806395d89b411461050d57600080fd5b806335c93885116101b057806355f804b31161017f5780636c0360eb116101645780636c0360eb1461044257806370a0823114610457578063715018a61461048557600080fd5b806355f804b3146104025780636352211e1461042257600080fd5b806335c938851461038257806342842e0e146103a25780634cd88b76146103c25780634fc41a42146103e257600080fd5b806323250cae116101ec57806323250cae146102da57806323b872dd146103105780632a55205a146103305780632e1a7d4d1461036f57600080fd5b806301ffc9a71461022957806306fdde031461025e578063081812fc14610280578063095ea7b3146102b857600080fd5b3661022457005b600080fd5b34801561023557600080fd5b5061024961024436600461418e565b610782565b60405190151581526020015b60405180910390f35b34801561026a57600080fd5b506102736107c6565b604051610255919061420a565b34801561028c57600080fd5b506102a061029b36600461421d565b610858565b6040516001600160a01b039091168152602001610255565b3480156102c457600080fd5b506102d86102d336600461424b565b6108f2565b005b3480156102e657600080fd5b506102a06102f536600461421d565b60ff602052600090815260409020546001600160a01b031681565b34801561031c57600080fd5b506102d861032b366004614277565b610a24565b34801561033c57600080fd5b5061035061034b3660046142b8565b610aac565b604080516001600160a01b039093168352602083019190915201610255565b6102d861037d36600461421d565b610b17565b34801561038e57600080fd5b506102d861039d36600461431c565b610c78565b3480156103ae57600080fd5b506102d86103bd366004614277565b610d7e565b3480156103ce57600080fd5b506102d86103dd36600461431c565b610d99565b3480156103ee57600080fd5b506102d86103fd366004614388565b610f23565b34801561040e57600080fd5b506102d861041d3660046143a0565b611023565b34801561042e57600080fd5b506102a061043d36600461421d565b611119565b34801561044e57600080fd5b506102736111a4565b34801561046357600080fd5b506104776104723660046143e2565b611233565b604051908152602001610255565b34801561049157600080fd5b506102d86112cd565b3480156104a657600080fd5b506097546001600160a01b03166102a0565b6102d86104c6366004614444565b611333565b3480156104d757600080fd5b506104fb6104e636600461421d565b60fe6020526000908152604090205460ff1681565b60405160ff9091168152602001610255565b34801561051957600080fd5b5061027361252c565b34801561052e57600080fd5b506102d861053d3660046144b2565b61253b565b34801561054e57600080fd5b506102d861055d36600461421d565b612600565b34801561056e57600080fd5b506102d861057d3660046144eb565b6126e2565b34801561058e57600080fd5b506102d861059d366004614568565b61278f565b3480156105ae57600080fd5b506104776101025481565b3480156105c557600080fd5b506102736105d436600461421d565b61281d565b3480156105e557600080fd5b506104777f7747ab7e8881743ca324b4324b6929bee87a368ae8e2a29b0f8ef2eaf5b535e781565b34801561061957600080fd5b506101005461063a906001600160a01b03811690600160a01b900460ff1682565b604080516001600160a01b039093168352901515602083015201610255565b6102d861066736600461462c565b612ba0565b34801561067857600080fd5b506104777fa8429bfd1dd4da6c67a09e5c5a89115acae264879c22f767979685932461d1c281565b3480156106ac57600080fd5b506106ed6106bb36600461421d565b60fd602052600090815260409020546001600160a01b03811690600160a01b90046bffffffffffffffffffffffff1682565b604080516001600160a01b0390931683526bffffffffffffffffffffffff909116602083015201610255565b34801561072557600080fd5b506102496107343660046146a1565b6001600160a01b039182166000908152606a6020908152604080832093909416825291909152205460ff1690565b34801561076e57600080fd5b506102d861077d3660046143e2565b612d1f565b60007f2a55205a000000000000000000000000000000000000000000000000000000006001600160e01b0319831614806107c057506107c082612e01565b92915050565b6060606580546107d5906146cf565b80601f0160208091040260200160405190810160405280929190818152602001828054610801906146cf565b801561084e5780601f106108235761010080835404028352916020019161084e565b820191906000526020600020905b81548152906001019060200180831161083157829003601f168201915b5050505050905090565b6000818152606760205260408120546001600160a01b03166108d65760405162461bcd60e51b815260206004820152602c60248201527f4552433732313a20617070726f76656420717565727920666f72206e6f6e657860448201526b34b9ba32b73a103a37b5b2b760a11b60648201526084015b60405180910390fd5b506000908152606960205260409020546001600160a01b031690565b60006108fd82611119565b9050806001600160a01b0316836001600160a01b031614156109875760405162461bcd60e51b815260206004820152602160248201527f4552433732313a20617070726f76616c20746f2063757272656e74206f776e6560448201527f720000000000000000000000000000000000000000000000000000000000000060648201526084016108cd565b336001600160a01b03821614806109a357506109a38133610734565b610a155760405162461bcd60e51b815260206004820152603860248201527f4552433732313a20617070726f76652063616c6c6572206973206e6f74206f7760448201527f6e6572206e6f7220617070726f76656420666f7220616c6c000000000000000060648201526084016108cd565b610a1f8383612e9c565b505050565b610a2f335b82612f0a565b610aa15760405162461bcd60e51b815260206004820152603160248201527f4552433732313a207472616e736665722063616c6c6572206973206e6f74206f60448201527f776e6572206e6f7220617070726f76656400000000000000000000000000000060648201526084016108cd565b610a1f838383613001565b600082815260fd602090815260408083208151808301909252546001600160a01b038116808352600160a01b9091046bffffffffffffffffffffffff169282018390528392620f424090610b00908761471a565b610b0a9190614739565b92509250505b9250929050565b6097546001600160a01b0316331480610b445750610100546001600160a01b0316336001600160a01b0316145b610b905760405162461bcd60e51b815260206004820152600260248201527f333000000000000000000000000000000000000000000000000000000000000060448201526064016108cd565b6000808211610b9f5747610ba1565b815b610100549091506000906001600160a01b031615610bcb57610100546001600160a01b0316610bd8565b6097546001600160a01b03165b6001600160a01b03168260405160006040518083038185875af1925050503d8060008114610c22576040519150601f19603f3d011682016040523d82523d6000602084013e610c27565b606091505b5050905080610a1f5760405162461bcd60e51b815260206004820152600260248201527f333100000000000000000000000000000000000000000000000000000000000060448201526064016108cd565b6097546001600160a01b03163314610cd25760405162461bcd60e51b815260206004820181905260248201527f4f776e61626c653a2063616c6c6572206973206e6f7420746865206f776e657260448201526064016108cd565b6101025415610d235760405162461bcd60e51b815260206004820152600260248201527f363000000000000000000000000000000000000000000000000000000000000060448201526064016108cd565b610d2f6065858561406b565b50610d3c6066838361406b565b507f934066d47a89bfcab72db908a0701b9145131ee303cefb44553121c73419e8dd60656066604051610d709291906147fb565b60405180910390a150505050565b610a1f8383836040518060200160405280600081525061278f565b600054610100900460ff1680610db2575060005460ff16155b610e155760405162461bcd60e51b815260206004820152602e60248201527f496e697469616c697a61626c653a20636f6e747261637420697320616c72656160448201526d191e481a5b9a5d1a585b1a5e995960921b60648201526084016108cd565b600054610100900460ff16158015610e37576000805461ffff19166101011790555b610eaa85858080601f01602080910402602001604051908101604052809392919081815260200183838082843760009201919091525050604080516020601f890181900481028201810190925287815292508791508690819084018382808284376000920191909152506131ce92505050565b610f0285858080601f016020809104026020016040519081016040528093929190818152602001838380828437600092019190915250506040805180820190915260018152603160f81b6020820152915061329c9050565b610f0a613344565b8015610f1c576000805461ff00191690555b5050505050565b6097546001600160a01b03163314610f7d5760405162461bcd60e51b815260206004820181905260248201527f4f776e61626c653a2063616c6c6572206973206e6f7420746865206f776e657260448201526064016108cd565b61010054600160a01b900460ff1615610fd85760405162461bcd60e51b815260206004820152600260248201527f323000000000000000000000000000000000000000000000000000000000000060448201526064016108cd565b80610100610fe68282614829565b9050507f5d121f0c2b2c4877a2b0a1457c73ce1c28628e5705271cb91db3e49792715cf58160405161101891906148aa565b60405180910390a150565b6097546001600160a01b0316331461107d5760405162461bcd60e51b815260206004820181905260248201527f4f776e61626c653a2063616c6c6572206973206e6f7420746865206f776e657260448201526064016108cd565b61010254156110ce5760405162461bcd60e51b815260206004820152600260248201527f353000000000000000000000000000000000000000000000000000000000000060448201526064016108cd565b6110db610101838361406b565b507f6741b2fc379fad678116fe3d4d4b9a1a184ab53ba36b86ad0fa66340b1ab41ad828260405161110d9291906148e1565b60405180910390a15050565b6000818152606760205260408120546001600160a01b0316806107c05760405162461bcd60e51b815260206004820152602960248201527f4552433732313a206f776e657220717565727920666f72206e6f6e657869737460448201527f656e7420746f6b656e000000000000000000000000000000000000000000000060648201526084016108cd565b61010180546111b2906146cf565b80601f01602080910402602001604051908101604052809291908181526020018280546111de906146cf565b801561122b5780601f106112005761010080835404028352916020019161122b565b820191906000526020600020905b81548152906001019060200180831161120e57829003601f168201915b505050505081565b60006001600160a01b0382166112b15760405162461bcd60e51b815260206004820152602a60248201527f4552433732313a2062616c616e636520717565727920666f7220746865207a6560448201527f726f20616464726573730000000000000000000000000000000000000000000060648201526084016108cd565b506001600160a01b031660009081526068602052604090205490565b6097546001600160a01b031633146113275760405162461bcd60e51b815260206004820181905260248201527f4f776e61626c653a2063616c6c6572206973206e6f7420746865206f776e657260448201526064016108cd565b6113316000613406565b565b61010254156113685760405162461bcd60e51b81526020600482015260016024820152600360fc1b60448201526064016108cd565b6000805b848110156124dc573686868381811061138757611387614910565b90506020028101906113999190614926565b9050368585848181106113ae576113ae614910565b90506020028101906113c09190614947565b8235600090815260ff60205260409020549091506001600160a01b03161561140e5760405162461bcd60e51b81526020600482015260016024820152603160f81b60448201526064016108cd565b60008061142160c0850160a086016143e2565b6001600160a01b031614156114425761143d60208301836143e2565b611452565b61145260c0840160a085016143e2565b905061146261018084018461495d565b151590506116b25760007f7747ab7e8881743ca324b4324b6929bee87a368ae8e2a29b0f8ef2eaf5b535e784356114a1610120870161010088016149bc565b6114b160a08801608089016143e2565b6114c160c0890160a08a016143e2565b6114d160408a0160208b016149d7565b6114e160608b0160408c01614a09565b6114f160808c0160608d01614a09565b61150160e08d0160c08e016143e2565b6115126101008e0160e08f01614a33565b60408051602081019b909b528a019890985260ff90961660608901526001600160a01b03948516608089015292841660a08801526fffffffffffffffffffffffffffffffff90911660c087015267ffffffffffffffff90811660e08701521661010085015216610120838101919091526bffffffffffffffffffffffff909116610140838101919091529086013561016083810191909152908601356101808301528501356101a08201527fc5d2460186f7233c927e7db2dcc703c0e500b653ca82273b7bfad8045d85a4706101c08201526101e0016040516020818303038152906040528051906020012090506116126097546001600160a01b031690565b6001600160a01b031661167261162c6101a0870187614a61565b8080601f01602080910402602001604051908101604052809392919081815260200183838082843760009201919091525061166c92508691506134589050565b906134c1565b6001600160a01b0316146116ac5760405162461bcd60e51b81526020600482015260016024820152601960f91b60448201526064016108cd565b506120d2565b606060005b6116c561018086018661495d565b9050811015611eb25760006116de61018087018761495d565b838181106116ee576116ee614910565b9050606002018036038101906117049190614aa8565b805190915060ff1661184d5760208101516001600160a01b031661177557604081810151600090815260ff60205220546001600160a01b031633146117705760405162461bcd60e51b8152602060048201526002602482015261386160f01b60448201526064016108cd565b611e1c565b602081015160408083015190517f23250cae000000000000000000000000000000000000000000000000000000008152600481019190915233916001600160a01b0316906323250cae9060240160206040518083038186803b1580156117da57600080fd5b505afa1580156117ee573d6000803e3d6000fd5b505050506040513d601f19601f820116820180604052508101906118129190614b11565b6001600160a01b0316146117705760405162461bcd60e51b8152602060048201526002602482015261386160f01b60448201526064016108cd565b806000015160ff166001141561198b5760208101516001600160a01b03166118c057604081810151600090815260ff60205220546001600160a01b038581169116146117705760405162461bcd60e51b81526020600482015260026024820152611c3160f11b60448201526064016108cd565b836001600160a01b031681602001516001600160a01b03166323250cae83604001516040518263ffffffff1660e01b815260040161190091815260200190565b60206040518083038186803b15801561191857600080fd5b505afa15801561192c573d6000803e3d6000fd5b505050506040513d601f19601f820116820180604052508101906119509190614b11565b6001600160a01b0316146117705760405162461bcd60e51b81526020600482015260026024820152611c3160f11b60448201526064016108cd565b806000015160ff1660021415611ab75760208101516001600160a01b0316611a1a57336001600160a01b03166119c48260400151611119565b6001600160a01b0316146117705760405162461bcd60e51b815260206004820152600260248201527f396100000000000000000000000000000000000000000000000000000000000060448201526064016108cd565b602081015160408083015190517f6352211e000000000000000000000000000000000000000000000000000000008152600481019190915233916001600160a01b031690636352211e9060240160206040518083038186803b158015611a7f57600080fd5b505afa158015611a93573d6000803e3d6000fd5b505050506040513d601f19601f820116820180604052508101906119c49190614b11565b806000015160ff1660031415611bd65760208101516001600160a01b0316611b4657836001600160a01b0316611af08260400151611119565b6001600160a01b0316146117705760405162461bcd60e51b815260206004820152600260248201527f396200000000000000000000000000000000000000000000000000000000000060448201526064016108cd565b836001600160a01b031681602001516001600160a01b0316636352211e83604001516040518263ffffffff1660e01b8152600401611b8691815260200190565b60206040518083038186803b158015611b9e57600080fd5b505afa158015611bb2573d6000803e3d6000fd5b505050506040513d601f19601f82011682018060405250810190611af09190614b11565b806000015160ff1660041415611ce45760208101516001600160a01b0316611c54576040810151611c0633611233565b10156117705760405162461bcd60e51b815260206004820152600360248201527f313061000000000000000000000000000000000000000000000000000000000060448201526064016108cd565b604081015160208201516001600160a01b03166370a08231336040516001600160e01b031960e084901b1681526001600160a01b03909116600482015260240160206040518083038186803b158015611cac57600080fd5b505afa158015611cc0573d6000803e3d6000fd5b505050506040513d601f19601f82011682018060405250810190611c069190614b2e565b806000015160ff1660051415611e1c5760208101516001600160a01b0316611d48578060400151611d1485611233565b10156117705760405162461bcd60e51b815260206004820152600360248201526218983160e91b60448201526064016108cd565b604080820151602083015191517f70a082310000000000000000000000000000000000000000000000000000000081526001600160a01b038781166004830152919291909116906370a082319060240160206040518083038186803b158015611db057600080fd5b505afa158015611dc4573d6000803e3d6000fd5b505050506040513d601f19601f82011682018060405250810190611de89190614b2e565b1015611e1c5760405162461bcd60e51b815260206004820152600360248201526218983160e91b60448201526064016108cd565b805160208083015160408085015181517fa8429bfd1dd4da6c67a09e5c5a89115acae264879c22f767979685932461d1c28186015260ff909516858301526001600160a01b0390921660608501526080808501929092528051808503909201825260a0840190528051910120611e979185919060c001614b47565b60408051601f198184030181529190529250506001016116b7565b5060007f7747ab7e8881743ca324b4324b6929bee87a368ae8e2a29b0f8ef2eaf5b535e78535611eea610120880161010089016149bc565b611efa60a0890160808a016143e2565b611f0a60c08a0160a08b016143e2565b611f1a60408b0160208c016149d7565b60408051602081019790975286019490945260ff90921660608501526001600160a01b0390811660808501521660a08301526fffffffffffffffffffffffffffffffff1660c082015260e00160408051601f19818403018152918152611f869060608801908801614a09565b611f966080880160608901614a09565b611fa660e0890160c08a016143e2565b611fb76101008a0160e08b01614a33565b86516020808901919091206040805167ffffffffffffffff9788169381019390935295909416948101949094526001600160a01b0390911660608401526bffffffffffffffffffffffff1660808301526101208089013560a084015261014089013560c084015261016089013560e08401526101008301919091520160408051601f19818403018152908290526120519291602001614b69565b60405160208183030381529060405280519060200120905061207b6097546001600160a01b031690565b6001600160a01b031661209561162c6101a0880188614a61565b6001600160a01b0316146120cf5760405162461bcd60e51b81526020600482015260016024820152601960f91b60448201526064016108cd565b50505b60006120e460a08501608086016143e2565b6001600160a01b031614612159573361210360a08501608086016143e2565b6001600160a01b0316146121595760405162461bcd60e51b815260206004820152600160248201527f330000000000000000000000000000000000000000000000000000000000000060448201526064016108cd565b4261216a6060850160408601614a09565b67ffffffffffffffff1611156121c25760405162461bcd60e51b815260206004820152600160248201527f340000000000000000000000000000000000000000000000000000000000000060448201526064016108cd565b426121d36080850160608601614a09565b67ffffffffffffffff16101561222b5760405162461bcd60e51b815260206004820152600160248201527f350000000000000000000000000000000000000000000000000000000000000060448201526064016108cd565b610160830135156122c65760006122456020840184614a61565b905011801561227a57506101608301356122626020840184614a61565b604051612270929190614b98565b6040518091039020145b6122c65760405162461bcd60e51b815260206004820152600160248201527f360000000000000000000000000000000000000000000000000000000000000060448201526064016108cd565b61012083013515612339576122ed6101208401356122e76040850185614ba8565b336134e5565b6123395760405162461bcd60e51b815260206004820152600260248201527f376100000000000000000000000000000000000000000000000000000000000060448201526064016108cd565b610140830135156123ac5761236061014084013561235a6060850185614ba8565b846134e5565b6123ac5760405162461bcd60e51b815260206004820152600260248201527f376200000000000000000000000000000000000000000000000000000000000060448201526064016108cd565b6123be610120840161010085016149bc565b60ff16156123fb576123d8610120840161010085016149bc565b8335600090815260fe60205260409020805460ff191660ff929092169190911790555b600061240d60e0850160c086016143e2565b6001600160a01b03161461249d57604080518082019091528061243660e0860160c087016143e2565b6001600160a01b03168152602001612455610100860160e08701614a33565b6bffffffffffffffffffffffff9081169091528435600090815260fd6020908152604090912083519390910151909116600160a01b026001600160a01b039092169190911790555b6124a88184356135c3565b6124b860408401602085016149d7565b6fffffffffffffffffffffffffffffffff168501945083600101935050505061136c565b50348114610f1c5760405162461bcd60e51b815260206004820152600260248201527f313100000000000000000000000000000000000000000000000000000000000060448201526064016108cd565b6060606680546107d5906146cf565b6001600160a01b0382163314156125945760405162461bcd60e51b815260206004820152601960248201527f4552433732313a20617070726f766520746f2063616c6c65720000000000000060448201526064016108cd565b336000818152606a602090815260408083206001600160a01b03871680855290835292819020805460ff191686151590811790915590519081529192917f17307eab39ab6107e8899845ad3d59bd9653f200f220920489ca2b5937696c31910160405180910390a35050565b6097546001600160a01b0316331461265a5760405162461bcd60e51b815260206004820181905260248201527f4f776e61626c653a2063616c6c6572206973206e6f7420746865206f776e657260448201526064016108cd565b61010254600214156126ae5760405162461bcd60e51b815260206004820152600260248201527f343000000000000000000000000000000000000000000000000000000000000060448201526064016108cd565b61010281905560405181907f118f8ba10d647100925b2343f3030d110623f17b284ced4316cbe4b8f138883f90600090a250565b60005b81811015610a1f57600083838381811061270157612701614910565b905060200201359050612714610a293390565b6127605760405162461bcd60e51b815260206004820152600260248201527f313500000000000000000000000000000000000000000000000000000000000060448201526064016108cd565b61276981613705565b600090815260ff6020526040902080546001600160a01b031916331790556001016126e5565b6127993383612f0a565b61280b5760405162461bcd60e51b815260206004820152603160248201527f4552433732313a207472616e736665722063616c6c6572206973206e6f74206f60448201527f776e6572206e6f7220617070726f76656400000000000000000000000000000060648201526084016108cd565b612817848484846137a0565b50505050565b6000818152606760205260409020546060906001600160a01b03166128aa5760405162461bcd60e51b815260206004820152602f60248201527f4552433732314d657461646174613a2055524920717565727920666f72206e6f60448201527f6e6578697374656e7420746f6b656e000000000000000000000000000000000060648201526084016108cd565b6040805180820190915260208082527f6162636465666768696a6b6c6d6e6f707172737475767778797a3233343536379082015261010180548492916000918291906128f5906146cf565b905011612937576040518060400160405280600781526020017f697066733a2f2f000000000000000000000000000000000000000000000000008152506129c4565b6101018054612945906146cf565b80601f0160208091040260200160405190810160405280929190818152602001828054612971906146cf565b80156129be5780601f10612993576101008083540402835291602001916129be565b820191906000526020600020905b8154815290600101906020018083116129a157829003601f168201915b50505050505b600086815260fe602052604081205491925090829060ff1615612a1c576040518060400160405280600781526020017f6261667962656900000000000000000000000000000000000000000000000000815250612a53565b6040518060400160405280600781526020017f6261666b726569000000000000000000000000000000000000000000000000008152505b604051602001612a64929190614b69565b60408051601f1981840301815291905290506002630170122060056000612a8d60016020614bf2565b905060005b6020811015612b3c576000612aa882600861471a565b8c901b60f881901c600896871b63ffffff00161795909150612aca9087614c09565b95505b83861115612b2b57612adf8487614bf2565b955086898787901c851681518110612af957612af9614910565b602001015160f81c60f81b604051602001612b15929190614c21565b6040516020818303038152906040529650612acd565b50612b3581614c68565b9050612a92565b508315612b92578487612b4f8685614bf2565b85901b831681518110612b6457612b64614910565b602001015160f81c60f81b604051602001612b80929190614c21565b60405160208183030381529060405294505b509298975050505050505050565b6097546001600160a01b03163314612bfa5760405162461bcd60e51b815260206004820181905260248201527f4f776e61626c653a2063616c6c6572206973206e6f7420746865206f776e657260448201526064016108cd565b6101025415612c2f5760405162461bcd60e51b81526020600482015260016024820152600360fc1b60448201526064016108cd565b60005b81811015610a1f5736838383818110612c4d57612c4d614910565b905060a002019050612c72816020016020810190612c6b91906143e2565b82356135c3565b6000612c8460608301604084016143e2565b6001600160a01b031614612d16576040518060400160405280826040016020810190612cb091906143e2565b6001600160a01b03168152602001612cce6080840160608501614a33565b6bffffffffffffffffffffffff9081169091528235600090815260fd6020908152604090912083519390910151909116600160a01b026001600160a01b039092169190911790555b50600101612c32565b6097546001600160a01b03163314612d795760405162461bcd60e51b815260206004820181905260248201527f4f776e61626c653a2063616c6c6572206973206e6f7420746865206f776e657260448201526064016108cd565b6001600160a01b038116612df55760405162461bcd60e51b815260206004820152602660248201527f4f776e61626c653a206e6577206f776e657220697320746865207a65726f206160448201527f646472657373000000000000000000000000000000000000000000000000000060648201526084016108cd565b612dfe81613406565b50565b60006001600160e01b031982167f80ac58cd000000000000000000000000000000000000000000000000000000001480612e6457506001600160e01b031982167f5b5e139f00000000000000000000000000000000000000000000000000000000145b806107c057507f01ffc9a7000000000000000000000000000000000000000000000000000000006001600160e01b03198316146107c0565b600081815260696020526040902080546001600160a01b0319166001600160a01b0384169081179091558190612ed182611119565b6001600160a01b03167f8c5be1e5ebec7d5bd14f71427d1e84f3dd0314c0f7b2291e5b200ac8c7c3b92560405160405180910390a45050565b6000818152606760205260408120546001600160a01b0316612f835760405162461bcd60e51b815260206004820152602c60248201527f4552433732313a206f70657261746f7220717565727920666f72206e6f6e657860448201526b34b9ba32b73a103a37b5b2b760a11b60648201526084016108cd565b6000612f8e83611119565b9050806001600160a01b0316846001600160a01b03161480612fc95750836001600160a01b0316612fbe84610858565b6001600160a01b0316145b80612ff957506001600160a01b038082166000908152606a602090815260408083209388168352929052205460ff165b949350505050565b826001600160a01b031661301482611119565b6001600160a01b0316146130905760405162461bcd60e51b815260206004820152602960248201527f4552433732313a207472616e73666572206f6620746f6b656e2074686174206960448201527f73206e6f74206f776e000000000000000000000000000000000000000000000060648201526084016108cd565b6001600160a01b03821661310b5760405162461bcd60e51b8152602060048201526024808201527f4552433732313a207472616e7366657220746f20746865207a65726f2061646460448201527f726573730000000000000000000000000000000000000000000000000000000060648201526084016108cd565b613116600082612e9c565b6001600160a01b038316600090815260686020526040812080546001929061313f908490614bf2565b90915550506001600160a01b038216600090815260686020526040812080546001929061316d908490614c09565b909155505060008181526067602052604080822080546001600160a01b0319166001600160a01b0386811691821790925591518493918716917fddf252ad1be2c89b69c2b068fc378daa952ba7f163c4a11628f55a4df523b3ef91a4505050565b600054610100900460ff16806131e7575060005460ff16155b61324a5760405162461bcd60e51b815260206004820152602e60248201527f496e697469616c697a61626c653a20636f6e747261637420697320616c72656160448201526d191e481a5b9a5d1a585b1a5e995960921b60648201526084016108cd565b600054610100900460ff1615801561326c576000805461ffff19166101011790555b613274613829565b61327c613829565b61328683836138da565b8015610a1f576000805461ff0019169055505050565b600054610100900460ff16806132b5575060005460ff16155b6133185760405162461bcd60e51b815260206004820152602e60248201527f496e697469616c697a61626c653a20636f6e747261637420697320616c72656160448201526d191e481a5b9a5d1a585b1a5e995960921b60648201526084016108cd565b600054610100900460ff1615801561333a576000805461ffff19166101011790555b61328683836139b6565b600054610100900460ff168061335d575060005460ff16155b6133c05760405162461bcd60e51b815260206004820152602e60248201527f496e697469616c697a61626c653a20636f6e747261637420697320616c72656160448201526d191e481a5b9a5d1a585b1a5e995960921b60648201526084016108cd565b600054610100900460ff161580156133e2576000805461ffff19166101011790555b6133ea613829565b6133f2613a87565b8015612dfe576000805461ff001916905550565b609780546001600160a01b038381166001600160a01b0319831681179093556040519116919082907f8be0079c531659141344cd1fd0a4f28419497f9722a3daafe3b4186f6b6457e090600090a35050565b60006107c0613465613b2e565b836040517f19010000000000000000000000000000000000000000000000000000000000006020820152602281018390526042810182905260009060620160405160208183030381529060405280519060200120905092915050565b60008060006134d08585613bae565b915091506134dd81613c1b565b509392505050565b6040516bffffffffffffffffffffffff19606083901b166020820152600090819060340160405160208183030381529060405280519060200120905060005b848110156135b757600086868381811061354057613540614910565b9050602002013590508083116135815760408051602081018590529081018290526060016040516020818303038152906040528051906020012092506135ae565b60408051602081018390529081018490526060016040516020818303038152906040528051906020012092505b50600101613524565b50909414949350505050565b6001600160a01b0382166136195760405162461bcd60e51b815260206004820181905260248201527f4552433732313a206d696e7420746f20746865207a65726f206164647265737360448201526064016108cd565b6000818152606760205260409020546001600160a01b03161561367e5760405162461bcd60e51b815260206004820152601c60248201527f4552433732313a20746f6b656e20616c7265616479206d696e7465640000000060448201526064016108cd565b6001600160a01b03821660009081526068602052604081208054600192906136a7908490614c09565b909155505060008181526067602052604080822080546001600160a01b0319166001600160a01b03861690811790915590518392907fddf252ad1be2c89b69c2b068fc378daa952ba7f163c4a11628f55a4df523b3ef908290a45050565b600061371082611119565b905061371d600083612e9c565b6001600160a01b0381166000908152606860205260408120805460019290613746908490614bf2565b909155505060008281526067602052604080822080546001600160a01b0319169055518391906001600160a01b038416907fddf252ad1be2c89b69c2b068fc378daa952ba7f163c4a11628f55a4df523b3ef908390a45050565b6137ab848484613001565b6137b784848484613dd6565b6128175760405162461bcd60e51b815260206004820152603260248201527f4552433732313a207472616e7366657220746f206e6f6e20455243373231526560448201527f63656976657220696d706c656d656e746572000000000000000000000000000060648201526084016108cd565b600054610100900460ff1680613842575060005460ff16155b6138a55760405162461bcd60e51b815260206004820152602e60248201527f496e697469616c697a61626c653a20636f6e747261637420697320616c72656160448201526d191e481a5b9a5d1a585b1a5e995960921b60648201526084016108cd565b600054610100900460ff161580156133f2576000805461ffff19166101011790558015612dfe576000805461ff001916905550565b600054610100900460ff16806138f3575060005460ff16155b6139565760405162461bcd60e51b815260206004820152602e60248201527f496e697469616c697a61626c653a20636f6e747261637420697320616c72656160448201526d191e481a5b9a5d1a585b1a5e995960921b60648201526084016108cd565b600054610100900460ff16158015613978576000805461ffff19166101011790555b825161398b9060659060208601906140ef565b50815161399f9060669060208501906140ef565b508015610a1f576000805461ff0019169055505050565b600054610100900460ff16806139cf575060005460ff16155b613a325760405162461bcd60e51b815260206004820152602e60248201527f496e697469616c697a61626c653a20636f6e747261637420697320616c72656160448201526d191e481a5b9a5d1a585b1a5e995960921b60648201526084016108cd565b600054610100900460ff16158015613a54576000805461ffff19166101011790555b825160208085019190912083519184019190912060c99190915560ca558015610a1f576000805461ff0019169055505050565b600054610100900460ff1680613aa0575060005460ff16155b613b035760405162461bcd60e51b815260206004820152602e60248201527f496e697469616c697a61626c653a20636f6e747261637420697320616c72656160448201526d191e481a5b9a5d1a585b1a5e995960921b60648201526084016108cd565b600054610100900460ff16158015613b25576000805461ffff19166101011790555b6133f233613406565b6000613ba97f8b73c3c69bb8fe3d512ecc4cf759cc79239f7b179b0ffacaa9a75d522b39400f613b5d60c95490565b60ca546040805160208101859052908101839052606081018290524660808201523060a082015260009060c0016040516020818303038152906040528051906020012090509392505050565b905090565b600080825160411415613be55760208301516040840151606085015160001a613bd987828585613f36565b94509450505050610b10565b825160401415613c0f5760208301516040840151613c04868383614023565b935093505050610b10565b50600090506002610b10565b6000816004811115613c2f57613c2f614c83565b1415613c385750565b6001816004811115613c4c57613c4c614c83565b1415613c9a5760405162461bcd60e51b815260206004820152601860248201527f45434453413a20696e76616c6964207369676e6174757265000000000000000060448201526064016108cd565b6002816004811115613cae57613cae614c83565b1415613cfc5760405162461bcd60e51b815260206004820152601f60248201527f45434453413a20696e76616c6964207369676e6174757265206c656e6774680060448201526064016108cd565b6003816004811115613d1057613d10614c83565b1415613d695760405162461bcd60e51b815260206004820152602260248201527f45434453413a20696e76616c6964207369676e6174757265202773272076616c604482015261756560f01b60648201526084016108cd565b6004816004811115613d7d57613d7d614c83565b1415612dfe5760405162461bcd60e51b815260206004820152602260248201527f45434453413a20696e76616c6964207369676e6174757265202776272076616c604482015261756560f01b60648201526084016108cd565b60006001600160a01b0384163b15613f2e57604051630a85bd0160e11b81526001600160a01b0385169063150b7a0290613e1a903390899088908890600401614c99565b602060405180830381600087803b158015613e3457600080fd5b505af1925050508015613e64575060408051601f3d908101601f19168201909252613e6191810190614cd5565b60015b613f14573d808015613e92576040519150601f19603f3d011682016040523d82523d6000602084013e613e97565b606091505b508051613f0c5760405162461bcd60e51b815260206004820152603260248201527f4552433732313a207472616e7366657220746f206e6f6e20455243373231526560448201527f63656976657220696d706c656d656e746572000000000000000000000000000060648201526084016108cd565b805181602001fd5b6001600160e01b031916630a85bd0160e11b149050612ff9565b506001612ff9565b6000807f7fffffffffffffffffffffffffffffff5d576e7357a4501ddfe92f46681b20a0831115613f6d575060009050600361401a565b8460ff16601b14158015613f8557508460ff16601c14155b15613f96575060009050600461401a565b6040805160008082526020820180845289905260ff881692820192909252606081018690526080810185905260019060a0016020604051602081039080840390855afa158015613fea573d6000803e3d6000fd5b5050604051601f1901519150506001600160a01b0381166140135760006001925092505061401a565b9150600090505b94509492505050565b6000807f7fffffffffffffffffffffffffffffffffffffffffffffffffffffffffffffff831660ff84901c601b0161405d87828885613f36565b935093505050935093915050565b828054614077906146cf565b90600052602060002090601f01602090048101928261409957600085556140df565b82601f106140b25782800160ff198235161785556140df565b828001600101855582156140df579182015b828111156140df5782358255916020019190600101906140c4565b506140eb929150614163565b5090565b8280546140fb906146cf565b90600052602060002090601f01602090048101928261411d57600085556140df565b82601f1061413657805160ff19168380011785556140df565b828001600101855582156140df579182015b828111156140df578251825591602001919060010190614148565b5b808211156140eb5760008155600101614164565b6001600160e01b031981168114612dfe57600080fd5b6000602082840312156141a057600080fd5b81356141ab81614178565b9392505050565b60005b838110156141cd5781810151838201526020016141b5565b838111156128175750506000910152565b600081518084526141f68160208601602086016141b2565b601f01601f19169290920160200192915050565b6020815260006141ab60208301846141de565b60006020828403121561422f57600080fd5b5035919050565b6001600160a01b0381168114612dfe57600080fd5b6000806040838503121561425e57600080fd5b823561426981614236565b946020939093013593505050565b60008060006060848603121561428c57600080fd5b833561429781614236565b925060208401356142a781614236565b929592945050506040919091013590565b600080604083850312156142cb57600080fd5b50508035926020909101359150565b60008083601f8401126142ec57600080fd5b50813567ffffffffffffffff81111561430457600080fd5b602083019150836020828501011115610b1057600080fd5b6000806000806040858703121561433257600080fd5b843567ffffffffffffffff8082111561434a57600080fd5b614356888389016142da565b9096509450602087013591508082111561436f57600080fd5b5061437c878288016142da565b95989497509550505050565b60006040828403121561439a57600080fd5b50919050565b600080602083850312156143b357600080fd5b823567ffffffffffffffff8111156143ca57600080fd5b6143d6858286016142da565b90969095509350505050565b6000602082840312156143f457600080fd5b81356141ab81614236565b60008083601f84011261441157600080fd5b50813567ffffffffffffffff81111561442957600080fd5b6020830191508360208260051b8501011115610b1057600080fd5b6000806000806040858703121561445a57600080fd5b843567ffffffffffffffff8082111561447257600080fd5b61447e888389016143ff565b9096509450602087013591508082111561449757600080fd5b5061437c878288016143ff565b8015158114612dfe57600080fd5b600080604083850312156144c557600080fd5b82356144d081614236565b915060208301356144e0816144a4565b809150509250929050565b600080602083850312156144fe57600080fd5b823567ffffffffffffffff81111561451557600080fd5b6143d6858286016143ff565b634e487b7160e01b600052604160045260246000fd5b604051601f8201601f1916810167ffffffffffffffff8111828210171561456057614560614521565b604052919050565b6000806000806080858703121561457e57600080fd5b843561458981614236565b935060208581013561459a81614236565b935060408601359250606086013567ffffffffffffffff808211156145be57600080fd5b818801915088601f8301126145d257600080fd5b8135818111156145e4576145e4614521565b6145f6601f8201601f19168501614537565b9150808252898482850101111561460c57600080fd5b808484018584013760008482840101525080935050505092959194509250565b6000806020838503121561463f57600080fd5b823567ffffffffffffffff8082111561465757600080fd5b818501915085601f83011261466b57600080fd5b81358181111561467a57600080fd5b86602060a08302850101111561468f57600080fd5b60209290920196919550909350505050565b600080604083850312156146b457600080fd5b82356146bf81614236565b915060208301356144e081614236565b600181811c908216806146e357607f821691505b6020821081141561439a57634e487b7160e01b600052602260045260246000fd5b634e487b7160e01b600052601160045260246000fd5b600081600019048311821515161561473457614734614704565b500290565b60008261475657634e487b7160e01b600052601260045260246000fd5b500490565b8054600090600181811c908083168061477557607f831692505b602080841082141561479757634e487b7160e01b600052602260045260246000fd5b838852602088018280156147b257600181146147c3576147ee565b60ff198716825282820197506147ee565b60008981526020902060005b878110156147e8578154848201529086019084016147cf565b83019850505b5050505050505092915050565b60408152600061480e604083018561475b565b8281036020840152614820818561475b565b95945050505050565b813561483481614236565b6001600160a01b03811690508154816001600160a01b03198216178355602084013561485f816144a4565b7fffffffffffffffffffffff0000000000000000000000000000000000000000009190911690911790151560a01b74ff00000000000000000000000000000000000000001617905550565b6040810182356148b981614236565b6001600160a01b0316825260208301356148d2816144a4565b80151560208401525092915050565b60208152816020820152818360408301376000818301604090810191909152601f909201601f19160101919050565b634e487b7160e01b600052603260045260246000fd5b600082356101be1983360301811261493d57600080fd5b9190910192915050565b60008235607e1983360301811261493d57600080fd5b6000808335601e1984360301811261497457600080fd5b83018035915067ffffffffffffffff82111561498f57600080fd5b6020019150606081023603821315610b1057600080fd5b803560ff811681146149b757600080fd5b919050565b6000602082840312156149ce57600080fd5b6141ab826149a6565b6000602082840312156149e957600080fd5b81356fffffffffffffffffffffffffffffffff811681146141ab57600080fd5b600060208284031215614a1b57600080fd5b813567ffffffffffffffff811681146141ab57600080fd5b600060208284031215614a4557600080fd5b81356bffffffffffffffffffffffff811681146141ab57600080fd5b6000808335601e19843603018112614a7857600080fd5b83018035915067ffffffffffffffff821115614a9357600080fd5b602001915036819003821315610b1057600080fd5b600060608284031215614aba57600080fd5b6040516060810181811067ffffffffffffffff82111715614add57614add614521565b604052614ae9836149a6565b81526020830135614af981614236565b60208201526040928301359281019290925250919050565b600060208284031215614b2357600080fd5b81516141ab81614236565b600060208284031215614b4057600080fd5b5051919050565b60008351614b598184602088016141b2565b9190910191825250602001919050565b60008351614b7b8184602088016141b2565b835190830190614b8f8183602088016141b2565b01949350505050565b8183823760009101908152919050565b6000808335601e19843603018112614bbf57600080fd5b83018035915067ffffffffffffffff821115614bda57600080fd5b6020019150600581901b3603821315610b1057600080fd5b600082821015614c0457614c04614704565b500390565b60008219821115614c1c57614c1c614704565b500190565b60008351614c338184602088016141b2565b7fff00000000000000000000000000000000000000000000000000000000000000939093169190920190815260010192915050565b6000600019821415614c7c57614c7c614704565b5060010190565b634e487b7160e01b600052602160045260246000fd5b60006001600160a01b03808716835280861660208401525083604083015260806060830152614ccb60808301846141de565b9695505050505050565b600060208284031215614ce757600080fd5b81516141ab8161417856fea264697066735822122000665cbcd953bdf7dbfee4e9ae2406e38b0e0e555832e113e1e9f57061c3926264736f6c63430008090033496e697469616c697a61626c653a20636f6e747261637420697320616c726561",
  "linkReferences": {},
  "deployedLinkReferences": {}
}