{
  "_format": "hh-sol-artifact-1",
  "contractName": "Factory",
  "sourceName": "contracts/Factory.sol",
  "abi": [
    {
      "inputs": [],
      "stateMutability": "nonpayable",
      "type": "constructor"
    },
    {
      "anonymous": false,
      "inputs": [
        {
          "indexed": true,
          "internalType": "address",
          "name": "previousOwner",
          "type": "address"
        },
        {
          "indexed": true,
          "internalType": "address",
          "name": "newOwner",
          "type": "address"
        }
      ],
      "name": "OwnershipTransferred",
      "type": "event"
    },
    {
      "inputs": [
        {
          "internalType": "address",
          "name": "creator",
          "type": "address"
        },
        {
          "internalType": "uint256",
          "name": "start",
          "type": "uint256"
        },
        {
          "internalType": "uint256",
          "name": "count",
          "type": "uint256"
        }
      ],
      "name": "find",
      "outputs": [
        {
          "internalType": "address[]",
          "name": "",
          "type": "address[]"
        }
      ],
      "stateMutability": "view",
      "type": "function"
    },
    {
      "inputs": [
        {
          "internalType": "uint256",
          "name": "_index",
          "type": "uint256"
        },
        {
          "internalType": "string",
          "name": "name",
          "type": "string"
        },
        {
          "internalType": "string",
          "name": "symbol",
          "type": "string"
        }
      ],
      "name": "genesis",
      "outputs": [
        {
          "internalType": "address",
          "name": "",
          "type": "address"
        }
      ],
      "stateMutability": "payable",
      "type": "function"
    },
    {
      "inputs": [],
      "name": "implementation",
      "outputs": [
        {
          "internalType": "address",
          "name": "",
          "type": "address"
        }
      ],
      "stateMutability": "view",
      "type": "function"
    },
    {
      "inputs": [],
      "name": "owner",
      "outputs": [
        {
          "internalType": "address",
          "name": "",
          "type": "address"
        }
      ],
      "stateMutability": "view",
      "type": "function"
    },
    {
      "inputs": [],
      "name": "renounceOwnership",
      "outputs": [],
      "stateMutability": "nonpayable",
      "type": "function"
    },
    {
      "inputs": [
        {
          "internalType": "address",
          "name": "newOwner",
          "type": "address"
        }
      ],
      "name": "transferOwnership",
      "outputs": [],
      "stateMutability": "nonpayable",
      "type": "function"
    }
  ],
  "bytecode": "0x60a06040523480156200001157600080fd5b506040516001906200002390620002ad565b8190604051809103906000f590508015801562000044573d6000803e3d6000fd5b506001600160a01b03166080526200005b62000061565b620002bb565b600054610100900460ff16806200007b575060005460ff16155b620000d35760405162461bcd60e51b815260206004820152602e60248201526000805160206200605283398151915260448201526d191e481a5b9a5d1a585b1a5e995960921b60648201526084015b60405180910390fd5b600054610100900460ff16158015620000f6576000805461ffff19166101011790555b6200010062000120565b6200010a620001c5565b80156200011d576000805461ff00191690555b50565b600054610100900460ff16806200013a575060005460ff16155b6200018e5760405162461bcd60e51b815260206004820152602e60248201526000805160206200605283398151915260448201526d191e481a5b9a5d1a585b1a5e995960921b6064820152608401620000ca565b600054610100900460ff161580156200010a576000805461ffff191661010117905580156200011d576000805461ff001916905550565b600054610100900460ff1680620001df575060005460ff16155b620002335760405162461bcd60e51b815260206004820152602e60248201526000805160206200605283398151915260448201526d191e481a5b9a5d1a585b1a5e995960921b6064820152608401620000ca565b600054610100900460ff1615801562000256576000805461ffff19166101011790555b6200010a33603380546001600160a01b038381166001600160a01b0319831681179093556040519116919082907f8be0079c531659141344cd1fd0a4f28419497f9722a3daafe3b4186f6b6457e090600090a35050565b6154158062000c3d83390190565b608051610959620002e46000396000818160ac01528181610199015261037701526109596000f3fe6080604052600436106100655760003560e01c8063715018a611610043578063715018a6146100fb5780638da5cb5b14610112578063f2fde38b1461013057600080fd5b80634d51709d1461006a5780635c60da1b1461009a5780635f8745cb146100ce575b600080fd5b61007d610078366004610722565b610150565b6040516001600160a01b0390911681526020015b60405180910390f35b3480156100a657600080fd5b5061007d7f000000000000000000000000000000000000000000000000000000000000000081565b3480156100da57600080fd5b506100ee6100e93660046107b8565b6102d4565b60405161009191906107eb565b34801561010757600080fd5b506101106103e2565b005b34801561011e57600080fd5b506033546001600160a01b031661007d565b34801561013c57600080fd5b5061011061014b366004610838565b61044d565b6040516bffffffffffffffffffffffff193360601b16602082015260348101869052600090819060540160405160208183030381529060405280519060200120905060006101be7f00000000000000000000000000000000000000000000000000000000000000008361052f565b6040517f4cd88b7600000000000000000000000000000000000000000000000000000000815290915081906001600160a01b03821690634cd88b769061020e908b908b908b908b9060040161087c565b600060405180830381600087803b15801561022857600080fd5b505af115801561023c573d6000803e3d6000fd5b50505050806001600160a01b031663f2fde38b6102563390565b6040517fffffffff0000000000000000000000000000000000000000000000000000000060e084901b1681526001600160a01b039091166004820152602401600060405180830381600087803b1580156102af57600080fd5b505af11580156102c3573d6000803e3d6000fd5b50939b9a5050505050505050505050565b606060008267ffffffffffffffff8111156102f1576102f16108ae565b60405190808252806020026020018201604052801561031a578160200160208202803683370190505b50905060005b838110156103d95760008661033587846108da565b60405160609290921b6bffffffffffffffffffffffff19166020830152603482015260540160405160208183030381529060405280519060200120905061039c7f0000000000000000000000000000000000000000000000000000000000000000826105ec565b8383815181106103ae576103ae6108f2565b6001600160a01b039092166020928302919091019091015250806103d181610908565b915050610320565b50949350505050565b6033546001600160a01b031633146104415760405162461bcd60e51b815260206004820181905260248201527f4f776e61626c653a2063616c6c6572206973206e6f7420746865206f776e657260448201526064015b60405180910390fd5b61044b600061066f565b565b6033546001600160a01b031633146104a75760405162461bcd60e51b815260206004820181905260248201527f4f776e61626c653a2063616c6c6572206973206e6f7420746865206f776e65726044820152606401610438565b6001600160a01b0381166105235760405162461bcd60e51b815260206004820152602660248201527f4f776e61626c653a206e6577206f776e657220697320746865207a65726f206160448201527f64647265737300000000000000000000000000000000000000000000000000006064820152608401610438565b61052c8161066f565b50565b60006040517f3d602d80600a3d3981f3363d3d373d3d3d363d7300000000000000000000000081528360601b60148201527f5af43d82803e903d91602b57fd5bf300000000000000000000000000000000006028820152826037826000f59150506001600160a01b0381166105e65760405162461bcd60e51b815260206004820152601760248201527f455243313136373a2063726561746532206661696c65640000000000000000006044820152606401610438565b92915050565b60006106688383306040517f3d602d80600a3d3981f3363d3d373d3d3d363d730000000000000000000000008152606093841b60148201527f5af43d82803e903d91602b57fd5bf3ff000000000000000000000000000000006028820152921b6038830152604c8201526037808220606c830152605591012090565b9392505050565b603380546001600160a01b038381167fffffffffffffffffffffffff0000000000000000000000000000000000000000831681179093556040519116919082907f8be0079c531659141344cd1fd0a4f28419497f9722a3daafe3b4186f6b6457e090600090a35050565b60008083601f8401126106eb57600080fd5b50813567ffffffffffffffff81111561070357600080fd5b60208301915083602082850101111561071b57600080fd5b9250929050565b60008060008060006060868803121561073a57600080fd5b85359450602086013567ffffffffffffffff8082111561075957600080fd5b61076589838a016106d9565b9096509450604088013591508082111561077e57600080fd5b5061078b888289016106d9565b969995985093965092949392505050565b80356001600160a01b03811681146107b357600080fd5b919050565b6000806000606084860312156107cd57600080fd5b6107d68461079c565b95602085013595506040909401359392505050565b6020808252825182820181905260009190848201906040850190845b8181101561082c5783516001600160a01b031683529284019291840191600101610807565b50909695505050505050565b60006020828403121561084a57600080fd5b6106688261079c565b81835281816020850137506000828201602090810191909152601f909101601f19169091010190565b604081526000610890604083018688610853565b82810360208401526108a3818587610853565b979650505050505050565b634e487b7160e01b600052604160045260246000fd5b634e487b7160e01b600052601160045260246000fd5b600082198211156108ed576108ed6108c4565b500190565b634e487b7160e01b600052603260045260246000fd5b600060001982141561091c5761091c6108c4565b506001019056fea2646970667358221220138d9b9b271761c9c1a884e569e35ef53fc270c53415de28eb859c06cf9afe5364736f6c63430008090033608060405234801561001057600080fd5b506153f5806100206000396000f3fe60806040526004361061021d5760003560e01c8063715018a61161011d578063c19d93fb116100b0578063ceb07baf1161007f578063e8ae58c711610064578063e8ae58c714610706578063e985e9c514610719578063f2fde38b1461076257600080fd5b8063ceb07baf1461067a578063e814cb711461068d57600080fd5b8063c19d93fb146105c3578063c87b56dd146105da578063ccc0b1ec146105fa578063cdc184241461062e57600080fd5b8063a22cb465116100ec578063a22cb46514610543578063a9e966b714610563578063b80f55c914610583578063b88d4fde146105a357600080fd5b8063715018a6146104b95780638da5cb5b146104ce57806393d19f6d146104ec57806395d89b411461052e57600080fd5b80632e1a7d4d116101b05780634fc41a421161017f5780636352211e116101645780636352211e146104645780636c0360eb1461048457806370a082311461049957600080fd5b80634fc41a421461042457806355f804b31461044457600080fd5b80632e1a7d4d146103b157806335c93885146103c457806342842e0e146103e45780634cd88b761461040457600080fd5b80631bf673e5116101ec5780631bf673e5146102da57806323250cae1461031c57806323b872dd146103525780632a55205a1461037257600080fd5b806301ffc9a71461022957806306fdde031461025e578063081812fc14610280578063095ea7b3146102b857600080fd5b3661022457005b600080fd5b34801561023557600080fd5b5061024961024436600461481c565b610782565b60405190151581526020015b60405180910390f35b34801561026a57600080fd5b506102736107c6565b6040516102559190614898565b34801561028c57600080fd5b506102a061029b3660046148ab565b610858565b6040516001600160a01b039091168152602001610255565b3480156102c457600080fd5b506102d86102d33660046148d9565b6108f2565b005b3480156102e657600080fd5b5061030e7f94b14eff88f14930c4efe0ea7a2d2d1106aa949bb3eceb7aa36e1c8bc13b7d0881565b604051908152602001610255565b34801561032857600080fd5b506102a06103373660046148ab565b60ff602052600090815260409020546001600160a01b031681565b34801561035e57600080fd5b506102d861036d366004614905565b610a24565b34801561037e57600080fd5b5061039261038d366004614946565b610aac565b604080516001600160a01b039093168352602083019190915201610255565b6102d86103bf3660046148ab565b610b17565b3480156103d057600080fd5b506102d86103df3660046149aa565b610c78565b3480156103f057600080fd5b506102d86103ff366004614905565b610d7e565b34801561041057600080fd5b506102d861041f3660046149aa565b610d99565b34801561043057600080fd5b506102d861043f366004614a16565b610f23565b34801561045057600080fd5b506102d861045f366004614a2e565b611023565b34801561047057600080fd5b506102a061047f3660046148ab565b611119565b34801561049057600080fd5b506102736111a4565b3480156104a557600080fd5b5061030e6104b4366004614a70565b611233565b3480156104c557600080fd5b506102d86112cd565b3480156104da57600080fd5b506097546001600160a01b03166102a0565b3480156104f857600080fd5b5061051c6105073660046148ab565b60fe6020526000908152604090205460ff1681565b60405160ff9091168152602001610255565b34801561053a57600080fd5b50610273611333565b34801561054f57600080fd5b506102d861055e366004614a9b565b611342565b34801561056f57600080fd5b506102d861057e3660046148ab565b611407565b34801561058f57600080fd5b506102d861059e366004614b19565b6114e9565b3480156105af57600080fd5b506102d86105be366004614b96565b611596565b3480156105cf57600080fd5b5061030e6101025481565b3480156105e657600080fd5b506102736105f53660046148ab565b611624565b34801561060657600080fd5b5061030e7f954c1d8f09b9215ba6e899aa39caccf19c7a0fd723d987a32331e801993c60b581565b34801561063a57600080fd5b506101005461065b906001600160a01b03811690600160a01b900460ff1682565b604080516001600160a01b039093168352901515602083015201610255565b6102d8610688366004614c5a565b6119a7565b34801561069957600080fd5b506106da6106a83660046148ab565b60fd602052600090815260409020546001600160a01b03811690600160a01b90046bffffffffffffffffffffffff1682565b604080516001600160a01b0390931683526bffffffffffffffffffffffff909116602083015201610255565b6102d8610714366004614ccf565b611af1565b34801561072557600080fd5b50610249610734366004614d2f565b6001600160a01b039182166000908152606a6020908152604080832093909416825291909152205460ff1690565b34801561076e57600080fd5b506102d861077d366004614a70565b613315565b60007f2a55205a000000000000000000000000000000000000000000000000000000006001600160e01b0319831614806107c057506107c0826133f7565b92915050565b6060606580546107d590614d5d565b80601f016020809104026020016040519081016040528092919081815260200182805461080190614d5d565b801561084e5780601f106108235761010080835404028352916020019161084e565b820191906000526020600020905b81548152906001019060200180831161083157829003601f168201915b5050505050905090565b6000818152606760205260408120546001600160a01b03166108d65760405162461bcd60e51b815260206004820152602c60248201527f4552433732313a20617070726f76656420717565727920666f72206e6f6e657860448201526b34b9ba32b73a103a37b5b2b760a11b60648201526084015b60405180910390fd5b506000908152606960205260409020546001600160a01b031690565b60006108fd82611119565b9050806001600160a01b0316836001600160a01b031614156109875760405162461bcd60e51b815260206004820152602160248201527f4552433732313a20617070726f76616c20746f2063757272656e74206f776e6560448201527f720000000000000000000000000000000000000000000000000000000000000060648201526084016108cd565b336001600160a01b03821614806109a357506109a38133610734565b610a155760405162461bcd60e51b815260206004820152603860248201527f4552433732313a20617070726f76652063616c6c6572206973206e6f74206f7760448201527f6e6572206e6f7220617070726f76656420666f7220616c6c000000000000000060648201526084016108cd565b610a1f8383613492565b505050565b610a2f335b82613500565b610aa15760405162461bcd60e51b815260206004820152603160248201527f4552433732313a207472616e736665722063616c6c6572206973206e6f74206f60448201527f776e6572206e6f7220617070726f76656400000000000000000000000000000060648201526084016108cd565b610a1f8383836135f7565b600082815260fd602090815260408083208151808301909252546001600160a01b038116808352600160a01b9091046bffffffffffffffffffffffff169282018390528392620f424090610b009087614da8565b610b0a9190614dc7565b92509250505b9250929050565b6097546001600160a01b0316331480610b445750610100546001600160a01b0316336001600160a01b0316145b610b905760405162461bcd60e51b815260206004820152600260248201527f333000000000000000000000000000000000000000000000000000000000000060448201526064016108cd565b6000808211610b9f5747610ba1565b815b610100549091506000906001600160a01b031615610bcb57610100546001600160a01b0316610bd8565b6097546001600160a01b03165b6001600160a01b03168260405160006040518083038185875af1925050503d8060008114610c22576040519150601f19603f3d011682016040523d82523d6000602084013e610c27565b606091505b5050905080610a1f5760405162461bcd60e51b815260206004820152600260248201527f333100000000000000000000000000000000000000000000000000000000000060448201526064016108cd565b6097546001600160a01b03163314610cd25760405162461bcd60e51b815260206004820181905260248201527f4f776e61626c653a2063616c6c6572206973206e6f7420746865206f776e657260448201526064016108cd565b6101025415610d235760405162461bcd60e51b815260206004820152600260248201527f363000000000000000000000000000000000000000000000000000000000000060448201526064016108cd565b610d2f606585856146f9565b50610d3c606683836146f9565b507f934066d47a89bfcab72db908a0701b9145131ee303cefb44553121c73419e8dd60656066604051610d70929190614e89565b60405180910390a150505050565b610a1f83838360405180602001604052806000815250611596565b600054610100900460ff1680610db2575060005460ff16155b610e155760405162461bcd60e51b815260206004820152602e60248201527f496e697469616c697a61626c653a20636f6e747261637420697320616c72656160448201526d191e481a5b9a5d1a585b1a5e995960921b60648201526084016108cd565b600054610100900460ff16158015610e37576000805461ffff19166101011790555b610eaa85858080601f01602080910402602001604051908101604052809392919081815260200183838082843760009201919091525050604080516020601f890181900481028201810190925287815292508791508690819084018382808284376000920191909152506137c492505050565b610f0285858080601f016020809104026020016040519081016040528093929190818152602001838380828437600092019190915250506040805180820190915260018152603160f81b602082015291506138929050565b610f0a61393a565b8015610f1c576000805461ff00191690555b5050505050565b6097546001600160a01b03163314610f7d5760405162461bcd60e51b815260206004820181905260248201527f4f776e61626c653a2063616c6c6572206973206e6f7420746865206f776e657260448201526064016108cd565b61010054600160a01b900460ff1615610fd85760405162461bcd60e51b815260206004820152600260248201527f323000000000000000000000000000000000000000000000000000000000000060448201526064016108cd565b80610100610fe68282614eb7565b9050507f5d121f0c2b2c4877a2b0a1457c73ce1c28628e5705271cb91db3e49792715cf5816040516110189190614f38565b60405180910390a150565b6097546001600160a01b0316331461107d5760405162461bcd60e51b815260206004820181905260248201527f4f776e61626c653a2063616c6c6572206973206e6f7420746865206f776e657260448201526064016108cd565b61010254156110ce5760405162461bcd60e51b815260206004820152600260248201527f353000000000000000000000000000000000000000000000000000000000000060448201526064016108cd565b6110db61010183836146f9565b507f6741b2fc379fad678116fe3d4d4b9a1a184ab53ba36b86ad0fa66340b1ab41ad828260405161110d929190614f6f565b60405180910390a15050565b6000818152606760205260408120546001600160a01b0316806107c05760405162461bcd60e51b815260206004820152602960248201527f4552433732313a206f776e657220717565727920666f72206e6f6e657869737460448201527f656e7420746f6b656e000000000000000000000000000000000000000000000060648201526084016108cd565b61010180546111b290614d5d565b80601f01602080910402602001604051908101604052809291908181526020018280546111de90614d5d565b801561122b5780601f106112005761010080835404028352916020019161122b565b820191906000526020600020905b81548152906001019060200180831161120e57829003601f168201915b505050505081565b60006001600160a01b0382166112b15760405162461bcd60e51b815260206004820152602a60248201527f4552433732313a2062616c616e636520717565727920666f7220746865207a6560448201527f726f20616464726573730000000000000000000000000000000000000000000060648201526084016108cd565b506001600160a01b031660009081526068602052604090205490565b6097546001600160a01b031633146113275760405162461bcd60e51b815260206004820181905260248201527f4f776e61626c653a2063616c6c6572206973206e6f7420746865206f776e657260448201526064016108cd565b61133160006139fc565b565b6060606680546107d590614d5d565b6001600160a01b03821633141561139b5760405162461bcd60e51b815260206004820152601960248201527f4552433732313a20617070726f766520746f2063616c6c65720000000000000060448201526064016108cd565b336000818152606a602090815260408083206001600160a01b03871680855290835292819020805460ff191686151590811790915590519081529192917f17307eab39ab6107e8899845ad3d59bd9653f200f220920489ca2b5937696c31910160405180910390a35050565b6097546001600160a01b031633146114615760405162461bcd60e51b815260206004820181905260248201527f4f776e61626c653a2063616c6c6572206973206e6f7420746865206f776e657260448201526064016108cd565b61010254600214156114b55760405162461bcd60e51b815260206004820152600260248201527f343000000000000000000000000000000000000000000000000000000000000060448201526064016108cd565b61010281905560405181907f118f8ba10d647100925b2343f3030d110623f17b284ced4316cbe4b8f138883f90600090a250565b60005b81811015610a1f57600083838381811061150857611508614f9e565b90506020020135905061151b610a293390565b6115675760405162461bcd60e51b815260206004820152600260248201527f313500000000000000000000000000000000000000000000000000000000000060448201526064016108cd565b61157081613a4e565b600090815260ff6020526040902080546001600160a01b031916331790556001016114ec565b6115a03383613500565b6116125760405162461bcd60e51b815260206004820152603160248201527f4552433732313a207472616e736665722063616c6c6572206973206e6f74206f60448201527f776e6572206e6f7220617070726f76656400000000000000000000000000000060648201526084016108cd565b61161e84848484613ae9565b50505050565b6000818152606760205260409020546060906001600160a01b03166116b15760405162461bcd60e51b815260206004820152602f60248201527f4552433732314d657461646174613a2055524920717565727920666f72206e6f60448201527f6e6578697374656e7420746f6b656e000000000000000000000000000000000060648201526084016108cd565b6040805180820190915260208082527f6162636465666768696a6b6c6d6e6f707172737475767778797a3233343536379082015261010180548492916000918291906116fc90614d5d565b90501161173e576040518060400160405280600781526020017f697066733a2f2f000000000000000000000000000000000000000000000000008152506117cb565b610101805461174c90614d5d565b80601f016020809104026020016040519081016040528092919081815260200182805461177890614d5d565b80156117c55780601f1061179a576101008083540402835291602001916117c5565b820191906000526020600020905b8154815290600101906020018083116117a857829003601f168201915b50505050505b600086815260fe602052604081205491925090829060ff1615611823576040518060400160405280600781526020017f626166796265690000000000000000000000000000000000000000000000000081525061185a565b6040518060400160405280600781526020017f6261666b726569000000000000000000000000000000000000000000000000008152505b60405160200161186b929190614fb4565b60408051601f198184030181529190529050600263017012206005600061189460016020614fe3565b905060005b60208110156119435760006118af826008614da8565b8c901b60f881901c600896871b63ffffff001617959091506118d19087614ffa565b95505b83861115611932576118e68487614fe3565b955086898787901c85168151811061190057611900614f9e565b602001015160f81c60f81b60405160200161191c929190615012565b60405160208183030381529060405296506118d4565b5061193c81615059565b9050611899565b5083156119995784876119568685614fe3565b85901b83168151811061196b5761196b614f9e565b602001015160f81c60f81b604051602001611987929190615012565b60405160208183030381529060405294505b509298975050505050505050565b6097546001600160a01b03163314611a015760405162461bcd60e51b815260206004820181905260248201527f4f776e61626c653a2063616c6c6572206973206e6f7420746865206f776e657260448201526064016108cd565b60005b81811015610a1f5736838383818110611a1f57611a1f614f9e565b905060a002019050611a44816020016020810190611a3d9190614a70565b8235613b72565b6000611a566060830160408401614a70565b6001600160a01b031614611ae8576040518060400160405280826040016020810190611a829190614a70565b6001600160a01b03168152602001611aa06080840160608501615074565b6bffffffffffffffffffffffff9081169091528235600090815260fd6020908152604090912083519390910151909116600160a01b026001600160a01b039092169190911790555b50600101611a04565b6101025415611b425760405162461bcd60e51b815260206004820152600160248201527f300000000000000000000000000000000000000000000000000000000000000060448201526064016108cd565b6000805b848110156132c55736868683818110611b6157611b61614f9e565b9050602002810190611b7391906150a2565b905036858584818110611b8857611b88614f9e565b9050602002810190611b9a91906150c3565b8235600090815260ff60205260409020549091506001600160a01b031615611be85760405162461bcd60e51b81526020600482015260016024820152603160f81b60448201526064016108cd565b611bf66101608301836150d9565b1590508015611c125750611c0e6101808301836150d9565b1590505b8015611c2b5750611c276101a08301836150d9565b1590505b15611eac5760007f954c1d8f09b9215ba6e899aa39caccf19c7a0fd723d987a32331e801993c60b58335611c6560a0860160808701615138565b611c7560c0870160a08801614a70565b611c8560e0880160c08901614a70565b611c956040890160208a01615153565b611ca560608a0160408b01615185565b611cb560808b0160608c01615185565b60408051602081019990995288019690965260ff90941660608701526001600160a01b039283166080870152911660a08501526fffffffffffffffffffffffffffffffff1660c084015267ffffffffffffffff90811660e0840152166101008201526101200160408051601f19818403018152919052611d3c610100850160e08601614a70565b611d4e61012086016101008701615074565b604080516001600160a01b0390931660208401526bffffffffffffffffffffffff90911690820152610120850135606082015261014085013560808201527fc5d2460186f7233c927e7db2dcc703c0e500b653ca82273b7bfad8045d85a47060a0820181905260c0820181905260e08201526101000160408051601f1981840301815290829052611de29291602001614fb4565b604051602081830303815290604052805190602001209050611e0c6097546001600160a01b031690565b6001600160a01b0316611e6c611e266101c08601866151af565b8080601f016020809104026020016040519081016040528093929190818152602001838380828437600092019190915250611e669250869150613cb49050565b90613d1d565b6001600160a01b031614611ea65760405162461bcd60e51b81526020600482015260016024820152601960f91b60448201526064016108cd565b506126f5565b6000604051806060016040528084806101600190611eca91906150d9565b905067ffffffffffffffff811115611ee457611ee4614b4f565b604051908082528060200260200182016040528015611f0d578160200160208202803683370190505b508152602001611f216101808601866150d9565b905067ffffffffffffffff811115611f3b57611f3b614b4f565b604051908082528060200260200182016040528015611f64578160200160208202803683370190505b508152602001611f786101a08601866150d9565b905067ffffffffffffffff811115611f9257611f92614b4f565b604051908082528060200260200182016040528015611fbb578160200160208202803683370190505b50905290506000611fd06101608501856150d9565b9050111561211b5760005b611fe96101608501856150d9565b9050811015612119577f94b14eff88f14930c4efe0ea7a2d2d1106aa949bb3eceb7aa36e1c8bc13b7d086120216101608601866150d9565b8381811061203157612031614f9e565b6120479260206060909202019081019150615138565b6120556101608701876150d9565b8481811061206557612065614f9e565b905060600201602001602081019061207d9190614a70565b61208b6101608801886150d9565b8581811061209b5761209b614f9e565b905060600201604001356040516020016120da949392919093845260ff9290921660208401526001600160a01b03166040830152606082015260800190565b604051602081830303815290604052805190602001208260000151828151811061210657612106614f9e565b6020908102919091010152600101611fdb565b505b600061212b6101808501856150d9565b905011156122765760005b6121446101808501856150d9565b9050811015612274577f94b14eff88f14930c4efe0ea7a2d2d1106aa949bb3eceb7aa36e1c8bc13b7d0861217c6101808601866150d9565b8381811061218c5761218c614f9e565b6121a29260206060909202019081019150615138565b6121b06101808701876150d9565b848181106121c0576121c0614f9e565b90506060020160200160208101906121d89190614a70565b6121e66101808801886150d9565b858181106121f6576121f6614f9e565b90506060020160400135604051602001612235949392919093845260ff9290921660208401526001600160a01b03166040830152606082015260800190565b604051602081830303815290604052805190602001208260200151828151811061226157612261614f9e565b6020908102919091010152600101612136565b505b60006122866101a08501856150d9565b905011156123d15760005b61229f6101a08501856150d9565b90508110156123cf577f94b14eff88f14930c4efe0ea7a2d2d1106aa949bb3eceb7aa36e1c8bc13b7d086122d76101a08601866150d9565b838181106122e7576122e7614f9e565b6122fd9260206060909202019081019150615138565b61230b6101a08701876150d9565b8481811061231b5761231b614f9e565b90506060020160200160208101906123339190614a70565b6123416101a08801886150d9565b8581811061235157612351614f9e565b90506060020160400135604051602001612390949392919093845260ff9290921660208401526001600160a01b03166040830152606082015260800190565b60405160208183030381529060405280519060200120826040015182815181106123bc576123bc614f9e565b6020908102919091010152600101612291565b505b60007f954c1d8f09b9215ba6e899aa39caccf19c7a0fd723d987a32331e801993c60b5843561240660a0870160808801615138565b61241660c0880160a08901614a70565b61242660e0890160c08a01614a70565b61243660408a0160208b01615153565b61244660608b0160408c01615185565b61245660808c0160608d01615185565b6124676101008d0160e08e01614a70565b6124796101208e016101008f01615074565b60408051602081019b909b528a019890985260ff90961660608901526001600160a01b03948516608089015292841660a08801526fffffffffffffffffffffffffffffffff90911660c087015267ffffffffffffffff90811660e08701521661010085015216610120838101919091526bffffffffffffffffffffffff90911661014083810191909152908601356101608301528501356101808201526101a00160408051601f19818403018152919052825151612557577fc5d2460186f7233c927e7db2dcc703c0e500b653ca82273b7bfad8045d85a470612580565b825160405161256991906020016151f6565b604051602081830303815290604052805190602001205b6000846020015151116125b3577fc5d2460186f7233c927e7db2dcc703c0e500b653ca82273b7bfad8045d85a4706125dd565b6020808501516040516125c692016151f6565b604051602081830303815290604052805190602001205b600085604001515111612610577fc5d2460186f7233c927e7db2dcc703c0e500b653ca82273b7bfad8045d85a47061263c565b846040015160405160200161262591906151f6565b604051602081830303815290604052805190602001205b604080516020810194909452830191909152606082015260800160408051601f19818403018152908290526126749291602001614fb4565b60405160208183030381529060405280519060200120905061269e6097546001600160a01b031690565b6001600160a01b03166126b8611e266101c08701876151af565b6001600160a01b0316146126f25760405162461bcd60e51b81526020600482015260016024820152601960f91b60448201526064016108cd565b50505b600061270760c0840160a08501614a70565b6001600160a01b03161461277c573361272660c0840160a08501614a70565b6001600160a01b03161461277c5760405162461bcd60e51b815260206004820152600160248201527f330000000000000000000000000000000000000000000000000000000000000060448201526064016108cd565b4261278d6060840160408501615185565b67ffffffffffffffff1611156127e55760405162461bcd60e51b815260206004820152600160248201527f340000000000000000000000000000000000000000000000000000000000000060448201526064016108cd565b426127f66080840160608501615185565b67ffffffffffffffff16101561284e5760405162461bcd60e51b815260206004820152600160248201527f350000000000000000000000000000000000000000000000000000000000000060448201526064016108cd565b610140820135156128e957600061286860208301836151af565b905011801561289d575061014082013561288560208301836151af565b60405161289392919061522c565b6040518091039020145b6128e95760405162461bcd60e51b815260206004820152600160248201527f360000000000000000000000000000000000000000000000000000000000000060448201526064016108cd565b61012082013515612975576000612903604083018361523c565b90501180156129295750612929610120830135612923604084018461523c565b33613d41565b6129755760405162461bcd60e51b815260206004820152600160248201527f370000000000000000000000000000000000000000000000000000000000000060448201526064016108cd565b60008061298860e0850160c08601614a70565b6001600160a01b031614156129a9576129a46020830183614a70565b6129b9565b6129b960e0840160c08501614a70565b90506129fa6040518060400160405280600d81526020017f7265636569766572203d2025730000000000000000000000000000000000000081525082613e1f565b6000612a0a6101608501856150d9565b90501115612cd75760005b612a236101608501856150d9565b9050811015612cd5576000612a3c6101608601866150d9565b83818110612a4c57612a4c614f9e565b905060600201803603810190612a629190615286565b60208101519091506001600160a01b0316612b2257805160ff16612ad257604081810151600090815260ff60205220546001600160a01b03163314612acd5760405162461bcd60e51b81526020600482015260016024820152600760fb1b60448201526064016108cd565b612ccc565b604081810151600090815260ff60205220546001600160a01b03848116911614612acd5760405162461bcd60e51b81526020600482015260016024820152600760fb1b60448201526064016108cd565b805160ff16612c0257602081015160408083015190517f23250cae000000000000000000000000000000000000000000000000000000008152600481019190915233916001600160a01b0316906323250cae9060240160206040518083038186803b158015612b9057600080fd5b505afa158015612ba4573d6000803e3d6000fd5b505050506040513d601f19601f82011682018060405250810190612bc891906152ef565b6001600160a01b031614612acd5760405162461bcd60e51b81526020600482015260016024820152600760fb1b60448201526064016108cd565b826001600160a01b031681602001516001600160a01b03166323250cae83604001516040518263ffffffff1660e01b8152600401612c4291815260200190565b60206040518083038186803b158015612c5a57600080fd5b505afa158015612c6e573d6000803e3d6000fd5b505050506040513d601f19601f82011682018060405250810190612c9291906152ef565b6001600160a01b031614612ccc5760405162461bcd60e51b81526020600482015260016024820152600760fb1b60448201526064016108cd565b50600101612a15565b505b6000612ce76101808501856150d9565b90501115612f455760005b612d006101808501856150d9565b9050811015612f43576000612d196101808601866150d9565b83818110612d2957612d29614f9e565b905060600201803603810190612d3f9190615286565b60208101519091506001600160a01b0316612dca57805160ff16612db357336001600160a01b0316612d748260400151611119565b6001600160a01b031614612dae5760405162461bcd60e51b81526020600482015260016024820152603960f81b60448201526064016108cd565b612f3a565b826001600160a01b0316612d748260400151611119565b805160ff16612e7057602081015160408083015190517f6352211e000000000000000000000000000000000000000000000000000000008152600481019190915233916001600160a01b031690636352211e9060240160206040518083038186803b158015612e3857600080fd5b505afa158015612e4c573d6000803e3d6000fd5b505050506040513d601f19601f82011682018060405250810190612d7491906152ef565b826001600160a01b031681602001516001600160a01b0316636352211e83604001516040518263ffffffff1660e01b8152600401612eb091815260200190565b60206040518083038186803b158015612ec857600080fd5b505afa158015612edc573d6000803e3d6000fd5b505050506040513d601f19601f82011682018060405250810190612f0091906152ef565b6001600160a01b031614612f3a5760405162461bcd60e51b81526020600482015260016024820152603960f81b60448201526064016108cd565b50600101612cf2565b505b6000612f556101a08501856150d9565b905011156131965760005b612f6e6101a08501856150d9565b9050811015613194576000612f876101a08601866150d9565b83818110612f9757612f97614f9e565b905060600201803603810190612fad9190615286565b60208101519091506001600160a01b031661301f57805160ff16613011576040810151612fd933611233565b101561300c5760405162461bcd60e51b8152602060048201526002602482015261031360f41b60448201526064016108cd565b61318b565b8060400151612fd984611233565b805160ff166130b857604081015160208201516001600160a01b03166370a08231336040516001600160e01b031960e084901b1681526001600160a01b03909116600482015260240160206040518083038186803b15801561308057600080fd5b505afa158015613094573d6000803e3d6000fd5b505050506040513d601f19601f82011682018060405250810190612fd9919061530c565b604080820151602083015191517f70a082310000000000000000000000000000000000000000000000000000000081526001600160a01b038681166004830152919291909116906370a082319060240160206040518083038186803b15801561312057600080fd5b505afa158015613134573d6000803e3d6000fd5b505050506040513d601f19601f82011682018060405250810190613158919061530c565b101561318b5760405162461bcd60e51b8152602060048201526002602482015261031360f41b60448201526064016108cd565b50600101612f60565b505b6131a660a0840160808501615138565b60ff16156131e1576131be60a0840160808501615138565b8335600090815260fe60205260409020805460ff191660ff929092169190911790555b60006131f4610100850160e08601614a70565b6001600160a01b03161461328657604080518082019091528061321e610100860160e08701614a70565b6001600160a01b0316815260200161323e61012086016101008701615074565b6bffffffffffffffffffffffff9081169091528435600090815260fd6020908152604090912083519390910151909116600160a01b026001600160a01b039092169190911790555b613291818435613b72565b6132a16040840160208501615153565b6fffffffffffffffffffffffffffffffff1685019450836001019350505050611b46565b50348114610f1c5760405162461bcd60e51b815260206004820152600260248201527f313100000000000000000000000000000000000000000000000000000000000060448201526064016108cd565b6097546001600160a01b0316331461336f5760405162461bcd60e51b815260206004820181905260248201527f4f776e61626c653a2063616c6c6572206973206e6f7420746865206f776e657260448201526064016108cd565b6001600160a01b0381166133eb5760405162461bcd60e51b815260206004820152602660248201527f4f776e61626c653a206e6577206f776e657220697320746865207a65726f206160448201527f646472657373000000000000000000000000000000000000000000000000000060648201526084016108cd565b6133f4816139fc565b50565b60006001600160e01b031982167f80ac58cd00000000000000000000000000000000000000000000000000000000148061345a57506001600160e01b031982167f5b5e139f00000000000000000000000000000000000000000000000000000000145b806107c057507f01ffc9a7000000000000000000000000000000000000000000000000000000006001600160e01b03198316146107c0565b600081815260696020526040902080546001600160a01b0319166001600160a01b03841690811790915581906134c782611119565b6001600160a01b03167f8c5be1e5ebec7d5bd14f71427d1e84f3dd0314c0f7b2291e5b200ac8c7c3b92560405160405180910390a45050565b6000818152606760205260408120546001600160a01b03166135795760405162461bcd60e51b815260206004820152602c60248201527f4552433732313a206f70657261746f7220717565727920666f72206e6f6e657860448201526b34b9ba32b73a103a37b5b2b760a11b60648201526084016108cd565b600061358483611119565b9050806001600160a01b0316846001600160a01b031614806135bf5750836001600160a01b03166135b484610858565b6001600160a01b0316145b806135ef57506001600160a01b038082166000908152606a602090815260408083209388168352929052205460ff165b949350505050565b826001600160a01b031661360a82611119565b6001600160a01b0316146136865760405162461bcd60e51b815260206004820152602960248201527f4552433732313a207472616e73666572206f6620746f6b656e2074686174206960448201527f73206e6f74206f776e000000000000000000000000000000000000000000000060648201526084016108cd565b6001600160a01b0382166137015760405162461bcd60e51b8152602060048201526024808201527f4552433732313a207472616e7366657220746f20746865207a65726f2061646460448201527f726573730000000000000000000000000000000000000000000000000000000060648201526084016108cd565b61370c600082613492565b6001600160a01b0383166000908152606860205260408120805460019290613735908490614fe3565b90915550506001600160a01b0382166000908152606860205260408120805460019290613763908490614ffa565b909155505060008181526067602052604080822080546001600160a01b0319166001600160a01b0386811691821790925591518493918716917fddf252ad1be2c89b69c2b068fc378daa952ba7f163c4a11628f55a4df523b3ef91a4505050565b600054610100900460ff16806137dd575060005460ff16155b6138405760405162461bcd60e51b815260206004820152602e60248201527f496e697469616c697a61626c653a20636f6e747261637420697320616c72656160448201526d191e481a5b9a5d1a585b1a5e995960921b60648201526084016108cd565b600054610100900460ff16158015613862576000805461ffff19166101011790555b61386a613e96565b613872613e96565b61387c8383613f47565b8015610a1f576000805461ff0019169055505050565b600054610100900460ff16806138ab575060005460ff16155b61390e5760405162461bcd60e51b815260206004820152602e60248201527f496e697469616c697a61626c653a20636f6e747261637420697320616c72656160448201526d191e481a5b9a5d1a585b1a5e995960921b60648201526084016108cd565b600054610100900460ff16158015613930576000805461ffff19166101011790555b61387c8383614023565b600054610100900460ff1680613953575060005460ff16155b6139b65760405162461bcd60e51b815260206004820152602e60248201527f496e697469616c697a61626c653a20636f6e747261637420697320616c72656160448201526d191e481a5b9a5d1a585b1a5e995960921b60648201526084016108cd565b600054610100900460ff161580156139d8576000805461ffff19166101011790555b6139e0613e96565b6139e86140f4565b80156133f4576000805461ff001916905550565b609780546001600160a01b038381166001600160a01b0319831681179093556040519116919082907f8be0079c531659141344cd1fd0a4f28419497f9722a3daafe3b4186f6b6457e090600090a35050565b6000613a5982611119565b9050613a66600083613492565b6001600160a01b0381166000908152606860205260408120805460019290613a8f908490614fe3565b909155505060008281526067602052604080822080546001600160a01b0319169055518391906001600160a01b038416907fddf252ad1be2c89b69c2b068fc378daa952ba7f163c4a11628f55a4df523b3ef908390a45050565b613af48484846135f7565b613b008484848461419b565b61161e5760405162461bcd60e51b815260206004820152603260248201527f4552433732313a207472616e7366657220746f206e6f6e20455243373231526560448201527f63656976657220696d706c656d656e746572000000000000000000000000000060648201526084016108cd565b6001600160a01b038216613bc85760405162461bcd60e51b815260206004820181905260248201527f4552433732313a206d696e7420746f20746865207a65726f206164647265737360448201526064016108cd565b6000818152606760205260409020546001600160a01b031615613c2d5760405162461bcd60e51b815260206004820152601c60248201527f4552433732313a20746f6b656e20616c7265616479206d696e7465640000000060448201526064016108cd565b6001600160a01b0382166000908152606860205260408120805460019290613c56908490614ffa565b909155505060008181526067602052604080822080546001600160a01b0319166001600160a01b03861690811790915590518392907fddf252ad1be2c89b69c2b068fc378daa952ba7f163c4a11628f55a4df523b3ef908290a45050565b60006107c0613cc16142fb565b836040517f19010000000000000000000000000000000000000000000000000000000000006020820152602281018390526042810182905260009060620160405160208183030381529060405280519060200120905092915050565b6000806000613d2c858561437b565b91509150613d39816143e8565b509392505050565b6040516bffffffffffffffffffffffff19606083901b166020820152600090819060340160405160208183030381529060405280519060200120905060005b84811015613e13576000868683818110613d9c57613d9c614f9e565b905060200201359050808311613ddd576040805160208101859052908101829052606001604051602081830303815290604052805190602001209250613e0a565b60408051602081018390529081018490526060016040516020818303038152906040528051906020012092505b50600101613d80565b50909414949350505050565b613e928282604051602401613e35929190615325565b60408051601f198184030181529190526020810180517bffffffffffffffffffffffffffffffffffffffffffffffffffffffff167f319af333000000000000000000000000000000000000000000000000000000001790526145a3565b5050565b600054610100900460ff1680613eaf575060005460ff16155b613f125760405162461bcd60e51b815260206004820152602e60248201527f496e697469616c697a61626c653a20636f6e747261637420697320616c72656160448201526d191e481a5b9a5d1a585b1a5e995960921b60648201526084016108cd565b600054610100900460ff161580156139e8576000805461ffff191661010117905580156133f4576000805461ff001916905550565b600054610100900460ff1680613f60575060005460ff16155b613fc35760405162461bcd60e51b815260206004820152602e60248201527f496e697469616c697a61626c653a20636f6e747261637420697320616c72656160448201526d191e481a5b9a5d1a585b1a5e995960921b60648201526084016108cd565b600054610100900460ff16158015613fe5576000805461ffff19166101011790555b8251613ff890606590602086019061477d565b50815161400c90606690602085019061477d565b508015610a1f576000805461ff0019169055505050565b600054610100900460ff168061403c575060005460ff16155b61409f5760405162461bcd60e51b815260206004820152602e60248201527f496e697469616c697a61626c653a20636f6e747261637420697320616c72656160448201526d191e481a5b9a5d1a585b1a5e995960921b60648201526084016108cd565b600054610100900460ff161580156140c1576000805461ffff19166101011790555b825160208085019190912083519184019190912060c99190915560ca558015610a1f576000805461ff0019169055505050565b600054610100900460ff168061410d575060005460ff16155b6141705760405162461bcd60e51b815260206004820152602e60248201527f496e697469616c697a61626c653a20636f6e747261637420697320616c72656160448201526d191e481a5b9a5d1a585b1a5e995960921b60648201526084016108cd565b600054610100900460ff16158015614192576000805461ffff19166101011790555b6139e8336139fc565b60006001600160a01b0384163b156142f357604051630a85bd0160e11b81526001600160a01b0385169063150b7a02906141df903390899088908890600401615350565b602060405180830381600087803b1580156141f957600080fd5b505af1925050508015614229575060408051601f3d908101601f191682019092526142269181019061538c565b60015b6142d9573d808015614257576040519150601f19603f3d011682016040523d82523d6000602084013e61425c565b606091505b5080516142d15760405162461bcd60e51b815260206004820152603260248201527f4552433732313a207472616e7366657220746f206e6f6e20455243373231526560448201527f63656976657220696d706c656d656e746572000000000000000000000000000060648201526084016108cd565b805181602001fd5b6001600160e01b031916630a85bd0160e11b1490506135ef565b5060016135ef565b60006143767f8b73c3c69bb8fe3d512ecc4cf759cc79239f7b179b0ffacaa9a75d522b39400f61432a60c95490565b60ca546040805160208101859052908101839052606081018290524660808201523060a082015260009060c0016040516020818303038152906040528051906020012090509392505050565b905090565b6000808251604114156143b25760208301516040840151606085015160001a6143a6878285856145c4565b94509450505050610b10565b8251604014156143dc57602083015160408401516143d18683836146b1565b935093505050610b10565b50600090506002610b10565b60008160048111156143fc576143fc6153a9565b14156144055750565b6001816004811115614419576144196153a9565b14156144675760405162461bcd60e51b815260206004820152601860248201527f45434453413a20696e76616c6964207369676e6174757265000000000000000060448201526064016108cd565b600281600481111561447b5761447b6153a9565b14156144c95760405162461bcd60e51b815260206004820152601f60248201527f45434453413a20696e76616c6964207369676e6174757265206c656e6774680060448201526064016108cd565b60038160048111156144dd576144dd6153a9565b14156145365760405162461bcd60e51b815260206004820152602260248201527f45434453413a20696e76616c6964207369676e6174757265202773272076616c604482015261756560f01b60648201526084016108cd565b600481600481111561454a5761454a6153a9565b14156133f45760405162461bcd60e51b815260206004820152602260248201527f45434453413a20696e76616c6964207369676e6174757265202776272076616c604482015261756560f01b60648201526084016108cd565b80516a636f6e736f6c652e6c6f67602083016000808483855afa5050505050565b6000807f7fffffffffffffffffffffffffffffff5d576e7357a4501ddfe92f46681b20a08311156145fb57506000905060036146a8565b8460ff16601b1415801561461357508460ff16601c14155b1561462457506000905060046146a8565b6040805160008082526020820180845289905260ff881692820192909252606081018690526080810185905260019060a0016020604051602081039080840390855afa158015614678573d6000803e3d6000fd5b5050604051601f1901519150506001600160a01b0381166146a1576000600192509250506146a8565b9150600090505b94509492505050565b6000807f7fffffffffffffffffffffffffffffffffffffffffffffffffffffffffffffff831660ff84901c601b016146eb878288856145c4565b935093505050935093915050565b82805461470590614d5d565b90600052602060002090601f016020900481019282614727576000855561476d565b82601f106147405782800160ff1982351617855561476d565b8280016001018555821561476d579182015b8281111561476d578235825591602001919060010190614752565b506147799291506147f1565b5090565b82805461478990614d5d565b90600052602060002090601f0160209004810192826147ab576000855561476d565b82601f106147c457805160ff191683800117855561476d565b8280016001018555821561476d579182015b8281111561476d5782518255916020019190600101906147d6565b5b8082111561477957600081556001016147f2565b6001600160e01b0319811681146133f457600080fd5b60006020828403121561482e57600080fd5b813561483981614806565b9392505050565b60005b8381101561485b578181015183820152602001614843565b8381111561161e5750506000910152565b60008151808452614884816020860160208601614840565b601f01601f19169290920160200192915050565b602081526000614839602083018461486c565b6000602082840312156148bd57600080fd5b5035919050565b6001600160a01b03811681146133f457600080fd5b600080604083850312156148ec57600080fd5b82356148f7816148c4565b946020939093013593505050565b60008060006060848603121561491a57600080fd5b8335614925816148c4565b92506020840135614935816148c4565b929592945050506040919091013590565b6000806040838503121561495957600080fd5b50508035926020909101359150565b60008083601f84011261497a57600080fd5b50813567ffffffffffffffff81111561499257600080fd5b602083019150836020828501011115610b1057600080fd5b600080600080604085870312156149c057600080fd5b843567ffffffffffffffff808211156149d857600080fd5b6149e488838901614968565b909650945060208701359150808211156149fd57600080fd5b50614a0a87828801614968565b95989497509550505050565b600060408284031215614a2857600080fd5b50919050565b60008060208385031215614a4157600080fd5b823567ffffffffffffffff811115614a5857600080fd5b614a6485828601614968565b90969095509350505050565b600060208284031215614a8257600080fd5b8135614839816148c4565b80151581146133f457600080fd5b60008060408385031215614aae57600080fd5b8235614ab9816148c4565b91506020830135614ac981614a8d565b809150509250929050565b60008083601f840112614ae657600080fd5b50813567ffffffffffffffff811115614afe57600080fd5b6020830191508360208260051b8501011115610b1057600080fd5b60008060208385031215614b2c57600080fd5b823567ffffffffffffffff811115614b4357600080fd5b614a6485828601614ad4565b634e487b7160e01b600052604160045260246000fd5b604051601f8201601f1916810167ffffffffffffffff81118282101715614b8e57614b8e614b4f565b604052919050565b60008060008060808587031215614bac57600080fd5b8435614bb7816148c4565b9350602085810135614bc8816148c4565b935060408601359250606086013567ffffffffffffffff80821115614bec57600080fd5b818801915088601f830112614c0057600080fd5b813581811115614c1257614c12614b4f565b614c24601f8201601f19168501614b65565b91508082528984828501011115614c3a57600080fd5b808484018584013760008482840101525080935050505092959194509250565b60008060208385031215614c6d57600080fd5b823567ffffffffffffffff80821115614c8557600080fd5b818501915085601f830112614c9957600080fd5b813581811115614ca857600080fd5b86602060a083028501011115614cbd57600080fd5b60209290920196919550909350505050565b60008060008060408587031215614ce557600080fd5b843567ffffffffffffffff80821115614cfd57600080fd5b614d0988838901614ad4565b90965094506020870135915080821115614d2257600080fd5b50614a0a87828801614ad4565b60008060408385031215614d4257600080fd5b8235614d4d816148c4565b91506020830135614ac9816148c4565b600181811c90821680614d7157607f821691505b60208210811415614a2857634e487b7160e01b600052602260045260246000fd5b634e487b7160e01b600052601160045260246000fd5b6000816000190483118215151615614dc257614dc2614d92565b500290565b600082614de457634e487b7160e01b600052601260045260246000fd5b500490565b8054600090600181811c9080831680614e0357607f831692505b6020808410821415614e2557634e487b7160e01b600052602260045260246000fd5b83885260208801828015614e405760018114614e5157614e7c565b60ff19871682528282019750614e7c565b60008981526020902060005b87811015614e7657815484820152908601908401614e5d565b83019850505b5050505050505092915050565b604081526000614e9c6040830185614de9565b8281036020840152614eae8185614de9565b95945050505050565b8135614ec2816148c4565b6001600160a01b03811690508154816001600160a01b031982161783556020840135614eed81614a8d565b7fffffffffffffffffffffff0000000000000000000000000000000000000000009190911690911790151560a01b74ff00000000000000000000000000000000000000001617905550565b604081018235614f47816148c4565b6001600160a01b031682526020830135614f6081614a8d565b80151560208401525092915050565b60208152816020820152818360408301376000818301604090810191909152601f909201601f19160101919050565b634e487b7160e01b600052603260045260246000fd5b60008351614fc6818460208801614840565b835190830190614fda818360208801614840565b01949350505050565b600082821015614ff557614ff5614d92565b500390565b6000821982111561500d5761500d614d92565b500190565b60008351615024818460208801614840565b7fff00000000000000000000000000000000000000000000000000000000000000939093169190920190815260010192915050565b600060001982141561506d5761506d614d92565b5060010190565b60006020828403121561508657600080fd5b81356bffffffffffffffffffffffff8116811461483957600080fd5b600082356101de198336030181126150b957600080fd5b9190910192915050565b60008235605e198336030181126150b957600080fd5b6000808335601e198436030181126150f057600080fd5b83018035915067ffffffffffffffff82111561510b57600080fd5b6020019150606081023603821315610b1057600080fd5b803560ff8116811461513357600080fd5b919050565b60006020828403121561514a57600080fd5b61483982615122565b60006020828403121561516557600080fd5b81356fffffffffffffffffffffffffffffffff8116811461483957600080fd5b60006020828403121561519757600080fd5b813567ffffffffffffffff8116811461483957600080fd5b6000808335601e198436030181126151c657600080fd5b83018035915067ffffffffffffffff8211156151e157600080fd5b602001915036819003821315610b1057600080fd5b815160009082906020808601845b8381101561522057815185529382019390820190600101615204565b50929695505050505050565b8183823760009101908152919050565b6000808335601e1984360301811261525357600080fd5b83018035915067ffffffffffffffff82111561526e57600080fd5b6020019150600581901b3603821315610b1057600080fd5b60006060828403121561529857600080fd5b6040516060810181811067ffffffffffffffff821117156152bb576152bb614b4f565b6040526152c783615122565b815260208301356152d7816148c4565b60208201526040928301359281019290925250919050565b60006020828403121561530157600080fd5b8151614839816148c4565b60006020828403121561531e57600080fd5b5051919050565b604081526000615338604083018561486c565b90506001600160a01b03831660208301529392505050565b60006001600160a01b03808716835280861660208401525083604083015260806060830152615382608083018461486c565b9695505050505050565b60006020828403121561539e57600080fd5b815161483981614806565b634e487b7160e01b600052602160045260246000fdfea2646970667358221220161147effa1f2cf0b9aa2617fe9cb27a76d803635bd3bce76808366fa0a0406464736f6c63430008090033496e697469616c697a61626c653a20636f6e747261637420697320616c726561",
  "linkReferences": {},
  "deployedLinkReferences": {}
}