{
  "_format": "hh-sol-artifact-1",
  "contractName": "Factory",
  "sourceName": "contracts/Factory.sol",
  "abi": [
    {
      "inputs": [],
      "stateMutability": "nonpayable",
      "type": "constructor"
    },
    {
      "anonymous": false,
      "inputs": [
        {
          "indexed": true,
          "internalType": "address",
          "name": "previousOwner",
          "type": "address"
        },
        {
          "indexed": true,
          "internalType": "address",
          "name": "newOwner",
          "type": "address"
        }
      ],
      "name": "OwnershipTransferred",
      "type": "event"
    },
    {
      "inputs": [
        {
          "internalType": "address",
          "name": "creator",
          "type": "address"
        },
        {
          "internalType": "uint256",
          "name": "start",
          "type": "uint256"
        },
        {
          "internalType": "uint256",
          "name": "count",
          "type": "uint256"
        }
      ],
      "name": "find",
      "outputs": [
        {
          "internalType": "address[]",
          "name": "",
          "type": "address[]"
        }
      ],
      "stateMutability": "view",
      "type": "function"
    },
    {
      "inputs": [
        {
          "internalType": "uint256",
          "name": "_index",
          "type": "uint256"
        },
        {
          "internalType": "string",
          "name": "name",
          "type": "string"
        },
        {
          "internalType": "string",
          "name": "symbol",
          "type": "string"
        }
      ],
      "name": "genesis",
      "outputs": [
        {
          "internalType": "address",
          "name": "",
          "type": "address"
        }
      ],
      "stateMutability": "payable",
      "type": "function"
    },
    {
      "inputs": [],
      "name": "implementation",
      "outputs": [
        {
          "internalType": "address",
          "name": "",
          "type": "address"
        }
      ],
      "stateMutability": "view",
      "type": "function"
    },
    {
      "inputs": [],
      "name": "owner",
      "outputs": [
        {
          "internalType": "address",
          "name": "",
          "type": "address"
        }
      ],
      "stateMutability": "view",
      "type": "function"
    },
    {
      "inputs": [],
      "name": "renounceOwnership",
      "outputs": [],
      "stateMutability": "nonpayable",
      "type": "function"
    },
    {
      "inputs": [
        {
          "internalType": "address",
          "name": "newOwner",
          "type": "address"
        }
      ],
      "name": "transferOwnership",
      "outputs": [],
      "stateMutability": "nonpayable",
      "type": "function"
    }
  ],
  "bytecode": "0x60a06040523480156200001157600080fd5b506040516001906200002390620002ad565b8190604051809103906000f590508015801562000044573d6000803e3d6000fd5b506001600160a01b03166080526200005b62000061565b620002bb565b600054610100900460ff16806200007b575060005460ff16155b620000d35760405162461bcd60e51b815260206004820152602e60248201526000805160206200556483398151915260448201526d191e481a5b9a5d1a585b1a5e995960921b60648201526084015b60405180910390fd5b600054610100900460ff16158015620000f6576000805461ffff19166101011790555b6200010062000120565b6200010a620001c5565b80156200011d576000805461ff00191690555b50565b600054610100900460ff16806200013a575060005460ff16155b6200018e5760405162461bcd60e51b815260206004820152602e60248201526000805160206200556483398151915260448201526d191e481a5b9a5d1a585b1a5e995960921b6064820152608401620000ca565b600054610100900460ff161580156200010a576000805461ffff191661010117905580156200011d576000805461ff001916905550565b600054610100900460ff1680620001df575060005460ff16155b620002335760405162461bcd60e51b815260206004820152602e60248201526000805160206200556483398151915260448201526d191e481a5b9a5d1a585b1a5e995960921b6064820152608401620000ca565b600054610100900460ff1615801562000256576000805461ffff19166101011790555b6200010a33603380546001600160a01b038381166001600160a01b0319831681179093556040519116919082907f8be0079c531659141344cd1fd0a4f28419497f9722a3daafe3b4186f6b6457e090600090a35050565b6149278062000c3d83390190565b608051610959620002e46000396000818160ac01528181610199015261037701526109596000f3fe6080604052600436106100655760003560e01c8063715018a611610043578063715018a6146100fb5780638da5cb5b14610112578063f2fde38b1461013057600080fd5b80634d51709d1461006a5780635c60da1b1461009a5780635f8745cb146100ce575b600080fd5b61007d610078366004610722565b610150565b6040516001600160a01b0390911681526020015b60405180910390f35b3480156100a657600080fd5b5061007d7f000000000000000000000000000000000000000000000000000000000000000081565b3480156100da57600080fd5b506100ee6100e93660046107b8565b6102d4565b60405161009191906107eb565b34801561010757600080fd5b506101106103e2565b005b34801561011e57600080fd5b506033546001600160a01b031661007d565b34801561013c57600080fd5b5061011061014b366004610838565b61044d565b6040516bffffffffffffffffffffffff193360601b16602082015260348101869052600090819060540160405160208183030381529060405280519060200120905060006101be7f00000000000000000000000000000000000000000000000000000000000000008361052f565b6040517f4cd88b7600000000000000000000000000000000000000000000000000000000815290915081906001600160a01b03821690634cd88b769061020e908b908b908b908b9060040161087c565b600060405180830381600087803b15801561022857600080fd5b505af115801561023c573d6000803e3d6000fd5b50505050806001600160a01b031663f2fde38b6102563390565b6040517fffffffff0000000000000000000000000000000000000000000000000000000060e084901b1681526001600160a01b039091166004820152602401600060405180830381600087803b1580156102af57600080fd5b505af11580156102c3573d6000803e3d6000fd5b50939b9a5050505050505050505050565b606060008267ffffffffffffffff8111156102f1576102f16108ae565b60405190808252806020026020018201604052801561031a578160200160208202803683370190505b50905060005b838110156103d95760008661033587846108da565b60405160609290921b6bffffffffffffffffffffffff19166020830152603482015260540160405160208183030381529060405280519060200120905061039c7f0000000000000000000000000000000000000000000000000000000000000000826105ec565b8383815181106103ae576103ae6108f2565b6001600160a01b039092166020928302919091019091015250806103d181610908565b915050610320565b50949350505050565b6033546001600160a01b031633146104415760405162461bcd60e51b815260206004820181905260248201527f4f776e61626c653a2063616c6c6572206973206e6f7420746865206f776e657260448201526064015b60405180910390fd5b61044b600061066f565b565b6033546001600160a01b031633146104a75760405162461bcd60e51b815260206004820181905260248201527f4f776e61626c653a2063616c6c6572206973206e6f7420746865206f776e65726044820152606401610438565b6001600160a01b0381166105235760405162461bcd60e51b815260206004820152602660248201527f4f776e61626c653a206e6577206f776e657220697320746865207a65726f206160448201527f64647265737300000000000000000000000000000000000000000000000000006064820152608401610438565b61052c8161066f565b50565b60006040517f3d602d80600a3d3981f3363d3d373d3d3d363d7300000000000000000000000081528360601b60148201527f5af43d82803e903d91602b57fd5bf300000000000000000000000000000000006028820152826037826000f59150506001600160a01b0381166105e65760405162461bcd60e51b815260206004820152601760248201527f455243313136373a2063726561746532206661696c65640000000000000000006044820152606401610438565b92915050565b60006106688383306040517f3d602d80600a3d3981f3363d3d373d3d3d363d730000000000000000000000008152606093841b60148201527f5af43d82803e903d91602b57fd5bf3ff000000000000000000000000000000006028820152921b6038830152604c8201526037808220606c830152605591012090565b9392505050565b603380546001600160a01b038381167fffffffffffffffffffffffff0000000000000000000000000000000000000000831681179093556040519116919082907f8be0079c531659141344cd1fd0a4f28419497f9722a3daafe3b4186f6b6457e090600090a35050565b60008083601f8401126106eb57600080fd5b50813567ffffffffffffffff81111561070357600080fd5b60208301915083602082850101111561071b57600080fd5b9250929050565b60008060008060006060868803121561073a57600080fd5b85359450602086013567ffffffffffffffff8082111561075957600080fd5b61076589838a016106d9565b9096509450604088013591508082111561077e57600080fd5b5061078b888289016106d9565b969995985093965092949392505050565b80356001600160a01b03811681146107b357600080fd5b919050565b6000806000606084860312156107cd57600080fd5b6107d68461079c565b95602085013595506040909401359392505050565b6020808252825182820181905260009190848201906040850190845b8181101561082c5783516001600160a01b031683529284019291840191600101610807565b50909695505050505050565b60006020828403121561084a57600080fd5b6106688261079c565b81835281816020850137506000828201602090810191909152601f909101601f19169091010190565b604081526000610890604083018688610853565b82810360208401526108a3818587610853565b979650505050505050565b634e487b7160e01b600052604160045260246000fd5b634e487b7160e01b600052601160045260246000fd5b600082198211156108ed576108ed6108c4565b500190565b634e487b7160e01b600052603260045260246000fd5b600060001982141561091c5761091c6108c4565b506001019056fea264697066735822122024f2651cb3ea47496919143b5997cb2967ae5c6581580b6a6737c97b715ae72e64736f6c63430008090033608060405234801561001057600080fd5b50614907806100206000396000f3fe60806040526004361061021d5760003560e01c8063715018a61161011d578063c19d93fb116100b0578063ceb07baf1161007f578063e814cb7111610064578063e814cb71146106a0578063e985e9c514610719578063f2fde38b1461076257600080fd5b8063ceb07baf1461067a578063d4e4dfc31461068d57600080fd5b8063c19d93fb146105c3578063c87b56dd146105da578063ccc0b1ec146105fa578063cdc184241461062e57600080fd5b8063a22cb465116100ec578063a22cb46514610543578063a9e966b714610563578063b80f55c914610583578063b88d4fde146105a357600080fd5b8063715018a6146104b95780638da5cb5b146104ce57806393d19f6d146104ec57806395d89b411461052e57600080fd5b80632e1a7d4d116101b05780634fc41a421161017f5780636352211e116101645780636352211e146104645780636c0360eb1461048457806370a082311461049957600080fd5b80634fc41a421461042457806355f804b31461044457600080fd5b80632e1a7d4d146103b157806335c93885146103c457806342842e0e146103e45780634cd88b761461040457600080fd5b80631bf673e5116101ec5780631bf673e5146102da57806323250cae1461031c57806323b872dd146103525780632a55205a1461037257600080fd5b806301ffc9a71461022957806306fdde031461025e578063081812fc14610280578063095ea7b3146102b857600080fd5b3661022457005b600080fd5b34801561023557600080fd5b50610249610244366004613d90565b610782565b60405190151581526020015b60405180910390f35b34801561026a57600080fd5b506102736107c6565b6040516102559190613e0c565b34801561028c57600080fd5b506102a061029b366004613e1f565b610858565b6040516001600160a01b039091168152602001610255565b3480156102c457600080fd5b506102d86102d3366004613e4d565b6108f2565b005b3480156102e657600080fd5b5061030e7fdd9a45bf8ba89f08f64a4906aa530275f693c8123db5bd7e5fcc0adbf868fa4181565b604051908152602001610255565b34801561032857600080fd5b506102a0610337366004613e1f565b60ff602052600090815260409020546001600160a01b031681565b34801561035e57600080fd5b506102d861036d366004613e79565b610a24565b34801561037e57600080fd5b5061039261038d366004613eba565b610aac565b604080516001600160a01b039093168352602083019190915201610255565b6102d86103bf366004613e1f565b610b17565b3480156103d057600080fd5b506102d86103df366004613f1e565b610c78565b3480156103f057600080fd5b506102d86103ff366004613e79565b610d7e565b34801561041057600080fd5b506102d861041f366004613f1e565b610d99565b34801561043057600080fd5b506102d861043f366004613f8a565b610f23565b34801561045057600080fd5b506102d861045f366004613fa2565b611023565b34801561047057600080fd5b506102a061047f366004613e1f565b611119565b34801561049057600080fd5b506102736111a4565b3480156104a557600080fd5b5061030e6104b4366004613fe4565b611233565b3480156104c557600080fd5b506102d86112cd565b3480156104da57600080fd5b506097546001600160a01b03166102a0565b3480156104f857600080fd5b5061051c610507366004613e1f565b60fe6020526000908152604090205460ff1681565b60405160ff9091168152602001610255565b34801561053a57600080fd5b50610273611333565b34801561054f57600080fd5b506102d861055e36600461400f565b611342565b34801561056f57600080fd5b506102d861057e366004613e1f565b611407565b34801561058f57600080fd5b506102d861059e36600461408d565b6114e9565b3480156105af57600080fd5b506102d86105be36600461410a565b611596565b3480156105cf57600080fd5b5061030e6101025481565b3480156105e657600080fd5b506102736105f5366004613e1f565b611624565b34801561060657600080fd5b5061030e7fe62307d9661be567a71f41f6c25077ff77ee95b885719b66f977d2fa322f1da081565b34801561063a57600080fd5b506101005461065b906001600160a01b03811690600160a01b900460ff1682565b604080516001600160a01b039093168352901515602083015201610255565b6102d86106883660046141ce565b6119a7565b6102d861069b366004614243565b611af1565b3480156106ac57600080fd5b506106ed6106bb366004613e1f565b60fd602052600090815260409020546001600160a01b03811690600160a01b90046bffffffffffffffffffffffff1682565b604080516001600160a01b0390931683526bffffffffffffffffffffffff909116602083015201610255565b34801561072557600080fd5b506102496107343660046142a3565b6001600160a01b039182166000908152606a6020908152604080832093909416825291909152205460ff1690565b34801561076e57600080fd5b506102d861077d366004613fe4565b612921565b60007f2a55205a000000000000000000000000000000000000000000000000000000006001600160e01b0319831614806107c057506107c082612a03565b92915050565b6060606580546107d5906142d1565b80601f0160208091040260200160405190810160405280929190818152602001828054610801906142d1565b801561084e5780601f106108235761010080835404028352916020019161084e565b820191906000526020600020905b81548152906001019060200180831161083157829003601f168201915b5050505050905090565b6000818152606760205260408120546001600160a01b03166108d65760405162461bcd60e51b815260206004820152602c60248201527f4552433732313a20617070726f76656420717565727920666f72206e6f6e657860448201526b34b9ba32b73a103a37b5b2b760a11b60648201526084015b60405180910390fd5b506000908152606960205260409020546001600160a01b031690565b60006108fd82611119565b9050806001600160a01b0316836001600160a01b031614156109875760405162461bcd60e51b815260206004820152602160248201527f4552433732313a20617070726f76616c20746f2063757272656e74206f776e6560448201527f720000000000000000000000000000000000000000000000000000000000000060648201526084016108cd565b336001600160a01b03821614806109a357506109a38133610734565b610a155760405162461bcd60e51b815260206004820152603860248201527f4552433732313a20617070726f76652063616c6c6572206973206e6f74206f7760448201527f6e6572206e6f7220617070726f76656420666f7220616c6c000000000000000060648201526084016108cd565b610a1f8383612a9e565b505050565b610a2f335b82612b0c565b610aa15760405162461bcd60e51b815260206004820152603160248201527f4552433732313a207472616e736665722063616c6c6572206973206e6f74206f60448201527f776e6572206e6f7220617070726f76656400000000000000000000000000000060648201526084016108cd565b610a1f838383612c03565b600082815260fd602090815260408083208151808301909252546001600160a01b038116808352600160a01b9091046bffffffffffffffffffffffff169282018390528392620f424090610b00908761431c565b610b0a919061433b565b92509250505b9250929050565b6097546001600160a01b0316331480610b445750610100546001600160a01b0316336001600160a01b0316145b610b905760405162461bcd60e51b815260206004820152600260248201527f333000000000000000000000000000000000000000000000000000000000000060448201526064016108cd565b6000808211610b9f5747610ba1565b815b610100549091506000906001600160a01b031615610bcb57610100546001600160a01b0316610bd8565b6097546001600160a01b03165b6001600160a01b03168260405160006040518083038185875af1925050503d8060008114610c22576040519150601f19603f3d011682016040523d82523d6000602084013e610c27565b606091505b5050905080610a1f5760405162461bcd60e51b815260206004820152600260248201527f333100000000000000000000000000000000000000000000000000000000000060448201526064016108cd565b6097546001600160a01b03163314610cd25760405162461bcd60e51b815260206004820181905260248201527f4f776e61626c653a2063616c6c6572206973206e6f7420746865206f776e657260448201526064016108cd565b6101025415610d235760405162461bcd60e51b815260206004820152600260248201527f363000000000000000000000000000000000000000000000000000000000000060448201526064016108cd565b610d2f60658585613c6d565b50610d3c60668383613c6d565b507f934066d47a89bfcab72db908a0701b9145131ee303cefb44553121c73419e8dd60656066604051610d709291906143fd565b60405180910390a150505050565b610a1f83838360405180602001604052806000815250611596565b600054610100900460ff1680610db2575060005460ff16155b610e155760405162461bcd60e51b815260206004820152602e60248201527f496e697469616c697a61626c653a20636f6e747261637420697320616c72656160448201526d191e481a5b9a5d1a585b1a5e995960921b60648201526084016108cd565b600054610100900460ff16158015610e37576000805461ffff19166101011790555b610eaa85858080601f01602080910402602001604051908101604052809392919081815260200183838082843760009201919091525050604080516020601f89018190048102820181019092528781529250879150869081908401838280828437600092019190915250612dd092505050565b610f0285858080601f016020809104026020016040519081016040528093929190818152602001838380828437600092019190915250506040805180820190915260018152603160f81b60208201529150612e9e9050565b610f0a612f46565b8015610f1c576000805461ff00191690555b5050505050565b6097546001600160a01b03163314610f7d5760405162461bcd60e51b815260206004820181905260248201527f4f776e61626c653a2063616c6c6572206973206e6f7420746865206f776e657260448201526064016108cd565b61010054600160a01b900460ff1615610fd85760405162461bcd60e51b815260206004820152600260248201527f323000000000000000000000000000000000000000000000000000000000000060448201526064016108cd565b80610100610fe6828261442b565b9050507f5d121f0c2b2c4877a2b0a1457c73ce1c28628e5705271cb91db3e49792715cf58160405161101891906144ac565b60405180910390a150565b6097546001600160a01b0316331461107d5760405162461bcd60e51b815260206004820181905260248201527f4f776e61626c653a2063616c6c6572206973206e6f7420746865206f776e657260448201526064016108cd565b61010254156110ce5760405162461bcd60e51b815260206004820152600260248201527f353000000000000000000000000000000000000000000000000000000000000060448201526064016108cd565b6110db6101018383613c6d565b507f6741b2fc379fad678116fe3d4d4b9a1a184ab53ba36b86ad0fa66340b1ab41ad828260405161110d9291906144e3565b60405180910390a15050565b6000818152606760205260408120546001600160a01b0316806107c05760405162461bcd60e51b815260206004820152602960248201527f4552433732313a206f776e657220717565727920666f72206e6f6e657869737460448201527f656e7420746f6b656e000000000000000000000000000000000000000000000060648201526084016108cd565b61010180546111b2906142d1565b80601f01602080910402602001604051908101604052809291908181526020018280546111de906142d1565b801561122b5780601f106112005761010080835404028352916020019161122b565b820191906000526020600020905b81548152906001019060200180831161120e57829003601f168201915b505050505081565b60006001600160a01b0382166112b15760405162461bcd60e51b815260206004820152602a60248201527f4552433732313a2062616c616e636520717565727920666f7220746865207a6560448201527f726f20616464726573730000000000000000000000000000000000000000000060648201526084016108cd565b506001600160a01b031660009081526068602052604090205490565b6097546001600160a01b031633146113275760405162461bcd60e51b815260206004820181905260248201527f4f776e61626c653a2063616c6c6572206973206e6f7420746865206f776e657260448201526064016108cd565b6113316000613008565b565b6060606680546107d5906142d1565b6001600160a01b03821633141561139b5760405162461bcd60e51b815260206004820152601960248201527f4552433732313a20617070726f766520746f2063616c6c65720000000000000060448201526064016108cd565b336000818152606a602090815260408083206001600160a01b03871680855290835292819020805460ff191686151590811790915590519081529192917f17307eab39ab6107e8899845ad3d59bd9653f200f220920489ca2b5937696c31910160405180910390a35050565b6097546001600160a01b031633146114615760405162461bcd60e51b815260206004820181905260248201527f4f776e61626c653a2063616c6c6572206973206e6f7420746865206f776e657260448201526064016108cd565b61010254600214156114b55760405162461bcd60e51b815260206004820152600260248201527f343000000000000000000000000000000000000000000000000000000000000060448201526064016108cd565b61010281905560405181907f118f8ba10d647100925b2343f3030d110623f17b284ced4316cbe4b8f138883f90600090a250565b60005b81811015610a1f57600083838381811061150857611508614512565b90506020020135905061151b610a293390565b6115675760405162461bcd60e51b815260206004820152600260248201527f313100000000000000000000000000000000000000000000000000000000000060448201526064016108cd565b6115708161305a565b600090815260ff6020526040902080546001600160a01b031916331790556001016114ec565b6115a03383612b0c565b6116125760405162461bcd60e51b815260206004820152603160248201527f4552433732313a207472616e736665722063616c6c6572206973206e6f74206f60448201527f776e6572206e6f7220617070726f76656400000000000000000000000000000060648201526084016108cd565b61161e848484846130f5565b50505050565b6000818152606760205260409020546060906001600160a01b03166116b15760405162461bcd60e51b815260206004820152602f60248201527f4552433732314d657461646174613a2055524920717565727920666f72206e6f60448201527f6e6578697374656e7420746f6b656e000000000000000000000000000000000060648201526084016108cd565b6040805180820190915260208082527f6162636465666768696a6b6c6d6e6f707172737475767778797a3233343536379082015261010180548492916000918291906116fc906142d1565b90501161173e576040518060400160405280600781526020017f697066733a2f2f000000000000000000000000000000000000000000000000008152506117cb565b610101805461174c906142d1565b80601f0160208091040260200160405190810160405280929190818152602001828054611778906142d1565b80156117c55780601f1061179a576101008083540402835291602001916117c5565b820191906000526020600020905b8154815290600101906020018083116117a857829003601f168201915b50505050505b600086815260fe602052604081205491925090829060ff1615611823576040518060400160405280600781526020017f626166796265690000000000000000000000000000000000000000000000000081525061185a565b6040518060400160405280600781526020017f6261666b726569000000000000000000000000000000000000000000000000008152505b60405160200161186b929190614528565b60408051601f198184030181529190529050600263017012206005600061189460016020614557565b905060005b60208110156119435760006118af82600861431c565b8c901b60f881901c600896871b63ffffff001617959091506118d1908761456e565b95505b83861115611932576118e68487614557565b955086898787901c85168151811061190057611900614512565b602001015160f81c60f81b60405160200161191c929190614586565b60405160208183030381529060405296506118d4565b5061193c816145cd565b9050611899565b5083156119995784876119568685614557565b85901b83168151811061196b5761196b614512565b602001015160f81c60f81b604051602001611987929190614586565b60405160208183030381529060405294505b509298975050505050505050565b6097546001600160a01b03163314611a015760405162461bcd60e51b815260206004820181905260248201527f4f776e61626c653a2063616c6c6572206973206e6f7420746865206f776e657260448201526064016108cd565b60005b81811015610a1f5736838383818110611a1f57611a1f614512565b905060a002019050611a44816020016020810190611a3d9190613fe4565b823561317e565b6000611a566060830160408401613fe4565b6001600160a01b031614611ae8576040518060400160405280826040016020810190611a829190613fe4565b6001600160a01b03168152602001611aa060808401606085016145e8565b6bffffffffffffffffffffffff9081169091528235600090815260fd6020908152604090912083519390910151909116600160a01b026001600160a01b039092169190911790555b50600101611a04565b6101025415611b425760405162461bcd60e51b815260206004820152600160248201527f300000000000000000000000000000000000000000000000000000000000000060448201526064016108cd565b6000805b848110156128d15736868683818110611b6157611b61614512565b9050602002810190611b739190614616565b905036858584818110611b8857611b88614512565b9050602002810190611b9a9190614637565b8235600090815260ff60205260409020549091506001600160a01b031615611be85760405162461bcd60e51b81526020600482015260016024820152603160f81b60448201526064016108cd565b6000604051806040016040528084806101000190611c06919061464d565b905067ffffffffffffffff811115611c2057611c206140c3565b604051908082528060200260200182016040528015611c49578160200160208202803683370190505b508152602001611c5d61012086018661464d565b905067ffffffffffffffff811115611c7757611c776140c3565b604051908082528060200260200182016040528015611ca0578160200160208202803683370190505b50905290506000611cb561010085018561464d565b90501115611dc15760005b611cce61010085018561464d565b9050811015611dbf577fdd9a45bf8ba89f08f64a4906aa530275f693c8123db5bd7e5fcc0adbf868fa41611d0661010086018661464d565b83818110611d1657611d16614512565b611d2c9260206040909202019081019150613fe4565b611d3a61010087018761464d565b84818110611d4a57611d4a614512565b90506040020160200135604051602001611d80939291909283526001600160a01b03919091166020830152604082015260600190565b6040516020818303038152906040528051906020012082600001518281518110611dac57611dac614512565b6020908102919091010152600101611cc0565b505b6000611dd161012085018561464d565b90501115611edd5760005b611dea61012085018561464d565b9050811015611edb577fdd9a45bf8ba89f08f64a4906aa530275f693c8123db5bd7e5fcc0adbf868fa41611e2261012086018661464d565b83818110611e3257611e32614512565b611e489260206040909202019081019150613fe4565b611e5661012087018761464d565b84818110611e6657611e66614512565b90506040020160200135604051602001611e9c939291909283526001600160a01b03919091166020830152604082015260600190565b6040516020818303038152906040528051906020012082602001518281518110611ec857611ec8614512565b6020908102919091010152600101611ddc565b505b60007fe62307d9661be567a71f41f6c25077ff77ee95b885719b66f977d2fa322f1da08435611f1260a0870160808801614697565b611f2260c0880160a08901613fe4565b611f3260e0890160c08a01613fe4565b611f4260408a0160208b016146ba565b611f5260608b0160408c016146ec565b611f6260808c0160608d016146ec565b611f736101008d0160e08e01613fe4565b611f856101608e016101408f016145e8565b60408051602081019b909b528a019890985260ff90961660608901526001600160a01b03948516608089015292841660a08801526fffffffffffffffffffffffffffffffff90911660c087015267ffffffffffffffff90811660e087015216610100850152166101208301526bffffffffffffffffffffffff1661014082015261016001604051602081830303815290604052826000015160405160200161202d9190614716565b6040516020818303038152906040528051906020012083602001516040516020016120589190614716565b60408051601f198184030181528282528051602091820120908301939093528101919091526101608601356060820152610180860135608082015260a00160408051601f19818403018152908290526120b49291602001614528565b6040516020818303038152906040528051906020012090506120de6097546001600160a01b031690565b6001600160a01b031661213e6120f86101a087018761474c565b8080601f01602080910402602001604051908101604052809392919081815260200183838082843760009201919091525061213892508691506132c09050565b90613329565b6001600160a01b0316146121945760405162461bcd60e51b815260206004820152600160248201527f320000000000000000000000000000000000000000000000000000000000000060448201526064016108cd565b60006121a660c0860160a08701613fe4565b6001600160a01b03161461221b57336121c560c0860160a08701613fe4565b6001600160a01b03161461221b5760405162461bcd60e51b815260206004820152600160248201527f330000000000000000000000000000000000000000000000000000000000000060448201526064016108cd565b4261222c60608601604087016146ec565b67ffffffffffffffff1611156122845760405162461bcd60e51b815260206004820152600160248201527f340000000000000000000000000000000000000000000000000000000000000060448201526064016108cd565b4261229560808601606087016146ec565b67ffffffffffffffff1610156122ed5760405162461bcd60e51b815260206004820152600160248201527f350000000000000000000000000000000000000000000000000000000000000060448201526064016108cd565b61018084013515612382576000612304848061474c565b9050118015612336575061018084013561231e848061474c565b60405161232c929190614793565b6040518091039020145b6123825760405162461bcd60e51b815260206004820152600160248201527f360000000000000000000000000000000000000000000000000000000000000060448201526064016108cd565b6101608401351561240e57600061239c60208501856147a3565b90501180156123c257506123c26101608501356123bc60208601866147a3565b3361334d565b61240e5760405162461bcd60e51b815260206004820152600160248201527f370000000000000000000000000000000000000000000000000000000000000060448201526064016108cd565b600061241e61010086018661464d565b905011156125bc5760005b61243761010086018661464d565b90508110156125ba57600061245061010087018761464d565b8381811061246057612460614512565b90506040020180360381019061247691906147ed565b80519091506001600160a01b03166124dd57602081810151600090815260ff90915260409020546001600160a01b031633146124d85760405162461bcd60e51b81526020600482015260016024820152600760fb1b60448201526064016108cd565b6125b1565b805160208201516040517f23250cae000000000000000000000000000000000000000000000000000000008152600481019190915233916001600160a01b0316906323250cae9060240160206040518083038186803b15801561253f57600080fd5b505afa158015612553573d6000803e3d6000fd5b505050506040513d601f19601f820116820180604052508101906125779190614845565b6001600160a01b0316146125b15760405162461bcd60e51b81526020600482015260016024820152600760fb1b60448201526064016108cd565b50600101612429565b505b60006125cc61012086018661464d565b9050111561276b5760005b6125e561012086018661464d565b90508110156127695760006125fe61012087018761464d565b8381811061260e5761260e614512565b90506040020180360381019061262491906147ed565b80519091506001600160a01b031661268c57336001600160a01b031661264d8260200151611119565b6001600160a01b0316146126875760405162461bcd60e51b81526020600482015260016024820152603960f81b60448201526064016108cd565b612760565b805160208201516040517f6352211e000000000000000000000000000000000000000000000000000000008152600481019190915233916001600160a01b031690636352211e9060240160206040518083038186803b1580156126ee57600080fd5b505afa158015612702573d6000803e3d6000fd5b505050506040513d601f19601f820116820180604052508101906127269190614845565b6001600160a01b0316146127605760405162461bcd60e51b81526020600482015260016024820152603960f81b60448201526064016108cd565b506001016125d7565b505b61277b60a0850160808601614697565b60ff16156127b65761279360a0850160808601614697565b8435600090815260fe60205260409020805460ff191660ff929092169190911790555b60006127c9610100860160e08701613fe4565b6001600160a01b03161461285b5760408051808201909152806127f3610100870160e08801613fe4565b6001600160a01b03168152602001612813610160870161014088016145e8565b6bffffffffffffffffffffffff9081169091528535600090815260fd6020908152604090912083519390910151909116600160a01b026001600160a01b039092169190911790555b61289c600061287060e0870160c08801613fe4565b6001600160a01b0316146128935761288e60e0860160c08701613fe4565b612895565b335b853561317e565b6128ac60408501602086016146ba565b6fffffffffffffffffffffffffffffffff168601955084600101945050505050611b46565b50348114610f1c5760405162461bcd60e51b815260206004820152600260248201527f313000000000000000000000000000000000000000000000000000000000000060448201526064016108cd565b6097546001600160a01b0316331461297b5760405162461bcd60e51b815260206004820181905260248201527f4f776e61626c653a2063616c6c6572206973206e6f7420746865206f776e657260448201526064016108cd565b6001600160a01b0381166129f75760405162461bcd60e51b815260206004820152602660248201527f4f776e61626c653a206e6577206f776e657220697320746865207a65726f206160448201527f646472657373000000000000000000000000000000000000000000000000000060648201526084016108cd565b612a0081613008565b50565b60006001600160e01b031982167f80ac58cd000000000000000000000000000000000000000000000000000000001480612a6657506001600160e01b031982167f5b5e139f00000000000000000000000000000000000000000000000000000000145b806107c057507f01ffc9a7000000000000000000000000000000000000000000000000000000006001600160e01b03198316146107c0565b600081815260696020526040902080546001600160a01b0319166001600160a01b0384169081179091558190612ad382611119565b6001600160a01b03167f8c5be1e5ebec7d5bd14f71427d1e84f3dd0314c0f7b2291e5b200ac8c7c3b92560405160405180910390a45050565b6000818152606760205260408120546001600160a01b0316612b855760405162461bcd60e51b815260206004820152602c60248201527f4552433732313a206f70657261746f7220717565727920666f72206e6f6e657860448201526b34b9ba32b73a103a37b5b2b760a11b60648201526084016108cd565b6000612b9083611119565b9050806001600160a01b0316846001600160a01b03161480612bcb5750836001600160a01b0316612bc084610858565b6001600160a01b0316145b80612bfb57506001600160a01b038082166000908152606a602090815260408083209388168352929052205460ff165b949350505050565b826001600160a01b0316612c1682611119565b6001600160a01b031614612c925760405162461bcd60e51b815260206004820152602960248201527f4552433732313a207472616e73666572206f6620746f6b656e2074686174206960448201527f73206e6f74206f776e000000000000000000000000000000000000000000000060648201526084016108cd565b6001600160a01b038216612d0d5760405162461bcd60e51b8152602060048201526024808201527f4552433732313a207472616e7366657220746f20746865207a65726f2061646460448201527f726573730000000000000000000000000000000000000000000000000000000060648201526084016108cd565b612d18600082612a9e565b6001600160a01b0383166000908152606860205260408120805460019290612d41908490614557565b90915550506001600160a01b0382166000908152606860205260408120805460019290612d6f90849061456e565b909155505060008181526067602052604080822080546001600160a01b0319166001600160a01b0386811691821790925591518493918716917fddf252ad1be2c89b69c2b068fc378daa952ba7f163c4a11628f55a4df523b3ef91a4505050565b600054610100900460ff1680612de9575060005460ff16155b612e4c5760405162461bcd60e51b815260206004820152602e60248201527f496e697469616c697a61626c653a20636f6e747261637420697320616c72656160448201526d191e481a5b9a5d1a585b1a5e995960921b60648201526084016108cd565b600054610100900460ff16158015612e6e576000805461ffff19166101011790555b612e7661342b565b612e7e61342b565b612e8883836134dc565b8015610a1f576000805461ff0019169055505050565b600054610100900460ff1680612eb7575060005460ff16155b612f1a5760405162461bcd60e51b815260206004820152602e60248201527f496e697469616c697a61626c653a20636f6e747261637420697320616c72656160448201526d191e481a5b9a5d1a585b1a5e995960921b60648201526084016108cd565b600054610100900460ff16158015612f3c576000805461ffff19166101011790555b612e8883836135b8565b600054610100900460ff1680612f5f575060005460ff16155b612fc25760405162461bcd60e51b815260206004820152602e60248201527f496e697469616c697a61626c653a20636f6e747261637420697320616c72656160448201526d191e481a5b9a5d1a585b1a5e995960921b60648201526084016108cd565b600054610100900460ff16158015612fe4576000805461ffff19166101011790555b612fec61342b565b612ff4613689565b8015612a00576000805461ff001916905550565b609780546001600160a01b038381166001600160a01b0319831681179093556040519116919082907f8be0079c531659141344cd1fd0a4f28419497f9722a3daafe3b4186f6b6457e090600090a35050565b600061306582611119565b9050613072600083612a9e565b6001600160a01b038116600090815260686020526040812080546001929061309b908490614557565b909155505060008281526067602052604080822080546001600160a01b0319169055518391906001600160a01b038416907fddf252ad1be2c89b69c2b068fc378daa952ba7f163c4a11628f55a4df523b3ef908390a45050565b613100848484612c03565b61310c84848484613730565b61161e5760405162461bcd60e51b815260206004820152603260248201527f4552433732313a207472616e7366657220746f206e6f6e20455243373231526560448201527f63656976657220696d706c656d656e746572000000000000000000000000000060648201526084016108cd565b6001600160a01b0382166131d45760405162461bcd60e51b815260206004820181905260248201527f4552433732313a206d696e7420746f20746865207a65726f206164647265737360448201526064016108cd565b6000818152606760205260409020546001600160a01b0316156132395760405162461bcd60e51b815260206004820152601c60248201527f4552433732313a20746f6b656e20616c7265616479206d696e7465640000000060448201526064016108cd565b6001600160a01b038216600090815260686020526040812080546001929061326290849061456e565b909155505060008181526067602052604080822080546001600160a01b0319166001600160a01b03861690811790915590518392907fddf252ad1be2c89b69c2b068fc378daa952ba7f163c4a11628f55a4df523b3ef908290a45050565b60006107c06132cd613890565b836040517f19010000000000000000000000000000000000000000000000000000000000006020820152602281018390526042810182905260009060620160405160208183030381529060405280519060200120905092915050565b60008060006133388585613910565b915091506133458161397d565b509392505050565b6040516bffffffffffffffffffffffff19606083901b166020820152600090819060340160405160208183030381529060405280519060200120905060005b8481101561341f5760008686838181106133a8576133a8614512565b9050602002013590508083116133e9576040805160208101859052908101829052606001604051602081830303815290604052805190602001209250613416565b60408051602081018390529081018490526060016040516020818303038152906040528051906020012092505b5060010161338c565b50909414949350505050565b600054610100900460ff1680613444575060005460ff16155b6134a75760405162461bcd60e51b815260206004820152602e60248201527f496e697469616c697a61626c653a20636f6e747261637420697320616c72656160448201526d191e481a5b9a5d1a585b1a5e995960921b60648201526084016108cd565b600054610100900460ff16158015612ff4576000805461ffff19166101011790558015612a00576000805461ff001916905550565b600054610100900460ff16806134f5575060005460ff16155b6135585760405162461bcd60e51b815260206004820152602e60248201527f496e697469616c697a61626c653a20636f6e747261637420697320616c72656160448201526d191e481a5b9a5d1a585b1a5e995960921b60648201526084016108cd565b600054610100900460ff1615801561357a576000805461ffff19166101011790555b825161358d906065906020860190613cf1565b5081516135a1906066906020850190613cf1565b508015610a1f576000805461ff0019169055505050565b600054610100900460ff16806135d1575060005460ff16155b6136345760405162461bcd60e51b815260206004820152602e60248201527f496e697469616c697a61626c653a20636f6e747261637420697320616c72656160448201526d191e481a5b9a5d1a585b1a5e995960921b60648201526084016108cd565b600054610100900460ff16158015613656576000805461ffff19166101011790555b825160208085019190912083519184019190912060c99190915560ca558015610a1f576000805461ff0019169055505050565b600054610100900460ff16806136a2575060005460ff16155b6137055760405162461bcd60e51b815260206004820152602e60248201527f496e697469616c697a61626c653a20636f6e747261637420697320616c72656160448201526d191e481a5b9a5d1a585b1a5e995960921b60648201526084016108cd565b600054610100900460ff16158015613727576000805461ffff19166101011790555b612ff433613008565b60006001600160a01b0384163b1561388857604051630a85bd0160e11b81526001600160a01b0385169063150b7a0290613774903390899088908890600401614862565b602060405180830381600087803b15801561378e57600080fd5b505af19250505080156137be575060408051601f3d908101601f191682019092526137bb9181019061489e565b60015b61386e573d8080156137ec576040519150601f19603f3d011682016040523d82523d6000602084013e6137f1565b606091505b5080516138665760405162461bcd60e51b815260206004820152603260248201527f4552433732313a207472616e7366657220746f206e6f6e20455243373231526560448201527f63656976657220696d706c656d656e746572000000000000000000000000000060648201526084016108cd565b805181602001fd5b6001600160e01b031916630a85bd0160e11b149050612bfb565b506001612bfb565b600061390b7f8b73c3c69bb8fe3d512ecc4cf759cc79239f7b179b0ffacaa9a75d522b39400f6138bf60c95490565b60ca546040805160208101859052908101839052606081018290524660808201523060a082015260009060c0016040516020818303038152906040528051906020012090509392505050565b905090565b6000808251604114156139475760208301516040840151606085015160001a61393b87828585613b38565b94509450505050610b10565b8251604014156139715760208301516040840151613966868383613c25565b935093505050610b10565b50600090506002610b10565b6000816004811115613991576139916148bb565b141561399a5750565b60018160048111156139ae576139ae6148bb565b14156139fc5760405162461bcd60e51b815260206004820152601860248201527f45434453413a20696e76616c6964207369676e6174757265000000000000000060448201526064016108cd565b6002816004811115613a1057613a106148bb565b1415613a5e5760405162461bcd60e51b815260206004820152601f60248201527f45434453413a20696e76616c6964207369676e6174757265206c656e6774680060448201526064016108cd565b6003816004811115613a7257613a726148bb565b1415613acb5760405162461bcd60e51b815260206004820152602260248201527f45434453413a20696e76616c6964207369676e6174757265202773272076616c604482015261756560f01b60648201526084016108cd565b6004816004811115613adf57613adf6148bb565b1415612a005760405162461bcd60e51b815260206004820152602260248201527f45434453413a20696e76616c6964207369676e6174757265202776272076616c604482015261756560f01b60648201526084016108cd565b6000807f7fffffffffffffffffffffffffffffff5d576e7357a4501ddfe92f46681b20a0831115613b6f5750600090506003613c1c565b8460ff16601b14158015613b8757508460ff16601c14155b15613b985750600090506004613c1c565b6040805160008082526020820180845289905260ff881692820192909252606081018690526080810185905260019060a0016020604051602081039080840390855afa158015613bec573d6000803e3d6000fd5b5050604051601f1901519150506001600160a01b038116613c1557600060019250925050613c1c565b9150600090505b94509492505050565b6000807f7fffffffffffffffffffffffffffffffffffffffffffffffffffffffffffffff831660ff84901c601b01613c5f87828885613b38565b935093505050935093915050565b828054613c79906142d1565b90600052602060002090601f016020900481019282613c9b5760008555613ce1565b82601f10613cb45782800160ff19823516178555613ce1565b82800160010185558215613ce1579182015b82811115613ce1578235825591602001919060010190613cc6565b50613ced929150613d65565b5090565b828054613cfd906142d1565b90600052602060002090601f016020900481019282613d1f5760008555613ce1565b82601f10613d3857805160ff1916838001178555613ce1565b82800160010185558215613ce1579182015b82811115613ce1578251825591602001919060010190613d4a565b5b80821115613ced5760008155600101613d66565b6001600160e01b031981168114612a0057600080fd5b600060208284031215613da257600080fd5b8135613dad81613d7a565b9392505050565b60005b83811015613dcf578181015183820152602001613db7565b8381111561161e5750506000910152565b60008151808452613df8816020860160208601613db4565b601f01601f19169290920160200192915050565b602081526000613dad6020830184613de0565b600060208284031215613e3157600080fd5b5035919050565b6001600160a01b0381168114612a0057600080fd5b60008060408385031215613e6057600080fd5b8235613e6b81613e38565b946020939093013593505050565b600080600060608486031215613e8e57600080fd5b8335613e9981613e38565b92506020840135613ea981613e38565b929592945050506040919091013590565b60008060408385031215613ecd57600080fd5b50508035926020909101359150565b60008083601f840112613eee57600080fd5b50813567ffffffffffffffff811115613f0657600080fd5b602083019150836020828501011115610b1057600080fd5b60008060008060408587031215613f3457600080fd5b843567ffffffffffffffff80821115613f4c57600080fd5b613f5888838901613edc565b90965094506020870135915080821115613f7157600080fd5b50613f7e87828801613edc565b95989497509550505050565b600060408284031215613f9c57600080fd5b50919050565b60008060208385031215613fb557600080fd5b823567ffffffffffffffff811115613fcc57600080fd5b613fd885828601613edc565b90969095509350505050565b600060208284031215613ff657600080fd5b8135613dad81613e38565b8015158114612a0057600080fd5b6000806040838503121561402257600080fd5b823561402d81613e38565b9150602083013561403d81614001565b809150509250929050565b60008083601f84011261405a57600080fd5b50813567ffffffffffffffff81111561407257600080fd5b6020830191508360208260051b8501011115610b1057600080fd5b600080602083850312156140a057600080fd5b823567ffffffffffffffff8111156140b757600080fd5b613fd885828601614048565b634e487b7160e01b600052604160045260246000fd5b604051601f8201601f1916810167ffffffffffffffff81118282101715614102576141026140c3565b604052919050565b6000806000806080858703121561412057600080fd5b843561412b81613e38565b935060208581013561413c81613e38565b935060408601359250606086013567ffffffffffffffff8082111561416057600080fd5b818801915088601f83011261417457600080fd5b813581811115614186576141866140c3565b614198601f8201601f191685016140d9565b915080825289848285010111156141ae57600080fd5b808484018584013760008482840101525080935050505092959194509250565b600080602083850312156141e157600080fd5b823567ffffffffffffffff808211156141f957600080fd5b818501915085601f83011261420d57600080fd5b81358181111561421c57600080fd5b86602060a08302850101111561423157600080fd5b60209290920196919550909350505050565b6000806000806040858703121561425957600080fd5b843567ffffffffffffffff8082111561427157600080fd5b61427d88838901614048565b9096509450602087013591508082111561429657600080fd5b50613f7e87828801614048565b600080604083850312156142b657600080fd5b82356142c181613e38565b9150602083013561403d81613e38565b600181811c908216806142e557607f821691505b60208210811415613f9c57634e487b7160e01b600052602260045260246000fd5b634e487b7160e01b600052601160045260246000fd5b600081600019048311821515161561433657614336614306565b500290565b60008261435857634e487b7160e01b600052601260045260246000fd5b500490565b8054600090600181811c908083168061437757607f831692505b602080841082141561439957634e487b7160e01b600052602260045260246000fd5b838852602088018280156143b457600181146143c5576143f0565b60ff198716825282820197506143f0565b60008981526020902060005b878110156143ea578154848201529086019084016143d1565b83019850505b5050505050505092915050565b604081526000614410604083018561435d565b8281036020840152614422818561435d565b95945050505050565b813561443681613e38565b6001600160a01b03811690508154816001600160a01b03198216178355602084013561446181614001565b7fffffffffffffffffffffff0000000000000000000000000000000000000000009190911690911790151560a01b74ff00000000000000000000000000000000000000001617905550565b6040810182356144bb81613e38565b6001600160a01b0316825260208301356144d481614001565b80151560208401525092915050565b60208152816020820152818360408301376000818301604090810191909152601f909201601f19160101919050565b634e487b7160e01b600052603260045260246000fd5b6000835161453a818460208801613db4565b83519083019061454e818360208801613db4565b01949350505050565b60008282101561456957614569614306565b500390565b6000821982111561458157614581614306565b500190565b60008351614598818460208801613db4565b7fff00000000000000000000000000000000000000000000000000000000000000939093169190920190815260010192915050565b60006000198214156145e1576145e1614306565b5060010190565b6000602082840312156145fa57600080fd5b81356bffffffffffffffffffffffff81168114613dad57600080fd5b600082356101be1983360301811261462d57600080fd5b9190910192915050565b60008235603e1983360301811261462d57600080fd5b6000808335601e1984360301811261466457600080fd5b83018035915067ffffffffffffffff82111561467f57600080fd5b6020019150600681901b3603821315610b1057600080fd5b6000602082840312156146a957600080fd5b813560ff81168114613dad57600080fd5b6000602082840312156146cc57600080fd5b81356fffffffffffffffffffffffffffffffff81168114613dad57600080fd5b6000602082840312156146fe57600080fd5b813567ffffffffffffffff81168114613dad57600080fd5b815160009082906020808601845b8381101561474057815185529382019390820190600101614724565b50929695505050505050565b6000808335601e1984360301811261476357600080fd5b83018035915067ffffffffffffffff82111561477e57600080fd5b602001915036819003821315610b1057600080fd5b8183823760009101908152919050565b6000808335601e198436030181126147ba57600080fd5b83018035915067ffffffffffffffff8211156147d557600080fd5b6020019150600581901b3603821315610b1057600080fd5b6000604082840312156147ff57600080fd5b6040516040810181811067ffffffffffffffff82111715614822576148226140c3565b604052823561483081613e38565b81526020928301359281019290925250919050565b60006020828403121561485757600080fd5b8151613dad81613e38565b60006001600160a01b038087168352808616602084015250836040830152608060608301526148946080830184613de0565b9695505050505050565b6000602082840312156148b057600080fd5b8151613dad81613d7a565b634e487b7160e01b600052602160045260246000fdfea26469706673582212207b2040cd619b4be9d46613922130274ba46c8def18d9177339852646cc6324ec64736f6c63430008090033496e697469616c697a61626c653a20636f6e747261637420697320616c726561",
  "linkReferences": {},
  "deployedLinkReferences": {}
}