{
  "_format": "hh-sol-artifact-1",
  "contractName": "Factory",
  "sourceName": "contracts/Factory.sol",
  "abi": [
    {
      "inputs": [],
      "stateMutability": "nonpayable",
      "type": "constructor"
    },
    {
      "anonymous": false,
      "inputs": [
        {
          "indexed": true,
          "internalType": "address",
          "name": "previousOwner",
          "type": "address"
        },
        {
          "indexed": true,
          "internalType": "address",
          "name": "newOwner",
          "type": "address"
        }
      ],
      "name": "OwnershipTransferred",
      "type": "event"
    },
    {
      "inputs": [
        {
          "internalType": "address",
          "name": "creator",
          "type": "address"
        },
        {
          "internalType": "uint256",
          "name": "start",
          "type": "uint256"
        },
        {
          "internalType": "uint256",
          "name": "count",
          "type": "uint256"
        }
      ],
      "name": "find",
      "outputs": [
        {
          "internalType": "address[]",
          "name": "",
          "type": "address[]"
        }
      ],
      "stateMutability": "view",
      "type": "function"
    },
    {
      "inputs": [
        {
          "internalType": "uint256",
          "name": "_index",
          "type": "uint256"
        },
        {
          "internalType": "string",
          "name": "name",
          "type": "string"
        },
        {
          "internalType": "string",
          "name": "symbol",
          "type": "string"
        }
      ],
      "name": "genesis",
      "outputs": [
        {
          "internalType": "address",
          "name": "",
          "type": "address"
        }
      ],
      "stateMutability": "payable",
      "type": "function"
    },
    {
      "inputs": [],
      "name": "implementation",
      "outputs": [
        {
          "internalType": "address",
          "name": "",
          "type": "address"
        }
      ],
      "stateMutability": "view",
      "type": "function"
    },
    {
      "inputs": [],
      "name": "owner",
      "outputs": [
        {
          "internalType": "address",
          "name": "",
          "type": "address"
        }
      ],
      "stateMutability": "view",
      "type": "function"
    },
    {
      "inputs": [],
      "name": "renounceOwnership",
      "outputs": [],
      "stateMutability": "nonpayable",
      "type": "function"
    },
    {
      "inputs": [
        {
          "internalType": "address",
          "name": "newOwner",
          "type": "address"
        }
      ],
      "name": "transferOwnership",
      "outputs": [],
      "stateMutability": "nonpayable",
      "type": "function"
    }
  ],
  "bytecode": "0x60a06040523480156200001157600080fd5b506040516001906200002390620002ad565b8190604051809103906000f590508015801562000044573d6000803e3d6000fd5b506001600160a01b03166080526200005b62000061565b620002bb565b600054610100900460ff16806200007b575060005460ff16155b620000d35760405162461bcd60e51b815260206004820152602e6024820152600080516020620057c483398151915260448201526d191e481a5b9a5d1a585b1a5e995960921b60648201526084015b60405180910390fd5b600054610100900460ff16158015620000f6576000805461ffff19166101011790555b6200010062000120565b6200010a620001c5565b80156200011d576000805461ff00191690555b50565b600054610100900460ff16806200013a575060005460ff16155b6200018e5760405162461bcd60e51b815260206004820152602e6024820152600080516020620057c483398151915260448201526d191e481a5b9a5d1a585b1a5e995960921b6064820152608401620000ca565b600054610100900460ff161580156200010a576000805461ffff191661010117905580156200011d576000805461ff001916905550565b600054610100900460ff1680620001df575060005460ff16155b620002335760405162461bcd60e51b815260206004820152602e6024820152600080516020620057c483398151915260448201526d191e481a5b9a5d1a585b1a5e995960921b6064820152608401620000ca565b600054610100900460ff1615801562000256576000805461ffff19166101011790555b6200010a33603380546001600160a01b038381166001600160a01b0319831681179093556040519116919082907f8be0079c531659141344cd1fd0a4f28419497f9722a3daafe3b4186f6b6457e090600090a35050565b614b878062000c3d83390190565b608051610959620002e46000396000818160ac01528181610199015261037701526109596000f3fe6080604052600436106100655760003560e01c8063715018a611610043578063715018a6146100fb5780638da5cb5b14610112578063f2fde38b1461013057600080fd5b80634d51709d1461006a5780635c60da1b1461009a5780635f8745cb146100ce575b600080fd5b61007d610078366004610722565b610150565b6040516001600160a01b0390911681526020015b60405180910390f35b3480156100a657600080fd5b5061007d7f000000000000000000000000000000000000000000000000000000000000000081565b3480156100da57600080fd5b506100ee6100e93660046107b8565b6102d4565b60405161009191906107eb565b34801561010757600080fd5b506101106103e2565b005b34801561011e57600080fd5b506033546001600160a01b031661007d565b34801561013c57600080fd5b5061011061014b366004610838565b61044d565b6040516bffffffffffffffffffffffff193360601b16602082015260348101869052600090819060540160405160208183030381529060405280519060200120905060006101be7f00000000000000000000000000000000000000000000000000000000000000008361052f565b6040517f4cd88b7600000000000000000000000000000000000000000000000000000000815290915081906001600160a01b03821690634cd88b769061020e908b908b908b908b9060040161087c565b600060405180830381600087803b15801561022857600080fd5b505af115801561023c573d6000803e3d6000fd5b50505050806001600160a01b031663f2fde38b6102563390565b6040517fffffffff0000000000000000000000000000000000000000000000000000000060e084901b1681526001600160a01b039091166004820152602401600060405180830381600087803b1580156102af57600080fd5b505af11580156102c3573d6000803e3d6000fd5b50939b9a5050505050505050505050565b606060008267ffffffffffffffff8111156102f1576102f16108ae565b60405190808252806020026020018201604052801561031a578160200160208202803683370190505b50905060005b838110156103d95760008661033587846108da565b60405160609290921b6bffffffffffffffffffffffff19166020830152603482015260540160405160208183030381529060405280519060200120905061039c7f0000000000000000000000000000000000000000000000000000000000000000826105ec565b8383815181106103ae576103ae6108f2565b6001600160a01b039092166020928302919091019091015250806103d181610908565b915050610320565b50949350505050565b6033546001600160a01b031633146104415760405162461bcd60e51b815260206004820181905260248201527f4f776e61626c653a2063616c6c6572206973206e6f7420746865206f776e657260448201526064015b60405180910390fd5b61044b600061066f565b565b6033546001600160a01b031633146104a75760405162461bcd60e51b815260206004820181905260248201527f4f776e61626c653a2063616c6c6572206973206e6f7420746865206f776e65726044820152606401610438565b6001600160a01b0381166105235760405162461bcd60e51b815260206004820152602660248201527f4f776e61626c653a206e6577206f776e657220697320746865207a65726f206160448201527f64647265737300000000000000000000000000000000000000000000000000006064820152608401610438565b61052c8161066f565b50565b60006040517f3d602d80600a3d3981f3363d3d373d3d3d363d7300000000000000000000000081528360601b60148201527f5af43d82803e903d91602b57fd5bf300000000000000000000000000000000006028820152826037826000f59150506001600160a01b0381166105e65760405162461bcd60e51b815260206004820152601760248201527f455243313136373a2063726561746532206661696c65640000000000000000006044820152606401610438565b92915050565b60006106688383306040517f3d602d80600a3d3981f3363d3d373d3d3d363d730000000000000000000000008152606093841b60148201527f5af43d82803e903d91602b57fd5bf3ff000000000000000000000000000000006028820152921b6038830152604c8201526037808220606c830152605591012090565b9392505050565b603380546001600160a01b038381167fffffffffffffffffffffffff0000000000000000000000000000000000000000831681179093556040519116919082907f8be0079c531659141344cd1fd0a4f28419497f9722a3daafe3b4186f6b6457e090600090a35050565b60008083601f8401126106eb57600080fd5b50813567ffffffffffffffff81111561070357600080fd5b60208301915083602082850101111561071b57600080fd5b9250929050565b60008060008060006060868803121561073a57600080fd5b85359450602086013567ffffffffffffffff8082111561075957600080fd5b61076589838a016106d9565b9096509450604088013591508082111561077e57600080fd5b5061078b888289016106d9565b969995985093965092949392505050565b80356001600160a01b03811681146107b357600080fd5b919050565b6000806000606084860312156107cd57600080fd5b6107d68461079c565b95602085013595506040909401359392505050565b6020808252825182820181905260009190848201906040850190845b8181101561082c5783516001600160a01b031683529284019291840191600101610807565b50909695505050505050565b60006020828403121561084a57600080fd5b6106688261079c565b81835281816020850137506000828201602090810191909152601f909101601f19169091010190565b604081526000610890604083018688610853565b82810360208401526108a3818587610853565b979650505050505050565b634e487b7160e01b600052604160045260246000fd5b634e487b7160e01b600052601160045260246000fd5b600082198211156108ed576108ed6108c4565b500190565b634e487b7160e01b600052603260045260246000fd5b600060001982141561091c5761091c6108c4565b506001019056fea264697066735822122027077ae768d07352d2ec295d82ef2ac8e57737b369c613de38229e5773a08eda64736f6c63430008090033608060405234801561001057600080fd5b50614b67806100206000396000f3fe60806040526004361061021d5760003560e01c80638040234d1161011d578063c19d93fb116100b0578063ceb07baf1161007f578063e814cb7111610064578063e814cb71146106a0578063e985e9c514610719578063f2fde38b1461076257600080fd5b8063ceb07baf14610659578063d4cff54b1461066c57600080fd5b8063c19d93fb146105a2578063c87b56dd146105b9578063ccc0b1ec146105d9578063cdc184241461060d57600080fd5b8063a22cb465116100ec578063a22cb46514610522578063a9e966b714610542578063b80f55c914610562578063b88d4fde1461058257600080fd5b80638040234d1461049a5780638da5cb5b146104ad57806393d19f6d146104cb57806395d89b411461050d57600080fd5b806335c93885116101b057806355f804b31161017f5780636c0360eb116101645780636c0360eb1461044257806370a0823114610457578063715018a61461048557600080fd5b806355f804b3146104025780636352211e1461042257600080fd5b806335c938851461038257806342842e0e146103a25780634cd88b76146103c25780634fc41a42146103e257600080fd5b806323250cae116101ec57806323250cae146102da57806323b872dd146103105780632a55205a146103305780632e1a7d4d1461036f57600080fd5b806301ffc9a71461022957806306fdde031461025e578063081812fc14610280578063095ea7b3146102b857600080fd5b3661022457005b600080fd5b34801561023557600080fd5b50610249610244366004613fb9565b610782565b60405190151581526020015b60405180910390f35b34801561026a57600080fd5b506102736107c6565b6040516102559190614035565b34801561028c57600080fd5b506102a061029b366004614048565b610858565b6040516001600160a01b039091168152602001610255565b3480156102c457600080fd5b506102d86102d3366004614076565b6108f2565b005b3480156102e657600080fd5b506102a06102f5366004614048565b60ff602052600090815260409020546001600160a01b031681565b34801561031c57600080fd5b506102d861032b3660046140a2565b610a24565b34801561033c57600080fd5b5061035061034b3660046140e3565b610aac565b604080516001600160a01b039093168352602083019190915201610255565b6102d861037d366004614048565b610b17565b34801561038e57600080fd5b506102d861039d366004614147565b610c78565b3480156103ae57600080fd5b506102d86103bd3660046140a2565b610d7e565b3480156103ce57600080fd5b506102d86103dd366004614147565b610d99565b3480156103ee57600080fd5b506102d86103fd3660046141b3565b610f23565b34801561040e57600080fd5b506102d861041d3660046141cb565b611023565b34801561042e57600080fd5b506102a061043d366004614048565b611119565b34801561044e57600080fd5b506102736111a4565b34801561046357600080fd5b5061047761047236600461420d565b611233565b604051908152602001610255565b34801561049157600080fd5b506102d86112cd565b6102d86104a836600461426f565b611333565b3480156104b957600080fd5b506097546001600160a01b03166102a0565b3480156104d757600080fd5b506104fb6104e6366004614048565b60fe6020526000908152604090205460ff1681565b60405160ff9091168152602001610255565b34801561051957600080fd5b5061027361238c565b34801561052e57600080fd5b506102d861053d3660046142dd565b61239b565b34801561054e57600080fd5b506102d861055d366004614048565b612460565b34801561056e57600080fd5b506102d861057d366004614316565b612542565b34801561058e57600080fd5b506102d861059d366004614393565b6125ef565b3480156105ae57600080fd5b506104776101025481565b3480156105c557600080fd5b506102736105d4366004614048565b61267d565b3480156105e557600080fd5b506104777f381d01cca0918cf7bf0b061e660b6b381a657d19bc0cab24f53e870a93a9e99481565b34801561061957600080fd5b506101005461063a906001600160a01b03811690600160a01b900460ff1682565b604080516001600160a01b039093168352901515602083015201610255565b6102d8610667366004614457565b612a00565b34801561067857600080fd5b506104777f9a9e4711572532758f9d1768cf80aa9a08fa7afd634f20f4edc566b774f2ff3e81565b3480156106ac57600080fd5b506106ed6106bb366004614048565b60fd602052600090815260409020546001600160a01b03811690600160a01b90046bffffffffffffffffffffffff1682565b604080516001600160a01b0390931683526bffffffffffffffffffffffff909116602083015201610255565b34801561072557600080fd5b506102496107343660046144cc565b6001600160a01b039182166000908152606a6020908152604080832093909416825291909152205460ff1690565b34801561076e57600080fd5b506102d861077d36600461420d565b612b4a565b60007f2a55205a000000000000000000000000000000000000000000000000000000006001600160e01b0319831614806107c057506107c082612c2c565b92915050565b6060606580546107d5906144fa565b80601f0160208091040260200160405190810160405280929190818152602001828054610801906144fa565b801561084e5780601f106108235761010080835404028352916020019161084e565b820191906000526020600020905b81548152906001019060200180831161083157829003601f168201915b5050505050905090565b6000818152606760205260408120546001600160a01b03166108d65760405162461bcd60e51b815260206004820152602c60248201527f4552433732313a20617070726f76656420717565727920666f72206e6f6e657860448201526b34b9ba32b73a103a37b5b2b760a11b60648201526084015b60405180910390fd5b506000908152606960205260409020546001600160a01b031690565b60006108fd82611119565b9050806001600160a01b0316836001600160a01b031614156109875760405162461bcd60e51b815260206004820152602160248201527f4552433732313a20617070726f76616c20746f2063757272656e74206f776e6560448201527f720000000000000000000000000000000000000000000000000000000000000060648201526084016108cd565b336001600160a01b03821614806109a357506109a38133610734565b610a155760405162461bcd60e51b815260206004820152603860248201527f4552433732313a20617070726f76652063616c6c6572206973206e6f74206f7760448201527f6e6572206e6f7220617070726f76656420666f7220616c6c000000000000000060648201526084016108cd565b610a1f8383612cc7565b505050565b610a2f335b82612d35565b610aa15760405162461bcd60e51b815260206004820152603160248201527f4552433732313a207472616e736665722063616c6c6572206973206e6f74206f60448201527f776e6572206e6f7220617070726f76656400000000000000000000000000000060648201526084016108cd565b610a1f838383612e2c565b600082815260fd602090815260408083208151808301909252546001600160a01b038116808352600160a01b9091046bffffffffffffffffffffffff169282018390528392620f424090610b009087614545565b610b0a9190614564565b92509250505b9250929050565b6097546001600160a01b0316331480610b445750610100546001600160a01b0316336001600160a01b0316145b610b905760405162461bcd60e51b815260206004820152600260248201527f333000000000000000000000000000000000000000000000000000000000000060448201526064016108cd565b6000808211610b9f5747610ba1565b815b610100549091506000906001600160a01b031615610bcb57610100546001600160a01b0316610bd8565b6097546001600160a01b03165b6001600160a01b03168260405160006040518083038185875af1925050503d8060008114610c22576040519150601f19603f3d011682016040523d82523d6000602084013e610c27565b606091505b5050905080610a1f5760405162461bcd60e51b815260206004820152600260248201527f333100000000000000000000000000000000000000000000000000000000000060448201526064016108cd565b6097546001600160a01b03163314610cd25760405162461bcd60e51b815260206004820181905260248201527f4f776e61626c653a2063616c6c6572206973206e6f7420746865206f776e657260448201526064016108cd565b6101025415610d235760405162461bcd60e51b815260206004820152600260248201527f363000000000000000000000000000000000000000000000000000000000000060448201526064016108cd565b610d2f60658585613e96565b50610d3c60668383613e96565b507f934066d47a89bfcab72db908a0701b9145131ee303cefb44553121c73419e8dd60656066604051610d70929190614626565b60405180910390a150505050565b610a1f838383604051806020016040528060008152506125ef565b600054610100900460ff1680610db2575060005460ff16155b610e155760405162461bcd60e51b815260206004820152602e60248201527f496e697469616c697a61626c653a20636f6e747261637420697320616c72656160448201526d191e481a5b9a5d1a585b1a5e995960921b60648201526084016108cd565b600054610100900460ff16158015610e37576000805461ffff19166101011790555b610eaa85858080601f01602080910402602001604051908101604052809392919081815260200183838082843760009201919091525050604080516020601f89018190048102820181019092528781529250879150869081908401838280828437600092019190915250612ff992505050565b610f0285858080601f016020809104026020016040519081016040528093929190818152602001838380828437600092019190915250506040805180820190915260018152603160f81b602082015291506130c79050565b610f0a61316f565b8015610f1c576000805461ff00191690555b5050505050565b6097546001600160a01b03163314610f7d5760405162461bcd60e51b815260206004820181905260248201527f4f776e61626c653a2063616c6c6572206973206e6f7420746865206f776e657260448201526064016108cd565b61010054600160a01b900460ff1615610fd85760405162461bcd60e51b815260206004820152600260248201527f323000000000000000000000000000000000000000000000000000000000000060448201526064016108cd565b80610100610fe68282614654565b9050507f5d121f0c2b2c4877a2b0a1457c73ce1c28628e5705271cb91db3e49792715cf58160405161101891906146d5565b60405180910390a150565b6097546001600160a01b0316331461107d5760405162461bcd60e51b815260206004820181905260248201527f4f776e61626c653a2063616c6c6572206973206e6f7420746865206f776e657260448201526064016108cd565b61010254156110ce5760405162461bcd60e51b815260206004820152600260248201527f353000000000000000000000000000000000000000000000000000000000000060448201526064016108cd565b6110db6101018383613e96565b507f6741b2fc379fad678116fe3d4d4b9a1a184ab53ba36b86ad0fa66340b1ab41ad828260405161110d92919061470c565b60405180910390a15050565b6000818152606760205260408120546001600160a01b0316806107c05760405162461bcd60e51b815260206004820152602960248201527f4552433732313a206f776e657220717565727920666f72206e6f6e657869737460448201527f656e7420746f6b656e000000000000000000000000000000000000000000000060648201526084016108cd565b61010180546111b2906144fa565b80601f01602080910402602001604051908101604052809291908181526020018280546111de906144fa565b801561122b5780601f106112005761010080835404028352916020019161122b565b820191906000526020600020905b81548152906001019060200180831161120e57829003601f168201915b505050505081565b60006001600160a01b0382166112b15760405162461bcd60e51b815260206004820152602a60248201527f4552433732313a2062616c616e636520717565727920666f7220746865207a6560448201527f726f20616464726573730000000000000000000000000000000000000000000060648201526084016108cd565b506001600160a01b031660009081526068602052604090205490565b6097546001600160a01b031633146113275760405162461bcd60e51b815260206004820181905260248201527f4f776e61626c653a2063616c6c6572206973206e6f7420746865206f776e657260448201526064016108cd565b6113316000613231565b565b61010254156113845760405162461bcd60e51b815260206004820152600160248201527f300000000000000000000000000000000000000000000000000000000000000060448201526064016108cd565b6000805b8481101561233c57368686838181106113a3576113a361473b565b90506020028101906113b59190614751565b9050368585848181106113ca576113ca61473b565b90506020028101906113dc9190614772565b8235600090815260ff60205260409020549091506001600160a01b03161561142a5760405162461bcd60e51b81526020600482015260016024820152603160f81b60448201526064016108cd565b60008061143d60e0850160c0860161420d565b6001600160a01b0316141561145e57611459602083018361420d565b61146e565b61146e60e0840160c0850161420d565b905061147e610160840184614788565b151590506116c05760007f381d01cca0918cf7bf0b061e660b6b381a657d19bc0cab24f53e870a93a9e99484356114bb60a08701608088016147e7565b6114cb60c0880160a0890161420d565b6114db60e0890160c08a0161420d565b6114eb60408a0160208b01614802565b6114fb60608b0160408c01614834565b61150b60808c0160608d01614834565b61151c6101008d0160e08e0161420d565b61152e6101208e016101008f0161485e565b60408051602081019b909b528a019890985260ff90961660608901526001600160a01b03948516608089015292841660a08801526fffffffffffffffffffffffffffffffff90911660c087015267ffffffffffffffff90811660e08701521661010085015216610120838101919091526bffffffffffffffffffffffff90911661014083810191909152908601356101608301528501356101808201527fc5d2460186f7233c927e7db2dcc703c0e500b653ca82273b7bfad8045d85a4706101a08201526101c0016040516020818303038152906040528051906020012090506116206097546001600160a01b031690565b6001600160a01b031661168061163a61018087018761488c565b8080601f01602080910402602001604051908101604052809392919081815260200183838082843760009201919091525061167a92508691506132839050565b906132ec565b6001600160a01b0316146116ba5760405162461bcd60e51b81526020600482015260016024820152601960f91b60448201526064016108cd565b50611f8d565b60006116d0610160850185614788565b905067ffffffffffffffff8111156116ea576116ea61434c565b604051908082528060200260200182016040528015611713578160200160208202803683370190505b50905060005b611727610160860186614788565b9050811015611d92576000611740610160870187614788565b838181106117505761175061473b565b90506060020180360381019061176691906148d3565b805190915060ff166118ae5760208101516001600160a01b03166117d657604081810151600090815260ff60205220546001600160a01b031633146117d15760405162461bcd60e51b81526020600482015260016024820152600760fb1b60448201526064016108cd565b611cfc565b602081015160408083015190517f23250cae000000000000000000000000000000000000000000000000000000008152600481019190915233916001600160a01b0316906323250cae906024015b60206040518083038186803b15801561183c57600080fd5b505afa158015611850573d6000803e3d6000fd5b505050506040513d601f19601f82011682018060405250810190611874919061493c565b6001600160a01b0316146117d15760405162461bcd60e51b81526020600482015260016024820152600760fb1b60448201526064016108cd565b806000015160ff16600114156119605760208101516001600160a01b031661192057604081810151600090815260ff60205220546001600160a01b038581169116146117d15760405162461bcd60e51b81526020600482015260016024820152600760fb1b60448201526064016108cd565b836001600160a01b031681602001516001600160a01b03166323250cae83604001516040518263ffffffff1660e01b815260040161182491815260200190565b806000015160ff1660021415611a8d5760208101516001600160a01b03166119ef57336001600160a01b03166119998260400151611119565b6001600160a01b0316146117d15760405162461bcd60e51b815260206004820152600160248201527f390000000000000000000000000000000000000000000000000000000000000060448201526064016108cd565b602081015160408083015190517f6352211e000000000000000000000000000000000000000000000000000000008152600481019190915233916001600160a01b031690636352211e906024015b60206040518083038186803b158015611a5557600080fd5b505afa158015611a69573d6000803e3d6000fd5b505050506040513d601f19601f82011682018060405250810190611999919061493c565b806000015160ff1660031415611b065760208101516001600160a01b0316611ac657836001600160a01b03166119998260400151611119565b836001600160a01b031681602001516001600160a01b0316636352211e83604001516040518263ffffffff1660e01b8152600401611a3d91815260200190565b806000015160ff1660041415611bf95760208101516001600160a01b0316611b69576040810151611b3633611233565b10156117d15760405162461bcd60e51b8152602060048201526002602482015261031360f41b60448201526064016108cd565b604081015160208201516001600160a01b03166370a08231336040516001600160e01b031960e084901b1681526001600160a01b03909116600482015260240160206040518083038186803b158015611bc157600080fd5b505afa158015611bd5573d6000803e3d6000fd5b505050506040513d601f19601f82011682018060405250810190611b369190614959565b806000015160ff1660051415611cfc5760208101516001600160a01b0316611c29578060400151611b3685611233565b604080820151602083015191517f70a082310000000000000000000000000000000000000000000000000000000081526001600160a01b038781166004830152919291909116906370a082319060240160206040518083038186803b158015611c9157600080fd5b505afa158015611ca5573d6000803e3d6000fd5b505050506040513d601f19601f82011682018060405250810190611cc99190614959565b1015611cfc5760405162461bcd60e51b8152602060048201526002602482015261031360f41b60448201526064016108cd565b805160208083015160408085015181517f9a9e4711572532758f9d1768cf80aa9a08fa7afd634f20f4edc566b774f2ff3e9481019490945260ff909416908301526001600160a01b03166060820152608081019190915260a00160405160208183030381529060405280519060200120838381518110611d7e57611d7e61473b565b602090810291909101015250600101611719565b5060007f381d01cca0918cf7bf0b061e660b6b381a657d19bc0cab24f53e870a93a9e9948535611dc860a08801608089016147e7565b611dd860c0890160a08a0161420d565b611de860e08a0160c08b0161420d565b611df860408b0160208c01614802565b611e0860608c0160408d01614834565b611e1860808d0160608e01614834565b611e296101008e0160e08f0161420d565b8d610100016020810190611e3d919061485e565b8e61012001358f61014001358d604051602001611e5a9190614972565b60408051601f1981840301815282825280516020918201209083019e909e5281019b909b5260ff90991660608b01526001600160a01b0397881660808b015295871660a08a01526fffffffffffffffffffffffffffffffff90941660c089015267ffffffffffffffff92831660e08901529116610100870152929092166101208501526bffffffffffffffffffffffff9091166101408401526101608301526101808201526101a08101919091526101c001604051602081830303815290604052805190602001209050611f366097546001600160a01b031690565b6001600160a01b0316611f5061163a61018088018861488c565b6001600160a01b031614611f8a5760405162461bcd60e51b81526020600482015260016024820152601960f91b60448201526064016108cd565b50505b6000611f9f60c0850160a0860161420d565b6001600160a01b0316146120145733611fbe60c0850160a0860161420d565b6001600160a01b0316146120145760405162461bcd60e51b815260206004820152600160248201527f330000000000000000000000000000000000000000000000000000000000000060448201526064016108cd565b426120256060850160408601614834565b67ffffffffffffffff16111561207d5760405162461bcd60e51b815260206004820152600160248201527f340000000000000000000000000000000000000000000000000000000000000060448201526064016108cd565b4261208e6080850160608601614834565b67ffffffffffffffff1610156120e65760405162461bcd60e51b815260206004820152600160248201527f350000000000000000000000000000000000000000000000000000000000000060448201526064016108cd565b61014083013515612181576000612100602084018461488c565b9050118015612135575061014083013561211d602084018461488c565b60405161212b9291906149a8565b6040518091039020145b6121815760405162461bcd60e51b815260206004820152600160248201527f360000000000000000000000000000000000000000000000000000000000000060448201526064016108cd565b6101208301351561220d57600061219b60408401846149b8565b90501180156121c157506121c16101208401356121bb60408501856149b8565b33613310565b61220d5760405162461bcd60e51b815260206004820152600160248201527f370000000000000000000000000000000000000000000000000000000000000060448201526064016108cd565b61221d60a08401608085016147e7565b60ff16156122585761223560a08401608085016147e7565b8335600090815260fe60205260409020805460ff191660ff929092169190911790555b600061226b610100850160e0860161420d565b6001600160a01b0316146122fd576040805180820190915280612295610100860160e0870161420d565b6001600160a01b031681526020016122b56101208601610100870161485e565b6bffffffffffffffffffffffff9081169091528435600090815260fd6020908152604090912083519390910151909116600160a01b026001600160a01b039092169190911790555b6123088184356133ee565b6123186040840160208501614802565b6fffffffffffffffffffffffffffffffff1685019450836001019350505050611388565b50348114610f1c5760405162461bcd60e51b815260206004820152600260248201527f313100000000000000000000000000000000000000000000000000000000000060448201526064016108cd565b6060606680546107d5906144fa565b6001600160a01b0382163314156123f45760405162461bcd60e51b815260206004820152601960248201527f4552433732313a20617070726f766520746f2063616c6c65720000000000000060448201526064016108cd565b336000818152606a602090815260408083206001600160a01b03871680855290835292819020805460ff191686151590811790915590519081529192917f17307eab39ab6107e8899845ad3d59bd9653f200f220920489ca2b5937696c31910160405180910390a35050565b6097546001600160a01b031633146124ba5760405162461bcd60e51b815260206004820181905260248201527f4f776e61626c653a2063616c6c6572206973206e6f7420746865206f776e657260448201526064016108cd565b610102546002141561250e5760405162461bcd60e51b815260206004820152600260248201527f343000000000000000000000000000000000000000000000000000000000000060448201526064016108cd565b61010281905560405181907f118f8ba10d647100925b2343f3030d110623f17b284ced4316cbe4b8f138883f90600090a250565b60005b81811015610a1f5760008383838181106125615761256161473b565b905060200201359050612574610a293390565b6125c05760405162461bcd60e51b815260206004820152600260248201527f313500000000000000000000000000000000000000000000000000000000000060448201526064016108cd565b6125c981613530565b600090815260ff6020526040902080546001600160a01b03191633179055600101612545565b6125f93383612d35565b61266b5760405162461bcd60e51b815260206004820152603160248201527f4552433732313a207472616e736665722063616c6c6572206973206e6f74206f60448201527f776e6572206e6f7220617070726f76656400000000000000000000000000000060648201526084016108cd565b612677848484846135cb565b50505050565b6000818152606760205260409020546060906001600160a01b031661270a5760405162461bcd60e51b815260206004820152602f60248201527f4552433732314d657461646174613a2055524920717565727920666f72206e6f60448201527f6e6578697374656e7420746f6b656e000000000000000000000000000000000060648201526084016108cd565b6040805180820190915260208082527f6162636465666768696a6b6c6d6e6f707172737475767778797a323334353637908201526101018054849291600091829190612755906144fa565b905011612797576040518060400160405280600781526020017f697066733a2f2f00000000000000000000000000000000000000000000000000815250612824565b61010180546127a5906144fa565b80601f01602080910402602001604051908101604052809291908181526020018280546127d1906144fa565b801561281e5780601f106127f35761010080835404028352916020019161281e565b820191906000526020600020905b81548152906001019060200180831161280157829003601f168201915b50505050505b600086815260fe602052604081205491925090829060ff161561287c576040518060400160405280600781526020017f62616679626569000000000000000000000000000000000000000000000000008152506128b3565b6040518060400160405280600781526020017f6261666b726569000000000000000000000000000000000000000000000000008152505b6040516020016128c4929190614a02565b60408051601f19818403018152919052905060026301701220600560006128ed60016020614a31565b905060005b602081101561299c576000612908826008614545565b8c901b60f881901c600896871b63ffffff0016179590915061292a9087614a48565b95505b8386111561298b5761293f8487614a31565b955086898787901c8516815181106129595761295961473b565b602001015160f81c60f81b604051602001612975929190614a60565b604051602081830303815290604052965061292d565b5061299581614aa7565b90506128f2565b5083156129f25784876129af8685614a31565b85901b8316815181106129c4576129c461473b565b602001015160f81c60f81b6040516020016129e0929190614a60565b60405160208183030381529060405294505b509298975050505050505050565b6097546001600160a01b03163314612a5a5760405162461bcd60e51b815260206004820181905260248201527f4f776e61626c653a2063616c6c6572206973206e6f7420746865206f776e657260448201526064016108cd565b60005b81811015610a1f5736838383818110612a7857612a7861473b565b905060a002019050612a9d816020016020810190612a96919061420d565b82356133ee565b6000612aaf606083016040840161420d565b6001600160a01b031614612b41576040518060400160405280826040016020810190612adb919061420d565b6001600160a01b03168152602001612af9608084016060850161485e565b6bffffffffffffffffffffffff9081169091528235600090815260fd6020908152604090912083519390910151909116600160a01b026001600160a01b039092169190911790555b50600101612a5d565b6097546001600160a01b03163314612ba45760405162461bcd60e51b815260206004820181905260248201527f4f776e61626c653a2063616c6c6572206973206e6f7420746865206f776e657260448201526064016108cd565b6001600160a01b038116612c205760405162461bcd60e51b815260206004820152602660248201527f4f776e61626c653a206e6577206f776e657220697320746865207a65726f206160448201527f646472657373000000000000000000000000000000000000000000000000000060648201526084016108cd565b612c2981613231565b50565b60006001600160e01b031982167f80ac58cd000000000000000000000000000000000000000000000000000000001480612c8f57506001600160e01b031982167f5b5e139f00000000000000000000000000000000000000000000000000000000145b806107c057507f01ffc9a7000000000000000000000000000000000000000000000000000000006001600160e01b03198316146107c0565b600081815260696020526040902080546001600160a01b0319166001600160a01b0384169081179091558190612cfc82611119565b6001600160a01b03167f8c5be1e5ebec7d5bd14f71427d1e84f3dd0314c0f7b2291e5b200ac8c7c3b92560405160405180910390a45050565b6000818152606760205260408120546001600160a01b0316612dae5760405162461bcd60e51b815260206004820152602c60248201527f4552433732313a206f70657261746f7220717565727920666f72206e6f6e657860448201526b34b9ba32b73a103a37b5b2b760a11b60648201526084016108cd565b6000612db983611119565b9050806001600160a01b0316846001600160a01b03161480612df45750836001600160a01b0316612de984610858565b6001600160a01b0316145b80612e2457506001600160a01b038082166000908152606a602090815260408083209388168352929052205460ff165b949350505050565b826001600160a01b0316612e3f82611119565b6001600160a01b031614612ebb5760405162461bcd60e51b815260206004820152602960248201527f4552433732313a207472616e73666572206f6620746f6b656e2074686174206960448201527f73206e6f74206f776e000000000000000000000000000000000000000000000060648201526084016108cd565b6001600160a01b038216612f365760405162461bcd60e51b8152602060048201526024808201527f4552433732313a207472616e7366657220746f20746865207a65726f2061646460448201527f726573730000000000000000000000000000000000000000000000000000000060648201526084016108cd565b612f41600082612cc7565b6001600160a01b0383166000908152606860205260408120805460019290612f6a908490614a31565b90915550506001600160a01b0382166000908152606860205260408120805460019290612f98908490614a48565b909155505060008181526067602052604080822080546001600160a01b0319166001600160a01b0386811691821790925591518493918716917fddf252ad1be2c89b69c2b068fc378daa952ba7f163c4a11628f55a4df523b3ef91a4505050565b600054610100900460ff1680613012575060005460ff16155b6130755760405162461bcd60e51b815260206004820152602e60248201527f496e697469616c697a61626c653a20636f6e747261637420697320616c72656160448201526d191e481a5b9a5d1a585b1a5e995960921b60648201526084016108cd565b600054610100900460ff16158015613097576000805461ffff19166101011790555b61309f613654565b6130a7613654565b6130b18383613705565b8015610a1f576000805461ff0019169055505050565b600054610100900460ff16806130e0575060005460ff16155b6131435760405162461bcd60e51b815260206004820152602e60248201527f496e697469616c697a61626c653a20636f6e747261637420697320616c72656160448201526d191e481a5b9a5d1a585b1a5e995960921b60648201526084016108cd565b600054610100900460ff16158015613165576000805461ffff19166101011790555b6130b183836137e1565b600054610100900460ff1680613188575060005460ff16155b6131eb5760405162461bcd60e51b815260206004820152602e60248201527f496e697469616c697a61626c653a20636f6e747261637420697320616c72656160448201526d191e481a5b9a5d1a585b1a5e995960921b60648201526084016108cd565b600054610100900460ff1615801561320d576000805461ffff19166101011790555b613215613654565b61321d6138b2565b8015612c29576000805461ff001916905550565b609780546001600160a01b038381166001600160a01b0319831681179093556040519116919082907f8be0079c531659141344cd1fd0a4f28419497f9722a3daafe3b4186f6b6457e090600090a35050565b60006107c0613290613959565b836040517f19010000000000000000000000000000000000000000000000000000000000006020820152602281018390526042810182905260009060620160405160208183030381529060405280519060200120905092915050565b60008060006132fb85856139d9565b9150915061330881613a46565b509392505050565b6040516bffffffffffffffffffffffff19606083901b166020820152600090819060340160405160208183030381529060405280519060200120905060005b848110156133e257600086868381811061336b5761336b61473b565b9050602002013590508083116133ac5760408051602081018590529081018290526060016040516020818303038152906040528051906020012092506133d9565b60408051602081018390529081018490526060016040516020818303038152906040528051906020012092505b5060010161334f565b50909414949350505050565b6001600160a01b0382166134445760405162461bcd60e51b815260206004820181905260248201527f4552433732313a206d696e7420746f20746865207a65726f206164647265737360448201526064016108cd565b6000818152606760205260409020546001600160a01b0316156134a95760405162461bcd60e51b815260206004820152601c60248201527f4552433732313a20746f6b656e20616c7265616479206d696e7465640000000060448201526064016108cd565b6001600160a01b03821660009081526068602052604081208054600192906134d2908490614a48565b909155505060008181526067602052604080822080546001600160a01b0319166001600160a01b03861690811790915590518392907fddf252ad1be2c89b69c2b068fc378daa952ba7f163c4a11628f55a4df523b3ef908290a45050565b600061353b82611119565b9050613548600083612cc7565b6001600160a01b0381166000908152606860205260408120805460019290613571908490614a31565b909155505060008281526067602052604080822080546001600160a01b0319169055518391906001600160a01b038416907fddf252ad1be2c89b69c2b068fc378daa952ba7f163c4a11628f55a4df523b3ef908390a45050565b6135d6848484612e2c565b6135e284848484613c01565b6126775760405162461bcd60e51b815260206004820152603260248201527f4552433732313a207472616e7366657220746f206e6f6e20455243373231526560448201527f63656976657220696d706c656d656e746572000000000000000000000000000060648201526084016108cd565b600054610100900460ff168061366d575060005460ff16155b6136d05760405162461bcd60e51b815260206004820152602e60248201527f496e697469616c697a61626c653a20636f6e747261637420697320616c72656160448201526d191e481a5b9a5d1a585b1a5e995960921b60648201526084016108cd565b600054610100900460ff1615801561321d576000805461ffff19166101011790558015612c29576000805461ff001916905550565b600054610100900460ff168061371e575060005460ff16155b6137815760405162461bcd60e51b815260206004820152602e60248201527f496e697469616c697a61626c653a20636f6e747261637420697320616c72656160448201526d191e481a5b9a5d1a585b1a5e995960921b60648201526084016108cd565b600054610100900460ff161580156137a3576000805461ffff19166101011790555b82516137b6906065906020860190613f1a565b5081516137ca906066906020850190613f1a565b508015610a1f576000805461ff0019169055505050565b600054610100900460ff16806137fa575060005460ff16155b61385d5760405162461bcd60e51b815260206004820152602e60248201527f496e697469616c697a61626c653a20636f6e747261637420697320616c72656160448201526d191e481a5b9a5d1a585b1a5e995960921b60648201526084016108cd565b600054610100900460ff1615801561387f576000805461ffff19166101011790555b825160208085019190912083519184019190912060c99190915560ca558015610a1f576000805461ff0019169055505050565b600054610100900460ff16806138cb575060005460ff16155b61392e5760405162461bcd60e51b815260206004820152602e60248201527f496e697469616c697a61626c653a20636f6e747261637420697320616c72656160448201526d191e481a5b9a5d1a585b1a5e995960921b60648201526084016108cd565b600054610100900460ff16158015613950576000805461ffff19166101011790555b61321d33613231565b60006139d47f8b73c3c69bb8fe3d512ecc4cf759cc79239f7b179b0ffacaa9a75d522b39400f61398860c95490565b60ca546040805160208101859052908101839052606081018290524660808201523060a082015260009060c0016040516020818303038152906040528051906020012090509392505050565b905090565b600080825160411415613a105760208301516040840151606085015160001a613a0487828585613d61565b94509450505050610b10565b825160401415613a3a5760208301516040840151613a2f868383613e4e565b935093505050610b10565b50600090506002610b10565b6000816004811115613a5a57613a5a614ac2565b1415613a635750565b6001816004811115613a7757613a77614ac2565b1415613ac55760405162461bcd60e51b815260206004820152601860248201527f45434453413a20696e76616c6964207369676e6174757265000000000000000060448201526064016108cd565b6002816004811115613ad957613ad9614ac2565b1415613b275760405162461bcd60e51b815260206004820152601f60248201527f45434453413a20696e76616c6964207369676e6174757265206c656e6774680060448201526064016108cd565b6003816004811115613b3b57613b3b614ac2565b1415613b945760405162461bcd60e51b815260206004820152602260248201527f45434453413a20696e76616c6964207369676e6174757265202773272076616c604482015261756560f01b60648201526084016108cd565b6004816004811115613ba857613ba8614ac2565b1415612c295760405162461bcd60e51b815260206004820152602260248201527f45434453413a20696e76616c6964207369676e6174757265202776272076616c604482015261756560f01b60648201526084016108cd565b60006001600160a01b0384163b15613d5957604051630a85bd0160e11b81526001600160a01b0385169063150b7a0290613c45903390899088908890600401614ad8565b602060405180830381600087803b158015613c5f57600080fd5b505af1925050508015613c8f575060408051601f3d908101601f19168201909252613c8c91810190614b14565b60015b613d3f573d808015613cbd576040519150601f19603f3d011682016040523d82523d6000602084013e613cc2565b606091505b508051613d375760405162461bcd60e51b815260206004820152603260248201527f4552433732313a207472616e7366657220746f206e6f6e20455243373231526560448201527f63656976657220696d706c656d656e746572000000000000000000000000000060648201526084016108cd565b805181602001fd5b6001600160e01b031916630a85bd0160e11b149050612e24565b506001612e24565b6000807f7fffffffffffffffffffffffffffffff5d576e7357a4501ddfe92f46681b20a0831115613d985750600090506003613e45565b8460ff16601b14158015613db057508460ff16601c14155b15613dc15750600090506004613e45565b6040805160008082526020820180845289905260ff881692820192909252606081018690526080810185905260019060a0016020604051602081039080840390855afa158015613e15573d6000803e3d6000fd5b5050604051601f1901519150506001600160a01b038116613e3e57600060019250925050613e45565b9150600090505b94509492505050565b6000807f7fffffffffffffffffffffffffffffffffffffffffffffffffffffffffffffff831660ff84901c601b01613e8887828885613d61565b935093505050935093915050565b828054613ea2906144fa565b90600052602060002090601f016020900481019282613ec45760008555613f0a565b82601f10613edd5782800160ff19823516178555613f0a565b82800160010185558215613f0a579182015b82811115613f0a578235825591602001919060010190613eef565b50613f16929150613f8e565b5090565b828054613f26906144fa565b90600052602060002090601f016020900481019282613f485760008555613f0a565b82601f10613f6157805160ff1916838001178555613f0a565b82800160010185558215613f0a579182015b82811115613f0a578251825591602001919060010190613f73565b5b80821115613f165760008155600101613f8f565b6001600160e01b031981168114612c2957600080fd5b600060208284031215613fcb57600080fd5b8135613fd681613fa3565b9392505050565b60005b83811015613ff8578181015183820152602001613fe0565b838111156126775750506000910152565b60008151808452614021816020860160208601613fdd565b601f01601f19169290920160200192915050565b602081526000613fd66020830184614009565b60006020828403121561405a57600080fd5b5035919050565b6001600160a01b0381168114612c2957600080fd5b6000806040838503121561408957600080fd5b823561409481614061565b946020939093013593505050565b6000806000606084860312156140b757600080fd5b83356140c281614061565b925060208401356140d281614061565b929592945050506040919091013590565b600080604083850312156140f657600080fd5b50508035926020909101359150565b60008083601f84011261411757600080fd5b50813567ffffffffffffffff81111561412f57600080fd5b602083019150836020828501011115610b1057600080fd5b6000806000806040858703121561415d57600080fd5b843567ffffffffffffffff8082111561417557600080fd5b61418188838901614105565b9096509450602087013591508082111561419a57600080fd5b506141a787828801614105565b95989497509550505050565b6000604082840312156141c557600080fd5b50919050565b600080602083850312156141de57600080fd5b823567ffffffffffffffff8111156141f557600080fd5b61420185828601614105565b90969095509350505050565b60006020828403121561421f57600080fd5b8135613fd681614061565b60008083601f84011261423c57600080fd5b50813567ffffffffffffffff81111561425457600080fd5b6020830191508360208260051b8501011115610b1057600080fd5b6000806000806040858703121561428557600080fd5b843567ffffffffffffffff8082111561429d57600080fd5b6142a98883890161422a565b909650945060208701359150808211156142c257600080fd5b506141a78782880161422a565b8015158114612c2957600080fd5b600080604083850312156142f057600080fd5b82356142fb81614061565b9150602083013561430b816142cf565b809150509250929050565b6000806020838503121561432957600080fd5b823567ffffffffffffffff81111561434057600080fd5b6142018582860161422a565b634e487b7160e01b600052604160045260246000fd5b604051601f8201601f1916810167ffffffffffffffff8111828210171561438b5761438b61434c565b604052919050565b600080600080608085870312156143a957600080fd5b84356143b481614061565b93506020858101356143c581614061565b935060408601359250606086013567ffffffffffffffff808211156143e957600080fd5b818801915088601f8301126143fd57600080fd5b81358181111561440f5761440f61434c565b614421601f8201601f19168501614362565b9150808252898482850101111561443757600080fd5b808484018584013760008482840101525080935050505092959194509250565b6000806020838503121561446a57600080fd5b823567ffffffffffffffff8082111561448257600080fd5b818501915085601f83011261449657600080fd5b8135818111156144a557600080fd5b86602060a0830285010111156144ba57600080fd5b60209290920196919550909350505050565b600080604083850312156144df57600080fd5b82356144ea81614061565b9150602083013561430b81614061565b600181811c9082168061450e57607f821691505b602082108114156141c557634e487b7160e01b600052602260045260246000fd5b634e487b7160e01b600052601160045260246000fd5b600081600019048311821515161561455f5761455f61452f565b500290565b60008261458157634e487b7160e01b600052601260045260246000fd5b500490565b8054600090600181811c90808316806145a057607f831692505b60208084108214156145c257634e487b7160e01b600052602260045260246000fd5b838852602088018280156145dd57600181146145ee57614619565b60ff19871682528282019750614619565b60008981526020902060005b87811015614613578154848201529086019084016145fa565b83019850505b5050505050505092915050565b6040815260006146396040830185614586565b828103602084015261464b8185614586565b95945050505050565b813561465f81614061565b6001600160a01b03811690508154816001600160a01b03198216178355602084013561468a816142cf565b7fffffffffffffffffffffff0000000000000000000000000000000000000000009190911690911790151560a01b74ff00000000000000000000000000000000000000001617905550565b6040810182356146e481614061565b6001600160a01b0316825260208301356146fd816142cf565b80151560208401525092915050565b60208152816020820152818360408301376000818301604090810191909152601f909201601f19160101919050565b634e487b7160e01b600052603260045260246000fd5b6000823561019e1983360301811261476857600080fd5b9190910192915050565b60008235605e1983360301811261476857600080fd5b6000808335601e1984360301811261479f57600080fd5b83018035915067ffffffffffffffff8211156147ba57600080fd5b6020019150606081023603821315610b1057600080fd5b803560ff811681146147e257600080fd5b919050565b6000602082840312156147f957600080fd5b613fd6826147d1565b60006020828403121561481457600080fd5b81356fffffffffffffffffffffffffffffffff81168114613fd657600080fd5b60006020828403121561484657600080fd5b813567ffffffffffffffff81168114613fd657600080fd5b60006020828403121561487057600080fd5b81356bffffffffffffffffffffffff81168114613fd657600080fd5b6000808335601e198436030181126148a357600080fd5b83018035915067ffffffffffffffff8211156148be57600080fd5b602001915036819003821315610b1057600080fd5b6000606082840312156148e557600080fd5b6040516060810181811067ffffffffffffffff821117156149085761490861434c565b604052614914836147d1565b8152602083013561492481614061565b60208201526040928301359281019290925250919050565b60006020828403121561494e57600080fd5b8151613fd681614061565b60006020828403121561496b57600080fd5b5051919050565b815160009082906020808601845b8381101561499c57815185529382019390820190600101614980565b50929695505050505050565b8183823760009101908152919050565b6000808335601e198436030181126149cf57600080fd5b83018035915067ffffffffffffffff8211156149ea57600080fd5b6020019150600581901b3603821315610b1057600080fd5b60008351614a14818460208801613fdd565b835190830190614a28818360208801613fdd565b01949350505050565b600082821015614a4357614a4361452f565b500390565b60008219821115614a5b57614a5b61452f565b500190565b60008351614a72818460208801613fdd565b7fff00000000000000000000000000000000000000000000000000000000000000939093169190920190815260010192915050565b6000600019821415614abb57614abb61452f565b5060010190565b634e487b7160e01b600052602160045260246000fd5b60006001600160a01b03808716835280861660208401525083604083015260806060830152614b0a6080830184614009565b9695505050505050565b600060208284031215614b2657600080fd5b8151613fd681613fa356fea2646970667358221220c443facab431292ab51360497e3d26499504ad21000d87056c584616cc19bc3864736f6c63430008090033496e697469616c697a61626c653a20636f6e747261637420697320616c726561",
  "linkReferences": {},
  "deployedLinkReferences": {}
}