{
  "_format": "hh-sol-artifact-1",
  "contractName": "Factory",
  "sourceName": "contracts/Factory.sol",
  "abi": [
    {
      "inputs": [],
      "stateMutability": "nonpayable",
      "type": "constructor"
    },
    {
      "anonymous": false,
      "inputs": [
        {
          "indexed": true,
          "internalType": "address",
          "name": "previousOwner",
          "type": "address"
        },
        {
          "indexed": true,
          "internalType": "address",
          "name": "newOwner",
          "type": "address"
        }
      ],
      "name": "OwnershipTransferred",
      "type": "event"
    },
    {
      "inputs": [
        {
          "internalType": "address",
          "name": "creator",
          "type": "address"
        },
        {
          "internalType": "uint256",
          "name": "start",
          "type": "uint256"
        },
        {
          "internalType": "uint256",
          "name": "count",
          "type": "uint256"
        }
      ],
      "name": "find",
      "outputs": [
        {
          "internalType": "address[]",
          "name": "",
          "type": "address[]"
        }
      ],
      "stateMutability": "view",
      "type": "function"
    },
    {
      "inputs": [
        {
          "internalType": "uint256",
          "name": "_index",
          "type": "uint256"
        },
        {
          "internalType": "string",
          "name": "name",
          "type": "string"
        },
        {
          "internalType": "string",
          "name": "symbol",
          "type": "string"
        }
      ],
      "name": "genesis",
      "outputs": [
        {
          "internalType": "address",
          "name": "",
          "type": "address"
        }
      ],
      "stateMutability": "payable",
      "type": "function"
    },
    {
      "inputs": [],
      "name": "implementation",
      "outputs": [
        {
          "internalType": "address",
          "name": "",
          "type": "address"
        }
      ],
      "stateMutability": "view",
      "type": "function"
    },
    {
      "inputs": [],
      "name": "owner",
      "outputs": [
        {
          "internalType": "address",
          "name": "",
          "type": "address"
        }
      ],
      "stateMutability": "view",
      "type": "function"
    },
    {
      "inputs": [],
      "name": "renounceOwnership",
      "outputs": [],
      "stateMutability": "nonpayable",
      "type": "function"
    },
    {
      "inputs": [
        {
          "internalType": "address",
          "name": "newOwner",
          "type": "address"
        }
      ],
      "name": "transferOwnership",
      "outputs": [],
      "stateMutability": "nonpayable",
      "type": "function"
    }
  ],
  "bytecode": "0x60a06040523480156200001157600080fd5b506040516001906200002390620002ad565b8190604051809103906000f590508015801562000044573d6000803e3d6000fd5b506001600160a01b03166080526200005b62000061565b620002bb565b600054610100900460ff16806200007b575060005460ff16155b620000d35760405162461bcd60e51b815260206004820152602e602482015260008051602062005a7083398151915260448201526d191e481a5b9a5d1a585b1a5e995960921b60648201526084015b60405180910390fd5b600054610100900460ff16158015620000f6576000805461ffff19166101011790555b6200010062000120565b6200010a620001c5565b80156200011d576000805461ff00191690555b50565b600054610100900460ff16806200013a575060005460ff16155b6200018e5760405162461bcd60e51b815260206004820152602e602482015260008051602062005a7083398151915260448201526d191e481a5b9a5d1a585b1a5e995960921b6064820152608401620000ca565b600054610100900460ff161580156200010a576000805461ffff191661010117905580156200011d576000805461ff001916905550565b600054610100900460ff1680620001df575060005460ff16155b620002335760405162461bcd60e51b815260206004820152602e602482015260008051602062005a7083398151915260448201526d191e481a5b9a5d1a585b1a5e995960921b6064820152608401620000ca565b600054610100900460ff1615801562000256576000805461ffff19166101011790555b6200010a33603380546001600160a01b038381166001600160a01b0319831681179093556040519116919082907f8be0079c531659141344cd1fd0a4f28419497f9722a3daafe3b4186f6b6457e090600090a35050565b614e338062000c3d83390190565b608051610959620002e46000396000818160ac01528181610199015261037701526109596000f3fe6080604052600436106100655760003560e01c8063715018a611610043578063715018a6146100fb5780638da5cb5b14610112578063f2fde38b1461013057600080fd5b80634d51709d1461006a5780635c60da1b1461009a5780635f8745cb146100ce575b600080fd5b61007d610078366004610722565b610150565b6040516001600160a01b0390911681526020015b60405180910390f35b3480156100a657600080fd5b5061007d7f000000000000000000000000000000000000000000000000000000000000000081565b3480156100da57600080fd5b506100ee6100e93660046107b8565b6102d4565b60405161009191906107eb565b34801561010757600080fd5b506101106103e2565b005b34801561011e57600080fd5b506033546001600160a01b031661007d565b34801561013c57600080fd5b5061011061014b366004610838565b61044d565b6040516bffffffffffffffffffffffff193360601b16602082015260348101869052600090819060540160405160208183030381529060405280519060200120905060006101be7f00000000000000000000000000000000000000000000000000000000000000008361052f565b6040517f4cd88b7600000000000000000000000000000000000000000000000000000000815290915081906001600160a01b03821690634cd88b769061020e908b908b908b908b9060040161087c565b600060405180830381600087803b15801561022857600080fd5b505af115801561023c573d6000803e3d6000fd5b50505050806001600160a01b031663f2fde38b6102563390565b6040517fffffffff0000000000000000000000000000000000000000000000000000000060e084901b1681526001600160a01b039091166004820152602401600060405180830381600087803b1580156102af57600080fd5b505af11580156102c3573d6000803e3d6000fd5b50939b9a5050505050505050505050565b606060008267ffffffffffffffff8111156102f1576102f16108ae565b60405190808252806020026020018201604052801561031a578160200160208202803683370190505b50905060005b838110156103d95760008661033587846108da565b60405160609290921b6bffffffffffffffffffffffff19166020830152603482015260540160405160208183030381529060405280519060200120905061039c7f0000000000000000000000000000000000000000000000000000000000000000826105ec565b8383815181106103ae576103ae6108f2565b6001600160a01b039092166020928302919091019091015250806103d181610908565b915050610320565b50949350505050565b6033546001600160a01b031633146104415760405162461bcd60e51b815260206004820181905260248201527f4f776e61626c653a2063616c6c6572206973206e6f7420746865206f776e657260448201526064015b60405180910390fd5b61044b600061066f565b565b6033546001600160a01b031633146104a75760405162461bcd60e51b815260206004820181905260248201527f4f776e61626c653a2063616c6c6572206973206e6f7420746865206f776e65726044820152606401610438565b6001600160a01b0381166105235760405162461bcd60e51b815260206004820152602660248201527f4f776e61626c653a206e6577206f776e657220697320746865207a65726f206160448201527f64647265737300000000000000000000000000000000000000000000000000006064820152608401610438565b61052c8161066f565b50565b60006040517f3d602d80600a3d3981f3363d3d373d3d3d363d7300000000000000000000000081528360601b60148201527f5af43d82803e903d91602b57fd5bf300000000000000000000000000000000006028820152826037826000f59150506001600160a01b0381166105e65760405162461bcd60e51b815260206004820152601760248201527f455243313136373a2063726561746532206661696c65640000000000000000006044820152606401610438565b92915050565b60006106688383306040517f3d602d80600a3d3981f3363d3d373d3d3d363d730000000000000000000000008152606093841b60148201527f5af43d82803e903d91602b57fd5bf3ff000000000000000000000000000000006028820152921b6038830152604c8201526037808220606c830152605591012090565b9392505050565b603380546001600160a01b038381167fffffffffffffffffffffffff0000000000000000000000000000000000000000831681179093556040519116919082907f8be0079c531659141344cd1fd0a4f28419497f9722a3daafe3b4186f6b6457e090600090a35050565b60008083601f8401126106eb57600080fd5b50813567ffffffffffffffff81111561070357600080fd5b60208301915083602082850101111561071b57600080fd5b9250929050565b60008060008060006060868803121561073a57600080fd5b85359450602086013567ffffffffffffffff8082111561075957600080fd5b61076589838a016106d9565b9096509450604088013591508082111561077e57600080fd5b5061078b888289016106d9565b969995985093965092949392505050565b80356001600160a01b03811681146107b357600080fd5b919050565b6000806000606084860312156107cd57600080fd5b6107d68461079c565b95602085013595506040909401359392505050565b6020808252825182820181905260009190848201906040850190845b8181101561082c5783516001600160a01b031683529284019291840191600101610807565b50909695505050505050565b60006020828403121561084a57600080fd5b6106688261079c565b81835281816020850137506000828201602090810191909152601f909101601f19169091010190565b604081526000610890604083018688610853565b82810360208401526108a3818587610853565b979650505050505050565b634e487b7160e01b600052604160045260246000fd5b634e487b7160e01b600052601160045260246000fd5b600082198211156108ed576108ed6108c4565b500190565b634e487b7160e01b600052603260045260246000fd5b600060001982141561091c5761091c6108c4565b506001019056fea2646970667358221220b4e2483da40ca6847315f0f1dfb04f36a9ffead7ebcbf46ccfbd45ce7219ca1664736f6c63430008090033608060405234801561001057600080fd5b50614e13806100206000396000f3fe6080604052600436106102385760003560e01c80636c0360eb11610138578063b88d4fde116100b0578063cdc184241161007f578063e814cb7111610064578063e814cb71146106ef578063e985e9c514610768578063f2fde38b146107b157600080fd5b8063cdc184241461066f578063e1b22046146106bb57600080fd5b8063b88d4fde146105e4578063c19d93fb14610604578063c87b56dd1461061b578063ccc0b1ec1461063b57600080fd5b806393d19f6d11610107578063a22cb465116100ec578063a22cb46514610584578063a9e966b7146105a4578063b80f55c9146105c457600080fd5b806393d19f6d1461052d57806395d89b411461056f57600080fd5b80636c0360eb146104c557806370a08231146104da578063715018a6146104fa5780638da5cb5b1461050f57600080fd5b80632e1a7d4d116101cb5780634cd88b761161019a57806355f804b31161017f57806355f804b3146104725780636352211e1461049257806369134991146104b257600080fd5b80634cd88b76146104325780634fc41a421461045257600080fd5b80632e1a7d4d1461039d57806334004598146103b057806335c93885146103f257806342842e0e1461041257600080fd5b8063095ea7b311610207578063095ea7b3146102e857806323250cae1461030857806323b872dd1461033e5780632a55205a1461035e57600080fd5b806301791b271461024457806301ffc9a71461025957806306fdde031461028e578063081812fc146102b057600080fd5b3661023f57005b600080fd5b6102576102523660046142c2565b6107d1565b005b34801561026557600080fd5b5061027961027436600461431a565b6109a5565b60405190151581526020015b60405180910390f35b34801561029a57600080fd5b506102a36109e9565b6040516102859190614396565b3480156102bc57600080fd5b506102d06102cb3660046143a9565b610a7b565b6040516001600160a01b039091168152602001610285565b3480156102f457600080fd5b506102576103033660046143d7565b610b10565b34801561031457600080fd5b506102d06103233660046143a9565b60ff602052600090815260409020546001600160a01b031681565b34801561034a57600080fd5b50610257610359366004614403565b610c3d565b34801561036a57600080fd5b5061037e610379366004614444565b610cc5565b604080516001600160a01b039093168352602083019190915201610285565b6102576103ab3660046143a9565b610d30565b3480156103bc57600080fd5b506103e47fac82d8b9ba5b5dc17dde8ad35b7209c7132c6529256b6a9cec43456cabb9b29181565b604051908152602001610285565b3480156103fe57600080fd5b5061025761040d3660046144a8565b610dfc565b34801561041e57600080fd5b5061025761042d366004614403565b610f02565b34801561043e57600080fd5b5061025761044d3660046144a8565b610f1d565b34801561045e57600080fd5b5061025761046d366004614514565b6110a7565b34801561047e57600080fd5b5061025761048d36600461452c565b6111a7565b34801561049e57600080fd5b506102d06104ad3660046143a9565b61129d565b6102576104c0366004614562565b611328565b3480156104d157600080fd5b506102a36125dc565b3480156104e657600080fd5b506103e46104f53660046145c2565b61266b565b34801561050657600080fd5b50610257612705565b34801561051b57600080fd5b506097546001600160a01b03166102d0565b34801561053957600080fd5b5061055d6105483660046143a9565b60fe6020526000908152604090205460ff1681565b60405160ff9091168152602001610285565b34801561057b57600080fd5b506102a361276b565b34801561059057600080fd5b5061025761059f3660046145ed565b61277a565b3480156105b057600080fd5b506102576105bf3660046143a9565b61283f565b3480156105d057600080fd5b506102576105df3660046142c2565b612921565b3480156105f057600080fd5b506102576105ff366004614696565b6129ce565b34801561061057600080fd5b506103e46101025481565b34801561062757600080fd5b506102a36106363660046143a9565b612a5c565b34801561064757600080fd5b506103e47fd0a7aa2f12f6635b8fcf1ff677c6a131c33d1c97cf6c6aad4fe3907f9c822b9b81565b34801561067b57600080fd5b506101005461069c906001600160a01b03811690600160a01b900460ff1682565b604080516001600160a01b039093168352901515602083015201610285565b3480156106c757600080fd5b506103e47fa8429bfd1dd4da6c67a09e5c5a89115acae264879c22f767979685932461d1c281565b3480156106fb57600080fd5b5061073c61070a3660046143a9565b60fd602052600090815260409020546001600160a01b03811690600160a01b90046bffffffffffffffffffffffff1682565b604080516001600160a01b0390931683526bffffffffffffffffffffffff909116602083015201610285565b34801561077457600080fd5b5061027961078336600461475a565b6001600160a01b039182166000908152606a6020908152604080832093909416825291909152205460ff1690565b3480156107bd57600080fd5b506102576107cc3660046145c2565b612ddf565b6097546001600160a01b031633146108305760405162461bcd60e51b815260206004820181905260248201527f4f776e61626c653a2063616c6c6572206973206e6f7420746865206f776e657260448201526064015b60405180910390fd5b61010254156108655760405162461bcd60e51b81526020600482015260016024820152600360fc1b6044820152606401610827565b60005b818110156109a0573683838381811061088357610883614788565b9050602002810190610895919061479e565b90506108b16108aa60408301602084016145c2565b8235612ec1565b60006108c060408301836147be565b905011156109975760405180604001604052808280604001906108e391906147be565b60008181106108f4576108f4614788565b905060600201604001602081019061090c91906145c2565b6001600160a01b0316815260200161092760408401846147be565b600081811061093857610938614788565b9050606002016020016020810190610950919061481f565b62ffffff1690528135600090815260fd60209081526040909120825192909101516bffffffffffffffffffffffff16600160a01b026001600160a01b039092169190911790555b50600101610868565b505050565b60007f2a55205a000000000000000000000000000000000000000000000000000000006001600160e01b0319831614806109e357506109e382613003565b92915050565b6060606580546109f89061483a565b80601f0160208091040260200160405190810160405280929190818152602001828054610a249061483a565b8015610a715780601f10610a4657610100808354040283529160200191610a71565b820191906000526020600020905b815481529060010190602001808311610a5457829003601f168201915b5050505050905090565b6000818152606760205260408120546001600160a01b0316610af45760405162461bcd60e51b815260206004820152602c60248201527f4552433732313a20617070726f76656420717565727920666f72206e6f6e657860448201526b34b9ba32b73a103a37b5b2b760a11b6064820152608401610827565b506000908152606960205260409020546001600160a01b031690565b6000610b1b8261129d565b9050806001600160a01b0316836001600160a01b03161415610ba55760405162461bcd60e51b815260206004820152602160248201527f4552433732313a20617070726f76616c20746f2063757272656e74206f776e6560448201527f72000000000000000000000000000000000000000000000000000000000000006064820152608401610827565b336001600160a01b0382161480610bc15750610bc18133610783565b610c335760405162461bcd60e51b815260206004820152603860248201527f4552433732313a20617070726f76652063616c6c6572206973206e6f74206f7760448201527f6e6572206e6f7220617070726f76656420666f7220616c6c00000000000000006064820152608401610827565b6109a0838361309e565b610c48335b8261310c565b610cba5760405162461bcd60e51b815260206004820152603160248201527f4552433732313a207472616e736665722063616c6c6572206973206e6f74206f60448201527f776e6572206e6f7220617070726f7665640000000000000000000000000000006064820152608401610827565b6109a0838383613203565b600082815260fd602090815260408083208151808301909252546001600160a01b038116808352600160a01b9091046bffffffffffffffffffffffff169282018390528392620f424090610d199087614885565b610d2391906148a4565b92509250505b9250929050565b6097546001600160a01b0316331480610d5d5750610100546001600160a01b0316336001600160a01b0316145b610da95760405162461bcd60e51b815260206004820152600260248201527f33300000000000000000000000000000000000000000000000000000000000006044820152606401610827565b6000808211610db85747610dba565b815b61010054909150610df8906001600160a01b031615610de557610100546001600160a01b0316610df2565b6097546001600160a01b03165b826133d0565b5050565b6097546001600160a01b03163314610e565760405162461bcd60e51b815260206004820181905260248201527f4f776e61626c653a2063616c6c6572206973206e6f7420746865206f776e65726044820152606401610827565b6101025415610ea75760405162461bcd60e51b815260206004820152600260248201527f36300000000000000000000000000000000000000000000000000000000000006044820152606401610827565b610eb360658585614170565b50610ec060668383614170565b507f934066d47a89bfcab72db908a0701b9145131ee303cefb44553121c73419e8dd60656066604051610ef4929190614966565b60405180910390a150505050565b6109a0838383604051806020016040528060008152506129ce565b600054610100900460ff1680610f36575060005460ff16155b610f995760405162461bcd60e51b815260206004820152602e60248201527f496e697469616c697a61626c653a20636f6e747261637420697320616c72656160448201526d191e481a5b9a5d1a585b1a5e995960921b6064820152608401610827565b600054610100900460ff16158015610fbb576000805461ffff19166101011790555b61102e85858080601f01602080910402602001604051908101604052809392919081815260200183838082843760009201919091525050604080516020601f8901819004810282018101909252878152925087915086908190840183828082843760009201919091525061341592505050565b61108685858080601f016020809104026020016040519081016040528093929190818152602001838380828437600092019190915250506040805180820190915260018152603160f81b602082015291506134e39050565b61108e61358b565b80156110a0576000805461ff00191690555b5050505050565b6097546001600160a01b031633146111015760405162461bcd60e51b815260206004820181905260248201527f4f776e61626c653a2063616c6c6572206973206e6f7420746865206f776e65726044820152606401610827565b61010054600160a01b900460ff161561115c5760405162461bcd60e51b815260206004820152600260248201527f32300000000000000000000000000000000000000000000000000000000000006044820152606401610827565b8061010061116a8282614994565b9050507f5d121f0c2b2c4877a2b0a1457c73ce1c28628e5705271cb91db3e49792715cf58160405161119c9190614a15565b60405180910390a150565b6097546001600160a01b031633146112015760405162461bcd60e51b815260206004820181905260248201527f4f776e61626c653a2063616c6c6572206973206e6f7420746865206f776e65726044820152606401610827565b61010254156112525760405162461bcd60e51b815260206004820152600260248201527f35300000000000000000000000000000000000000000000000000000000000006044820152606401610827565b61125f6101018383614170565b507f6741b2fc379fad678116fe3d4d4b9a1a184ab53ba36b86ad0fa66340b1ab41ad8282604051611291929190614a4c565b60405180910390a15050565b6000818152606760205260408120546001600160a01b0316806109e35760405162461bcd60e51b815260206004820152602960248201527f4552433732313a206f776e657220717565727920666f72206e6f6e657869737460448201527f656e7420746f6b656e00000000000000000000000000000000000000000000006064820152608401610827565b610102541561135d5760405162461bcd60e51b81526020600482015260016024820152600360fc1b6044820152606401610827565b6000805b8481101561258c573686868381811061137c5761137c614788565b905060200281019061138e9190614a7b565b9050368585848181106113a3576113a3614788565b90506020028101906113b5919061479e565b8235600090815260ff60205260409020549091506001600160a01b0316156114035760405162461bcd60e51b81526020600482015260016024820152603160f81b6044820152606401610827565b60008061141660c0850160a086016145c2565b6001600160a01b031614156114375761143260208301836145c2565b611447565b61144760c0840160a085016145c2565b905060008061145960c08601866147be565b9050111561160057606060005b61147360c08701876147be565b90508110156115f057600061148b60c08801886147be565b8381811061149b5761149b614788565b9050606002018036038101906114b19190614aa3565b805160208083015160408085015181517fac82d8b9ba5b5dc17dde8ad35b7209c7132c6529256b6a9cec43456cabb9b2919481019490945260ff9094169083015262ffffff1660608201526001600160a01b039091166080820152909150839060a0016040516020818303038152906040528051906020012060405160200161153b929190614af3565b60408051601f19818403018152919052815190935060ff1661158c576115878160400151620f4240836020015162ffffff16346115789190614885565b61158291906148a4565b6133d0565b6115e7565b604080518082018252828201516001600160a01b03908116825260208085015162ffffff168184019081528b35600090815260fd909252939020915192516bffffffffffffffffffffffff16600160a01b0292169190911790555b50600101611466565b5080516020909101209050611623565b507fc5d2460186f7233c927e7db2dcc703c0e500b653ca82273b7bfad8045d85a4705b6116316101608501856147be565b151590506118445760007fd0a7aa2f12f6635b8fcf1ff677c6a131c33d1c97cf6c6aad4fe3907f9c822b9b853561166f610100880160e08901614b15565b61167f60a0890160808a016145c2565b61168f60c08a0160a08b016145c2565b61169f60408b0160208c01614b30565b6116af60608c0160408d01614b62565b6116bf60808d0160608e01614b62565b60408051602081019990995288019690965260ff90941660608701526001600160a01b039283166080870152911660a08501526fffffffffffffffffffffffffffffffff1660c084015267ffffffffffffffff90811660e084015216610100828101919091526101208281018590529087013561014083810191909152908701356101608301528601356101808201527fc5d2460186f7233c927e7db2dcc703c0e500b653ca82273b7bfad8045d85a4706101a08201526101c0016040516020818303038152906040528051906020012090506117a46097546001600160a01b031690565b6001600160a01b03166118046117be610180880188614b8c565b8080601f0160208091040260200160405190810160405280939291908181526020018383808284376000920191909152506117fe925086915061364d9050565b906136b6565b6001600160a01b03161461183e5760405162461bcd60e51b81526020600482015260016024820152601960f91b6044820152606401610827565b50612225565b606060005b6118576101608701876147be565b90508110156120445760006118706101608801886147be565b8381811061188057611880614788565b9050606002018036038101906118969190614bd3565b805190915060ff166119df5760208101516001600160a01b031661190757604081810151600090815260ff60205220546001600160a01b031633146119025760405162461bcd60e51b8152602060048201526002602482015261386160f01b6044820152606401610827565b611fae565b602081015160408083015190517f23250cae000000000000000000000000000000000000000000000000000000008152600481019190915233916001600160a01b0316906323250cae9060240160206040518083038186803b15801561196c57600080fd5b505afa158015611980573d6000803e3d6000fd5b505050506040513d601f19601f820116820180604052508101906119a49190614c1e565b6001600160a01b0316146119025760405162461bcd60e51b8152602060048201526002602482015261386160f01b6044820152606401610827565b806000015160ff1660011415611b1d5760208101516001600160a01b0316611a5257604081810151600090815260ff60205220546001600160a01b038681169116146119025760405162461bcd60e51b81526020600482015260026024820152611c3160f11b6044820152606401610827565b846001600160a01b031681602001516001600160a01b03166323250cae83604001516040518263ffffffff1660e01b8152600401611a9291815260200190565b60206040518083038186803b158015611aaa57600080fd5b505afa158015611abe573d6000803e3d6000fd5b505050506040513d601f19601f82011682018060405250810190611ae29190614c1e565b6001600160a01b0316146119025760405162461bcd60e51b81526020600482015260026024820152611c3160f11b6044820152606401610827565b806000015160ff1660021415611c495760208101516001600160a01b0316611bac57336001600160a01b0316611b56826040015161129d565b6001600160a01b0316146119025760405162461bcd60e51b815260206004820152600260248201527f39610000000000000000000000000000000000000000000000000000000000006044820152606401610827565b602081015160408083015190517f6352211e000000000000000000000000000000000000000000000000000000008152600481019190915233916001600160a01b031690636352211e9060240160206040518083038186803b158015611c1157600080fd5b505afa158015611c25573d6000803e3d6000fd5b505050506040513d601f19601f82011682018060405250810190611b569190614c1e565b806000015160ff1660031415611d685760208101516001600160a01b0316611cd857846001600160a01b0316611c82826040015161129d565b6001600160a01b0316146119025760405162461bcd60e51b815260206004820152600260248201527f39620000000000000000000000000000000000000000000000000000000000006044820152606401610827565b846001600160a01b031681602001516001600160a01b0316636352211e83604001516040518263ffffffff1660e01b8152600401611d1891815260200190565b60206040518083038186803b158015611d3057600080fd5b505afa158015611d44573d6000803e3d6000fd5b505050506040513d601f19601f82011682018060405250810190611c829190614c1e565b806000015160ff1660041415611e765760208101516001600160a01b0316611de6576040810151611d983361266b565b10156119025760405162461bcd60e51b815260206004820152600360248201527f31306100000000000000000000000000000000000000000000000000000000006044820152606401610827565b604081015160208201516001600160a01b03166370a08231336040516001600160e01b031960e084901b1681526001600160a01b03909116600482015260240160206040518083038186803b158015611e3e57600080fd5b505afa158015611e52573d6000803e3d6000fd5b505050506040513d601f19601f82011682018060405250810190611d989190614c3b565b806000015160ff1660051415611fae5760208101516001600160a01b0316611eda578060400151611ea68661266b565b10156119025760405162461bcd60e51b815260206004820152600360248201526218983160e91b6044820152606401610827565b604080820151602083015191517f70a082310000000000000000000000000000000000000000000000000000000081526001600160a01b038881166004830152919291909116906370a082319060240160206040518083038186803b158015611f4257600080fd5b505afa158015611f56573d6000803e3d6000fd5b505050506040513d601f19601f82011682018060405250810190611f7a9190614c3b565b1015611fae5760405162461bcd60e51b815260206004820152600360248201526218983160e91b6044820152606401610827565b805160208083015160408085015181517fa8429bfd1dd4da6c67a09e5c5a89115acae264879c22f767979685932461d1c28186015260ff909516858301526001600160a01b0390921660608501526080808501929092528051808503909201825260a08401905280519101206120299185919060c001614af3565b60408051601f19818403018152919052925050600101611849565b5060007fd0a7aa2f12f6635b8fcf1ff677c6a131c33d1c97cf6c6aad4fe3907f9c822b9b863561207b610100890160e08a01614b15565b61208b60a08a0160808b016145c2565b61209b60c08b0160a08c016145c2565b6120ab60408c0160208d01614b30565b60408051602081019790975286019490945260ff90921660608501526001600160a01b0390811660808501521660a08301526fffffffffffffffffffffffffffffffff1660c082015260e00160408051601f198184030181529181526121179060608901908901614b62565b6121276080890160608a01614b62565b84516020808701919091206040805167ffffffffffffffff95861693810193909352939092169281019290925260608201869052610100808a013560808401526101208a013560a08401526101408a013560c084015260e08301919091520160408051601f19818403018152908290526121a49291602001614c54565b6040516020818303038152906040528051906020012090506121ce6097546001600160a01b031690565b6001600160a01b03166121e86117be610180890189614b8c565b6001600160a01b0316146122225760405162461bcd60e51b81526020600482015260016024820152601960f91b6044820152606401610827565b50505b600061223760a08601608087016145c2565b6001600160a01b0316146122ac573361225660a08601608087016145c2565b6001600160a01b0316146122ac5760405162461bcd60e51b815260206004820152600160248201527f33000000000000000000000000000000000000000000000000000000000000006044820152606401610827565b426122bd6060860160408701614b62565b67ffffffffffffffff1611156123155760405162461bcd60e51b815260206004820152600160248201527f34000000000000000000000000000000000000000000000000000000000000006044820152606401610827565b426123266080860160608701614b62565b67ffffffffffffffff16101561237e5760405162461bcd60e51b815260206004820152600160248201527f35000000000000000000000000000000000000000000000000000000000000006044820152606401610827565b610140840135156124195760006123986020850185614b8c565b90501180156123cd57506101408401356123b56020850185614b8c565b6040516123c3929190614c83565b6040518091039020145b6124195760405162461bcd60e51b815260206004820152600160248201527f36000000000000000000000000000000000000000000000000000000000000006044820152606401610827565b6101008401351561248c5761244061010085013561243a6040860186614c93565b336136da565b61248c5760405162461bcd60e51b815260206004820152600260248201527f37610000000000000000000000000000000000000000000000000000000000006044820152606401610827565b610120840135156124ff576124b36101208501356124ad6060860186614c93565b856136da565b6124ff5760405162461bcd60e51b815260206004820152600260248201527f37620000000000000000000000000000000000000000000000000000000000006044820152606401610827565b612510610100850160e08601614b15565b60ff161561254c57612529610100850160e08601614b15565b8435600090815260fe60205260409020805460ff191660ff929092169190911790555b612557828535612ec1565b6125676040850160208601614b30565b6fffffffffffffffffffffffffffffffff168601955084600101945050505050611361565b503481146110a05760405162461bcd60e51b815260206004820152600260248201527f31310000000000000000000000000000000000000000000000000000000000006044820152606401610827565b61010180546125ea9061483a565b80601f01602080910402602001604051908101604052809291908181526020018280546126169061483a565b80156126635780601f1061263857610100808354040283529160200191612663565b820191906000526020600020905b81548152906001019060200180831161264657829003601f168201915b505050505081565b60006001600160a01b0382166126e95760405162461bcd60e51b815260206004820152602a60248201527f4552433732313a2062616c616e636520717565727920666f7220746865207a6560448201527f726f2061646472657373000000000000000000000000000000000000000000006064820152608401610827565b506001600160a01b031660009081526068602052604090205490565b6097546001600160a01b0316331461275f5760405162461bcd60e51b815260206004820181905260248201527f4f776e61626c653a2063616c6c6572206973206e6f7420746865206f776e65726044820152606401610827565b61276960006137b8565b565b6060606680546109f89061483a565b6001600160a01b0382163314156127d35760405162461bcd60e51b815260206004820152601960248201527f4552433732313a20617070726f766520746f2063616c6c6572000000000000006044820152606401610827565b336000818152606a602090815260408083206001600160a01b03871680855290835292819020805460ff191686151590811790915590519081529192917f17307eab39ab6107e8899845ad3d59bd9653f200f220920489ca2b5937696c31910160405180910390a35050565b6097546001600160a01b031633146128995760405162461bcd60e51b815260206004820181905260248201527f4f776e61626c653a2063616c6c6572206973206e6f7420746865206f776e65726044820152606401610827565b61010254600214156128ed5760405162461bcd60e51b815260206004820152600260248201527f34300000000000000000000000000000000000000000000000000000000000006044820152606401610827565b61010281905560405181907f118f8ba10d647100925b2343f3030d110623f17b284ced4316cbe4b8f138883f90600090a250565b60005b818110156109a057600083838381811061294057612940614788565b905060200201359050612953610c423390565b61299f5760405162461bcd60e51b815260206004820152600260248201527f31350000000000000000000000000000000000000000000000000000000000006044820152606401610827565b6129a88161380a565b600090815260ff6020526040902080546001600160a01b03191633179055600101612924565b6129d8338361310c565b612a4a5760405162461bcd60e51b815260206004820152603160248201527f4552433732313a207472616e736665722063616c6c6572206973206e6f74206f60448201527f776e6572206e6f7220617070726f7665640000000000000000000000000000006064820152608401610827565b612a56848484846138a5565b50505050565b6000818152606760205260409020546060906001600160a01b0316612ae95760405162461bcd60e51b815260206004820152602f60248201527f4552433732314d657461646174613a2055524920717565727920666f72206e6f60448201527f6e6578697374656e7420746f6b656e00000000000000000000000000000000006064820152608401610827565b6040805180820190915260208082527f6162636465666768696a6b6c6d6e6f707172737475767778797a323334353637908201526101018054849291600091829190612b349061483a565b905011612b76576040518060400160405280600781526020017f697066733a2f2f00000000000000000000000000000000000000000000000000815250612c03565b6101018054612b849061483a565b80601f0160208091040260200160405190810160405280929190818152602001828054612bb09061483a565b8015612bfd5780601f10612bd257610100808354040283529160200191612bfd565b820191906000526020600020905b815481529060010190602001808311612be057829003601f168201915b50505050505b600086815260fe602052604081205491925090829060ff1615612c5b576040518060400160405280600781526020017f6261667962656900000000000000000000000000000000000000000000000000815250612c92565b6040518060400160405280600781526020017f6261666b726569000000000000000000000000000000000000000000000000008152505b604051602001612ca3929190614c54565b60408051601f1981840301815291905290506002630170122060056000612ccc60016020614cdd565b905060005b6020811015612d7b576000612ce7826008614885565b8c901b60f881901c600896871b63ffffff00161795909150612d099087614cf4565b95505b83861115612d6a57612d1e8487614cdd565b955086898787901c851681518110612d3857612d38614788565b602001015160f81c60f81b604051602001612d54929190614d0c565b6040516020818303038152906040529650612d0c565b50612d7481614d53565b9050612cd1565b508315612dd1578487612d8e8685614cdd565b85901b831681518110612da357612da3614788565b602001015160f81c60f81b604051602001612dbf929190614d0c565b60405160208183030381529060405294505b509298975050505050505050565b6097546001600160a01b03163314612e395760405162461bcd60e51b815260206004820181905260248201527f4f776e61626c653a2063616c6c6572206973206e6f7420746865206f776e65726044820152606401610827565b6001600160a01b038116612eb55760405162461bcd60e51b815260206004820152602660248201527f4f776e61626c653a206e6577206f776e657220697320746865207a65726f206160448201527f64647265737300000000000000000000000000000000000000000000000000006064820152608401610827565b612ebe816137b8565b50565b6001600160a01b038216612f175760405162461bcd60e51b815260206004820181905260248201527f4552433732313a206d696e7420746f20746865207a65726f20616464726573736044820152606401610827565b6000818152606760205260409020546001600160a01b031615612f7c5760405162461bcd60e51b815260206004820152601c60248201527f4552433732313a20746f6b656e20616c7265616479206d696e746564000000006044820152606401610827565b6001600160a01b0382166000908152606860205260408120805460019290612fa5908490614cf4565b909155505060008181526067602052604080822080546001600160a01b0319166001600160a01b03861690811790915590518392907fddf252ad1be2c89b69c2b068fc378daa952ba7f163c4a11628f55a4df523b3ef908290a45050565b60006001600160e01b031982167f80ac58cd00000000000000000000000000000000000000000000000000000000148061306657506001600160e01b031982167f5b5e139f00000000000000000000000000000000000000000000000000000000145b806109e357507f01ffc9a7000000000000000000000000000000000000000000000000000000006001600160e01b03198316146109e3565b600081815260696020526040902080546001600160a01b0319166001600160a01b03841690811790915581906130d38261129d565b6001600160a01b03167f8c5be1e5ebec7d5bd14f71427d1e84f3dd0314c0f7b2291e5b200ac8c7c3b92560405160405180910390a45050565b6000818152606760205260408120546001600160a01b03166131855760405162461bcd60e51b815260206004820152602c60248201527f4552433732313a206f70657261746f7220717565727920666f72206e6f6e657860448201526b34b9ba32b73a103a37b5b2b760a11b6064820152608401610827565b60006131908361129d565b9050806001600160a01b0316846001600160a01b031614806131cb5750836001600160a01b03166131c084610a7b565b6001600160a01b0316145b806131fb57506001600160a01b038082166000908152606a602090815260408083209388168352929052205460ff165b949350505050565b826001600160a01b03166132168261129d565b6001600160a01b0316146132925760405162461bcd60e51b815260206004820152602960248201527f4552433732313a207472616e73666572206f6620746f6b656e2074686174206960448201527f73206e6f74206f776e00000000000000000000000000000000000000000000006064820152608401610827565b6001600160a01b03821661330d5760405162461bcd60e51b8152602060048201526024808201527f4552433732313a207472616e7366657220746f20746865207a65726f2061646460448201527f72657373000000000000000000000000000000000000000000000000000000006064820152608401610827565b61331860008261309e565b6001600160a01b0383166000908152606860205260408120805460019290613341908490614cdd565b90915550506001600160a01b038216600090815260686020526040812080546001929061336f908490614cf4565b909155505060008181526067602052604080822080546001600160a01b0319166001600160a01b0386811691821790925591518493918716917fddf252ad1be2c89b69c2b068fc378daa952ba7f163c4a11628f55a4df523b3ef91a4505050565b600080600080600085875af19050806109a0576040517f90b8ec1800000000000000000000000000000000000000000000000000000000815260040160405180910390fd5b600054610100900460ff168061342e575060005460ff16155b6134915760405162461bcd60e51b815260206004820152602e60248201527f496e697469616c697a61626c653a20636f6e747261637420697320616c72656160448201526d191e481a5b9a5d1a585b1a5e995960921b6064820152608401610827565b600054610100900460ff161580156134b3576000805461ffff19166101011790555b6134bb61392e565b6134c361392e565b6134cd83836139df565b80156109a0576000805461ff0019169055505050565b600054610100900460ff16806134fc575060005460ff16155b61355f5760405162461bcd60e51b815260206004820152602e60248201527f496e697469616c697a61626c653a20636f6e747261637420697320616c72656160448201526d191e481a5b9a5d1a585b1a5e995960921b6064820152608401610827565b600054610100900460ff16158015613581576000805461ffff19166101011790555b6134cd8383613abb565b600054610100900460ff16806135a4575060005460ff16155b6136075760405162461bcd60e51b815260206004820152602e60248201527f496e697469616c697a61626c653a20636f6e747261637420697320616c72656160448201526d191e481a5b9a5d1a585b1a5e995960921b6064820152608401610827565b600054610100900460ff16158015613629576000805461ffff19166101011790555b61363161392e565b613639613b8c565b8015612ebe576000805461ff001916905550565b60006109e361365a613c33565b836040517f19010000000000000000000000000000000000000000000000000000000000006020820152602281018390526042810182905260009060620160405160208183030381529060405280519060200120905092915050565b60008060006136c58585613cb3565b915091506136d281613d20565b509392505050565b6040516bffffffffffffffffffffffff19606083901b166020820152600090819060340160405160208183030381529060405280519060200120905060005b848110156137ac57600086868381811061373557613735614788565b9050602002013590508083116137765760408051602081018590529081018290526060016040516020818303038152906040528051906020012092506137a3565b60408051602081018390529081018490526060016040516020818303038152906040528051906020012092505b50600101613719565b50909414949350505050565b609780546001600160a01b038381166001600160a01b0319831681179093556040519116919082907f8be0079c531659141344cd1fd0a4f28419497f9722a3daafe3b4186f6b6457e090600090a35050565b60006138158261129d565b905061382260008361309e565b6001600160a01b038116600090815260686020526040812080546001929061384b908490614cdd565b909155505060008281526067602052604080822080546001600160a01b0319169055518391906001600160a01b038416907fddf252ad1be2c89b69c2b068fc378daa952ba7f163c4a11628f55a4df523b3ef908390a45050565b6138b0848484613203565b6138bc84848484613edb565b612a565760405162461bcd60e51b815260206004820152603260248201527f4552433732313a207472616e7366657220746f206e6f6e20455243373231526560448201527f63656976657220696d706c656d656e74657200000000000000000000000000006064820152608401610827565b600054610100900460ff1680613947575060005460ff16155b6139aa5760405162461bcd60e51b815260206004820152602e60248201527f496e697469616c697a61626c653a20636f6e747261637420697320616c72656160448201526d191e481a5b9a5d1a585b1a5e995960921b6064820152608401610827565b600054610100900460ff16158015613639576000805461ffff19166101011790558015612ebe576000805461ff001916905550565b600054610100900460ff16806139f8575060005460ff16155b613a5b5760405162461bcd60e51b815260206004820152602e60248201527f496e697469616c697a61626c653a20636f6e747261637420697320616c72656160448201526d191e481a5b9a5d1a585b1a5e995960921b6064820152608401610827565b600054610100900460ff16158015613a7d576000805461ffff19166101011790555b8251613a909060659060208601906141f4565b508151613aa49060669060208501906141f4565b5080156109a0576000805461ff0019169055505050565b600054610100900460ff1680613ad4575060005460ff16155b613b375760405162461bcd60e51b815260206004820152602e60248201527f496e697469616c697a61626c653a20636f6e747261637420697320616c72656160448201526d191e481a5b9a5d1a585b1a5e995960921b6064820152608401610827565b600054610100900460ff16158015613b59576000805461ffff19166101011790555b825160208085019190912083519184019190912060c99190915560ca5580156109a0576000805461ff0019169055505050565b600054610100900460ff1680613ba5575060005460ff16155b613c085760405162461bcd60e51b815260206004820152602e60248201527f496e697469616c697a61626c653a20636f6e747261637420697320616c72656160448201526d191e481a5b9a5d1a585b1a5e995960921b6064820152608401610827565b600054610100900460ff16158015613c2a576000805461ffff19166101011790555b613639336137b8565b6000613cae7f8b73c3c69bb8fe3d512ecc4cf759cc79239f7b179b0ffacaa9a75d522b39400f613c6260c95490565b60ca546040805160208101859052908101839052606081018290524660808201523060a082015260009060c0016040516020818303038152906040528051906020012090509392505050565b905090565b600080825160411415613cea5760208301516040840151606085015160001a613cde8782858561403b565b94509450505050610d29565b825160401415613d145760208301516040840151613d09868383614128565b935093505050610d29565b50600090506002610d29565b6000816004811115613d3457613d34614d6e565b1415613d3d5750565b6001816004811115613d5157613d51614d6e565b1415613d9f5760405162461bcd60e51b815260206004820152601860248201527f45434453413a20696e76616c6964207369676e617475726500000000000000006044820152606401610827565b6002816004811115613db357613db3614d6e565b1415613e015760405162461bcd60e51b815260206004820152601f60248201527f45434453413a20696e76616c6964207369676e6174757265206c656e677468006044820152606401610827565b6003816004811115613e1557613e15614d6e565b1415613e6e5760405162461bcd60e51b815260206004820152602260248201527f45434453413a20696e76616c6964207369676e6174757265202773272076616c604482015261756560f01b6064820152608401610827565b6004816004811115613e8257613e82614d6e565b1415612ebe5760405162461bcd60e51b815260206004820152602260248201527f45434453413a20696e76616c6964207369676e6174757265202776272076616c604482015261756560f01b6064820152608401610827565b60006001600160a01b0384163b1561403357604051630a85bd0160e11b81526001600160a01b0385169063150b7a0290613f1f903390899088908890600401614d84565b602060405180830381600087803b158015613f3957600080fd5b505af1925050508015613f69575060408051601f3d908101601f19168201909252613f6691810190614dc0565b60015b614019573d808015613f97576040519150601f19603f3d011682016040523d82523d6000602084013e613f9c565b606091505b5080516140115760405162461bcd60e51b815260206004820152603260248201527f4552433732313a207472616e7366657220746f206e6f6e20455243373231526560448201527f63656976657220696d706c656d656e74657200000000000000000000000000006064820152608401610827565b805181602001fd5b6001600160e01b031916630a85bd0160e11b1490506131fb565b5060016131fb565b6000807f7fffffffffffffffffffffffffffffff5d576e7357a4501ddfe92f46681b20a0831115614072575060009050600361411f565b8460ff16601b1415801561408a57508460ff16601c14155b1561409b575060009050600461411f565b6040805160008082526020820180845289905260ff881692820192909252606081018690526080810185905260019060a0016020604051602081039080840390855afa1580156140ef573d6000803e3d6000fd5b5050604051601f1901519150506001600160a01b0381166141185760006001925092505061411f565b9150600090505b94509492505050565b6000807f7fffffffffffffffffffffffffffffffffffffffffffffffffffffffffffffff831660ff84901c601b016141628782888561403b565b935093505050935093915050565b82805461417c9061483a565b90600052602060002090601f01602090048101928261419e57600085556141e4565b82601f106141b75782800160ff198235161785556141e4565b828001600101855582156141e4579182015b828111156141e45782358255916020019190600101906141c9565b506141f0929150614268565b5090565b8280546142009061483a565b90600052602060002090601f01602090048101928261422257600085556141e4565b82601f1061423b57805160ff19168380011785556141e4565b828001600101855582156141e4579182015b828111156141e457825182559160200191906001019061424d565b5b808211156141f05760008155600101614269565b60008083601f84011261428f57600080fd5b50813567ffffffffffffffff8111156142a757600080fd5b6020830191508360208260051b8501011115610d2957600080fd5b600080602083850312156142d557600080fd5b823567ffffffffffffffff8111156142ec57600080fd5b6142f88582860161427d565b90969095509350505050565b6001600160e01b031981168114612ebe57600080fd5b60006020828403121561432c57600080fd5b813561433781614304565b9392505050565b60005b83811015614359578181015183820152602001614341565b83811115612a565750506000910152565b6000815180845261438281602086016020860161433e565b601f01601f19169290920160200192915050565b602081526000614337602083018461436a565b6000602082840312156143bb57600080fd5b5035919050565b6001600160a01b0381168114612ebe57600080fd5b600080604083850312156143ea57600080fd5b82356143f5816143c2565b946020939093013593505050565b60008060006060848603121561441857600080fd5b8335614423816143c2565b92506020840135614433816143c2565b929592945050506040919091013590565b6000806040838503121561445757600080fd5b50508035926020909101359150565b60008083601f84011261447857600080fd5b50813567ffffffffffffffff81111561449057600080fd5b602083019150836020828501011115610d2957600080fd5b600080600080604085870312156144be57600080fd5b843567ffffffffffffffff808211156144d657600080fd5b6144e288838901614466565b909650945060208701359150808211156144fb57600080fd5b5061450887828801614466565b95989497509550505050565b60006040828403121561452657600080fd5b50919050565b6000806020838503121561453f57600080fd5b823567ffffffffffffffff81111561455657600080fd5b6142f885828601614466565b6000806000806040858703121561457857600080fd5b843567ffffffffffffffff8082111561459057600080fd5b61459c8883890161427d565b909650945060208701359150808211156145b557600080fd5b506145088782880161427d565b6000602082840312156145d457600080fd5b8135614337816143c2565b8015158114612ebe57600080fd5b6000806040838503121561460057600080fd5b823561460b816143c2565b9150602083013561461b816145df565b809150509250929050565b634e487b7160e01b600052604160045260246000fd5b6040516060810167ffffffffffffffff8111828210171561465f5761465f614626565b60405290565b604051601f8201601f1916810167ffffffffffffffff8111828210171561468e5761468e614626565b604052919050565b600080600080608085870312156146ac57600080fd5b84356146b7816143c2565b93506020858101356146c8816143c2565b935060408601359250606086013567ffffffffffffffff808211156146ec57600080fd5b818801915088601f83011261470057600080fd5b81358181111561471257614712614626565b614724601f8201601f19168501614665565b9150808252898482850101111561473a57600080fd5b808484018584013760008482840101525080935050505092959194509250565b6000806040838503121561476d57600080fd5b8235614778816143c2565b9150602083013561461b816143c2565b634e487b7160e01b600052603260045260246000fd5b60008235607e198336030181126147b457600080fd5b9190910192915050565b6000808335601e198436030181126147d557600080fd5b83018035915067ffffffffffffffff8211156147f057600080fd5b6020019150606081023603821315610d2957600080fd5b803562ffffff8116811461481a57600080fd5b919050565b60006020828403121561483157600080fd5b61433782614807565b600181811c9082168061484e57607f821691505b6020821081141561452657634e487b7160e01b600052602260045260246000fd5b634e487b7160e01b600052601160045260246000fd5b600081600019048311821515161561489f5761489f61486f565b500290565b6000826148c157634e487b7160e01b600052601260045260246000fd5b500490565b8054600090600181811c90808316806148e057607f831692505b602080841082141561490257634e487b7160e01b600052602260045260246000fd5b8388526020880182801561491d576001811461492e57614959565b60ff19871682528282019750614959565b60008981526020902060005b878110156149535781548482015290860190840161493a565b83019850505b5050505050505092915050565b60408152600061497960408301856148c6565b828103602084015261498b81856148c6565b95945050505050565b813561499f816143c2565b6001600160a01b03811690508154816001600160a01b0319821617835560208401356149ca816145df565b7fffffffffffffffffffffff0000000000000000000000000000000000000000009190911690911790151560a01b74ff00000000000000000000000000000000000000001617905550565b604081018235614a24816143c2565b6001600160a01b031682526020830135614a3d816145df565b80151560208401525092915050565b60208152816020820152818360408301376000818301604090810191909152601f909201601f19160101919050565b6000823561019e198336030181126147b457600080fd5b803560ff8116811461481a57600080fd5b600060608284031215614ab557600080fd5b614abd61463c565b614ac683614a92565b8152614ad460208401614807565b60208201526040830135614ae7816143c2565b60408201529392505050565b60008351614b0581846020880161433e565b9190910191825250602001919050565b600060208284031215614b2757600080fd5b61433782614a92565b600060208284031215614b4257600080fd5b81356fffffffffffffffffffffffffffffffff8116811461433757600080fd5b600060208284031215614b7457600080fd5b813567ffffffffffffffff8116811461433757600080fd5b6000808335601e19843603018112614ba357600080fd5b83018035915067ffffffffffffffff821115614bbe57600080fd5b602001915036819003821315610d2957600080fd5b600060608284031215614be557600080fd5b614bed61463c565b614bf683614a92565b81526020830135614c06816143c2565b60208201526040928301359281019290925250919050565b600060208284031215614c3057600080fd5b8151614337816143c2565b600060208284031215614c4d57600080fd5b5051919050565b60008351614c6681846020880161433e565b835190830190614c7a81836020880161433e565b01949350505050565b8183823760009101908152919050565b6000808335601e19843603018112614caa57600080fd5b83018035915067ffffffffffffffff821115614cc557600080fd5b6020019150600581901b3603821315610d2957600080fd5b600082821015614cef57614cef61486f565b500390565b60008219821115614d0757614d0761486f565b500190565b60008351614d1e81846020880161433e565b7fff00000000000000000000000000000000000000000000000000000000000000939093169190920190815260010192915050565b6000600019821415614d6757614d6761486f565b5060010190565b634e487b7160e01b600052602160045260246000fd5b60006001600160a01b03808716835280861660208401525083604083015260806060830152614db6608083018461436a565b9695505050505050565b600060208284031215614dd257600080fd5b81516143378161430456fea2646970667358221220b576d1514a1b5da9aa535977bd1c90f7441054ebf5b751355527a29aefde19e264736f6c63430008090033496e697469616c697a61626c653a20636f6e747261637420697320616c726561",
  "linkReferences": {},
  "deployedLinkReferences": {}
}