{
  "_format": "hh-sol-artifact-1",
  "contractName": "Factory",
  "sourceName": "contracts/Factory.sol",
  "abi": [
    {
      "inputs": [],
      "stateMutability": "nonpayable",
      "type": "constructor"
    },
    {
      "anonymous": false,
      "inputs": [
        {
          "indexed": true,
          "internalType": "address",
          "name": "previousOwner",
          "type": "address"
        },
        {
          "indexed": true,
          "internalType": "address",
          "name": "newOwner",
          "type": "address"
        }
      ],
      "name": "OwnershipTransferred",
      "type": "event"
    },
    {
      "inputs": [
        {
          "internalType": "address",
          "name": "creator",
          "type": "address"
        },
        {
          "internalType": "uint256",
          "name": "start",
          "type": "uint256"
        },
        {
          "internalType": "uint256",
          "name": "count",
          "type": "uint256"
        }
      ],
      "name": "find",
      "outputs": [
        {
          "internalType": "address[]",
          "name": "",
          "type": "address[]"
        }
      ],
      "stateMutability": "view",
      "type": "function"
    },
    {
      "inputs": [
        {
          "internalType": "uint256",
          "name": "_index",
          "type": "uint256"
        },
        {
          "internalType": "string",
          "name": "name",
          "type": "string"
        },
        {
          "internalType": "string",
          "name": "symbol",
          "type": "string"
        }
      ],
      "name": "genesis",
      "outputs": [
        {
          "internalType": "address",
          "name": "",
          "type": "address"
        }
      ],
      "stateMutability": "payable",
      "type": "function"
    },
    {
      "inputs": [],
      "name": "implementation",
      "outputs": [
        {
          "internalType": "address",
          "name": "",
          "type": "address"
        }
      ],
      "stateMutability": "view",
      "type": "function"
    },
    {
      "inputs": [],
      "name": "owner",
      "outputs": [
        {
          "internalType": "address",
          "name": "",
          "type": "address"
        }
      ],
      "stateMutability": "view",
      "type": "function"
    },
    {
      "inputs": [],
      "name": "renounceOwnership",
      "outputs": [],
      "stateMutability": "nonpayable",
      "type": "function"
    },
    {
      "inputs": [
        {
          "internalType": "address",
          "name": "newOwner",
          "type": "address"
        }
      ],
      "name": "transferOwnership",
      "outputs": [],
      "stateMutability": "nonpayable",
      "type": "function"
    }
  ],
  "bytecode": "0x60a06040523480156200001157600080fd5b506040516001906200002390620002ad565b8190604051809103906000f590508015801562000044573d6000803e3d6000fd5b506001600160a01b03166080526200005b62000061565b620002bb565b600054610100900460ff16806200007b575060005460ff16155b620000d35760405162461bcd60e51b815260206004820152602e602482015260008051602062005c3483398151915260448201526d191e481a5b9a5d1a585b1a5e995960921b60648201526084015b60405180910390fd5b600054610100900460ff16158015620000f6576000805461ffff19166101011790555b6200010062000120565b6200010a620001c5565b80156200011d576000805461ff00191690555b50565b600054610100900460ff16806200013a575060005460ff16155b6200018e5760405162461bcd60e51b815260206004820152602e602482015260008051602062005c3483398151915260448201526d191e481a5b9a5d1a585b1a5e995960921b6064820152608401620000ca565b600054610100900460ff161580156200010a576000805461ffff191661010117905580156200011d576000805461ff001916905550565b600054610100900460ff1680620001df575060005460ff16155b620002335760405162461bcd60e51b815260206004820152602e602482015260008051602062005c3483398151915260448201526d191e481a5b9a5d1a585b1a5e995960921b6064820152608401620000ca565b600054610100900460ff1615801562000256576000805461ffff19166101011790555b6200010a33603380546001600160a01b038381166001600160a01b0319831681179093556040519116919082907f8be0079c531659141344cd1fd0a4f28419497f9722a3daafe3b4186f6b6457e090600090a35050565b614ff78062000c3d83390190565b608051610959620002e46000396000818160ac01528181610199015261037701526109596000f3fe6080604052600436106100655760003560e01c8063715018a611610043578063715018a6146100fb5780638da5cb5b14610112578063f2fde38b1461013057600080fd5b80634d51709d1461006a5780635c60da1b1461009a5780635f8745cb146100ce575b600080fd5b61007d610078366004610722565b610150565b6040516001600160a01b0390911681526020015b60405180910390f35b3480156100a657600080fd5b5061007d7f000000000000000000000000000000000000000000000000000000000000000081565b3480156100da57600080fd5b506100ee6100e93660046107b8565b6102d4565b60405161009191906107eb565b34801561010757600080fd5b506101106103e2565b005b34801561011e57600080fd5b506033546001600160a01b031661007d565b34801561013c57600080fd5b5061011061014b366004610838565b61044d565b6040516bffffffffffffffffffffffff193360601b16602082015260348101869052600090819060540160405160208183030381529060405280519060200120905060006101be7f00000000000000000000000000000000000000000000000000000000000000008361052f565b6040517f4cd88b7600000000000000000000000000000000000000000000000000000000815290915081906001600160a01b03821690634cd88b769061020e908b908b908b908b9060040161087c565b600060405180830381600087803b15801561022857600080fd5b505af115801561023c573d6000803e3d6000fd5b50505050806001600160a01b031663f2fde38b6102563390565b6040517fffffffff0000000000000000000000000000000000000000000000000000000060e084901b1681526001600160a01b039091166004820152602401600060405180830381600087803b1580156102af57600080fd5b505af11580156102c3573d6000803e3d6000fd5b50939b9a5050505050505050505050565b606060008267ffffffffffffffff8111156102f1576102f16108ae565b60405190808252806020026020018201604052801561031a578160200160208202803683370190505b50905060005b838110156103d95760008661033587846108da565b60405160609290921b6bffffffffffffffffffffffff19166020830152603482015260540160405160208183030381529060405280519060200120905061039c7f0000000000000000000000000000000000000000000000000000000000000000826105ec565b8383815181106103ae576103ae6108f2565b6001600160a01b039092166020928302919091019091015250806103d181610908565b915050610320565b50949350505050565b6033546001600160a01b031633146104415760405162461bcd60e51b815260206004820181905260248201527f4f776e61626c653a2063616c6c6572206973206e6f7420746865206f776e657260448201526064015b60405180910390fd5b61044b600061066f565b565b6033546001600160a01b031633146104a75760405162461bcd60e51b815260206004820181905260248201527f4f776e61626c653a2063616c6c6572206973206e6f7420746865206f776e65726044820152606401610438565b6001600160a01b0381166105235760405162461bcd60e51b815260206004820152602660248201527f4f776e61626c653a206e6577206f776e657220697320746865207a65726f206160448201527f64647265737300000000000000000000000000000000000000000000000000006064820152608401610438565b61052c8161066f565b50565b60006040517f3d602d80600a3d3981f3363d3d373d3d3d363d7300000000000000000000000081528360601b60148201527f5af43d82803e903d91602b57fd5bf300000000000000000000000000000000006028820152826037826000f59150506001600160a01b0381166105e65760405162461bcd60e51b815260206004820152601760248201527f455243313136373a2063726561746532206661696c65640000000000000000006044820152606401610438565b92915050565b60006106688383306040517f3d602d80600a3d3981f3363d3d373d3d3d363d730000000000000000000000008152606093841b60148201527f5af43d82803e903d91602b57fd5bf3ff000000000000000000000000000000006028820152921b6038830152604c8201526037808220606c830152605591012090565b9392505050565b603380546001600160a01b038381167fffffffffffffffffffffffff0000000000000000000000000000000000000000831681179093556040519116919082907f8be0079c531659141344cd1fd0a4f28419497f9722a3daafe3b4186f6b6457e090600090a35050565b60008083601f8401126106eb57600080fd5b50813567ffffffffffffffff81111561070357600080fd5b60208301915083602082850101111561071b57600080fd5b9250929050565b60008060008060006060868803121561073a57600080fd5b85359450602086013567ffffffffffffffff8082111561075957600080fd5b61076589838a016106d9565b9096509450604088013591508082111561077e57600080fd5b5061078b888289016106d9565b969995985093965092949392505050565b80356001600160a01b03811681146107b357600080fd5b919050565b6000806000606084860312156107cd57600080fd5b6107d68461079c565b95602085013595506040909401359392505050565b6020808252825182820181905260009190848201906040850190845b8181101561082c5783516001600160a01b031683529284019291840191600101610807565b50909695505050505050565b60006020828403121561084a57600080fd5b6106688261079c565b81835281816020850137506000828201602090810191909152601f909101601f19169091010190565b604081526000610890604083018688610853565b82810360208401526108a3818587610853565b979650505050505050565b634e487b7160e01b600052604160045260246000fd5b634e487b7160e01b600052601160045260246000fd5b600082198211156108ed576108ed6108c4565b500190565b634e487b7160e01b600052603260045260246000fd5b600060001982141561091c5761091c6108c4565b506001019056fea26469706673582212203c83f4a93fdf64a4859f89150767d9d93fce2ea6682ac31d25ebb2500b614fa864736f6c63430008090033608060405234801561001057600080fd5b50614fd7806100206000396000f3fe6080604052600436106102385760003560e01c8063715018a611610138578063b88d4fde116100b0578063cdc184241161007f578063e814cb7111610064578063e814cb71146106ec578063e985e9c514610765578063f2fde38b146107ae57600080fd5b8063cdc184241461068d578063ceb07baf146106d957600080fd5b8063b88d4fde14610602578063c19d93fb14610622578063c87b56dd14610639578063ccc0b1ec1461065957600080fd5b806397af3d9811610107578063a22cb465116100ec578063a22cb465146105a2578063a9e966b7146105c2578063b80f55c9146105e257600080fd5b806397af3d981461055e578063986596981461058f57600080fd5b8063715018a6146104d45780638da5cb5b146104e957806393d19f6d1461050757806395d89b411461054957600080fd5b80632e1a7d4d116101cb5780634fc41a421161019a5780636352211e1161017f5780636352211e1461047f5780636c0360eb1461049f57806370a08231146104b457600080fd5b80634fc41a421461043f57806355f804b31461045f57600080fd5b80632e1a7d4d146103cc57806335c93885146103df57806342842e0e146103ff5780634cd88b761461041f57600080fd5b80631bf673e5116102075780631bf673e5146102f557806323250cae1461033757806323b872dd1461036d5780632a55205a1461038d57600080fd5b806301ffc9a71461024457806306fdde0314610279578063081812fc1461029b578063095ea7b3146102d357600080fd5b3661023f57005b600080fd5b34801561025057600080fd5b5061026461025f366004614447565b6107ce565b60405190151581526020015b60405180910390f35b34801561028557600080fd5b5061028e610812565b60405161027091906144c3565b3480156102a757600080fd5b506102bb6102b63660046144d6565b6108a4565b6040516001600160a01b039091168152602001610270565b3480156102df57600080fd5b506102f36102ee366004614504565b61093e565b005b34801561030157600080fd5b506103297f42f756283d740db7716013024e103bf398ecb3e8e6d46623bf4062ee9ba88dad81565b604051908152602001610270565b34801561034357600080fd5b506102bb6103523660046144d6565b60ff602052600090815260409020546001600160a01b031681565b34801561037957600080fd5b506102f3610388366004614530565b610a70565b34801561039957600080fd5b506103ad6103a8366004614571565b610af8565b604080516001600160a01b039093168352602083019190915201610270565b6102f36103da3660046144d6565b610b63565b3480156103eb57600080fd5b506102f36103fa3660046145d5565b610cc4565b34801561040b57600080fd5b506102f361041a366004614530565b610dca565b34801561042b57600080fd5b506102f361043a3660046145d5565b610de5565b34801561044b57600080fd5b506102f361045a366004614641565b610f6f565b34801561046b57600080fd5b506102f361047a366004614659565b61106f565b34801561048b57600080fd5b506102bb61049a3660046144d6565b611165565b3480156104ab57600080fd5b5061028e6111f0565b3480156104c057600080fd5b506103296104cf36600461469b565b61127f565b3480156104e057600080fd5b506102f3611319565b3480156104f557600080fd5b506097546001600160a01b03166102bb565b34801561051357600080fd5b506105376105223660046144d6565b60fe6020526000908152604090205460ff1681565b60405160ff9091168152602001610270565b34801561055557600080fd5b5061028e61137f565b34801561056a57600080fd5b506102646105793660046144d6565b6101006020526000908152604090205460ff1681565b6102f361059d3660046146fd565b61138e565b3480156105ae57600080fd5b506102f36105bd36600461476b565b6127e9565b3480156105ce57600080fd5b506102f36105dd3660046144d6565b6128ae565b3480156105ee57600080fd5b506102f36105fd3660046147a4565b612990565b34801561060e57600080fd5b506102f361061d366004614821565b612a3d565b34801561062e57600080fd5b506103296101035481565b34801561064557600080fd5b5061028e6106543660046144d6565b612acb565b34801561066557600080fd5b506103297f990dfa8a4720a5ae8cdfbd7cde0b0dfab1da53261496baf04463b81b4a765d2681565b34801561069957600080fd5b50610101546106ba906001600160a01b03811690600160a01b900460ff1682565b604080516001600160a01b039093168352901515602083015201610270565b6102f36106e73660046148e5565b612e4e565b3480156106f857600080fd5b506107396107073660046144d6565b60fd602052600090815260409020546001600160a01b03811690600160a01b90046bffffffffffffffffffffffff1682565b604080516001600160a01b0390931683526bffffffffffffffffffffffff909116602083015201610270565b34801561077157600080fd5b5061026461078036600461495a565b6001600160a01b039182166000908152606a6020908152604080832093909416825291909152205460ff1690565b3480156107ba57600080fd5b506102f36107c936600461469b565b612f98565b60007f2a55205a000000000000000000000000000000000000000000000000000000006001600160e01b03198316148061080c575061080c8261307a565b92915050565b60606065805461082190614988565b80601f016020809104026020016040519081016040528092919081815260200182805461084d90614988565b801561089a5780601f1061086f5761010080835404028352916020019161089a565b820191906000526020600020905b81548152906001019060200180831161087d57829003601f168201915b5050505050905090565b6000818152606760205260408120546001600160a01b03166109225760405162461bcd60e51b815260206004820152602c60248201527f4552433732313a20617070726f76656420717565727920666f72206e6f6e657860448201526b34b9ba32b73a103a37b5b2b760a11b60648201526084015b60405180910390fd5b506000908152606960205260409020546001600160a01b031690565b600061094982611165565b9050806001600160a01b0316836001600160a01b031614156109d35760405162461bcd60e51b815260206004820152602160248201527f4552433732313a20617070726f76616c20746f2063757272656e74206f776e6560448201527f72000000000000000000000000000000000000000000000000000000000000006064820152608401610919565b336001600160a01b03821614806109ef57506109ef8133610780565b610a615760405162461bcd60e51b815260206004820152603860248201527f4552433732313a20617070726f76652063616c6c6572206973206e6f74206f7760448201527f6e6572206e6f7220617070726f76656420666f7220616c6c00000000000000006064820152608401610919565b610a6b8383613115565b505050565b610a7b335b82613183565b610aed5760405162461bcd60e51b815260206004820152603160248201527f4552433732313a207472616e736665722063616c6c6572206973206e6f74206f60448201527f776e6572206e6f7220617070726f7665640000000000000000000000000000006064820152608401610919565b610a6b83838361327a565b600082815260fd602090815260408083208151808301909252546001600160a01b038116808352600160a01b9091046bffffffffffffffffffffffff169282018390528392620f424090610b4c90876149d3565b610b5691906149f2565b92509250505b9250929050565b6097546001600160a01b0316331480610b905750610101546001600160a01b0316336001600160a01b0316145b610bdc5760405162461bcd60e51b815260206004820152600260248201527f33300000000000000000000000000000000000000000000000000000000000006044820152606401610919565b6000808211610beb5747610bed565b815b610101549091506000906001600160a01b031615610c1757610101546001600160a01b0316610c24565b6097546001600160a01b03165b6001600160a01b03168260405160006040518083038185875af1925050503d8060008114610c6e576040519150601f19603f3d011682016040523d82523d6000602084013e610c73565b606091505b5050905080610a6b5760405162461bcd60e51b815260206004820152600260248201527f33310000000000000000000000000000000000000000000000000000000000006044820152606401610919565b6097546001600160a01b03163314610d1e5760405162461bcd60e51b815260206004820181905260248201527f4f776e61626c653a2063616c6c6572206973206e6f7420746865206f776e65726044820152606401610919565b6101035415610d6f5760405162461bcd60e51b815260206004820152600260248201527f36300000000000000000000000000000000000000000000000000000000000006044820152606401610919565b610d7b60658585614324565b50610d8860668383614324565b507f934066d47a89bfcab72db908a0701b9145131ee303cefb44553121c73419e8dd60656066604051610dbc929190614ab4565b60405180910390a150505050565b610a6b83838360405180602001604052806000815250612a3d565b600054610100900460ff1680610dfe575060005460ff16155b610e615760405162461bcd60e51b815260206004820152602e60248201527f496e697469616c697a61626c653a20636f6e747261637420697320616c72656160448201526d191e481a5b9a5d1a585b1a5e995960921b6064820152608401610919565b600054610100900460ff16158015610e83576000805461ffff19166101011790555b610ef685858080601f01602080910402602001604051908101604052809392919081815260200183838082843760009201919091525050604080516020601f8901819004810282018101909252878152925087915086908190840183828082843760009201919091525061345292505050565b610f4e85858080601f016020809104026020016040519081016040528093929190818152602001838380828437600092019190915250506040805180820190915260018152603160f81b602082015291506135209050565b610f566135c8565b8015610f68576000805461ff00191690555b5050505050565b6097546001600160a01b03163314610fc95760405162461bcd60e51b815260206004820181905260248201527f4f776e61626c653a2063616c6c6572206973206e6f7420746865206f776e65726044820152606401610919565b61010154600160a01b900460ff16156110245760405162461bcd60e51b815260206004820152600260248201527f32300000000000000000000000000000000000000000000000000000000000006044820152606401610919565b806101016110328282614ae2565b9050507f5d121f0c2b2c4877a2b0a1457c73ce1c28628e5705271cb91db3e49792715cf5816040516110649190614b63565b60405180910390a150565b6097546001600160a01b031633146110c95760405162461bcd60e51b815260206004820181905260248201527f4f776e61626c653a2063616c6c6572206973206e6f7420746865206f776e65726044820152606401610919565b610103541561111a5760405162461bcd60e51b815260206004820152600260248201527f35300000000000000000000000000000000000000000000000000000000000006044820152606401610919565b6111276101028383614324565b507f6741b2fc379fad678116fe3d4d4b9a1a184ab53ba36b86ad0fa66340b1ab41ad8282604051611159929190614b9a565b60405180910390a15050565b6000818152606760205260408120546001600160a01b03168061080c5760405162461bcd60e51b815260206004820152602960248201527f4552433732313a206f776e657220717565727920666f72206e6f6e657869737460448201527f656e7420746f6b656e00000000000000000000000000000000000000000000006064820152608401610919565b61010280546111fe90614988565b80601f016020809104026020016040519081016040528092919081815260200182805461122a90614988565b80156112775780601f1061124c57610100808354040283529160200191611277565b820191906000526020600020905b81548152906001019060200180831161125a57829003601f168201915b505050505081565b60006001600160a01b0382166112fd5760405162461bcd60e51b815260206004820152602a60248201527f4552433732313a2062616c616e636520717565727920666f7220746865207a6560448201527f726f2061646472657373000000000000000000000000000000000000000000006064820152608401610919565b506001600160a01b031660009081526068602052604090205490565b6097546001600160a01b031633146113735760405162461bcd60e51b815260206004820181905260248201527f4f776e61626c653a2063616c6c6572206973206e6f7420746865206f776e65726044820152606401610919565b61137d600061368a565b565b60606066805461082190614988565b61010354156113df5760405162461bcd60e51b815260206004820152600160248201527f30000000000000000000000000000000000000000000000000000000000000006044820152606401610919565b6000805b8481101561279957368686838181106113fe576113fe614bc9565b90506020028101906114109190614bdf565b90503685858481811061142557611425614bc9565b90506020028101906114379190614c00565b8235600090815260ff60205260409020549091506001600160a01b0316156114855760405162461bcd60e51b81526020600482015260016024820152603160f81b6044820152606401610919565b611493610160830183614c16565b15905080156114af57506114ab610180830183614c16565b1590505b80156114c857506114c46101a0830183614c16565b1590505b156117495760007f990dfa8a4720a5ae8cdfbd7cde0b0dfab1da53261496baf04463b81b4a765d26833561150260a0860160808701614c60565b61151260c0870160a0880161469b565b61152260e0880160c0890161469b565b6115326040890160208a01614c83565b61154260608a0160408b01614cb5565b61155260808b0160608c01614cb5565b60408051602081019990995288019690965260ff90941660608701526001600160a01b039283166080870152911660a08501526fffffffffffffffffffffffffffffffff1660c084015267ffffffffffffffff90811660e0840152166101008201526101200160408051601f198184030181529190526115d9610100850160e0860161469b565b6115eb61012086016101008701614cdf565b604080516001600160a01b0390931660208401526bffffffffffffffffffffffff90911690820152610120850135606082015261014085013560808201527fc5d2460186f7233c927e7db2dcc703c0e500b653ca82273b7bfad8045d85a47060a0820181905260c0820181905260e08201526101000160408051601f198184030181529082905261167f9291602001614d0d565b6040516020818303038152906040528051906020012090506116a96097546001600160a01b031690565b6001600160a01b03166117096116c36101c0860186614d3c565b8080601f01602080910402602001604051908101604052809392919081815260200183838082843760009201919091525061170392508691506136dc9050565b90613745565b6001600160a01b0316146117435760405162461bcd60e51b81526020600482015260016024820152601960f91b6044820152606401610919565b50611ed5565b60006040518060600160405280848061016001906117679190614c16565b905067ffffffffffffffff811115611781576117816147da565b6040519080825280602002602001820160405280156117aa578160200160208202803683370190505b5081526020016117be610180860186614c16565b905067ffffffffffffffff8111156117d8576117d86147da565b604051908082528060200260200182016040528015611801578160200160208202803683370190505b5081526020016118156101a0860186614c16565b905067ffffffffffffffff81111561182f5761182f6147da565b604051908082528060200260200182016040528015611858578160200160208202803683370190505b5090529050600061186d610160850185614c16565b905011156119795760005b611886610160850185614c16565b9050811015611977577f42f756283d740db7716013024e103bf398ecb3e8e6d46623bf4062ee9ba88dad6118be610160860186614c16565b838181106118ce576118ce614bc9565b6118e4926020604090920201908101915061469b565b6118f2610160870187614c16565b8481811061190257611902614bc9565b90506040020160200135604051602001611938939291909283526001600160a01b03919091166020830152604082015260600190565b604051602081830303815290604052805190602001208260000151828151811061196457611964614bc9565b6020908102919091010152600101611878565b505b6000611989610180850185614c16565b90501115611a955760005b6119a2610180850185614c16565b9050811015611a93577f42f756283d740db7716013024e103bf398ecb3e8e6d46623bf4062ee9ba88dad6119da610180860186614c16565b838181106119ea576119ea614bc9565b611a00926020604090920201908101915061469b565b611a0e610180870187614c16565b84818110611a1e57611a1e614bc9565b90506040020160200135604051602001611a54939291909283526001600160a01b03919091166020830152604082015260600190565b6040516020818303038152906040528051906020012082602001518281518110611a8057611a80614bc9565b6020908102919091010152600101611994565b505b6000611aa56101a0850185614c16565b90501115611bb15760005b611abe6101a0850185614c16565b9050811015611baf577f42f756283d740db7716013024e103bf398ecb3e8e6d46623bf4062ee9ba88dad611af66101a0860186614c16565b83818110611b0657611b06614bc9565b611b1c926020604090920201908101915061469b565b611b2a6101a0870187614c16565b84818110611b3a57611b3a614bc9565b90506040020160200135604051602001611b70939291909283526001600160a01b03919091166020830152604082015260600190565b6040516020818303038152906040528051906020012082604001518281518110611b9c57611b9c614bc9565b6020908102919091010152600101611ab0565b505b60007f990dfa8a4720a5ae8cdfbd7cde0b0dfab1da53261496baf04463b81b4a765d268435611be660a0870160808801614c60565b611bf660c0880160a0890161469b565b611c0660e0890160c08a0161469b565b611c1660408a0160208b01614c83565b611c2660608b0160408c01614cb5565b611c3660808c0160608d01614cb5565b611c476101008d0160e08e0161469b565b611c596101208e016101008f01614cdf565b60408051602081019b909b528a019890985260ff90961660608901526001600160a01b03948516608089015292841660a08801526fffffffffffffffffffffffffffffffff90911660c087015267ffffffffffffffff90811660e08701521661010085015216610120838101919091526bffffffffffffffffffffffff90911661014083810191909152908601356101608301528501356101808201526101a00160408051601f19818403018152919052825151611d37577fc5d2460186f7233c927e7db2dcc703c0e500b653ca82273b7bfad8045d85a470611d60565b8251604051611d499190602001614d83565b604051602081830303815290604052805190602001205b600084602001515111611d93577fc5d2460186f7233c927e7db2dcc703c0e500b653ca82273b7bfad8045d85a470611dbd565b602080850151604051611da69201614d83565b604051602081830303815290604052805190602001205b600085604001515111611df0577fc5d2460186f7233c927e7db2dcc703c0e500b653ca82273b7bfad8045d85a470611e1c565b8460400151604051602001611e059190614d83565b604051602081830303815290604052805190602001205b604080516020810194909452830191909152606082015260800160408051601f1981840301815290829052611e549291602001614d0d565b604051602081830303815290604052805190602001209050611e7e6097546001600160a01b031690565b6001600160a01b0316611e986116c36101c0870187614d3c565b6001600160a01b031614611ed25760405162461bcd60e51b81526020600482015260016024820152601960f91b6044820152606401610919565b50505b6000611ee760c0840160a0850161469b565b6001600160a01b031614611f5c5733611f0660c0840160a0850161469b565b6001600160a01b031614611f5c5760405162461bcd60e51b815260206004820152600160248201527f33000000000000000000000000000000000000000000000000000000000000006044820152606401610919565b42611f6d6060840160408501614cb5565b67ffffffffffffffff161115611fc55760405162461bcd60e51b815260206004820152600160248201527f34000000000000000000000000000000000000000000000000000000000000006044820152606401610919565b42611fd66080840160608501614cb5565b67ffffffffffffffff16101561202e5760405162461bcd60e51b815260206004820152600160248201527f35000000000000000000000000000000000000000000000000000000000000006044820152606401610919565b610140820135156120c35760006120458280614d3c565b9050118015612077575061014082013561205f8280614d3c565b60405161206d929190614db9565b6040518091039020145b6120c35760405162461bcd60e51b815260206004820152600160248201527f36000000000000000000000000000000000000000000000000000000000000006044820152606401610919565b6101208201351561214f5760006120dd6020830183614dc9565b905011801561210357506121036101208301356120fd6020840184614dc9565b33613769565b61214f5760405162461bcd60e51b815260206004820152600160248201527f37000000000000000000000000000000000000000000000000000000000000006044820152606401610919565b600061215f610160840184614c16565b905011156122fd5760005b612178610160840184614c16565b90508110156122fb576000612191610160850185614c16565b838181106121a1576121a1614bc9565b9050604002018036038101906121b79190614e13565b80519091506001600160a01b031661221e57602081810151600090815260ff90915260409020546001600160a01b031633146122195760405162461bcd60e51b81526020600482015260016024820152600760fb1b6044820152606401610919565b6122f2565b805160208201516040517f23250cae000000000000000000000000000000000000000000000000000000008152600481019190915233916001600160a01b0316906323250cae9060240160206040518083038186803b15801561228057600080fd5b505afa158015612294573d6000803e3d6000fd5b505050506040513d601f19601f820116820180604052508101906122b89190614e6b565b6001600160a01b0316146122f25760405162461bcd60e51b81526020600482015260016024820152600760fb1b6044820152606401610919565b5060010161216a565b505b600061230d610180840184614c16565b905011156124ac5760005b612326610180840184614c16565b90508110156124aa57600061233f610180850185614c16565b8381811061234f5761234f614bc9565b9050604002018036038101906123659190614e13565b80519091506001600160a01b03166123cd57336001600160a01b031661238e8260200151611165565b6001600160a01b0316146123c85760405162461bcd60e51b81526020600482015260016024820152603960f81b6044820152606401610919565b6124a1565b805160208201516040517f6352211e000000000000000000000000000000000000000000000000000000008152600481019190915233916001600160a01b031690636352211e9060240160206040518083038186803b15801561242f57600080fd5b505afa158015612443573d6000803e3d6000fd5b505050506040513d601f19601f820116820180604052508101906124679190614e6b565b6001600160a01b0316146124a15760405162461bcd60e51b81526020600482015260016024820152603960f81b6044820152606401610919565b50600101612318565b505b60006124bc6101a0840184614c16565b905011156126375760005b6124d56101a0840184614c16565b90508110156126355760006124ee6101a0850185614c16565b838181106124fe576124fe614bc9565b9050604002018036038101906125149190614e13565b80519091506001600160a01b031661256c5760208101516125343361127f565b10156125675760405162461bcd60e51b8152602060048201526002602482015261031360f41b6044820152606401610919565b61262c565b602081015181516001600160a01b03166370a08231336040516001600160e01b031960e084901b1681526001600160a01b03909116600482015260240160206040518083038186803b1580156125c157600080fd5b505afa1580156125d5573d6000803e3d6000fd5b505050506040513d601f19601f820116820180604052508101906125f99190614e88565b101561262c5760405162461bcd60e51b8152602060048201526002602482015261031360f41b6044820152606401610919565b506001016124c7565b505b61264760a0830160808401614c60565b60ff16156126825761265f60a0830160808401614c60565b8235600090815260fe60205260409020805460ff191660ff929092169190911790555b6000612695610100840160e0850161469b565b6001600160a01b0316146127275760408051808201909152806126bf610100850160e0860161469b565b6001600160a01b031681526020016126df61012085016101008601614cdf565b6bffffffffffffffffffffffff9081169091528335600090815260fd6020908152604090912083519390910151909116600160a01b026001600160a01b039092169190911790555b612768600061273c60e0850160c0860161469b565b6001600160a01b03161461275f5761275a60e0840160c0850161469b565b612761565b335b8335613847565b6127786040830160208401614c83565b6fffffffffffffffffffffffffffffffff16939093019250506001016113e3565b50348114610f685760405162461bcd60e51b815260206004820152600260248201527f31310000000000000000000000000000000000000000000000000000000000006044820152606401610919565b6001600160a01b0382163314156128425760405162461bcd60e51b815260206004820152601960248201527f4552433732313a20617070726f766520746f2063616c6c6572000000000000006044820152606401610919565b336000818152606a602090815260408083206001600160a01b03871680855290835292819020805460ff191686151590811790915590519081529192917f17307eab39ab6107e8899845ad3d59bd9653f200f220920489ca2b5937696c31910160405180910390a35050565b6097546001600160a01b031633146129085760405162461bcd60e51b815260206004820181905260248201527f4f776e61626c653a2063616c6c6572206973206e6f7420746865206f776e65726044820152606401610919565b610103546002141561295c5760405162461bcd60e51b815260206004820152600260248201527f34300000000000000000000000000000000000000000000000000000000000006044820152606401610919565b61010381905560405181907f118f8ba10d647100925b2343f3030d110623f17b284ced4316cbe4b8f138883f90600090a250565b60005b81811015610a6b5760008383838181106129af576129af614bc9565b9050602002013590506129c2610a753390565b612a0e5760405162461bcd60e51b815260206004820152600260248201527f31350000000000000000000000000000000000000000000000000000000000006044820152606401610919565b612a1781613995565b600090815260ff6020526040902080546001600160a01b03191633179055600101612993565b612a473383613183565b612ab95760405162461bcd60e51b815260206004820152603160248201527f4552433732313a207472616e736665722063616c6c6572206973206e6f74206f60448201527f776e6572206e6f7220617070726f7665640000000000000000000000000000006064820152608401610919565b612ac584848484613a3c565b50505050565b6000818152606760205260409020546060906001600160a01b0316612b585760405162461bcd60e51b815260206004820152602f60248201527f4552433732314d657461646174613a2055524920717565727920666f72206e6f60448201527f6e6578697374656e7420746f6b656e00000000000000000000000000000000006064820152608401610919565b6040805180820190915260208082527f6162636465666768696a6b6c6d6e6f707172737475767778797a323334353637908201526101028054849291600091829190612ba390614988565b905011612be5576040518060400160405280600781526020017f697066733a2f2f00000000000000000000000000000000000000000000000000815250612c72565b6101028054612bf390614988565b80601f0160208091040260200160405190810160405280929190818152602001828054612c1f90614988565b8015612c6c5780601f10612c4157610100808354040283529160200191612c6c565b820191906000526020600020905b815481529060010190602001808311612c4f57829003601f168201915b50505050505b600086815260fe602052604081205491925090829060ff1615612cca576040518060400160405280600781526020017f6261667962656900000000000000000000000000000000000000000000000000815250612d01565b6040518060400160405280600781526020017f6261666b726569000000000000000000000000000000000000000000000000008152505b604051602001612d12929190614d0d565b60408051601f1981840301815291905290506002630170122060056000612d3b60016020614ea1565b905060005b6020811015612dea576000612d568260086149d3565b8c901b60f881901c600896871b63ffffff00161795909150612d789087614eb8565b95505b83861115612dd957612d8d8487614ea1565b955086898787901c851681518110612da757612da7614bc9565b602001015160f81c60f81b604051602001612dc3929190614ed0565b6040516020818303038152906040529650612d7b565b50612de381614f17565b9050612d40565b508315612e40578487612dfd8685614ea1565b85901b831681518110612e1257612e12614bc9565b602001015160f81c60f81b604051602001612e2e929190614ed0565b60405160208183030381529060405294505b509298975050505050505050565b6097546001600160a01b03163314612ea85760405162461bcd60e51b815260206004820181905260248201527f4f776e61626c653a2063616c6c6572206973206e6f7420746865206f776e65726044820152606401610919565b60005b81811015610a6b5736838383818110612ec657612ec6614bc9565b905060a002019050612eeb816020016020810190612ee4919061469b565b8235613847565b6000612efd606083016040840161469b565b6001600160a01b031614612f8f576040518060400160405280826040016020810190612f29919061469b565b6001600160a01b03168152602001612f476080840160608501614cdf565b6bffffffffffffffffffffffff9081169091528235600090815260fd6020908152604090912083519390910151909116600160a01b026001600160a01b039092169190911790555b50600101612eab565b6097546001600160a01b03163314612ff25760405162461bcd60e51b815260206004820181905260248201527f4f776e61626c653a2063616c6c6572206973206e6f7420746865206f776e65726044820152606401610919565b6001600160a01b03811661306e5760405162461bcd60e51b815260206004820152602660248201527f4f776e61626c653a206e6577206f776e657220697320746865207a65726f206160448201527f64647265737300000000000000000000000000000000000000000000000000006064820152608401610919565b6130778161368a565b50565b60006001600160e01b031982167f80ac58cd0000000000000000000000000000000000000000000000000000000014806130dd57506001600160e01b031982167f5b5e139f00000000000000000000000000000000000000000000000000000000145b8061080c57507f01ffc9a7000000000000000000000000000000000000000000000000000000006001600160e01b031983161461080c565b600081815260696020526040902080546001600160a01b0319166001600160a01b038416908117909155819061314a82611165565b6001600160a01b03167f8c5be1e5ebec7d5bd14f71427d1e84f3dd0314c0f7b2291e5b200ac8c7c3b92560405160405180910390a45050565b6000818152606760205260408120546001600160a01b03166131fc5760405162461bcd60e51b815260206004820152602c60248201527f4552433732313a206f70657261746f7220717565727920666f72206e6f6e657860448201526b34b9ba32b73a103a37b5b2b760a11b6064820152608401610919565b600061320783611165565b9050806001600160a01b0316846001600160a01b031614806132425750836001600160a01b0316613237846108a4565b6001600160a01b0316145b8061327257506001600160a01b038082166000908152606a602090815260408083209388168352929052205460ff165b949350505050565b826001600160a01b031661328d82611165565b6001600160a01b0316146133095760405162461bcd60e51b815260206004820152602960248201527f4552433732313a207472616e73666572206f6620746f6b656e2074686174206960448201527f73206e6f74206f776e00000000000000000000000000000000000000000000006064820152608401610919565b6001600160a01b0382166133845760405162461bcd60e51b8152602060048201526024808201527f4552433732313a207472616e7366657220746f20746865207a65726f2061646460448201527f72657373000000000000000000000000000000000000000000000000000000006064820152608401610919565b61338f838383613ac5565b61339a600082613115565b6001600160a01b03831660009081526068602052604081208054600192906133c3908490614ea1565b90915550506001600160a01b03821660009081526068602052604081208054600192906133f1908490614eb8565b909155505060008181526067602052604080822080546001600160a01b0319166001600160a01b0386811691821790925591518493918716917fddf252ad1be2c89b69c2b068fc378daa952ba7f163c4a11628f55a4df523b3ef91a4505050565b600054610100900460ff168061346b575060005460ff16155b6134ce5760405162461bcd60e51b815260206004820152602e60248201527f496e697469616c697a61626c653a20636f6e747261637420697320616c72656160448201526d191e481a5b9a5d1a585b1a5e995960921b6064820152608401610919565b600054610100900460ff161580156134f0576000805461ffff19166101011790555b6134f8613ae2565b613500613ae2565b61350a8383613b93565b8015610a6b576000805461ff0019169055505050565b600054610100900460ff1680613539575060005460ff16155b61359c5760405162461bcd60e51b815260206004820152602e60248201527f496e697469616c697a61626c653a20636f6e747261637420697320616c72656160448201526d191e481a5b9a5d1a585b1a5e995960921b6064820152608401610919565b600054610100900460ff161580156135be576000805461ffff19166101011790555b61350a8383613c6f565b600054610100900460ff16806135e1575060005460ff16155b6136445760405162461bcd60e51b815260206004820152602e60248201527f496e697469616c697a61626c653a20636f6e747261637420697320616c72656160448201526d191e481a5b9a5d1a585b1a5e995960921b6064820152608401610919565b600054610100900460ff16158015613666576000805461ffff19166101011790555b61366e613ae2565b613676613d40565b8015613077576000805461ff001916905550565b609780546001600160a01b038381166001600160a01b0319831681179093556040519116919082907f8be0079c531659141344cd1fd0a4f28419497f9722a3daafe3b4186f6b6457e090600090a35050565b600061080c6136e9613de7565b836040517f19010000000000000000000000000000000000000000000000000000000000006020820152602281018390526042810182905260009060620160405160208183030381529060405280519060200120905092915050565b60008060006137548585613e67565b9150915061376181613ed4565b509392505050565b6040516bffffffffffffffffffffffff19606083901b166020820152600090819060340160405160208183030381529060405280519060200120905060005b8481101561383b5760008686838181106137c4576137c4614bc9565b905060200201359050808311613805576040805160208101859052908101829052606001604051602081830303815290604052805190602001209250613832565b60408051602081018390529081018490526060016040516020818303038152906040528051906020012092505b506001016137a8565b50909414949350505050565b6001600160a01b03821661389d5760405162461bcd60e51b815260206004820181905260248201527f4552433732313a206d696e7420746f20746865207a65726f20616464726573736044820152606401610919565b6000818152606760205260409020546001600160a01b0316156139025760405162461bcd60e51b815260206004820152601c60248201527f4552433732313a20746f6b656e20616c7265616479206d696e746564000000006044820152606401610919565b61390e60008383613ac5565b6001600160a01b0382166000908152606860205260408120805460019290613937908490614eb8565b909155505060008181526067602052604080822080546001600160a01b0319166001600160a01b03861690811790915590518392907fddf252ad1be2c89b69c2b068fc378daa952ba7f163c4a11628f55a4df523b3ef908290a45050565b60006139a082611165565b90506139ae81600084613ac5565b6139b9600083613115565b6001600160a01b03811660009081526068602052604081208054600192906139e2908490614ea1565b909155505060008281526067602052604080822080546001600160a01b0319169055518391906001600160a01b038416907fddf252ad1be2c89b69c2b068fc378daa952ba7f163c4a11628f55a4df523b3ef908390a45050565b613a4784848461327a565b613a538484848461408f565b612ac55760405162461bcd60e51b815260206004820152603260248201527f4552433732313a207472616e7366657220746f206e6f6e20455243373231526560448201527f63656976657220696d706c656d656e74657200000000000000000000000000006064820152608401610919565b6000818152610100602052604090205460ff1615610a6b57600080fd5b600054610100900460ff1680613afb575060005460ff16155b613b5e5760405162461bcd60e51b815260206004820152602e60248201527f496e697469616c697a61626c653a20636f6e747261637420697320616c72656160448201526d191e481a5b9a5d1a585b1a5e995960921b6064820152608401610919565b600054610100900460ff16158015613676576000805461ffff19166101011790558015613077576000805461ff001916905550565b600054610100900460ff1680613bac575060005460ff16155b613c0f5760405162461bcd60e51b815260206004820152602e60248201527f496e697469616c697a61626c653a20636f6e747261637420697320616c72656160448201526d191e481a5b9a5d1a585b1a5e995960921b6064820152608401610919565b600054610100900460ff16158015613c31576000805461ffff19166101011790555b8251613c449060659060208601906143a8565b508151613c589060669060208501906143a8565b508015610a6b576000805461ff0019169055505050565b600054610100900460ff1680613c88575060005460ff16155b613ceb5760405162461bcd60e51b815260206004820152602e60248201527f496e697469616c697a61626c653a20636f6e747261637420697320616c72656160448201526d191e481a5b9a5d1a585b1a5e995960921b6064820152608401610919565b600054610100900460ff16158015613d0d576000805461ffff19166101011790555b825160208085019190912083519184019190912060c99190915560ca558015610a6b576000805461ff0019169055505050565b600054610100900460ff1680613d59575060005460ff16155b613dbc5760405162461bcd60e51b815260206004820152602e60248201527f496e697469616c697a61626c653a20636f6e747261637420697320616c72656160448201526d191e481a5b9a5d1a585b1a5e995960921b6064820152608401610919565b600054610100900460ff16158015613dde576000805461ffff19166101011790555b6136763361368a565b6000613e627f8b73c3c69bb8fe3d512ecc4cf759cc79239f7b179b0ffacaa9a75d522b39400f613e1660c95490565b60ca546040805160208101859052908101839052606081018290524660808201523060a082015260009060c0016040516020818303038152906040528051906020012090509392505050565b905090565b600080825160411415613e9e5760208301516040840151606085015160001a613e92878285856141ef565b94509450505050610b5c565b825160401415613ec85760208301516040840151613ebd8683836142dc565b935093505050610b5c565b50600090506002610b5c565b6000816004811115613ee857613ee8614f32565b1415613ef15750565b6001816004811115613f0557613f05614f32565b1415613f535760405162461bcd60e51b815260206004820152601860248201527f45434453413a20696e76616c6964207369676e617475726500000000000000006044820152606401610919565b6002816004811115613f6757613f67614f32565b1415613fb55760405162461bcd60e51b815260206004820152601f60248201527f45434453413a20696e76616c6964207369676e6174757265206c656e677468006044820152606401610919565b6003816004811115613fc957613fc9614f32565b14156140225760405162461bcd60e51b815260206004820152602260248201527f45434453413a20696e76616c6964207369676e6174757265202773272076616c604482015261756560f01b6064820152608401610919565b600481600481111561403657614036614f32565b14156130775760405162461bcd60e51b815260206004820152602260248201527f45434453413a20696e76616c6964207369676e6174757265202776272076616c604482015261756560f01b6064820152608401610919565b60006001600160a01b0384163b156141e757604051630a85bd0160e11b81526001600160a01b0385169063150b7a02906140d3903390899088908890600401614f48565b602060405180830381600087803b1580156140ed57600080fd5b505af192505050801561411d575060408051601f3d908101601f1916820190925261411a91810190614f84565b60015b6141cd573d80801561414b576040519150601f19603f3d011682016040523d82523d6000602084013e614150565b606091505b5080516141c55760405162461bcd60e51b815260206004820152603260248201527f4552433732313a207472616e7366657220746f206e6f6e20455243373231526560448201527f63656976657220696d706c656d656e74657200000000000000000000000000006064820152608401610919565b805181602001fd5b6001600160e01b031916630a85bd0160e11b149050613272565b506001613272565b6000807f7fffffffffffffffffffffffffffffff5d576e7357a4501ddfe92f46681b20a083111561422657506000905060036142d3565b8460ff16601b1415801561423e57508460ff16601c14155b1561424f57506000905060046142d3565b6040805160008082526020820180845289905260ff881692820192909252606081018690526080810185905260019060a0016020604051602081039080840390855afa1580156142a3573d6000803e3d6000fd5b5050604051601f1901519150506001600160a01b0381166142cc576000600192509250506142d3565b9150600090505b94509492505050565b6000807f7fffffffffffffffffffffffffffffffffffffffffffffffffffffffffffffff831660ff84901c601b01614316878288856141ef565b935093505050935093915050565b82805461433090614988565b90600052602060002090601f0160209004810192826143525760008555614398565b82601f1061436b5782800160ff19823516178555614398565b82800160010185558215614398579182015b8281111561439857823582559160200191906001019061437d565b506143a492915061441c565b5090565b8280546143b490614988565b90600052602060002090601f0160209004810192826143d65760008555614398565b82601f106143ef57805160ff1916838001178555614398565b82800160010185558215614398579182015b82811115614398578251825591602001919060010190614401565b5b808211156143a4576000815560010161441d565b6001600160e01b03198116811461307757600080fd5b60006020828403121561445957600080fd5b813561446481614431565b9392505050565b60005b8381101561448657818101518382015260200161446e565b83811115612ac55750506000910152565b600081518084526144af81602086016020860161446b565b601f01601f19169290920160200192915050565b6020815260006144646020830184614497565b6000602082840312156144e857600080fd5b5035919050565b6001600160a01b038116811461307757600080fd5b6000806040838503121561451757600080fd5b8235614522816144ef565b946020939093013593505050565b60008060006060848603121561454557600080fd5b8335614550816144ef565b92506020840135614560816144ef565b929592945050506040919091013590565b6000806040838503121561458457600080fd5b50508035926020909101359150565b60008083601f8401126145a557600080fd5b50813567ffffffffffffffff8111156145bd57600080fd5b602083019150836020828501011115610b5c57600080fd5b600080600080604085870312156145eb57600080fd5b843567ffffffffffffffff8082111561460357600080fd5b61460f88838901614593565b9096509450602087013591508082111561462857600080fd5b5061463587828801614593565b95989497509550505050565b60006040828403121561465357600080fd5b50919050565b6000806020838503121561466c57600080fd5b823567ffffffffffffffff81111561468357600080fd5b61468f85828601614593565b90969095509350505050565b6000602082840312156146ad57600080fd5b8135614464816144ef565b60008083601f8401126146ca57600080fd5b50813567ffffffffffffffff8111156146e257600080fd5b6020830191508360208260051b8501011115610b5c57600080fd5b6000806000806040858703121561471357600080fd5b843567ffffffffffffffff8082111561472b57600080fd5b614737888389016146b8565b9096509450602087013591508082111561475057600080fd5b50614635878288016146b8565b801515811461307757600080fd5b6000806040838503121561477e57600080fd5b8235614789816144ef565b915060208301356147998161475d565b809150509250929050565b600080602083850312156147b757600080fd5b823567ffffffffffffffff8111156147ce57600080fd5b61468f858286016146b8565b634e487b7160e01b600052604160045260246000fd5b604051601f8201601f1916810167ffffffffffffffff81118282101715614819576148196147da565b604052919050565b6000806000806080858703121561483757600080fd5b8435614842816144ef565b9350602085810135614853816144ef565b935060408601359250606086013567ffffffffffffffff8082111561487757600080fd5b818801915088601f83011261488b57600080fd5b81358181111561489d5761489d6147da565b6148af601f8201601f191685016147f0565b915080825289848285010111156148c557600080fd5b808484018584013760008482840101525080935050505092959194509250565b600080602083850312156148f857600080fd5b823567ffffffffffffffff8082111561491057600080fd5b818501915085601f83011261492457600080fd5b81358181111561493357600080fd5b86602060a08302850101111561494857600080fd5b60209290920196919550909350505050565b6000806040838503121561496d57600080fd5b8235614978816144ef565b91506020830135614799816144ef565b600181811c9082168061499c57607f821691505b6020821081141561465357634e487b7160e01b600052602260045260246000fd5b634e487b7160e01b600052601160045260246000fd5b60008160001904831182151516156149ed576149ed6149bd565b500290565b600082614a0f57634e487b7160e01b600052601260045260246000fd5b500490565b8054600090600181811c9080831680614a2e57607f831692505b6020808410821415614a5057634e487b7160e01b600052602260045260246000fd5b83885260208801828015614a6b5760018114614a7c57614aa7565b60ff19871682528282019750614aa7565b60008981526020902060005b87811015614aa157815484820152908601908401614a88565b83019850505b5050505050505092915050565b604081526000614ac76040830185614a14565b8281036020840152614ad98185614a14565b95945050505050565b8135614aed816144ef565b6001600160a01b03811690508154816001600160a01b031982161783556020840135614b188161475d565b7fffffffffffffffffffffff0000000000000000000000000000000000000000009190911690911790151560a01b74ff00000000000000000000000000000000000000001617905550565b604081018235614b72816144ef565b6001600160a01b031682526020830135614b8b8161475d565b80151560208401525092915050565b60208152816020820152818360408301376000818301604090810191909152601f909201601f19160101919050565b634e487b7160e01b600052603260045260246000fd5b600082356101de19833603018112614bf657600080fd5b9190910192915050565b60008235603e19833603018112614bf657600080fd5b6000808335601e19843603018112614c2d57600080fd5b83018035915067ffffffffffffffff821115614c4857600080fd5b6020019150600681901b3603821315610b5c57600080fd5b600060208284031215614c7257600080fd5b813560ff8116811461446457600080fd5b600060208284031215614c9557600080fd5b81356fffffffffffffffffffffffffffffffff8116811461446457600080fd5b600060208284031215614cc757600080fd5b813567ffffffffffffffff8116811461446457600080fd5b600060208284031215614cf157600080fd5b81356bffffffffffffffffffffffff8116811461446457600080fd5b60008351614d1f81846020880161446b565b835190830190614d3381836020880161446b565b01949350505050565b6000808335601e19843603018112614d5357600080fd5b83018035915067ffffffffffffffff821115614d6e57600080fd5b602001915036819003821315610b5c57600080fd5b815160009082906020808601845b83811015614dad57815185529382019390820190600101614d91565b50929695505050505050565b8183823760009101908152919050565b6000808335601e19843603018112614de057600080fd5b83018035915067ffffffffffffffff821115614dfb57600080fd5b6020019150600581901b3603821315610b5c57600080fd5b600060408284031215614e2557600080fd5b6040516040810181811067ffffffffffffffff82111715614e4857614e486147da565b6040528235614e56816144ef565b81526020928301359281019290925250919050565b600060208284031215614e7d57600080fd5b8151614464816144ef565b600060208284031215614e9a57600080fd5b5051919050565b600082821015614eb357614eb36149bd565b500390565b60008219821115614ecb57614ecb6149bd565b500190565b60008351614ee281846020880161446b565b7fff00000000000000000000000000000000000000000000000000000000000000939093169190920190815260010192915050565b6000600019821415614f2b57614f2b6149bd565b5060010190565b634e487b7160e01b600052602160045260246000fd5b60006001600160a01b03808716835280861660208401525083604083015260806060830152614f7a6080830184614497565b9695505050505050565b600060208284031215614f9657600080fd5b81516144648161443156fea26469706673582212206eff755a1ec9ee65dbd5d921f04629493d8202e68b8800522b096f0e22c98c0a64736f6c63430008090033496e697469616c697a61626c653a20636f6e747261637420697320616c726561",
  "linkReferences": {},
  "deployedLinkReferences": {}
}