{
  "_format": "hh-sol-artifact-1",
  "contractName": "C0",
  "sourceName": "contracts/C0.sol",
  "abi": [
    {
      "anonymous": false,
      "inputs": [
        {
          "indexed": true,
          "internalType": "address",
          "name": "owner",
          "type": "address"
        },
        {
          "indexed": true,
          "internalType": "address",
          "name": "approved",
          "type": "address"
        },
        {
          "indexed": true,
          "internalType": "uint256",
          "name": "tokenId",
          "type": "uint256"
        }
      ],
      "name": "Approval",
      "type": "event"
    },
    {
      "anonymous": false,
      "inputs": [
        {
          "indexed": true,
          "internalType": "address",
          "name": "owner",
          "type": "address"
        },
        {
          "indexed": true,
          "internalType": "address",
          "name": "operator",
          "type": "address"
        },
        {
          "indexed": false,
          "internalType": "bool",
          "name": "approved",
          "type": "bool"
        }
      ],
      "name": "ApprovalForAll",
      "type": "event"
    },
    {
      "anonymous": false,
      "inputs": [
        {
          "indexed": false,
          "internalType": "string",
          "name": "uri",
          "type": "string"
        }
      ],
      "name": "BaseURIUpdated",
      "type": "event"
    },
    {
      "anonymous": false,
      "inputs": [
        {
          "indexed": false,
          "internalType": "string",
          "name": "name",
          "type": "string"
        },
        {
          "indexed": false,
          "internalType": "string",
          "name": "symbol",
          "type": "string"
        }
      ],
      "name": "NSUpdated",
      "type": "event"
    },
    {
      "anonymous": false,
      "inputs": [
        {
          "indexed": true,
          "internalType": "address",
          "name": "previousOwner",
          "type": "address"
        },
        {
          "indexed": true,
          "internalType": "address",
          "name": "newOwner",
          "type": "address"
        }
      ],
      "name": "OwnershipTransferred",
      "type": "event"
    },
    {
      "anonymous": false,
      "inputs": [
        {
          "indexed": true,
          "internalType": "uint256",
          "name": "state",
          "type": "uint256"
        }
      ],
      "name": "StateUpdated",
      "type": "event"
    },
    {
      "anonymous": false,
      "inputs": [
        {
          "indexed": true,
          "internalType": "address",
          "name": "from",
          "type": "address"
        },
        {
          "indexed": true,
          "internalType": "address",
          "name": "to",
          "type": "address"
        },
        {
          "indexed": true,
          "internalType": "uint256",
          "name": "tokenId",
          "type": "uint256"
        }
      ],
      "name": "Transfer",
      "type": "event"
    },
    {
      "anonymous": false,
      "inputs": [
        {
          "components": [
            {
              "internalType": "address",
              "name": "account",
              "type": "address"
            },
            {
              "internalType": "bool",
              "name": "permanent",
              "type": "bool"
            }
          ],
          "indexed": false,
          "internalType": "struct C0.Withdrawer",
          "name": "withdrawer",
          "type": "tuple"
        }
      ],
      "name": "WithdrawerUpdated",
      "type": "event"
    },
    {
      "inputs": [],
      "name": "BODY_TYPE_HASH",
      "outputs": [
        {
          "internalType": "bytes32",
          "name": "",
          "type": "bytes32"
        }
      ],
      "stateMutability": "view",
      "type": "function"
    },
    {
      "inputs": [
        {
          "internalType": "address",
          "name": "to",
          "type": "address"
        },
        {
          "internalType": "uint256",
          "name": "tokenId",
          "type": "uint256"
        }
      ],
      "name": "approve",
      "outputs": [],
      "stateMutability": "nonpayable",
      "type": "function"
    },
    {
      "inputs": [
        {
          "internalType": "address",
          "name": "owner",
          "type": "address"
        }
      ],
      "name": "balanceOf",
      "outputs": [
        {
          "internalType": "uint256",
          "name": "",
          "type": "uint256"
        }
      ],
      "stateMutability": "view",
      "type": "function"
    },
    {
      "inputs": [],
      "name": "baseURI",
      "outputs": [
        {
          "internalType": "string",
          "name": "",
          "type": "string"
        }
      ],
      "stateMutability": "view",
      "type": "function"
    },
    {
      "inputs": [
        {
          "internalType": "uint256",
          "name": "_tokenId",
          "type": "uint256"
        }
      ],
      "name": "burn",
      "outputs": [],
      "stateMutability": "nonpayable",
      "type": "function"
    },
    {
      "inputs": [
        {
          "internalType": "uint256",
          "name": "tokenId",
          "type": "uint256"
        }
      ],
      "name": "getApproved",
      "outputs": [
        {
          "internalType": "address",
          "name": "",
          "type": "address"
        }
      ],
      "stateMutability": "view",
      "type": "function"
    },
    {
      "inputs": [
        {
          "components": [
            {
              "internalType": "uint256",
              "name": "id",
              "type": "uint256"
            },
            {
              "internalType": "address",
              "name": "receiver",
              "type": "address"
            },
            {
              "internalType": "address",
              "name": "royaltyReceiver",
              "type": "address"
            },
            {
              "internalType": "uint96",
              "name": "royaltyAmount",
              "type": "uint96"
            },
            {
              "internalType": "bool",
              "name": "raw",
              "type": "bool"
            }
          ],
          "internalType": "struct C0.Gift[]",
          "name": "gifts",
          "type": "tuple[]"
        }
      ],
      "name": "give",
      "outputs": [],
      "stateMutability": "payable",
      "type": "function"
    },
    {
      "inputs": [
        {
          "internalType": "string",
          "name": "name",
          "type": "string"
        },
        {
          "internalType": "string",
          "name": "symbol",
          "type": "string"
        }
      ],
      "name": "initialize",
      "outputs": [],
      "stateMutability": "nonpayable",
      "type": "function"
    },
    {
      "inputs": [
        {
          "internalType": "address",
          "name": "owner",
          "type": "address"
        },
        {
          "internalType": "address",
          "name": "operator",
          "type": "address"
        }
      ],
      "name": "isApprovedForAll",
      "outputs": [
        {
          "internalType": "bool",
          "name": "",
          "type": "bool"
        }
      ],
      "stateMutability": "view",
      "type": "function"
    },
    {
      "inputs": [
        {
          "components": [
            {
              "internalType": "uint256",
              "name": "id",
              "type": "uint256"
            },
            {
              "internalType": "uint128",
              "name": "value",
              "type": "uint128"
            },
            {
              "internalType": "uint64",
              "name": "start",
              "type": "uint64"
            },
            {
              "internalType": "uint64",
              "name": "end",
              "type": "uint64"
            },
            {
              "internalType": "bool",
              "name": "raw",
              "type": "bool"
            },
            {
              "internalType": "address",
              "name": "sender",
              "type": "address"
            },
            {
              "internalType": "address",
              "name": "royaltyReceiver",
              "type": "address"
            },
            {
              "internalType": "uint96",
              "name": "royaltyAmount",
              "type": "uint96"
            },
            {
              "internalType": "bytes32",
              "name": "merkleHash",
              "type": "bytes32"
            },
            {
              "internalType": "bytes32",
              "name": "puzzleHash",
              "type": "bytes32"
            },
            {
              "internalType": "bytes",
              "name": "signature",
              "type": "bytes"
            }
          ],
          "internalType": "struct C0.Body[]",
          "name": "bodies",
          "type": "tuple[]"
        },
        {
          "components": [
            {
              "internalType": "bytes",
              "name": "puzzle",
              "type": "bytes"
            },
            {
              "internalType": "bytes32[]",
              "name": "merkle",
              "type": "bytes32[]"
            }
          ],
          "internalType": "struct C0.Proof[]",
          "name": "proofs",
          "type": "tuple[]"
        }
      ],
      "name": "mint",
      "outputs": [],
      "stateMutability": "payable",
      "type": "function"
    },
    {
      "inputs": [],
      "name": "name",
      "outputs": [
        {
          "internalType": "string",
          "name": "",
          "type": "string"
        }
      ],
      "stateMutability": "view",
      "type": "function"
    },
    {
      "inputs": [],
      "name": "owner",
      "outputs": [
        {
          "internalType": "address",
          "name": "",
          "type": "address"
        }
      ],
      "stateMutability": "view",
      "type": "function"
    },
    {
      "inputs": [
        {
          "internalType": "uint256",
          "name": "tokenId",
          "type": "uint256"
        }
      ],
      "name": "ownerOf",
      "outputs": [
        {
          "internalType": "address",
          "name": "",
          "type": "address"
        }
      ],
      "stateMutability": "view",
      "type": "function"
    },
    {
      "inputs": [],
      "name": "renounceOwnership",
      "outputs": [],
      "stateMutability": "nonpayable",
      "type": "function"
    },
    {
      "inputs": [
        {
          "internalType": "uint256",
          "name": "",
          "type": "uint256"
        }
      ],
      "name": "royalty",
      "outputs": [
        {
          "internalType": "address",
          "name": "receiver",
          "type": "address"
        },
        {
          "internalType": "uint96",
          "name": "amount",
          "type": "uint96"
        }
      ],
      "stateMutability": "view",
      "type": "function"
    },
    {
      "inputs": [
        {
          "internalType": "uint256",
          "name": "tokenId",
          "type": "uint256"
        },
        {
          "internalType": "uint256",
          "name": "value",
          "type": "uint256"
        }
      ],
      "name": "royaltyInfo",
      "outputs": [
        {
          "internalType": "address",
          "name": "receiver",
          "type": "address"
        },
        {
          "internalType": "uint256",
          "name": "royaltyAmount",
          "type": "uint256"
        }
      ],
      "stateMutability": "view",
      "type": "function"
    },
    {
      "inputs": [
        {
          "internalType": "address",
          "name": "from",
          "type": "address"
        },
        {
          "internalType": "address",
          "name": "to",
          "type": "address"
        },
        {
          "internalType": "uint256",
          "name": "tokenId",
          "type": "uint256"
        }
      ],
      "name": "safeTransferFrom",
      "outputs": [],
      "stateMutability": "nonpayable",
      "type": "function"
    },
    {
      "inputs": [
        {
          "internalType": "address",
          "name": "from",
          "type": "address"
        },
        {
          "internalType": "address",
          "name": "to",
          "type": "address"
        },
        {
          "internalType": "uint256",
          "name": "tokenId",
          "type": "uint256"
        },
        {
          "internalType": "bytes",
          "name": "_data",
          "type": "bytes"
        }
      ],
      "name": "safeTransferFrom",
      "outputs": [],
      "stateMutability": "nonpayable",
      "type": "function"
    },
    {
      "inputs": [
        {
          "internalType": "address",
          "name": "operator",
          "type": "address"
        },
        {
          "internalType": "bool",
          "name": "approved",
          "type": "bool"
        }
      ],
      "name": "setApprovalForAll",
      "outputs": [],
      "stateMutability": "nonpayable",
      "type": "function"
    },
    {
      "inputs": [
        {
          "internalType": "string",
          "name": "b",
          "type": "string"
        }
      ],
      "name": "setBaseURI",
      "outputs": [],
      "stateMutability": "nonpayable",
      "type": "function"
    },
    {
      "inputs": [
        {
          "internalType": "string",
          "name": "name_",
          "type": "string"
        },
        {
          "internalType": "string",
          "name": "symbol_",
          "type": "string"
        }
      ],
      "name": "setNS",
      "outputs": [],
      "stateMutability": "nonpayable",
      "type": "function"
    },
    {
      "inputs": [
        {
          "internalType": "uint256",
          "name": "_state",
          "type": "uint256"
        }
      ],
      "name": "setState",
      "outputs": [],
      "stateMutability": "nonpayable",
      "type": "function"
    },
    {
      "inputs": [
        {
          "components": [
            {
              "internalType": "address",
              "name": "account",
              "type": "address"
            },
            {
              "internalType": "bool",
              "name": "permanent",
              "type": "bool"
            }
          ],
          "internalType": "struct C0.Withdrawer",
          "name": "_withdrawer",
          "type": "tuple"
        }
      ],
      "name": "setWithdrawer",
      "outputs": [],
      "stateMutability": "nonpayable",
      "type": "function"
    },
    {
      "inputs": [],
      "name": "state",
      "outputs": [
        {
          "internalType": "uint256",
          "name": "",
          "type": "uint256"
        }
      ],
      "stateMutability": "view",
      "type": "function"
    },
    {
      "inputs": [
        {
          "internalType": "bytes4",
          "name": "interfaceId",
          "type": "bytes4"
        }
      ],
      "name": "supportsInterface",
      "outputs": [
        {
          "internalType": "bool",
          "name": "",
          "type": "bool"
        }
      ],
      "stateMutability": "view",
      "type": "function"
    },
    {
      "inputs": [],
      "name": "symbol",
      "outputs": [
        {
          "internalType": "string",
          "name": "",
          "type": "string"
        }
      ],
      "stateMutability": "view",
      "type": "function"
    },
    {
      "inputs": [
        {
          "internalType": "uint256",
          "name": "tokenId",
          "type": "uint256"
        }
      ],
      "name": "tokenURI",
      "outputs": [
        {
          "internalType": "string",
          "name": "",
          "type": "string"
        }
      ],
      "stateMutability": "view",
      "type": "function"
    },
    {
      "inputs": [
        {
          "internalType": "address",
          "name": "from",
          "type": "address"
        },
        {
          "internalType": "address",
          "name": "to",
          "type": "address"
        },
        {
          "internalType": "uint256",
          "name": "tokenId",
          "type": "uint256"
        }
      ],
      "name": "transferFrom",
      "outputs": [],
      "stateMutability": "nonpayable",
      "type": "function"
    },
    {
      "inputs": [
        {
          "internalType": "address",
          "name": "newOwner",
          "type": "address"
        }
      ],
      "name": "transferOwnership",
      "outputs": [],
      "stateMutability": "nonpayable",
      "type": "function"
    },
    {
      "inputs": [
        {
          "internalType": "uint256",
          "name": "value",
          "type": "uint256"
        }
      ],
      "name": "withdraw",
      "outputs": [],
      "stateMutability": "payable",
      "type": "function"
    },
    {
      "inputs": [],
      "name": "withdrawer",
      "outputs": [
        {
          "internalType": "address",
          "name": "account",
          "type": "address"
        },
        {
          "internalType": "bool",
          "name": "permanent",
          "type": "bool"
        }
      ],
      "stateMutability": "view",
      "type": "function"
    },
    {
      "stateMutability": "payable",
      "type": "receive"
    }
  ],
  "bytecode": "0x608060405234801561001057600080fd5b50613f72806100206000396000f3fe6080604052600436106101dc5760003560e01c806370a0823111610102578063c87b56dd11610095578063e985e9c511610064578063e985e9c514610604578063f2fde38b1461064d578063f6200fb91461066d578063f84a2a811461068057600080fd5b8063c87b56dd146104ed578063ccc0b1ec1461050d578063cdc1842414610541578063e814cb711461058b57600080fd5b8063a22cb465116100d1578063a22cb46514610476578063a9e966b714610496578063b88d4fde146104b6578063c19d93fb146104d657600080fd5b806370a0823114610400578063715018a61461042e5780638da5cb5b1461044357806395d89b411461046157600080fd5b806335c938851161017a5780634fc41a42116101495780634fc41a421461038b57806355f804b3146103ab5780636352211e146103cb5780636c0360eb146103eb57600080fd5b806335c938851461030b57806342842e0e1461032b57806342966c681461034b5780634cd88b761461036b57600080fd5b8063095ea7b3116101b6578063095ea7b31461027757806323b872dd146102995780632a55205a146102b95780632e1a7d4d146102f857600080fd5b806301ffc9a7146101e857806306fdde031461021d578063081812fc1461023f57600080fd5b366101e357005b600080fd5b3480156101f457600080fd5b506102086102033660046138ce565b610693565b60405190151581526020015b60405180910390f35b34801561022957600080fd5b506102326106d7565b6040516102149190613c32565b34801561024b57600080fd5b5061025f61025a3660046139ea565b610769565b6040516001600160a01b039091168152602001610214565b34801561028357600080fd5b506102976102923660046137ae565b610803565b005b3480156102a557600080fd5b506102976102b4366004613668565b610935565b3480156102c557600080fd5b506102d96102d4366004613a02565b6109bd565b604080516001600160a01b039093168352602083019190915201610214565b6102976103063660046139ea565b610a28565b34801561031757600080fd5b50610297610326366004613946565b610b86565b34801561033757600080fd5b50610297610346366004613668565b610c8c565b34801561035757600080fd5b506102976103663660046139ea565b610ca7565b34801561037757600080fd5b50610297610386366004613946565b610d08565b34801561039757600080fd5b506102976103a63660046139a3565b610e92565b3480156103b757600080fd5b506102976103c6366004613906565b610f8f565b3480156103d757600080fd5b5061025f6103e63660046139ea565b611085565b3480156103f757600080fd5b50610232611110565b34801561040c57600080fd5b5061042061041b36600461360d565b61119f565b604051908152602001610214565b34801561043a57600080fd5b50610297611239565b34801561044f57600080fd5b506097546001600160a01b031661025f565b34801561046d57600080fd5b5061023261129f565b34801561048257600080fd5b50610297610491366004613781565b6112ae565b3480156104a257600080fd5b506102976104b13660046139ea565b611373565b3480156104c257600080fd5b506102976104d13660046136a8565b611455565b3480156104e257600080fd5b506104206101015481565b3480156104f957600080fd5b506102326105083660046139ea565b6114e3565b34801561051957600080fd5b506104207f6cc6c9e98154cd7f6e6797071b89f16bdb1a1277d6e7ebf8771c7e949f0921f981565b34801561054d57600080fd5b5060ff805461056c916001600160a01b03821691600160a01b90041682565b604080516001600160a01b039093168352901515602083015201610214565b34801561059757600080fd5b506105d86105a63660046139ea565b60fd602052600090815260409020546001600160a01b03811690600160a01b90046bffffffffffffffffffffffff1682565b604080516001600160a01b0390931683526bffffffffffffffffffffffff909116602083015201610214565b34801561061057600080fd5b5061020861061f366004613630565b6001600160a01b039182166000908152606a6020908152604080832093909416825291909152205460ff1690565b34801561065957600080fd5b5061029761066836600461360d565b61185b565b61029761067b3660046137d9565b61193a565b61029761068e366004613842565b611fe1565b60007f2a55205a000000000000000000000000000000000000000000000000000000006001600160e01b0319831614806106d157506106d182612139565b92915050565b6060606580546106e690613e06565b80601f016020809104026020016040519081016040528092919081815260200182805461071290613e06565b801561075f5780601f106107345761010080835404028352916020019161075f565b820191906000526020600020905b81548152906001019060200180831161074257829003601f168201915b5050505050905090565b6000818152606760205260408120546001600160a01b03166107e75760405162461bcd60e51b815260206004820152602c60248201527f4552433732313a20617070726f76656420717565727920666f72206e6f6e657860448201526b34b9ba32b73a103a37b5b2b760a11b60648201526084015b60405180910390fd5b506000908152606960205260409020546001600160a01b031690565b600061080e82611085565b9050806001600160a01b0316836001600160a01b031614156108985760405162461bcd60e51b815260206004820152602160248201527f4552433732313a20617070726f76616c20746f2063757272656e74206f776e6560448201527f720000000000000000000000000000000000000000000000000000000000000060648201526084016107de565b336001600160a01b03821614806108b457506108b4813361061f565b6109265760405162461bcd60e51b815260206004820152603860248201527f4552433732313a20617070726f76652063616c6c6572206973206e6f74206f7760448201527f6e6572206e6f7220617070726f76656420666f7220616c6c000000000000000060648201526084016107de565b61093083836121d4565b505050565b610940335b82612242565b6109b25760405162461bcd60e51b815260206004820152603160248201527f4552433732313a207472616e736665722063616c6c6572206973206e6f74206f60448201527f776e6572206e6f7220617070726f76656400000000000000000000000000000060648201526084016107de565b610930838383612339565b600082815260fd602090815260408083208151808301909252546001600160a01b038116808352600160a01b9091046bffffffffffffffffffffffff169282018390528392620f424090610a119087613da4565b610a1b9190613d84565b92509250505b9250929050565b6097546001600160a01b0316331480610a54575060ff546001600160a01b0316336001600160a01b0316145b610aa05760405162461bcd60e51b815260206004820152600260248201527f313200000000000000000000000000000000000000000000000000000000000060448201526064016107de565b6000808211610aaf5747610ab1565b815b60ff549091506000906001600160a01b031615610ad95760ff546001600160a01b0316610ae6565b6097546001600160a01b03165b6001600160a01b03168260405160006040518083038185875af1925050503d8060008114610b30576040519150601f19603f3d011682016040523d82523d6000602084013e610b35565b606091505b50509050806109305760405162461bcd60e51b815260206004820152600260248201527f313300000000000000000000000000000000000000000000000000000000000060448201526064016107de565b6097546001600160a01b03163314610be05760405162461bcd60e51b815260206004820181905260248201527f4f776e61626c653a2063616c6c6572206973206e6f7420746865206f776e657260448201526064016107de565b6101015415610c315760405162461bcd60e51b815260206004820152600260248201527f313600000000000000000000000000000000000000000000000000000000000060448201526064016107de565b610c3d6065858561347d565b50610c4a6066838361347d565b507f934066d47a89bfcab72db908a0701b9145131ee303cefb44553121c73419e8dd60656066604051610c7e929190613c45565b60405180910390a150505050565b61093083838360405180602001604052806000815250611455565b610cb03361093a565b610cfc5760405162461bcd60e51b815260206004820152600160248201527f390000000000000000000000000000000000000000000000000000000000000060448201526064016107de565b610d0581612506565b50565b600054610100900460ff1680610d21575060005460ff16155b610d845760405162461bcd60e51b815260206004820152602e60248201527f496e697469616c697a61626c653a20636f6e747261637420697320616c72656160448201526d191e481a5b9a5d1a585b1a5e995960921b60648201526084016107de565b600054610100900460ff16158015610da6576000805461ffff19166101011790555b610e1985858080601f01602080910402602001604051908101604052809392919081815260200183838082843760009201919091525050604080516020601f890181900481028201810190925287815292508791508690819084018382808284376000920191909152506125a192505050565b610e7185858080601f016020809104026020016040519081016040528093929190818152602001838380828437600092019190915250506040805180820190915260018152603160f81b6020820152915061266f9050565b610e79612717565b8015610e8b576000805461ff00191690555b5050505050565b6097546001600160a01b03163314610eec5760405162461bcd60e51b815260206004820181905260248201527f4f776e61626c653a2063616c6c6572206973206e6f7420746865206f776e657260448201526064016107de565b60ff8054600160a01b90041615610f455760405162461bcd60e51b815260206004820152600260248201527f313100000000000000000000000000000000000000000000000000000000000060448201526064016107de565b8060ff610f528282613e82565b9050507f5d121f0c2b2c4877a2b0a1457c73ce1c28628e5705271cb91db3e49792715cf581604051610f849190613c73565b60405180910390a150565b6097546001600160a01b03163314610fe95760405162461bcd60e51b815260206004820181905260248201527f4f776e61626c653a2063616c6c6572206973206e6f7420746865206f776e657260448201526064016107de565b610101541561103a5760405162461bcd60e51b815260206004820152600260248201527f313500000000000000000000000000000000000000000000000000000000000060448201526064016107de565b611047610100838361347d565b507f6741b2fc379fad678116fe3d4d4b9a1a184ab53ba36b86ad0fa66340b1ab41ad8282604051611079929190613c03565b60405180910390a15050565b6000818152606760205260408120546001600160a01b0316806106d15760405162461bcd60e51b815260206004820152602960248201527f4552433732313a206f776e657220717565727920666f72206e6f6e657869737460448201527f656e7420746f6b656e000000000000000000000000000000000000000000000060648201526084016107de565b610100805461111e90613e06565b80601f016020809104026020016040519081016040528092919081815260200182805461114a90613e06565b80156111975780601f1061116c57610100808354040283529160200191611197565b820191906000526020600020905b81548152906001019060200180831161117a57829003601f168201915b505050505081565b60006001600160a01b03821661121d5760405162461bcd60e51b815260206004820152602a60248201527f4552433732313a2062616c616e636520717565727920666f7220746865207a6560448201527f726f20616464726573730000000000000000000000000000000000000000000060648201526084016107de565b506001600160a01b031660009081526068602052604090205490565b6097546001600160a01b031633146112935760405162461bcd60e51b815260206004820181905260248201527f4f776e61626c653a2063616c6c6572206973206e6f7420746865206f776e657260448201526064016107de565b61129d60006127d9565b565b6060606680546106e690613e06565b6001600160a01b0382163314156113075760405162461bcd60e51b815260206004820152601960248201527f4552433732313a20617070726f766520746f2063616c6c65720000000000000060448201526064016107de565b336000818152606a602090815260408083206001600160a01b03871680855290835292819020805460ff191686151590811790915590519081529192917f17307eab39ab6107e8899845ad3d59bd9653f200f220920489ca2b5937696c31910160405180910390a35050565b6097546001600160a01b031633146113cd5760405162461bcd60e51b815260206004820181905260248201527f4f776e61626c653a2063616c6c6572206973206e6f7420746865206f776e657260448201526064016107de565b61010154600214156114215760405162461bcd60e51b815260206004820152600260248201527f313400000000000000000000000000000000000000000000000000000000000060448201526064016107de565b61010181905560405181907f118f8ba10d647100925b2343f3030d110623f17b284ced4316cbe4b8f138883f90600090a250565b61145f3383612242565b6114d15760405162461bcd60e51b815260206004820152603160248201527f4552433732313a207472616e736665722063616c6c6572206973206e6f74206f60448201527f776e6572206e6f7220617070726f76656400000000000000000000000000000060648201526084016107de565b6114dd8484848461282b565b50505050565b6000818152606760205260409020546060906001600160a01b031661154a5760405162461bcd60e51b815260206004820152600260248201527f313000000000000000000000000000000000000000000000000000000000000060448201526064016107de565b6040805180820190915260208082527f6162636465666768696a6b6c6d6e6f707172737475767778797a32333435363790820152610100805484929160009182919061159590613e06565b9050116115d7576040518060400160405280600781526020017f697066733a2f2f00000000000000000000000000000000000000000000000000815250611664565b61010080546115e590613e06565b80601f016020809104026020016040519081016040528092919081815260200182805461161190613e06565b801561165e5780601f106116335761010080835404028352916020019161165e565b820191906000526020600020905b81548152906001019060200180831161164157829003601f168201915b50505050505b600086815260fe602052604081205491925090829060ff166116bb576040518060400160405280600781526020017f62616679626569000000000000000000000000000000000000000000000000008152506116f2565b6040518060400160405280600781526020017f6261666b726569000000000000000000000000000000000000000000000000008152505b604051602001611703929190613b98565b60408051601f198184030181529190529050600263017012206005600061172c60016020613dc3565b905060005b60208110156117e9576000611747826008613da4565b8c901b60f881901c600896871b63ffffff001617959091506117699087613d6c565b95505b838611156117d85761177e8487613dc3565b955086898787901c8516815181106117a657634e487b7160e01b600052603260045260246000fd5b602001015160f81c60f81b6040516020016117c2929190613b51565b604051602081830303815290604052965061176c565b506117e281613e3b565b9050611731565b50831561184d5784876117fc8685613dc3565b85901b83168151811061181f57634e487b7160e01b600052603260045260246000fd5b602001015160f81c60f81b60405160200161183b929190613b51565b60405160208183030381529060405294505b509298975050505050505050565b6097546001600160a01b031633146118b55760405162461bcd60e51b815260206004820181905260248201527f4f776e61626c653a2063616c6c6572206973206e6f7420746865206f776e657260448201526064016107de565b6001600160a01b0381166119315760405162461bcd60e51b815260206004820152602660248201527f4f776e61626c653a206e6577206f776e657220697320746865207a65726f206160448201527f646472657373000000000000000000000000000000000000000000000000000060648201526084016107de565b610d05816127d9565b610101541561198b5760405162461bcd60e51b815260206004820152600160248201527f300000000000000000000000000000000000000000000000000000000000000060448201526064016107de565b6000805b84811015611f9157368686838181106119b857634e487b7160e01b600052603260045260246000fd5b90506020028101906119ca9190613d37565b9050368585848181106119ed57634e487b7160e01b600052603260045260246000fd5b90506020028101906119ff9190613d57565b905060007f6cc6c9e98154cd7f6e6797071b89f16bdb1a1277d6e7ebf8771c7e949f0921f98335611a3660a08601608087016138b2565b611a4660c0870160a0880161360d565b611a5660408801602089016139ba565b611a666060890160408a01613a23565b611a7660808a0160608b01613a23565b611a8660e08b0160c08c0161360d565b611a976101008c0160e08d01613a4b565b60408051602081019a909a5289019790975294151560608801526001600160a01b0393841660808801526fffffffffffffffffffffffffffffffff90921660a087015267ffffffffffffffff90811660c08701521660e085015216610100838101919091526bffffffffffffffffffffffff909116610120838101919091529085013561014083015284013561016082015261018001604051602081830303815290604052805190602001209050611b576097546001600160a01b031690565b6001600160a01b0316611bb7611b71610140860186613cf2565b8080601f016020809104026020016040519081016040528093929190818152602001838380828437600092019190915250611bb192508691506128a99050565b90612912565b6001600160a01b031614611bf15760405162461bcd60e51b81526020600482015260016024820152603160f81b60448201526064016107de565b6000611c0360c0850160a0860161360d565b6001600160a01b031614611c785733611c2260c0850160a0860161360d565b6001600160a01b031614611c785760405162461bcd60e51b815260206004820152600160248201527f320000000000000000000000000000000000000000000000000000000000000060448201526064016107de565b42611c896060850160408601613a23565b67ffffffffffffffff161115611ce15760405162461bcd60e51b815260206004820152600160248201527f330000000000000000000000000000000000000000000000000000000000000060448201526064016107de565b42611cf26080850160608601613a23565b67ffffffffffffffff161015611d4a5760405162461bcd60e51b815260206004820152600160248201527f340000000000000000000000000000000000000000000000000000000000000060448201526064016107de565b61012083013515611ddf576000611d618380613cf2565b9050118015611d935750610120830135611d7b8380613cf2565b604051611d89929190613b41565b6040518091039020145b611ddf5760405162461bcd60e51b815260206004820152600160248201527f350000000000000000000000000000000000000000000000000000000000000060448201526064016107de565b61010083013515611e6b576000611df96020840184613caa565b9050118015611e1f5750611e1f610100840135611e196020850185613caa565b33612936565b611e6b5760405162461bcd60e51b815260206004820152600160248201527f360000000000000000000000000000000000000000000000000000000000000060448201526064016107de565b611e76338435612a22565b611e8660a08401608085016138b2565b15611ebb57611e9b60a08401608085016138b2565b8335600090815260fe60205260409020805460ff19169115159190911790555b6000611ecd60e0850160c0860161360d565b6001600160a01b031614611f5d576040805180820190915280611ef660e0860160c0870161360d565b6001600160a01b03168152602001611f15610100860160e08701613a4b565b6bffffffffffffffffffffffff9081169091528435600090815260fd6020908152604090912083519390910151909116600160a01b026001600160a01b039092169190911790555b611f6d60408401602085016139ba565b6fffffffffffffffffffffffffffffffff168501945083600101935050505061198f565b50348114610e8b5760405162461bcd60e51b815260206004820152600160248201527f380000000000000000000000000000000000000000000000000000000000000060448201526064016107de565b6097546001600160a01b0316331461203b5760405162461bcd60e51b815260206004820181905260248201527f4f776e61626c653a2063616c6c6572206973206e6f7420746865206f776e657260448201526064016107de565b60005b81811015610930573683838381811061206757634e487b7160e01b600052603260045260246000fd5b905060a00201905061208c816020016020810190612085919061360d565b8235612a22565b600061209e606083016040840161360d565b6001600160a01b0316146121305760405180604001604052808260400160208101906120ca919061360d565b6001600160a01b031681526020016120e86080840160608501613a4b565b6bffffffffffffffffffffffff9081169091528235600090815260fd6020908152604090912083519390910151909116600160a01b026001600160a01b039092169190911790555b5060010161203e565b60006001600160e01b031982167f80ac58cd00000000000000000000000000000000000000000000000000000000148061219c57506001600160e01b031982167f5b5e139f00000000000000000000000000000000000000000000000000000000145b806106d157507f01ffc9a7000000000000000000000000000000000000000000000000000000006001600160e01b03198316146106d1565b600081815260696020526040902080546001600160a01b0319166001600160a01b038416908117909155819061220982611085565b6001600160a01b03167f8c5be1e5ebec7d5bd14f71427d1e84f3dd0314c0f7b2291e5b200ac8c7c3b92560405160405180910390a45050565b6000818152606760205260408120546001600160a01b03166122bb5760405162461bcd60e51b815260206004820152602c60248201527f4552433732313a206f70657261746f7220717565727920666f72206e6f6e657860448201526b34b9ba32b73a103a37b5b2b760a11b60648201526084016107de565b60006122c683611085565b9050806001600160a01b0316846001600160a01b031614806123015750836001600160a01b03166122f684610769565b6001600160a01b0316145b8061233157506001600160a01b038082166000908152606a602090815260408083209388168352929052205460ff165b949350505050565b826001600160a01b031661234c82611085565b6001600160a01b0316146123c85760405162461bcd60e51b815260206004820152602960248201527f4552433732313a207472616e73666572206f6620746f6b656e2074686174206960448201527f73206e6f74206f776e000000000000000000000000000000000000000000000060648201526084016107de565b6001600160a01b0382166124435760405162461bcd60e51b8152602060048201526024808201527f4552433732313a207472616e7366657220746f20746865207a65726f2061646460448201527f726573730000000000000000000000000000000000000000000000000000000060648201526084016107de565b61244e6000826121d4565b6001600160a01b0383166000908152606860205260408120805460019290612477908490613dc3565b90915550506001600160a01b03821660009081526068602052604081208054600192906124a5908490613d6c565b909155505060008181526067602052604080822080546001600160a01b0319166001600160a01b0386811691821790925591518493918716917fddf252ad1be2c89b69c2b068fc378daa952ba7f163c4a11628f55a4df523b3ef91a4505050565b600061251182611085565b905061251e6000836121d4565b6001600160a01b0381166000908152606860205260408120805460019290612547908490613dc3565b909155505060008281526067602052604080822080546001600160a01b0319169055518391906001600160a01b038416907fddf252ad1be2c89b69c2b068fc378daa952ba7f163c4a11628f55a4df523b3ef908390a45050565b600054610100900460ff16806125ba575060005460ff16155b61261d5760405162461bcd60e51b815260206004820152602e60248201527f496e697469616c697a61626c653a20636f6e747261637420697320616c72656160448201526d191e481a5b9a5d1a585b1a5e995960921b60648201526084016107de565b600054610100900460ff1615801561263f576000805461ffff19166101011790555b612647612a40565b61264f612a40565b6126598383612af1565b8015610930576000805461ff0019169055505050565b600054610100900460ff1680612688575060005460ff16155b6126eb5760405162461bcd60e51b815260206004820152602e60248201527f496e697469616c697a61626c653a20636f6e747261637420697320616c72656160448201526d191e481a5b9a5d1a585b1a5e995960921b60648201526084016107de565b600054610100900460ff1615801561270d576000805461ffff19166101011790555b6126598383612bcd565b600054610100900460ff1680612730575060005460ff16155b6127935760405162461bcd60e51b815260206004820152602e60248201527f496e697469616c697a61626c653a20636f6e747261637420697320616c72656160448201526d191e481a5b9a5d1a585b1a5e995960921b60648201526084016107de565b600054610100900460ff161580156127b5576000805461ffff19166101011790555b6127bd612a40565b6127c5612c9e565b8015610d05576000805461ff001916905550565b609780546001600160a01b038381166001600160a01b0319831681179093556040519116919082907f8be0079c531659141344cd1fd0a4f28419497f9722a3daafe3b4186f6b6457e090600090a35050565b612836848484612339565b61284284848484612d45565b6114dd5760405162461bcd60e51b815260206004820152603260248201527f4552433732313a207472616e7366657220746f206e6f6e20455243373231526560448201527131b2b4bb32b91034b6b83632b6b2b73a32b960711b60648201526084016107de565b60006106d16128b6612e9a565b836040517f19010000000000000000000000000000000000000000000000000000000000006020820152602281018390526042810182905260009060620160405160208183030381529060405280519060200120905092915050565b60008060006129218585612f1a565b9150915061292e81612f87565b509392505050565b6040516bffffffffffffffffffffffff19606083901b166020820152600090819060340160405160208183030381529060405280519060200120905060005b84811015612a1657600086868381811061299f57634e487b7160e01b600052603260045260246000fd5b9050602002013590508083116129e0576040805160208101859052908101829052606001604051602081830303815290604052805190602001209250612a0d565b60408051602081018390529081018490526060016040516020818303038152906040528051906020012092505b50600101612975565b50909414949350505050565b612a3c828260405180602001604052806000815250613188565b5050565b600054610100900460ff1680612a59575060005460ff16155b612abc5760405162461bcd60e51b815260206004820152602e60248201527f496e697469616c697a61626c653a20636f6e747261637420697320616c72656160448201526d191e481a5b9a5d1a585b1a5e995960921b60648201526084016107de565b600054610100900460ff161580156127c5576000805461ffff19166101011790558015610d05576000805461ff001916905550565b600054610100900460ff1680612b0a575060005460ff16155b612b6d5760405162461bcd60e51b815260206004820152602e60248201527f496e697469616c697a61626c653a20636f6e747261637420697320616c72656160448201526d191e481a5b9a5d1a585b1a5e995960921b60648201526084016107de565b600054610100900460ff16158015612b8f576000805461ffff19166101011790555b8251612ba2906065906020860190613501565b508151612bb6906066906020850190613501565b508015610930576000805461ff0019169055505050565b600054610100900460ff1680612be6575060005460ff16155b612c495760405162461bcd60e51b815260206004820152602e60248201527f496e697469616c697a61626c653a20636f6e747261637420697320616c72656160448201526d191e481a5b9a5d1a585b1a5e995960921b60648201526084016107de565b600054610100900460ff16158015612c6b576000805461ffff19166101011790555b825160208085019190912083519184019190912060c99190915560ca558015610930576000805461ff0019169055505050565b600054610100900460ff1680612cb7575060005460ff16155b612d1a5760405162461bcd60e51b815260206004820152602e60248201527f496e697469616c697a61626c653a20636f6e747261637420697320616c72656160448201526d191e481a5b9a5d1a585b1a5e995960921b60648201526084016107de565b600054610100900460ff16158015612d3c576000805461ffff19166101011790555b6127c5336127d9565b60006001600160a01b0384163b15612e9257604051630a85bd0160e11b81526001600160a01b0385169063150b7a0290612d89903390899088908890600401613bc7565b602060405180830381600087803b158015612da357600080fd5b505af1925050508015612dd3575060408051601f3d908101601f19168201909252612dd0918101906138ea565b60015b612e78573d808015612e01576040519150601f19603f3d011682016040523d82523d6000602084013e612e06565b606091505b508051612e705760405162461bcd60e51b815260206004820152603260248201527f4552433732313a207472616e7366657220746f206e6f6e20455243373231526560448201527131b2b4bb32b91034b6b83632b6b2b73a32b960711b60648201526084016107de565b805181602001fd5b6001600160e01b031916630a85bd0160e11b149050612331565b506001612331565b6000612f157f8b73c3c69bb8fe3d512ecc4cf759cc79239f7b179b0ffacaa9a75d522b39400f612ec960c95490565b60ca546040805160208101859052908101839052606081018290524660808201523060a082015260009060c0016040516020818303038152906040528051906020012090509392505050565b905090565b600080825160411415612f515760208301516040840151606085015160001a612f4587828585613206565b94509450505050610a21565b825160401415612f7b5760208301516040840151612f708683836132f3565b935093505050610a21565b50600090506002610a21565b6000816004811115612fa957634e487b7160e01b600052602160045260246000fd5b1415612fb25750565b6001816004811115612fd457634e487b7160e01b600052602160045260246000fd5b14156130225760405162461bcd60e51b815260206004820152601860248201527f45434453413a20696e76616c6964207369676e6174757265000000000000000060448201526064016107de565b600281600481111561304457634e487b7160e01b600052602160045260246000fd5b14156130925760405162461bcd60e51b815260206004820152601f60248201527f45434453413a20696e76616c6964207369676e6174757265206c656e6774680060448201526064016107de565b60038160048111156130b457634e487b7160e01b600052602160045260246000fd5b141561310d5760405162461bcd60e51b815260206004820152602260248201527f45434453413a20696e76616c6964207369676e6174757265202773272076616c604482015261756560f01b60648201526084016107de565b600481600481111561312f57634e487b7160e01b600052602160045260246000fd5b1415610d055760405162461bcd60e51b815260206004820152602260248201527f45434453413a20696e76616c6964207369676e6174757265202776272076616c604482015261756560f01b60648201526084016107de565b613192838361333b565b61319f6000848484612d45565b6109305760405162461bcd60e51b815260206004820152603260248201527f4552433732313a207472616e7366657220746f206e6f6e20455243373231526560448201527131b2b4bb32b91034b6b83632b6b2b73a32b960711b60648201526084016107de565b6000807f7fffffffffffffffffffffffffffffff5d576e7357a4501ddfe92f46681b20a083111561323d57506000905060036132ea565b8460ff16601b1415801561325557508460ff16601c14155b1561326657506000905060046132ea565b6040805160008082526020820180845289905260ff881692820192909252606081018690526080810185905260019060a0016020604051602081039080840390855afa1580156132ba573d6000803e3d6000fd5b5050604051601f1901519150506001600160a01b0381166132e3576000600192509250506132ea565b9150600090505b94509492505050565b6000807f7fffffffffffffffffffffffffffffffffffffffffffffffffffffffffffffff831660ff84901c601b0161332d87828885613206565b935093505050935093915050565b6001600160a01b0382166133915760405162461bcd60e51b815260206004820181905260248201527f4552433732313a206d696e7420746f20746865207a65726f206164647265737360448201526064016107de565b6000818152606760205260409020546001600160a01b0316156133f65760405162461bcd60e51b815260206004820152601c60248201527f4552433732313a20746f6b656e20616c7265616479206d696e7465640000000060448201526064016107de565b6001600160a01b038216600090815260686020526040812080546001929061341f908490613d6c565b909155505060008181526067602052604080822080546001600160a01b0319166001600160a01b03861690811790915590518392907fddf252ad1be2c89b69c2b068fc378daa952ba7f163c4a11628f55a4df523b3ef908290a45050565b82805461348990613e06565b90600052602060002090601f0160209004810192826134ab57600085556134f1565b82601f106134c45782800160ff198235161785556134f1565b828001600101855582156134f1579182015b828111156134f15782358255916020019190600101906134d6565b506134fd929150613575565b5090565b82805461350d90613e06565b90600052602060002090601f01602090048101928261352f57600085556134f1565b82601f1061354857805160ff19168380011785556134f1565b828001600101855582156134f1579182015b828111156134f157825182559160200191906001019061355a565b5b808211156134fd5760008155600101613576565b60008083601f84011261359b578081fd5b50813567ffffffffffffffff8111156135b2578182fd5b6020830191508360208260051b8501011115610a2157600080fd5b60008083601f8401126135de578182fd5b50813567ffffffffffffffff8111156135f5578182fd5b602083019150836020828501011115610a2157600080fd5b60006020828403121561361e578081fd5b813561362981613f03565b9392505050565b60008060408385031215613642578081fd5b823561364d81613f03565b9150602083013561365d81613f03565b809150509250929050565b60008060006060848603121561367c578081fd5b833561368781613f03565b9250602084013561369781613f03565b929592945050506040919091013590565b600080600080608085870312156136bd578081fd5b84356136c881613f03565b935060208501356136d881613f03565b925060408501359150606085013567ffffffffffffffff808211156136fb578283fd5b818701915087601f83011261370e578283fd5b81358181111561372057613720613e6c565b604051601f8201601f19908116603f0116810190838211818310171561374857613748613e6c565b816040528281528a6020848701011115613760578586fd5b82602086016020830137918201602001949094529598949750929550505050565b60008060408385031215613793578182fd5b823561379e81613f03565b9150602083013561365d81613f18565b600080604083850312156137c0578182fd5b82356137cb81613f03565b946020939093013593505050565b600080600080604085870312156137ee578384fd5b843567ffffffffffffffff80821115613805578586fd5b6138118883890161358a565b90965094506020870135915080821115613829578384fd5b506138368782880161358a565b95989497509550505050565b60008060208385031215613854578182fd5b823567ffffffffffffffff8082111561386b578384fd5b818501915085601f83011261387e578384fd5b81358181111561388c578485fd5b86602060a0830285010111156138a0578485fd5b60209290920196919550909350505050565b6000602082840312156138c3578081fd5b813561362981613f18565b6000602082840312156138df578081fd5b813561362981613f26565b6000602082840312156138fb578081fd5b815161362981613f26565b60008060208385031215613918578182fd5b823567ffffffffffffffff81111561392e578283fd5b61393a858286016135cd565b90969095509350505050565b6000806000806040858703121561395b578182fd5b843567ffffffffffffffff80821115613972578384fd5b61397e888389016135cd565b90965094506020870135915080821115613996578384fd5b50613836878288016135cd565b6000604082840312156139b4578081fd5b50919050565b6000602082840312156139cb578081fd5b81356fffffffffffffffffffffffffffffffff81168114613629578182fd5b6000602082840312156139fb578081fd5b5035919050565b60008060408385031215613a14578182fd5b50508035926020909101359150565b600060208284031215613a34578081fd5b813567ffffffffffffffff81168114613629578182fd5b600060208284031215613a5c578081fd5b81356bffffffffffffffffffffffff81168114613629578182fd5b60008151808452613a8f816020860160208601613dda565b601f01601f19169290920160200192915050565b8054600090600181811c9080831680613abd57607f831692505b6020808410821415613add57634e487b7160e01b86526022600452602486fd5b83885260208801828015613af85760018114613b0957613b34565b60ff19871682528282019750613b34565b60008981526020902060005b87811015613b2e57815484820152908601908401613b15565b83019850505b5050505050505092915050565b8183823760009101908152919050565b60008351613b63818460208801613dda565b7fff00000000000000000000000000000000000000000000000000000000000000939093169190920190815260010192915050565b60008351613baa818460208801613dda565b835190830190613bbe818360208801613dda565b01949350505050565b60006001600160a01b03808716835280861660208401525083604083015260806060830152613bf96080830184613a77565b9695505050505050565b60208152816020820152818360408301376000818301604090810191909152601f909201601f19160101919050565b6020815260006136296020830184613a77565b604081526000613c586040830185613aa3565b8281036020840152613c6a8185613aa3565b95945050505050565b604081018235613c8281613f03565b6001600160a01b031682526020830135613c9b81613f18565b80151560208401525092915050565b6000808335601e19843603018112613cc0578283fd5b83018035915067ffffffffffffffff821115613cda578283fd5b6020019150600581901b3603821315610a2157600080fd5b6000808335601e19843603018112613d08578283fd5b83018035915067ffffffffffffffff821115613d22578283fd5b602001915036819003821315610a2157600080fd5b6000823561015e19833603018112613d4d578182fd5b9190910192915050565b60008235603e19833603018112613d4d578182fd5b60008219821115613d7f57613d7f613e56565b500190565b600082613d9f57634e487b7160e01b81526012600452602481fd5b500490565b6000816000190483118215151615613dbe57613dbe613e56565b500290565b600082821015613dd557613dd5613e56565b500390565b60005b83811015613df5578181015183820152602001613ddd565b838111156114dd5750506000910152565b600181811c90821680613e1a57607f821691505b602082108114156139b457634e487b7160e01b600052602260045260246000fd5b6000600019821415613e4f57613e4f613e56565b5060010190565b634e487b7160e01b600052601160045260246000fd5b634e487b7160e01b600052604160045260246000fd5b8135613e8d81613f03565b6001600160a01b03811690508154816001600160a01b031982161783556020840135613eb881613f18565b7fffffffffffffffffffffff0000000000000000000000000000000000000000009190911690911790151560a01b74ff00000000000000000000000000000000000000001617905550565b6001600160a01b0381168114610d0557600080fd5b8015158114610d0557600080fd5b6001600160e01b031981168114610d0557600080fdfea2646970667358221220edce47a64d5666ed2a82a728701eee01266ea3dd19928d660dbb99c71b2d3e3f64736f6c63430008040033",
  "linkReferences": {},
  "deployedLinkReferences": {}
}