{
  "_format": "hh-sol-artifact-1",
  "contractName": "C0",
  "sourceName": "contracts/C0.sol",
  "abi": [
    {
      "anonymous": false,
      "inputs": [
        {
          "indexed": true,
          "internalType": "address",
          "name": "owner",
          "type": "address"
        },
        {
          "indexed": true,
          "internalType": "address",
          "name": "approved",
          "type": "address"
        },
        {
          "indexed": true,
          "internalType": "uint256",
          "name": "tokenId",
          "type": "uint256"
        }
      ],
      "name": "Approval",
      "type": "event"
    },
    {
      "anonymous": false,
      "inputs": [
        {
          "indexed": true,
          "internalType": "address",
          "name": "owner",
          "type": "address"
        },
        {
          "indexed": true,
          "internalType": "address",
          "name": "operator",
          "type": "address"
        },
        {
          "indexed": false,
          "internalType": "bool",
          "name": "approved",
          "type": "bool"
        }
      ],
      "name": "ApprovalForAll",
      "type": "event"
    },
    {
      "anonymous": false,
      "inputs": [
        {
          "indexed": false,
          "internalType": "string",
          "name": "uri",
          "type": "string"
        }
      ],
      "name": "BaseURIUpdated",
      "type": "event"
    },
    {
      "anonymous": false,
      "inputs": [
        {
          "indexed": false,
          "internalType": "string",
          "name": "name",
          "type": "string"
        },
        {
          "indexed": false,
          "internalType": "string",
          "name": "symbol",
          "type": "string"
        }
      ],
      "name": "NSUpdated",
      "type": "event"
    },
    {
      "anonymous": false,
      "inputs": [
        {
          "indexed": true,
          "internalType": "address",
          "name": "previousOwner",
          "type": "address"
        },
        {
          "indexed": true,
          "internalType": "address",
          "name": "newOwner",
          "type": "address"
        }
      ],
      "name": "OwnershipTransferred",
      "type": "event"
    },
    {
      "anonymous": false,
      "inputs": [
        {
          "indexed": true,
          "internalType": "uint256",
          "name": "state",
          "type": "uint256"
        }
      ],
      "name": "StateUpdated",
      "type": "event"
    },
    {
      "anonymous": false,
      "inputs": [
        {
          "indexed": true,
          "internalType": "address",
          "name": "from",
          "type": "address"
        },
        {
          "indexed": true,
          "internalType": "address",
          "name": "to",
          "type": "address"
        },
        {
          "indexed": true,
          "internalType": "uint256",
          "name": "tokenId",
          "type": "uint256"
        }
      ],
      "name": "Transfer",
      "type": "event"
    },
    {
      "anonymous": false,
      "inputs": [
        {
          "components": [
            {
              "internalType": "address",
              "name": "account",
              "type": "address"
            },
            {
              "internalType": "bool",
              "name": "permanent",
              "type": "bool"
            }
          ],
          "indexed": false,
          "internalType": "struct C0.Withdrawer",
          "name": "withdrawer",
          "type": "tuple"
        }
      ],
      "name": "WithdrawerUpdated",
      "type": "event"
    },
    {
      "inputs": [],
      "name": "BODY_TYPE_HASH",
      "outputs": [
        {
          "internalType": "bytes32",
          "name": "",
          "type": "bytes32"
        }
      ],
      "stateMutability": "view",
      "type": "function"
    },
    {
      "inputs": [
        {
          "internalType": "address",
          "name": "to",
          "type": "address"
        },
        {
          "internalType": "uint256",
          "name": "tokenId",
          "type": "uint256"
        }
      ],
      "name": "approve",
      "outputs": [],
      "stateMutability": "nonpayable",
      "type": "function"
    },
    {
      "inputs": [
        {
          "internalType": "address",
          "name": "owner",
          "type": "address"
        }
      ],
      "name": "balanceOf",
      "outputs": [
        {
          "internalType": "uint256",
          "name": "",
          "type": "uint256"
        }
      ],
      "stateMutability": "view",
      "type": "function"
    },
    {
      "inputs": [],
      "name": "baseURI",
      "outputs": [
        {
          "internalType": "string",
          "name": "",
          "type": "string"
        }
      ],
      "stateMutability": "view",
      "type": "function"
    },
    {
      "inputs": [
        {
          "internalType": "uint256",
          "name": "_tokenId",
          "type": "uint256"
        }
      ],
      "name": "burn",
      "outputs": [],
      "stateMutability": "nonpayable",
      "type": "function"
    },
    {
      "inputs": [
        {
          "internalType": "uint256",
          "name": "",
          "type": "uint256"
        }
      ],
      "name": "encoding",
      "outputs": [
        {
          "internalType": "uint8",
          "name": "",
          "type": "uint8"
        }
      ],
      "stateMutability": "view",
      "type": "function"
    },
    {
      "inputs": [
        {
          "internalType": "uint256",
          "name": "tokenId",
          "type": "uint256"
        }
      ],
      "name": "getApproved",
      "outputs": [
        {
          "internalType": "address",
          "name": "",
          "type": "address"
        }
      ],
      "stateMutability": "view",
      "type": "function"
    },
    {
      "inputs": [
        {
          "components": [
            {
              "internalType": "uint256",
              "name": "id",
              "type": "uint256"
            },
            {
              "internalType": "address",
              "name": "receiver",
              "type": "address"
            },
            {
              "internalType": "address",
              "name": "royaltyReceiver",
              "type": "address"
            },
            {
              "internalType": "uint96",
              "name": "royaltyAmount",
              "type": "uint96"
            },
            {
              "internalType": "uint8",
              "name": "encoding",
              "type": "uint8"
            }
          ],
          "internalType": "struct C0.Gift[]",
          "name": "gifts",
          "type": "tuple[]"
        }
      ],
      "name": "gift",
      "outputs": [],
      "stateMutability": "payable",
      "type": "function"
    },
    {
      "inputs": [
        {
          "internalType": "string",
          "name": "name",
          "type": "string"
        },
        {
          "internalType": "string",
          "name": "symbol",
          "type": "string"
        }
      ],
      "name": "initialize",
      "outputs": [],
      "stateMutability": "nonpayable",
      "type": "function"
    },
    {
      "inputs": [
        {
          "internalType": "address",
          "name": "owner",
          "type": "address"
        },
        {
          "internalType": "address",
          "name": "operator",
          "type": "address"
        }
      ],
      "name": "isApprovedForAll",
      "outputs": [
        {
          "internalType": "bool",
          "name": "",
          "type": "bool"
        }
      ],
      "stateMutability": "view",
      "type": "function"
    },
    {
      "inputs": [],
      "name": "name",
      "outputs": [
        {
          "internalType": "string",
          "name": "",
          "type": "string"
        }
      ],
      "stateMutability": "view",
      "type": "function"
    },
    {
      "inputs": [],
      "name": "owner",
      "outputs": [
        {
          "internalType": "address",
          "name": "",
          "type": "address"
        }
      ],
      "stateMutability": "view",
      "type": "function"
    },
    {
      "inputs": [
        {
          "internalType": "uint256",
          "name": "tokenId",
          "type": "uint256"
        }
      ],
      "name": "ownerOf",
      "outputs": [
        {
          "internalType": "address",
          "name": "",
          "type": "address"
        }
      ],
      "stateMutability": "view",
      "type": "function"
    },
    {
      "inputs": [],
      "name": "renounceOwnership",
      "outputs": [],
      "stateMutability": "nonpayable",
      "type": "function"
    },
    {
      "inputs": [
        {
          "internalType": "uint256",
          "name": "",
          "type": "uint256"
        }
      ],
      "name": "royalty",
      "outputs": [
        {
          "internalType": "address",
          "name": "receiver",
          "type": "address"
        },
        {
          "internalType": "uint96",
          "name": "amount",
          "type": "uint96"
        }
      ],
      "stateMutability": "view",
      "type": "function"
    },
    {
      "inputs": [
        {
          "internalType": "uint256",
          "name": "tokenId",
          "type": "uint256"
        },
        {
          "internalType": "uint256",
          "name": "value",
          "type": "uint256"
        }
      ],
      "name": "royaltyInfo",
      "outputs": [
        {
          "internalType": "address",
          "name": "receiver",
          "type": "address"
        },
        {
          "internalType": "uint256",
          "name": "royaltyAmount",
          "type": "uint256"
        }
      ],
      "stateMutability": "view",
      "type": "function"
    },
    {
      "inputs": [
        {
          "internalType": "address",
          "name": "from",
          "type": "address"
        },
        {
          "internalType": "address",
          "name": "to",
          "type": "address"
        },
        {
          "internalType": "uint256",
          "name": "tokenId",
          "type": "uint256"
        }
      ],
      "name": "safeTransferFrom",
      "outputs": [],
      "stateMutability": "nonpayable",
      "type": "function"
    },
    {
      "inputs": [
        {
          "internalType": "address",
          "name": "from",
          "type": "address"
        },
        {
          "internalType": "address",
          "name": "to",
          "type": "address"
        },
        {
          "internalType": "uint256",
          "name": "tokenId",
          "type": "uint256"
        },
        {
          "internalType": "bytes",
          "name": "_data",
          "type": "bytes"
        }
      ],
      "name": "safeTransferFrom",
      "outputs": [],
      "stateMutability": "nonpayable",
      "type": "function"
    },
    {
      "inputs": [
        {
          "internalType": "address",
          "name": "operator",
          "type": "address"
        },
        {
          "internalType": "bool",
          "name": "approved",
          "type": "bool"
        }
      ],
      "name": "setApprovalForAll",
      "outputs": [],
      "stateMutability": "nonpayable",
      "type": "function"
    },
    {
      "inputs": [
        {
          "internalType": "string",
          "name": "b",
          "type": "string"
        }
      ],
      "name": "setBaseURI",
      "outputs": [],
      "stateMutability": "nonpayable",
      "type": "function"
    },
    {
      "inputs": [
        {
          "internalType": "string",
          "name": "name_",
          "type": "string"
        },
        {
          "internalType": "string",
          "name": "symbol_",
          "type": "string"
        }
      ],
      "name": "setNS",
      "outputs": [],
      "stateMutability": "nonpayable",
      "type": "function"
    },
    {
      "inputs": [
        {
          "internalType": "uint256",
          "name": "_state",
          "type": "uint256"
        }
      ],
      "name": "setState",
      "outputs": [],
      "stateMutability": "nonpayable",
      "type": "function"
    },
    {
      "inputs": [
        {
          "components": [
            {
              "internalType": "address",
              "name": "account",
              "type": "address"
            },
            {
              "internalType": "bool",
              "name": "permanent",
              "type": "bool"
            }
          ],
          "internalType": "struct C0.Withdrawer",
          "name": "_withdrawer",
          "type": "tuple"
        }
      ],
      "name": "setWithdrawer",
      "outputs": [],
      "stateMutability": "nonpayable",
      "type": "function"
    },
    {
      "inputs": [],
      "name": "state",
      "outputs": [
        {
          "internalType": "uint256",
          "name": "",
          "type": "uint256"
        }
      ],
      "stateMutability": "view",
      "type": "function"
    },
    {
      "inputs": [
        {
          "internalType": "bytes4",
          "name": "interfaceId",
          "type": "bytes4"
        }
      ],
      "name": "supportsInterface",
      "outputs": [
        {
          "internalType": "bool",
          "name": "",
          "type": "bool"
        }
      ],
      "stateMutability": "view",
      "type": "function"
    },
    {
      "inputs": [],
      "name": "symbol",
      "outputs": [
        {
          "internalType": "string",
          "name": "",
          "type": "string"
        }
      ],
      "stateMutability": "view",
      "type": "function"
    },
    {
      "inputs": [
        {
          "components": [
            {
              "internalType": "uint256",
              "name": "id",
              "type": "uint256"
            },
            {
              "internalType": "uint128",
              "name": "value",
              "type": "uint128"
            },
            {
              "internalType": "uint64",
              "name": "start",
              "type": "uint64"
            },
            {
              "internalType": "uint64",
              "name": "end",
              "type": "uint64"
            },
            {
              "internalType": "uint8",
              "name": "encoding",
              "type": "uint8"
            },
            {
              "internalType": "address",
              "name": "sender",
              "type": "address"
            },
            {
              "internalType": "address",
              "name": "receiver",
              "type": "address"
            },
            {
              "internalType": "address",
              "name": "royaltyReceiver",
              "type": "address"
            },
            {
              "internalType": "uint96",
              "name": "royaltyAmount",
              "type": "uint96"
            },
            {
              "internalType": "bytes32",
              "name": "merkleHash",
              "type": "bytes32"
            },
            {
              "internalType": "bytes32",
              "name": "puzzleHash",
              "type": "bytes32"
            },
            {
              "internalType": "bytes",
              "name": "signature",
              "type": "bytes"
            }
          ],
          "internalType": "struct C0.Body[]",
          "name": "bodies",
          "type": "tuple[]"
        },
        {
          "components": [
            {
              "internalType": "bytes",
              "name": "puzzle",
              "type": "bytes"
            },
            {
              "internalType": "bytes32[]",
              "name": "merkle",
              "type": "bytes32[]"
            }
          ],
          "internalType": "struct C0.Proof[]",
          "name": "proofs",
          "type": "tuple[]"
        }
      ],
      "name": "token",
      "outputs": [],
      "stateMutability": "payable",
      "type": "function"
    },
    {
      "inputs": [
        {
          "internalType": "uint256",
          "name": "tokenId",
          "type": "uint256"
        }
      ],
      "name": "tokenURI",
      "outputs": [
        {
          "internalType": "string",
          "name": "",
          "type": "string"
        }
      ],
      "stateMutability": "view",
      "type": "function"
    },
    {
      "inputs": [
        {
          "internalType": "address",
          "name": "from",
          "type": "address"
        },
        {
          "internalType": "address",
          "name": "to",
          "type": "address"
        },
        {
          "internalType": "uint256",
          "name": "tokenId",
          "type": "uint256"
        }
      ],
      "name": "transferFrom",
      "outputs": [],
      "stateMutability": "nonpayable",
      "type": "function"
    },
    {
      "inputs": [
        {
          "internalType": "address",
          "name": "newOwner",
          "type": "address"
        }
      ],
      "name": "transferOwnership",
      "outputs": [],
      "stateMutability": "nonpayable",
      "type": "function"
    },
    {
      "inputs": [
        {
          "internalType": "uint256",
          "name": "value",
          "type": "uint256"
        }
      ],
      "name": "withdraw",
      "outputs": [],
      "stateMutability": "payable",
      "type": "function"
    },
    {
      "inputs": [],
      "name": "withdrawer",
      "outputs": [
        {
          "internalType": "address",
          "name": "account",
          "type": "address"
        },
        {
          "internalType": "bool",
          "name": "permanent",
          "type": "bool"
        }
      ],
      "stateMutability": "view",
      "type": "function"
    },
    {
      "stateMutability": "payable",
      "type": "receive"
    }
  ],
  "bytecode": "0x608060405234801561001057600080fd5b50613fd1806100206000396000f3fe6080604052600436106101e75760003560e01c806370a0823111610102578063c19d93fb11610095578063ceb07baf11610064578063ceb07baf146105ed578063e814cb7114610600578063e985e9c514610679578063f2fde38b146106c257600080fd5b8063c19d93fb14610536578063c87b56dd1461054d578063ccc0b1ec1461056d578063cdc18424146105a157600080fd5b806395d89b41116100d157806395d89b41146104c1578063a22cb465146104d6578063a9e966b7146104f6578063b88d4fde1461051657600080fd5b806370a082311461041e578063715018a61461044c5780638da5cb5b1461046157806393d19f6d1461047f57600080fd5b806335c938851161017a5780634fc41a42116101495780634fc41a42146103a957806355f804b3146103c95780636352211e146103e95780636c0360eb1461040957600080fd5b806335c938851461032957806342842e0e1461034957806342966c68146103695780634cd88b761461038957600080fd5b806317494566116101b657806317494566146102a457806323b872dd146102b75780632a55205a146102d75780632e1a7d4d1461031657600080fd5b806301ffc9a7146101f357806306fdde0314610228578063081812fc1461024a578063095ea7b31461028257600080fd5b366101ee57005b600080fd5b3480156101ff57600080fd5b5061021361020e36600461359e565b6106e2565b60405190151581526020015b60405180910390f35b34801561023457600080fd5b5061023d610726565b60405161021f919061361a565b34801561025657600080fd5b5061026a61026536600461362d565b6107b8565b6040516001600160a01b03909116815260200161021f565b34801561028e57600080fd5b506102a261029d36600461365b565b610852565b005b6102a26102b23660046136cc565b610983565b3480156102c357600080fd5b506102a26102d2366004613738565b6110d4565b3480156102e357600080fd5b506102f76102f2366004613779565b61115c565b604080516001600160a01b03909316835260208301919091520161021f565b6102a261032436600461362d565b6111c7565b34801561033557600080fd5b506102a26103443660046137dd565b611328565b34801561035557600080fd5b506102a2610364366004613738565b61142e565b34801561037557600080fd5b506102a261038436600461362d565b611449565b34801561039557600080fd5b506102a26103a43660046137dd565b6114c2565b3480156103b557600080fd5b506102a26103c436600461383d565b61164b565b3480156103d557600080fd5b506102a26103e4366004613855565b61174b565b3480156103f557600080fd5b5061026a61040436600461362d565b611841565b34801561041557600080fd5b5061023d6118cc565b34801561042a57600080fd5b5061043e610439366004613897565b61195b565b60405190815260200161021f565b34801561045857600080fd5b506102a26119f5565b34801561046d57600080fd5b506097546001600160a01b031661026a565b34801561048b57600080fd5b506104af61049a36600461362d565b60fe6020526000908152604090205460ff1681565b60405160ff909116815260200161021f565b3480156104cd57600080fd5b5061023d611a5b565b3480156104e257600080fd5b506102a26104f13660046138c2565b611a6a565b34801561050257600080fd5b506102a261051136600461362d565b611b2e565b34801561052257600080fd5b506102a2610531366004613911565b611c0f565b34801561054257600080fd5b5061043e6101025481565b34801561055957600080fd5b5061023d61056836600461362d565b611c9d565b34801561057957600080fd5b5061043e7fd3c27c17ca3db192ecd1471548dc34f913ecde4da64af196e467331acef8e33c81565b3480156105ad57600080fd5b50610100546105ce906001600160a01b03811690600160a01b900460ff1682565b604080516001600160a01b03909316835290151560208301520161021f565b6102a26105fb3660046139f1565b611ffa565b34801561060c57600080fd5b5061064d61061b36600461362d565b60fd602052600090815260409020546001600160a01b03811690600160a01b90046bffffffffffffffffffffffff1682565b604080516001600160a01b0390931683526bffffffffffffffffffffffff90911660208301520161021f565b34801561068557600080fd5b50610213610694366004613a66565b6001600160a01b039182166000908152606a6020908152604080832093909416825291909152205460ff1690565b3480156106ce57600080fd5b506102a26106dd366004613897565b612144565b60007f2a55205a000000000000000000000000000000000000000000000000000000006001600160e01b031983161480610720575061072082612226565b92915050565b60606065805461073590613a94565b80601f016020809104026020016040519081016040528092919081815260200182805461076190613a94565b80156107ae5780601f10610783576101008083540402835291602001916107ae565b820191906000526020600020905b81548152906001019060200180831161079157829003601f168201915b5050505050905090565b6000818152606760205260408120546001600160a01b03166108365760405162461bcd60e51b815260206004820152602c60248201527f4552433732313a20617070726f76656420717565727920666f72206e6f6e657860448201526b34b9ba32b73a103a37b5b2b760a11b60648201526084015b60405180910390fd5b506000908152606960205260409020546001600160a01b031690565b600061085d82611841565b9050806001600160a01b0316836001600160a01b0316036108e65760405162461bcd60e51b815260206004820152602160248201527f4552433732313a20617070726f76616c20746f2063757272656e74206f776e6560448201527f7200000000000000000000000000000000000000000000000000000000000000606482015260840161082d565b336001600160a01b038216148061090257506109028133610694565b6109745760405162461bcd60e51b815260206004820152603860248201527f4552433732313a20617070726f76652063616c6c6572206973206e6f74206f7760448201527f6e6572206e6f7220617070726f76656420666f7220616c6c0000000000000000606482015260840161082d565b61097e83836122c1565b505050565b61010254156109d45760405162461bcd60e51b815260206004820152600160248201527f3000000000000000000000000000000000000000000000000000000000000000604482015260640161082d565b6000805b8481101561107d57368686838181106109f3576109f3613ac8565b9050602002810190610a059190613ade565b905036858584818110610a1a57610a1a613ac8565b9050602002810190610a2c9190613aff565b8235600090815260ff60208190526040909120549192501615610a755760405162461bcd60e51b81526020600482015260016024820152603160f81b604482015260640161082d565b60007fd3c27c17ca3db192ecd1471548dc34f913ecde4da64af196e467331acef8e33c8335610aaa60a0860160808701613b15565b610aba60c0870160a08801613897565b610aca60e0880160c08901613897565b610ada6040890160208a01613b38565b610aea60608a0160408b01613b6a565b610afa60808b0160608c01613b6a565b610b0b6101008c0160e08d01613897565b610b1d6101208d016101008e01613b94565b60408051602081019b909b528a019890985260ff90961660608901526001600160a01b03948516608089015292841660a08801526fffffffffffffffffffffffffffffffff90911660c087015267ffffffffffffffff90811660e08701521661010085015216610120838101919091526bffffffffffffffffffffffff90911661014083810191909152908501356101608301528401356101808201526101a001604051602081830303815290604052805190602001209050610be86097546001600160a01b031690565b6001600160a01b0316610c48610c02610160860186613bc2565b8080601f016020809104026020016040519081016040528093929190818152602001838380828437600092019190915250610c42925086915061232f9050565b90612398565b6001600160a01b031614610c9e5760405162461bcd60e51b815260206004820152600160248201527f3200000000000000000000000000000000000000000000000000000000000000604482015260640161082d565b6000610cb060c0850160a08601613897565b6001600160a01b031614610d255733610ccf60c0850160a08601613897565b6001600160a01b031614610d255760405162461bcd60e51b815260206004820152600160248201527f3300000000000000000000000000000000000000000000000000000000000000604482015260640161082d565b42610d366060850160408601613b6a565b67ffffffffffffffff161115610d8e5760405162461bcd60e51b815260206004820152600160248201527f3400000000000000000000000000000000000000000000000000000000000000604482015260640161082d565b42610d9f6080850160608601613b6a565b67ffffffffffffffff161015610df75760405162461bcd60e51b815260206004820152600160248201527f3500000000000000000000000000000000000000000000000000000000000000604482015260640161082d565b61014083013515610e8c576000610e0e8380613bc2565b9050118015610e405750610140830135610e288380613bc2565b604051610e36929190613c09565b6040518091039020145b610e8c5760405162461bcd60e51b815260206004820152600160248201527f3600000000000000000000000000000000000000000000000000000000000000604482015260640161082d565b61012083013515610f18576000610ea66020840184613c19565b9050118015610ecc5750610ecc610120840135610ec66020850185613c19565b336123bc565b610f185760405162461bcd60e51b815260206004820152600160248201527f3700000000000000000000000000000000000000000000000000000000000000604482015260640161082d565b610f596000610f2d60e0860160c08701613897565b6001600160a01b031614610f5057610f4b60e0850160c08601613897565b610f52565b335b843561249c565b610f6960a0840160808501613b15565b60ff1615610fa457610f8160a0840160808501613b15565b8335600090815260fe60205260409020805460ff191660ff929092169190911790555b6000610fb7610100850160e08601613897565b6001600160a01b031614611049576040805180820190915280610fe1610100860160e08701613897565b6001600160a01b0316815260200161100161012086016101008701613b94565b6bffffffffffffffffffffffff9081169091528435600090815260fd6020908152604090912083519390910151909116600160a01b026001600160a01b039092169190911790555b6110596040840160208501613b38565b6fffffffffffffffffffffffffffffffff16850194508360010193505050506109d8565b503481146110cd5760405162461bcd60e51b815260206004820152600160248201527f3800000000000000000000000000000000000000000000000000000000000000604482015260640161082d565b5050505050565b6110df335b826125de565b6111515760405162461bcd60e51b815260206004820152603160248201527f4552433732313a207472616e736665722063616c6c6572206973206e6f74206f60448201527f776e6572206e6f7220617070726f766564000000000000000000000000000000606482015260840161082d565b61097e8383836126d1565b600082815260fd602090815260408083208151808301909252546001600160a01b038116808352600160a01b9091046bffffffffffffffffffffffff169282018390528392620f4240906111b09087613c79565b6111ba9190613c98565b92509250505b9250929050565b6097546001600160a01b03163314806111f45750610100546001600160a01b0316336001600160a01b0316145b6112405760405162461bcd60e51b815260206004820152600260248201527f3132000000000000000000000000000000000000000000000000000000000000604482015260640161082d565b600080821161124f5747611251565b815b610100549091506000906001600160a01b03161561127b57610100546001600160a01b0316611288565b6097546001600160a01b03165b6001600160a01b03168260405160006040518083038185875af1925050503d80600081146112d2576040519150601f19603f3d011682016040523d82523d6000602084013e6112d7565b606091505b505090508061097e5760405162461bcd60e51b815260206004820152600260248201527f3133000000000000000000000000000000000000000000000000000000000000604482015260640161082d565b6097546001600160a01b031633146113825760405162461bcd60e51b815260206004820181905260248201527f4f776e61626c653a2063616c6c6572206973206e6f7420746865206f776e6572604482015260640161082d565b61010254156113d35760405162461bcd60e51b815260206004820152600260248201527f3136000000000000000000000000000000000000000000000000000000000000604482015260640161082d565b6113df6065858561347b565b506113ec6066838361347b565b507f934066d47a89bfcab72db908a0701b9145131ee303cefb44553121c73419e8dd60656066604051611420929190613d59565b60405180910390a150505050565b61097e83838360405180602001604052806000815250611c0f565b611452336110d9565b61149e5760405162461bcd60e51b815260206004820152600160248201527f3900000000000000000000000000000000000000000000000000000000000000604482015260640161082d565b6114a78161289e565b600090815260ff60205260409020805460ff19166001179055565b600054610100900460ff16806114db575060005460ff16155b61153e5760405162461bcd60e51b815260206004820152602e60248201527f496e697469616c697a61626c653a20636f6e747261637420697320616c72656160448201526d191e481a5b9a5d1a585b1a5e995960921b606482015260840161082d565b600054610100900460ff16158015611560576000805461ffff19166101011790555b6115d385858080601f01602080910402602001604051908101604052809392919081815260200183838082843760009201919091525050604080516020601f8901819004810282018101909252878152925087915086908190840183828082843760009201919091525061293992505050565b61162b85858080601f016020809104026020016040519081016040528093929190818152602001838380828437600092019190915250506040805180820190915260018152603160f81b60208201529150612a079050565b611633612aaf565b80156110cd576000805461ff00191690555050505050565b6097546001600160a01b031633146116a55760405162461bcd60e51b815260206004820181905260248201527f4f776e61626c653a2063616c6c6572206973206e6f7420746865206f776e6572604482015260640161082d565b61010054600160a01b900460ff16156117005760405162461bcd60e51b815260206004820152600260248201527f3131000000000000000000000000000000000000000000000000000000000000604482015260640161082d565b8061010061170e8282613d87565b9050507f5d121f0c2b2c4877a2b0a1457c73ce1c28628e5705271cb91db3e49792715cf5816040516117409190613e08565b60405180910390a150565b6097546001600160a01b031633146117a55760405162461bcd60e51b815260206004820181905260248201527f4f776e61626c653a2063616c6c6572206973206e6f7420746865206f776e6572604482015260640161082d565b61010254156117f65760405162461bcd60e51b815260206004820152600260248201527f3135000000000000000000000000000000000000000000000000000000000000604482015260640161082d565b611803610101838361347b565b507f6741b2fc379fad678116fe3d4d4b9a1a184ab53ba36b86ad0fa66340b1ab41ad8282604051611835929190613e3f565b60405180910390a15050565b6000818152606760205260408120546001600160a01b0316806107205760405162461bcd60e51b815260206004820152602960248201527f4552433732313a206f776e657220717565727920666f72206e6f6e657869737460448201527f656e7420746f6b656e0000000000000000000000000000000000000000000000606482015260840161082d565b61010180546118da90613a94565b80601f016020809104026020016040519081016040528092919081815260200182805461190690613a94565b80156119535780601f1061192857610100808354040283529160200191611953565b820191906000526020600020905b81548152906001019060200180831161193657829003601f168201915b505050505081565b60006001600160a01b0382166119d95760405162461bcd60e51b815260206004820152602a60248201527f4552433732313a2062616c616e636520717565727920666f7220746865207a6560448201527f726f206164647265737300000000000000000000000000000000000000000000606482015260840161082d565b506001600160a01b031660009081526068602052604090205490565b6097546001600160a01b03163314611a4f5760405162461bcd60e51b815260206004820181905260248201527f4f776e61626c653a2063616c6c6572206973206e6f7420746865206f776e6572604482015260640161082d565b611a596000612b71565b565b60606066805461073590613a94565b336001600160a01b03831603611ac25760405162461bcd60e51b815260206004820152601960248201527f4552433732313a20617070726f766520746f2063616c6c657200000000000000604482015260640161082d565b336000818152606a602090815260408083206001600160a01b03871680855290835292819020805460ff191686151590811790915590519081529192917f17307eab39ab6107e8899845ad3d59bd9653f200f220920489ca2b5937696c31910160405180910390a35050565b6097546001600160a01b03163314611b885760405162461bcd60e51b815260206004820181905260248201527f4f776e61626c653a2063616c6c6572206973206e6f7420746865206f776e6572604482015260640161082d565b61010254600203611bdb5760405162461bcd60e51b815260206004820152600260248201527f3134000000000000000000000000000000000000000000000000000000000000604482015260640161082d565b61010281905560405181907f118f8ba10d647100925b2343f3030d110623f17b284ced4316cbe4b8f138883f90600090a250565b611c1933836125de565b611c8b5760405162461bcd60e51b815260206004820152603160248201527f4552433732313a207472616e736665722063616c6c6572206973206e6f74206f60448201527f776e6572206e6f7220617070726f766564000000000000000000000000000000606482015260840161082d565b611c9784848484612bc3565b50505050565b6000818152606760205260409020546060906001600160a01b0316611d045760405162461bcd60e51b815260206004820152600260248201527f3130000000000000000000000000000000000000000000000000000000000000604482015260640161082d565b6040805180820190915260208082527f6162636465666768696a6b6c6d6e6f707172737475767778797a323334353637908201526101018054849291600091829190611d4f90613a94565b905011611d91576040518060400160405280600781526020017f697066733a2f2f00000000000000000000000000000000000000000000000000815250611e1e565b6101018054611d9f90613a94565b80601f0160208091040260200160405190810160405280929190818152602001828054611dcb90613a94565b8015611e185780601f10611ded57610100808354040283529160200191611e18565b820191906000526020600020905b815481529060010190602001808311611dfb57829003601f168201915b50505050505b600086815260fe602052604081205491925090829060ff1615611e76576040518060400160405280600781526020017f6261667962656900000000000000000000000000000000000000000000000000815250611ead565b6040518060400160405280600781526020017f6261666b726569000000000000000000000000000000000000000000000000008152505b604051602001611ebe929190613e6e565b60408051601f1981840301815291905290506002630170122060056000611ee760016020613e9d565b905060005b6020811015611f96576000611f02826008613c79565b8c901b60f881901c600896871b63ffffff00161795909150611f249087613eb4565b95505b83861115611f8557611f398487613e9d565b955086898787901c851681518110611f5357611f53613ac8565b602001015160f81c60f81b604051602001611f6f929190613ecc565b6040516020818303038152906040529650611f27565b50611f8f81613f13565b9050611eec565b508315611fec578487611fa98685613e9d565b85901b831681518110611fbe57611fbe613ac8565b602001015160f81c60f81b604051602001611fda929190613ecc565b60405160208183030381529060405294505b509298975050505050505050565b6097546001600160a01b031633146120545760405162461bcd60e51b815260206004820181905260248201527f4f776e61626c653a2063616c6c6572206973206e6f7420746865206f776e6572604482015260640161082d565b60005b8181101561097e573683838381811061207257612072613ac8565b905060a0020190506120978160200160208101906120909190613897565b823561249c565b60006120a96060830160408401613897565b6001600160a01b03161461213b5760405180604001604052808260400160208101906120d59190613897565b6001600160a01b031681526020016120f36080840160608501613b94565b6bffffffffffffffffffffffff9081169091528235600090815260fd6020908152604090912083519390910151909116600160a01b026001600160a01b039092169190911790555b50600101612057565b6097546001600160a01b0316331461219e5760405162461bcd60e51b815260206004820181905260248201527f4f776e61626c653a2063616c6c6572206973206e6f7420746865206f776e6572604482015260640161082d565b6001600160a01b03811661221a5760405162461bcd60e51b815260206004820152602660248201527f4f776e61626c653a206e6577206f776e657220697320746865207a65726f206160448201527f6464726573730000000000000000000000000000000000000000000000000000606482015260840161082d565b61222381612b71565b50565b60006001600160e01b031982167f80ac58cd00000000000000000000000000000000000000000000000000000000148061228957506001600160e01b031982167f5b5e139f00000000000000000000000000000000000000000000000000000000145b8061072057507f01ffc9a7000000000000000000000000000000000000000000000000000000006001600160e01b0319831614610720565b600081815260696020526040902080546001600160a01b0319166001600160a01b03841690811790915581906122f682611841565b6001600160a01b03167f8c5be1e5ebec7d5bd14f71427d1e84f3dd0314c0f7b2291e5b200ac8c7c3b92560405160405180910390a45050565b600061072061233c612c4c565b836040517f19010000000000000000000000000000000000000000000000000000000000006020820152602281018390526042810182905260009060620160405160208183030381529060405280519060200120905092915050565b60008060006123a78585612ccc565b915091506123b481612d37565b509392505050565b6040516bffffffffffffffffffffffff19606083901b166020820152600090819060340160405160208183030381529060405280519060200120905060005b8481101561248e57600086868381811061241757612417613ac8565b905060200201359050808311612458576040805160208101859052908101829052606001604051602081830303815290604052805190602001209250612485565b60408051602081018390529081018490526060016040516020818303038152906040528051906020012092505b506001016123fb565b50851490505b949350505050565b6001600160a01b0382166124f25760405162461bcd60e51b815260206004820181905260248201527f4552433732313a206d696e7420746f20746865207a65726f2061646472657373604482015260640161082d565b6000818152606760205260409020546001600160a01b0316156125575760405162461bcd60e51b815260206004820152601c60248201527f4552433732313a20746f6b656e20616c7265616479206d696e74656400000000604482015260640161082d565b6001600160a01b0382166000908152606860205260408120805460019290612580908490613eb4565b909155505060008181526067602052604080822080546001600160a01b0319166001600160a01b03861690811790915590518392907fddf252ad1be2c89b69c2b068fc378daa952ba7f163c4a11628f55a4df523b3ef908290a45050565b6000818152606760205260408120546001600160a01b03166126575760405162461bcd60e51b815260206004820152602c60248201527f4552433732313a206f70657261746f7220717565727920666f72206e6f6e657860448201526b34b9ba32b73a103a37b5b2b760a11b606482015260840161082d565b600061266283611841565b9050806001600160a01b0316846001600160a01b0316148061269d5750836001600160a01b0316612692846107b8565b6001600160a01b0316145b8061249457506001600160a01b038082166000908152606a602090815260408083209388168352929052205460ff16612494565b826001600160a01b03166126e482611841565b6001600160a01b0316146127605760405162461bcd60e51b815260206004820152602960248201527f4552433732313a207472616e73666572206f6620746f6b656e2074686174206960448201527f73206e6f74206f776e0000000000000000000000000000000000000000000000606482015260840161082d565b6001600160a01b0382166127db5760405162461bcd60e51b8152602060048201526024808201527f4552433732313a207472616e7366657220746f20746865207a65726f2061646460448201527f7265737300000000000000000000000000000000000000000000000000000000606482015260840161082d565b6127e66000826122c1565b6001600160a01b038316600090815260686020526040812080546001929061280f908490613e9d565b90915550506001600160a01b038216600090815260686020526040812080546001929061283d908490613eb4565b909155505060008181526067602052604080822080546001600160a01b0319166001600160a01b0386811691821790925591518493918716917fddf252ad1be2c89b69c2b068fc378daa952ba7f163c4a11628f55a4df523b3ef91a4505050565b60006128a982611841565b90506128b66000836122c1565b6001600160a01b03811660009081526068602052604081208054600192906128df908490613e9d565b909155505060008281526067602052604080822080546001600160a01b0319169055518391906001600160a01b038416907fddf252ad1be2c89b69c2b068fc378daa952ba7f163c4a11628f55a4df523b3ef908390a45050565b600054610100900460ff1680612952575060005460ff16155b6129b55760405162461bcd60e51b815260206004820152602e60248201527f496e697469616c697a61626c653a20636f6e747261637420697320616c72656160448201526d191e481a5b9a5d1a585b1a5e995960921b606482015260840161082d565b600054610100900460ff161580156129d7576000805461ffff19166101011790555b6129df612eed565b6129e7612eed565b6129f18383612f9e565b801561097e576000805461ff0019169055505050565b600054610100900460ff1680612a20575060005460ff16155b612a835760405162461bcd60e51b815260206004820152602e60248201527f496e697469616c697a61626c653a20636f6e747261637420697320616c72656160448201526d191e481a5b9a5d1a585b1a5e995960921b606482015260840161082d565b600054610100900460ff16158015612aa5576000805461ffff19166101011790555b6129f1838361307a565b600054610100900460ff1680612ac8575060005460ff16155b612b2b5760405162461bcd60e51b815260206004820152602e60248201527f496e697469616c697a61626c653a20636f6e747261637420697320616c72656160448201526d191e481a5b9a5d1a585b1a5e995960921b606482015260840161082d565b600054610100900460ff16158015612b4d576000805461ffff19166101011790555b612b55612eed565b612b5d61314b565b8015612223576000805461ff001916905550565b609780546001600160a01b038381166001600160a01b0319831681179093556040519116919082907f8be0079c531659141344cd1fd0a4f28419497f9722a3daafe3b4186f6b6457e090600090a35050565b612bce8484846126d1565b612bda848484846131f2565b611c975760405162461bcd60e51b815260206004820152603260248201527f4552433732313a207472616e7366657220746f206e6f6e20455243373231526560448201527f63656976657220696d706c656d656e7465720000000000000000000000000000606482015260840161082d565b6000612cc77f8b73c3c69bb8fe3d512ecc4cf759cc79239f7b179b0ffacaa9a75d522b39400f612c7b60c95490565b60ca546040805160208101859052908101839052606081018290524660808201523060a082015260009060c0016040516020818303038152906040528051906020012090509392505050565b905090565b6000808251604103612d025760208301516040840151606085015160001a612cf687828585613346565b945094505050506111c0565b8251604003612d2b5760208301516040840151612d20868383613433565b9350935050506111c0565b506000905060026111c0565b6000816004811115612d4b57612d4b613f2c565b03612d535750565b6001816004811115612d6757612d67613f2c565b03612db45760405162461bcd60e51b815260206004820152601860248201527f45434453413a20696e76616c6964207369676e61747572650000000000000000604482015260640161082d565b6002816004811115612dc857612dc8613f2c565b03612e155760405162461bcd60e51b815260206004820152601f60248201527f45434453413a20696e76616c6964207369676e6174757265206c656e67746800604482015260640161082d565b6003816004811115612e2957612e29613f2c565b03612e815760405162461bcd60e51b815260206004820152602260248201527f45434453413a20696e76616c6964207369676e6174757265202773272076616c604482015261756560f01b606482015260840161082d565b6004816004811115612e9557612e95613f2c565b036122235760405162461bcd60e51b815260206004820152602260248201527f45434453413a20696e76616c6964207369676e6174757265202776272076616c604482015261756560f01b606482015260840161082d565b600054610100900460ff1680612f06575060005460ff16155b612f695760405162461bcd60e51b815260206004820152602e60248201527f496e697469616c697a61626c653a20636f6e747261637420697320616c72656160448201526d191e481a5b9a5d1a585b1a5e995960921b606482015260840161082d565b600054610100900460ff16158015612b5d576000805461ffff19166101011790558015612223576000805461ff001916905550565b600054610100900460ff1680612fb7575060005460ff16155b61301a5760405162461bcd60e51b815260206004820152602e60248201527f496e697469616c697a61626c653a20636f6e747261637420697320616c72656160448201526d191e481a5b9a5d1a585b1a5e995960921b606482015260840161082d565b600054610100900460ff1615801561303c576000805461ffff19166101011790555b825161304f9060659060208601906134ff565b5081516130639060669060208501906134ff565b50801561097e576000805461ff0019169055505050565b600054610100900460ff1680613093575060005460ff16155b6130f65760405162461bcd60e51b815260206004820152602e60248201527f496e697469616c697a61626c653a20636f6e747261637420697320616c72656160448201526d191e481a5b9a5d1a585b1a5e995960921b606482015260840161082d565b600054610100900460ff16158015613118576000805461ffff19166101011790555b825160208085019190912083519184019190912060c99190915560ca55801561097e576000805461ff0019169055505050565b600054610100900460ff1680613164575060005460ff16155b6131c75760405162461bcd60e51b815260206004820152602e60248201527f496e697469616c697a61626c653a20636f6e747261637420697320616c72656160448201526d191e481a5b9a5d1a585b1a5e995960921b606482015260840161082d565b600054610100900460ff161580156131e9576000805461ffff19166101011790555b612b5d33612b71565b60006001600160a01b0384163b1561333e57604051630a85bd0160e11b81526001600160a01b0385169063150b7a0290613236903390899088908890600401613f42565b6020604051808303816000875af1925050508015613271575060408051601f3d908101601f1916820190925261326e91810190613f7e565b60015b613324573d80801561329f576040519150601f19603f3d011682016040523d82523d6000602084013e6132a4565b606091505b50805160000361331c5760405162461bcd60e51b815260206004820152603260248201527f4552433732313a207472616e7366657220746f206e6f6e20455243373231526560448201527f63656976657220696d706c656d656e7465720000000000000000000000000000606482015260840161082d565b805181602001fd5b6001600160e01b031916630a85bd0160e11b149050612494565b506001612494565b6000807f7fffffffffffffffffffffffffffffff5d576e7357a4501ddfe92f46681b20a083111561337d575060009050600361342a565b8460ff16601b1415801561339557508460ff16601c14155b156133a6575060009050600461342a565b6040805160008082526020820180845289905260ff881692820192909252606081018690526080810185905260019060a0016020604051602081039080840390855afa1580156133fa573d6000803e3d6000fd5b5050604051601f1901519150506001600160a01b0381166134235760006001925092505061342a565b9150600090505b94509492505050565b6000807f7fffffffffffffffffffffffffffffffffffffffffffffffffffffffffffffff831660ff84901c601b0161346d87828885613346565b935093505050935093915050565b82805461348790613a94565b90600052602060002090601f0160209004810192826134a957600085556134ef565b82601f106134c25782800160ff198235161785556134ef565b828001600101855582156134ef579182015b828111156134ef5782358255916020019190600101906134d4565b506134fb929150613573565b5090565b82805461350b90613a94565b90600052602060002090601f01602090048101928261352d57600085556134ef565b82601f1061354657805160ff19168380011785556134ef565b828001600101855582156134ef579182015b828111156134ef578251825591602001919060010190613558565b5b808211156134fb5760008155600101613574565b6001600160e01b03198116811461222357600080fd5b6000602082840312156135b057600080fd5b81356135bb81613588565b9392505050565b60005b838110156135dd5781810151838201526020016135c5565b83811115611c975750506000910152565b600081518084526136068160208601602086016135c2565b601f01601f19169290920160200192915050565b6020815260006135bb60208301846135ee565b60006020828403121561363f57600080fd5b5035919050565b6001600160a01b038116811461222357600080fd5b6000806040838503121561366e57600080fd5b823561367981613646565b946020939093013593505050565b60008083601f84011261369957600080fd5b50813567ffffffffffffffff8111156136b157600080fd5b6020830191508360208260051b85010111156111c057600080fd5b600080600080604085870312156136e257600080fd5b843567ffffffffffffffff808211156136fa57600080fd5b61370688838901613687565b9096509450602087013591508082111561371f57600080fd5b5061372c87828801613687565b95989497509550505050565b60008060006060848603121561374d57600080fd5b833561375881613646565b9250602084013561376881613646565b929592945050506040919091013590565b6000806040838503121561378c57600080fd5b50508035926020909101359150565b60008083601f8401126137ad57600080fd5b50813567ffffffffffffffff8111156137c557600080fd5b6020830191508360208285010111156111c057600080fd5b600080600080604085870312156137f357600080fd5b843567ffffffffffffffff8082111561380b57600080fd5b6138178883890161379b565b9096509450602087013591508082111561383057600080fd5b5061372c8782880161379b565b60006040828403121561384f57600080fd5b50919050565b6000806020838503121561386857600080fd5b823567ffffffffffffffff81111561387f57600080fd5b61388b8582860161379b565b90969095509350505050565b6000602082840312156138a957600080fd5b81356135bb81613646565b801515811461222357600080fd5b600080604083850312156138d557600080fd5b82356138e081613646565b915060208301356138f0816138b4565b809150509250929050565b634e487b7160e01b600052604160045260246000fd5b6000806000806080858703121561392757600080fd5b843561393281613646565b9350602085013561394281613646565b925060408501359150606085013567ffffffffffffffff8082111561396657600080fd5b818701915087601f83011261397a57600080fd5b81358181111561398c5761398c6138fb565b604051601f8201601f19908116603f011681019083821181831017156139b4576139b46138fb565b816040528281528a60208487010111156139cd57600080fd5b82602086016020830137600060208483010152809550505050505092959194509250565b60008060208385031215613a0457600080fd5b823567ffffffffffffffff80821115613a1c57600080fd5b818501915085601f830112613a3057600080fd5b813581811115613a3f57600080fd5b86602060a083028501011115613a5457600080fd5b60209290920196919550909350505050565b60008060408385031215613a7957600080fd5b8235613a8481613646565b915060208301356138f081613646565b600181811c90821680613aa857607f821691505b60208210810361384f57634e487b7160e01b600052602260045260246000fd5b634e487b7160e01b600052603260045260246000fd5b6000823561017e19833603018112613af557600080fd5b9190910192915050565b60008235603e19833603018112613af557600080fd5b600060208284031215613b2757600080fd5b813560ff811681146135bb57600080fd5b600060208284031215613b4a57600080fd5b81356fffffffffffffffffffffffffffffffff811681146135bb57600080fd5b600060208284031215613b7c57600080fd5b813567ffffffffffffffff811681146135bb57600080fd5b600060208284031215613ba657600080fd5b81356bffffffffffffffffffffffff811681146135bb57600080fd5b6000808335601e19843603018112613bd957600080fd5b83018035915067ffffffffffffffff821115613bf457600080fd5b6020019150368190038213156111c057600080fd5b8183823760009101908152919050565b6000808335601e19843603018112613c3057600080fd5b83018035915067ffffffffffffffff821115613c4b57600080fd5b6020019150600581901b36038213156111c057600080fd5b634e487b7160e01b600052601160045260246000fd5b6000816000190483118215151615613c9357613c93613c63565b500290565b600082613cb557634e487b7160e01b600052601260045260246000fd5b500490565b8054600090600181811c9080831680613cd457607f831692505b60208084108203613cf557634e487b7160e01b600052602260045260246000fd5b83885260208801828015613d105760018114613d2157613d4c565b60ff19871682528282019750613d4c565b60008981526020902060005b87811015613d4657815484820152908601908401613d2d565b83019850505b5050505050505092915050565b604081526000613d6c6040830185613cba565b8281036020840152613d7e8185613cba565b95945050505050565b8135613d9281613646565b6001600160a01b03811690508154816001600160a01b031982161783556020840135613dbd816138b4565b7fffffffffffffffffffffff0000000000000000000000000000000000000000009190911690911790151560a01b74ff00000000000000000000000000000000000000001617905550565b604081018235613e1781613646565b6001600160a01b031682526020830135613e30816138b4565b80151560208401525092915050565b60208152816020820152818360408301376000818301604090810191909152601f909201601f19160101919050565b60008351613e808184602088016135c2565b835190830190613e948183602088016135c2565b01949350505050565b600082821015613eaf57613eaf613c63565b500390565b60008219821115613ec757613ec7613c63565b500190565b60008351613ede8184602088016135c2565b7fff00000000000000000000000000000000000000000000000000000000000000939093169190920190815260010192915050565b600060018201613f2557613f25613c63565b5060010190565b634e487b7160e01b600052602160045260246000fd5b60006001600160a01b03808716835280861660208401525083604083015260806060830152613f7460808301846135ee565b9695505050505050565b600060208284031215613f9057600080fd5b81516135bb8161358856fea264697066735822122080369d809f4fea3862260fcb37066785f4eed4c70416666635f4f87d8b2f456964736f6c634300080d0033",
  "linkReferences": {},
  "deployedLinkReferences": {}
}