{
  "_format": "hh-sol-artifact-1",
  "contractName": "C0",
  "sourceName": "contracts/C0.sol",
  "abi": [
    {
      "inputs": [],
      "name": "TransferFailed",
      "type": "error"
    },
    {
      "anonymous": false,
      "inputs": [
        {
          "indexed": true,
          "internalType": "address",
          "name": "owner",
          "type": "address"
        },
        {
          "indexed": true,
          "internalType": "address",
          "name": "approved",
          "type": "address"
        },
        {
          "indexed": true,
          "internalType": "uint256",
          "name": "tokenId",
          "type": "uint256"
        }
      ],
      "name": "Approval",
      "type": "event"
    },
    {
      "anonymous": false,
      "inputs": [
        {
          "indexed": true,
          "internalType": "address",
          "name": "owner",
          "type": "address"
        },
        {
          "indexed": true,
          "internalType": "address",
          "name": "operator",
          "type": "address"
        },
        {
          "indexed": false,
          "internalType": "bool",
          "name": "approved",
          "type": "bool"
        }
      ],
      "name": "ApprovalForAll",
      "type": "event"
    },
    {
      "anonymous": false,
      "inputs": [
        {
          "indexed": false,
          "internalType": "string",
          "name": "uri",
          "type": "string"
        }
      ],
      "name": "BaseURIUpdated",
      "type": "event"
    },
    {
      "anonymous": false,
      "inputs": [
        {
          "indexed": false,
          "internalType": "string",
          "name": "name",
          "type": "string"
        },
        {
          "indexed": false,
          "internalType": "string",
          "name": "symbol",
          "type": "string"
        }
      ],
      "name": "NSUpdated",
      "type": "event"
    },
    {
      "anonymous": false,
      "inputs": [
        {
          "indexed": true,
          "internalType": "address",
          "name": "previousOwner",
          "type": "address"
        },
        {
          "indexed": true,
          "internalType": "address",
          "name": "newOwner",
          "type": "address"
        }
      ],
      "name": "OwnershipTransferred",
      "type": "event"
    },
    {
      "anonymous": false,
      "inputs": [
        {
          "indexed": true,
          "internalType": "uint256",
          "name": "state",
          "type": "uint256"
        }
      ],
      "name": "StateUpdated",
      "type": "event"
    },
    {
      "anonymous": false,
      "inputs": [
        {
          "indexed": true,
          "internalType": "address",
          "name": "from",
          "type": "address"
        },
        {
          "indexed": true,
          "internalType": "address",
          "name": "to",
          "type": "address"
        },
        {
          "indexed": true,
          "internalType": "uint256",
          "name": "tokenId",
          "type": "uint256"
        }
      ],
      "name": "Transfer",
      "type": "event"
    },
    {
      "anonymous": false,
      "inputs": [
        {
          "components": [
            {
              "internalType": "address",
              "name": "account",
              "type": "address"
            },
            {
              "internalType": "bool",
              "name": "permanent",
              "type": "bool"
            }
          ],
          "indexed": false,
          "internalType": "struct C0.Withdrawer",
          "name": "withdrawer",
          "type": "tuple"
        }
      ],
      "name": "WithdrawerUpdated",
      "type": "event"
    },
    {
      "inputs": [],
      "name": "BODY_TYPE_HASH",
      "outputs": [
        {
          "internalType": "bytes32",
          "name": "",
          "type": "bytes32"
        }
      ],
      "stateMutability": "view",
      "type": "function"
    },
    {
      "inputs": [],
      "name": "RELATION_TYPE_HASH",
      "outputs": [
        {
          "internalType": "bytes32",
          "name": "",
          "type": "bytes32"
        }
      ],
      "stateMutability": "view",
      "type": "function"
    },
    {
      "inputs": [
        {
          "internalType": "address",
          "name": "to",
          "type": "address"
        },
        {
          "internalType": "uint256",
          "name": "tokenId",
          "type": "uint256"
        }
      ],
      "name": "approve",
      "outputs": [],
      "stateMutability": "nonpayable",
      "type": "function"
    },
    {
      "inputs": [
        {
          "internalType": "address",
          "name": "owner",
          "type": "address"
        }
      ],
      "name": "balanceOf",
      "outputs": [
        {
          "internalType": "uint256",
          "name": "",
          "type": "uint256"
        }
      ],
      "stateMutability": "view",
      "type": "function"
    },
    {
      "inputs": [],
      "name": "baseURI",
      "outputs": [
        {
          "internalType": "string",
          "name": "",
          "type": "string"
        }
      ],
      "stateMutability": "view",
      "type": "function"
    },
    {
      "inputs": [
        {
          "internalType": "uint256[]",
          "name": "_tokenIds",
          "type": "uint256[]"
        }
      ],
      "name": "burn",
      "outputs": [],
      "stateMutability": "nonpayable",
      "type": "function"
    },
    {
      "inputs": [
        {
          "internalType": "uint256",
          "name": "",
          "type": "uint256"
        }
      ],
      "name": "burned",
      "outputs": [
        {
          "internalType": "address",
          "name": "",
          "type": "address"
        }
      ],
      "stateMutability": "view",
      "type": "function"
    },
    {
      "inputs": [
        {
          "internalType": "uint256",
          "name": "",
          "type": "uint256"
        }
      ],
      "name": "encoding",
      "outputs": [
        {
          "internalType": "uint8",
          "name": "",
          "type": "uint8"
        }
      ],
      "stateMutability": "view",
      "type": "function"
    },
    {
      "inputs": [
        {
          "internalType": "uint256",
          "name": "tokenId",
          "type": "uint256"
        }
      ],
      "name": "getApproved",
      "outputs": [
        {
          "internalType": "address",
          "name": "",
          "type": "address"
        }
      ],
      "stateMutability": "view",
      "type": "function"
    },
    {
      "inputs": [
        {
          "components": [
            {
              "internalType": "uint256",
              "name": "id",
              "type": "uint256"
            },
            {
              "internalType": "address",
              "name": "receiver",
              "type": "address"
            },
            {
              "internalType": "uint8",
              "name": "encoding",
              "type": "uint8"
            },
            {
              "components": [
                {
                  "internalType": "uint8",
                  "name": "code",
                  "type": "uint8"
                },
                {
                  "internalType": "address",
                  "name": "addr",
                  "type": "address"
                },
                {
                  "internalType": "uint256",
                  "name": "id",
                  "type": "uint256"
                }
              ],
              "internalType": "struct C0.Relation[]",
              "name": "relations",
              "type": "tuple[]"
            }
          ],
          "internalType": "struct C0.Gift[]",
          "name": "gifts",
          "type": "tuple[]"
        }
      ],
      "name": "gift",
      "outputs": [],
      "stateMutability": "payable",
      "type": "function"
    },
    {
      "inputs": [
        {
          "internalType": "string",
          "name": "name",
          "type": "string"
        },
        {
          "internalType": "string",
          "name": "symbol",
          "type": "string"
        }
      ],
      "name": "initialize",
      "outputs": [],
      "stateMutability": "nonpayable",
      "type": "function"
    },
    {
      "inputs": [
        {
          "internalType": "address",
          "name": "owner",
          "type": "address"
        },
        {
          "internalType": "address",
          "name": "operator",
          "type": "address"
        }
      ],
      "name": "isApprovedForAll",
      "outputs": [
        {
          "internalType": "bool",
          "name": "",
          "type": "bool"
        }
      ],
      "stateMutability": "view",
      "type": "function"
    },
    {
      "inputs": [],
      "name": "name",
      "outputs": [
        {
          "internalType": "string",
          "name": "",
          "type": "string"
        }
      ],
      "stateMutability": "view",
      "type": "function"
    },
    {
      "inputs": [],
      "name": "owner",
      "outputs": [
        {
          "internalType": "address",
          "name": "",
          "type": "address"
        }
      ],
      "stateMutability": "view",
      "type": "function"
    },
    {
      "inputs": [
        {
          "internalType": "uint256",
          "name": "tokenId",
          "type": "uint256"
        }
      ],
      "name": "ownerOf",
      "outputs": [
        {
          "internalType": "address",
          "name": "",
          "type": "address"
        }
      ],
      "stateMutability": "view",
      "type": "function"
    },
    {
      "inputs": [],
      "name": "renounceOwnership",
      "outputs": [],
      "stateMutability": "nonpayable",
      "type": "function"
    },
    {
      "inputs": [
        {
          "internalType": "uint256",
          "name": "",
          "type": "uint256"
        }
      ],
      "name": "royalty",
      "outputs": [
        {
          "internalType": "address",
          "name": "receiver",
          "type": "address"
        },
        {
          "internalType": "uint96",
          "name": "amount",
          "type": "uint96"
        }
      ],
      "stateMutability": "view",
      "type": "function"
    },
    {
      "inputs": [
        {
          "internalType": "uint256",
          "name": "tokenId",
          "type": "uint256"
        },
        {
          "internalType": "uint256",
          "name": "value",
          "type": "uint256"
        }
      ],
      "name": "royaltyInfo",
      "outputs": [
        {
          "internalType": "address",
          "name": "receiver",
          "type": "address"
        },
        {
          "internalType": "uint256",
          "name": "royaltyAmount",
          "type": "uint256"
        }
      ],
      "stateMutability": "view",
      "type": "function"
    },
    {
      "inputs": [
        {
          "internalType": "address",
          "name": "from",
          "type": "address"
        },
        {
          "internalType": "address",
          "name": "to",
          "type": "address"
        },
        {
          "internalType": "uint256",
          "name": "tokenId",
          "type": "uint256"
        }
      ],
      "name": "safeTransferFrom",
      "outputs": [],
      "stateMutability": "nonpayable",
      "type": "function"
    },
    {
      "inputs": [
        {
          "internalType": "address",
          "name": "from",
          "type": "address"
        },
        {
          "internalType": "address",
          "name": "to",
          "type": "address"
        },
        {
          "internalType": "uint256",
          "name": "tokenId",
          "type": "uint256"
        },
        {
          "internalType": "bytes",
          "name": "_data",
          "type": "bytes"
        }
      ],
      "name": "safeTransferFrom",
      "outputs": [],
      "stateMutability": "nonpayable",
      "type": "function"
    },
    {
      "inputs": [
        {
          "internalType": "address",
          "name": "operator",
          "type": "address"
        },
        {
          "internalType": "bool",
          "name": "approved",
          "type": "bool"
        }
      ],
      "name": "setApprovalForAll",
      "outputs": [],
      "stateMutability": "nonpayable",
      "type": "function"
    },
    {
      "inputs": [
        {
          "internalType": "string",
          "name": "b",
          "type": "string"
        }
      ],
      "name": "setBaseURI",
      "outputs": [],
      "stateMutability": "nonpayable",
      "type": "function"
    },
    {
      "inputs": [
        {
          "internalType": "string",
          "name": "name_",
          "type": "string"
        },
        {
          "internalType": "string",
          "name": "symbol_",
          "type": "string"
        }
      ],
      "name": "setNS",
      "outputs": [],
      "stateMutability": "nonpayable",
      "type": "function"
    },
    {
      "inputs": [
        {
          "internalType": "uint256",
          "name": "_state",
          "type": "uint256"
        }
      ],
      "name": "setState",
      "outputs": [],
      "stateMutability": "nonpayable",
      "type": "function"
    },
    {
      "inputs": [
        {
          "components": [
            {
              "internalType": "address",
              "name": "account",
              "type": "address"
            },
            {
              "internalType": "bool",
              "name": "permanent",
              "type": "bool"
            }
          ],
          "internalType": "struct C0.Withdrawer",
          "name": "_withdrawer",
          "type": "tuple"
        }
      ],
      "name": "setWithdrawer",
      "outputs": [],
      "stateMutability": "nonpayable",
      "type": "function"
    },
    {
      "inputs": [],
      "name": "state",
      "outputs": [
        {
          "internalType": "uint256",
          "name": "",
          "type": "uint256"
        }
      ],
      "stateMutability": "view",
      "type": "function"
    },
    {
      "inputs": [
        {
          "internalType": "bytes4",
          "name": "interfaceId",
          "type": "bytes4"
        }
      ],
      "name": "supportsInterface",
      "outputs": [
        {
          "internalType": "bool",
          "name": "",
          "type": "bool"
        }
      ],
      "stateMutability": "view",
      "type": "function"
    },
    {
      "inputs": [],
      "name": "symbol",
      "outputs": [
        {
          "internalType": "string",
          "name": "",
          "type": "string"
        }
      ],
      "stateMutability": "view",
      "type": "function"
    },
    {
      "inputs": [
        {
          "components": [
            {
              "internalType": "uint256",
              "name": "id",
              "type": "uint256"
            },
            {
              "internalType": "uint128",
              "name": "value",
              "type": "uint128"
            },
            {
              "internalType": "uint64",
              "name": "start",
              "type": "uint64"
            },
            {
              "internalType": "uint64",
              "name": "end",
              "type": "uint64"
            },
            {
              "internalType": "address",
              "name": "sender",
              "type": "address"
            },
            {
              "internalType": "address",
              "name": "receiver",
              "type": "address"
            },
            {
              "internalType": "uint8",
              "name": "encoding",
              "type": "uint8"
            },
            {
              "internalType": "bytes32",
              "name": "sendersHash",
              "type": "bytes32"
            },
            {
              "internalType": "bytes32",
              "name": "receiversHash",
              "type": "bytes32"
            },
            {
              "internalType": "bytes32",
              "name": "puzzleHash",
              "type": "bytes32"
            },
            {
              "components": [
                {
                  "internalType": "uint8",
                  "name": "code",
                  "type": "uint8"
                },
                {
                  "internalType": "address",
                  "name": "addr",
                  "type": "address"
                },
                {
                  "internalType": "uint256",
                  "name": "id",
                  "type": "uint256"
                }
              ],
              "internalType": "struct C0.Relation[]",
              "name": "relations",
              "type": "tuple[]"
            },
            {
              "internalType": "bytes",
              "name": "signature",
              "type": "bytes"
            }
          ],
          "internalType": "struct C0.Body[]",
          "name": "bodies",
          "type": "tuple[]"
        },
        {
          "components": [
            {
              "internalType": "address",
              "name": "receiver",
              "type": "address"
            },
            {
              "internalType": "bytes",
              "name": "puzzle",
              "type": "bytes"
            },
            {
              "internalType": "bytes32[]",
              "name": "sendersProof",
              "type": "bytes32[]"
            },
            {
              "internalType": "bytes32[]",
              "name": "receiversProof",
              "type": "bytes32[]"
            }
          ],
          "internalType": "struct C0.Input[]",
          "name": "inputs",
          "type": "tuple[]"
        }
      ],
      "name": "token",
      "outputs": [],
      "stateMutability": "payable",
      "type": "function"
    },
    {
      "inputs": [
        {
          "internalType": "uint256",
          "name": "tokenId",
          "type": "uint256"
        }
      ],
      "name": "tokenURI",
      "outputs": [
        {
          "internalType": "string",
          "name": "",
          "type": "string"
        }
      ],
      "stateMutability": "view",
      "type": "function"
    },
    {
      "inputs": [
        {
          "internalType": "address",
          "name": "from",
          "type": "address"
        },
        {
          "internalType": "address",
          "name": "to",
          "type": "address"
        },
        {
          "internalType": "uint256",
          "name": "tokenId",
          "type": "uint256"
        }
      ],
      "name": "transferFrom",
      "outputs": [],
      "stateMutability": "nonpayable",
      "type": "function"
    },
    {
      "inputs": [
        {
          "internalType": "address",
          "name": "newOwner",
          "type": "address"
        }
      ],
      "name": "transferOwnership",
      "outputs": [],
      "stateMutability": "nonpayable",
      "type": "function"
    },
    {
      "inputs": [
        {
          "internalType": "uint256",
          "name": "value",
          "type": "uint256"
        }
      ],
      "name": "withdraw",
      "outputs": [],
      "stateMutability": "payable",
      "type": "function"
    },
    {
      "inputs": [],
      "name": "withdrawer",
      "outputs": [
        {
          "internalType": "address",
          "name": "account",
          "type": "address"
        },
        {
          "internalType": "bool",
          "name": "permanent",
          "type": "bool"
        }
      ],
      "stateMutability": "view",
      "type": "function"
    },
    {
      "stateMutability": "payable",
      "type": "receive"
    }
  ],
  "bytecode": "0x608060405234801561001057600080fd5b50614c11806100206000396000f3fe60806040526004361061021d5760003560e01c80638da5cb5b1161011d578063c19d93fb116100b0578063e1b220461161007f578063e985e9c511610064578063e985e9c514610706578063f2fde38b1461074f578063fc41e4f31461076f57600080fd5b8063e1b2204614610659578063e814cb711461068d57600080fd5b8063c19d93fb146105a2578063c87b56dd146105b9578063ccc0b1ec146105d9578063cdc184241461060d57600080fd5b8063a22cb465116100ec578063a22cb46514610522578063a9e966b714610542578063b80f55c914610562578063b88d4fde1461058257600080fd5b80638da5cb5b1461049a57806393d19f6d146104b857806395d89b41146104fa57806399676c4e1461050f57600080fd5b806335c93885116101b057806355f804b31161017f5780636c0360eb116101645780636c0360eb1461044257806370a0823114610457578063715018a61461048557600080fd5b806355f804b3146104025780636352211e1461042257600080fd5b806335c938851461038257806342842e0e146103a25780634cd88b76146103c25780634fc41a42146103e257600080fd5b806323250cae116101ec57806323250cae146102da57806323b872dd146103105780632a55205a146103305780632e1a7d4d1461036f57600080fd5b806301ffc9a71461022957806306fdde031461025e578063081812fc14610280578063095ea7b3146102b857600080fd5b3661022457005b600080fd5b34801561023557600080fd5b5061024961024436600461411a565b610782565b60405190151581526020015b60405180910390f35b34801561026a57600080fd5b506102736107c6565b6040516102559190614196565b34801561028c57600080fd5b506102a061029b3660046141a9565b610858565b6040516001600160a01b039091168152602001610255565b3480156102c457600080fd5b506102d86102d33660046141d7565b6108f2565b005b3480156102e657600080fd5b506102a06102f53660046141a9565b60ff602052600090815260409020546001600160a01b031681565b34801561031c57600080fd5b506102d861032b366004614203565b610a24565b34801561033c57600080fd5b5061035061034b366004614244565b610aac565b604080516001600160a01b039093168352602083019190915201610255565b6102d861037d3660046141a9565b610b17565b34801561038e57600080fd5b506102d861039d3660046142a8565b610be3565b3480156103ae57600080fd5b506102d86103bd366004614203565b610ce9565b3480156103ce57600080fd5b506102d86103dd3660046142a8565b610d04565b3480156103ee57600080fd5b506102d86103fd366004614314565b610e8e565b34801561040e57600080fd5b506102d861041d36600461432c565b610f8e565b34801561042e57600080fd5b506102a061043d3660046141a9565b611084565b34801561044e57600080fd5b5061027361110f565b34801561046357600080fd5b5061047761047236600461436e565b61119e565b604051908152602001610255565b34801561049157600080fd5b506102d8611238565b3480156104a657600080fd5b506097546001600160a01b03166102a0565b3480156104c457600080fd5b506104e86104d33660046141a9565b60fe6020526000908152604090205460ff1681565b60405160ff9091168152602001610255565b34801561050657600080fd5b5061027361129e565b6102d861051d3660046143d0565b6112ad565b34801561052e57600080fd5b506102d861053d366004614414565b611467565b34801561054e57600080fd5b506102d861055d3660046141a9565b61152c565b34801561056e57600080fd5b506102d861057d3660046143d0565b61160e565b34801561058e57600080fd5b506102d861059d366004614494565b6116bb565b3480156105ae57600080fd5b506104776101025481565b3480156105c557600080fd5b506102736105d43660046141a9565b611749565b3480156105e557600080fd5b506104777fd5c13995ee2c903b8566a2b01173a2e42e98f3821f01841396633b28a9b0cb2281565b34801561061957600080fd5b506101005461063a906001600160a01b03811690600160a01b900460ff1682565b604080516001600160a01b039093168352901515602083015201610255565b34801561066557600080fd5b506104777fa8429bfd1dd4da6c67a09e5c5a89115acae264879c22f767979685932461d1c281565b34801561069957600080fd5b506106da6106a83660046141a9565b60fd602052600090815260409020546001600160a01b03811690600160a01b90046bffffffffffffffffffffffff1682565b604080516001600160a01b0390931683526bffffffffffffffffffffffff909116602083015201610255565b34801561071257600080fd5b50610249610721366004614558565b6001600160a01b039182166000908152606a6020908152604080832093909416825291909152205460ff1690565b34801561075b57600080fd5b506102d861076a36600461436e565b611acc565b6102d861077d366004614586565b611bae565b60007f2a55205a000000000000000000000000000000000000000000000000000000006001600160e01b0319831614806107c057506107c082612d48565b92915050565b6060606580546107d5906145e6565b80601f0160208091040260200160405190810160405280929190818152602001828054610801906145e6565b801561084e5780601f106108235761010080835404028352916020019161084e565b820191906000526020600020905b81548152906001019060200180831161083157829003601f168201915b5050505050905090565b6000818152606760205260408120546001600160a01b03166108d65760405162461bcd60e51b815260206004820152602c60248201527f4552433732313a20617070726f76656420717565727920666f72206e6f6e657860448201526b34b9ba32b73a103a37b5b2b760a11b60648201526084015b60405180910390fd5b506000908152606960205260409020546001600160a01b031690565b60006108fd82611084565b9050806001600160a01b0316836001600160a01b031614156109875760405162461bcd60e51b815260206004820152602160248201527f4552433732313a20617070726f76616c20746f2063757272656e74206f776e6560448201527f720000000000000000000000000000000000000000000000000000000000000060648201526084016108cd565b336001600160a01b03821614806109a357506109a38133610721565b610a155760405162461bcd60e51b815260206004820152603860248201527f4552433732313a20617070726f76652063616c6c6572206973206e6f74206f7760448201527f6e6572206e6f7220617070726f76656420666f7220616c6c000000000000000060648201526084016108cd565b610a1f8383612de3565b505050565b610a2f335b82612e51565b610aa15760405162461bcd60e51b815260206004820152603160248201527f4552433732313a207472616e736665722063616c6c6572206973206e6f74206f60448201527f776e6572206e6f7220617070726f76656400000000000000000000000000000060648201526084016108cd565b610a1f838383612f48565b600082815260fd602090815260408083208151808301909252546001600160a01b038116808352600160a01b9091046bffffffffffffffffffffffff169282018390528392620f424090610b009087614631565b610b0a9190614650565b92509250505b9250929050565b6097546001600160a01b0316331480610b445750610100546001600160a01b0316336001600160a01b0316145b610b905760405162461bcd60e51b815260206004820152600260248201527f333000000000000000000000000000000000000000000000000000000000000060448201526064016108cd565b6000808211610b9f5747610ba1565b815b61010054909150610bdf906001600160a01b031615610bcc57610100546001600160a01b0316610bd9565b6097546001600160a01b03165b82613115565b5050565b6097546001600160a01b03163314610c3d5760405162461bcd60e51b815260206004820181905260248201527f4f776e61626c653a2063616c6c6572206973206e6f7420746865206f776e657260448201526064016108cd565b6101025415610c8e5760405162461bcd60e51b815260206004820152600260248201527f363000000000000000000000000000000000000000000000000000000000000060448201526064016108cd565b610c9a60658585613ff7565b50610ca760668383613ff7565b507f934066d47a89bfcab72db908a0701b9145131ee303cefb44553121c73419e8dd60656066604051610cdb929190614712565b60405180910390a150505050565b610a1f838383604051806020016040528060008152506116bb565b600054610100900460ff1680610d1d575060005460ff16155b610d805760405162461bcd60e51b815260206004820152602e60248201527f496e697469616c697a61626c653a20636f6e747261637420697320616c72656160448201526d191e481a5b9a5d1a585b1a5e995960921b60648201526084016108cd565b600054610100900460ff16158015610da2576000805461ffff19166101011790555b610e1585858080601f01602080910402602001604051908101604052809392919081815260200183838082843760009201919091525050604080516020601f8901819004810282018101909252878152925087915086908190840183828082843760009201919091525061315a92505050565b610e6d85858080601f016020809104026020016040519081016040528093929190818152602001838380828437600092019190915250506040805180820190915260018152603160f81b602082015291506132289050565b610e756132d0565b8015610e87576000805461ff00191690555b5050505050565b6097546001600160a01b03163314610ee85760405162461bcd60e51b815260206004820181905260248201527f4f776e61626c653a2063616c6c6572206973206e6f7420746865206f776e657260448201526064016108cd565b61010054600160a01b900460ff1615610f435760405162461bcd60e51b815260206004820152600260248201527f323000000000000000000000000000000000000000000000000000000000000060448201526064016108cd565b80610100610f518282614740565b9050507f5d121f0c2b2c4877a2b0a1457c73ce1c28628e5705271cb91db3e49792715cf581604051610f8391906147c1565b60405180910390a150565b6097546001600160a01b03163314610fe85760405162461bcd60e51b815260206004820181905260248201527f4f776e61626c653a2063616c6c6572206973206e6f7420746865206f776e657260448201526064016108cd565b61010254156110395760405162461bcd60e51b815260206004820152600260248201527f353000000000000000000000000000000000000000000000000000000000000060448201526064016108cd565b6110466101018383613ff7565b507f6741b2fc379fad678116fe3d4d4b9a1a184ab53ba36b86ad0fa66340b1ab41ad82826040516110789291906147f8565b60405180910390a15050565b6000818152606760205260408120546001600160a01b0316806107c05760405162461bcd60e51b815260206004820152602960248201527f4552433732313a206f776e657220717565727920666f72206e6f6e657869737460448201527f656e7420746f6b656e000000000000000000000000000000000000000000000060648201526084016108cd565b610101805461111d906145e6565b80601f0160208091040260200160405190810160405280929190818152602001828054611149906145e6565b80156111965780601f1061116b57610100808354040283529160200191611196565b820191906000526020600020905b81548152906001019060200180831161117957829003601f168201915b505050505081565b60006001600160a01b03821661121c5760405162461bcd60e51b815260206004820152602a60248201527f4552433732313a2062616c616e636520717565727920666f7220746865207a6560448201527f726f20616464726573730000000000000000000000000000000000000000000060648201526084016108cd565b506001600160a01b031660009081526068602052604090205490565b6097546001600160a01b031633146112925760405162461bcd60e51b815260206004820181905260248201527f4f776e61626c653a2063616c6c6572206973206e6f7420746865206f776e657260448201526064016108cd565b61129c6000613392565b565b6060606680546107d5906145e6565b6097546001600160a01b031633146113075760405162461bcd60e51b815260206004820181905260248201527f4f776e61626c653a2063616c6c6572206973206e6f7420746865206f776e657260448201526064016108cd565b610102541561133c5760405162461bcd60e51b81526020600482015260016024820152600360fc1b60448201526064016108cd565b60005b81811015610a1f573683838381811061135a5761135a614827565b905060200281019061136c919061483d565b9050611388611381604083016020840161436e565b82356133e4565b6000611397606083018361485d565b9050111561145e5760408051808201909152806113b7606084018461485d565b60008181106113c8576113c8614827565b90506060020160200160208101906113e0919061436e565b6001600160a01b031681526020016113fb606084018461485d565b600081811061140c5761140c614827565b6bffffffffffffffffffffffff60406060909202939093018101358316909352508335600090815260fd60209081529290208351939092015116600160a01b026001600160a01b039092169190911790555b5060010161133f565b6001600160a01b0382163314156114c05760405162461bcd60e51b815260206004820152601960248201527f4552433732313a20617070726f766520746f2063616c6c65720000000000000060448201526064016108cd565b336000818152606a602090815260408083206001600160a01b03871680855290835292819020805460ff191686151590811790915590519081529192917f17307eab39ab6107e8899845ad3d59bd9653f200f220920489ca2b5937696c31910160405180910390a35050565b6097546001600160a01b031633146115865760405162461bcd60e51b815260206004820181905260248201527f4f776e61626c653a2063616c6c6572206973206e6f7420746865206f776e657260448201526064016108cd565b61010254600214156115da5760405162461bcd60e51b815260206004820152600260248201527f343000000000000000000000000000000000000000000000000000000000000060448201526064016108cd565b61010281905560405181907f118f8ba10d647100925b2343f3030d110623f17b284ced4316cbe4b8f138883f90600090a250565b60005b81811015610a1f57600083838381811061162d5761162d614827565b905060200201359050611640610a293390565b61168c5760405162461bcd60e51b815260206004820152600260248201527f313500000000000000000000000000000000000000000000000000000000000060448201526064016108cd565b61169581613526565b600090815260ff6020526040902080546001600160a01b03191633179055600101611611565b6116c53383612e51565b6117375760405162461bcd60e51b815260206004820152603160248201527f4552433732313a207472616e736665722063616c6c6572206973206e6f74206f60448201527f776e6572206e6f7220617070726f76656400000000000000000000000000000060648201526084016108cd565b611743848484846135c1565b50505050565b6000818152606760205260409020546060906001600160a01b03166117d65760405162461bcd60e51b815260206004820152602f60248201527f4552433732314d657461646174613a2055524920717565727920666f72206e6f60448201527f6e6578697374656e7420746f6b656e000000000000000000000000000000000060648201526084016108cd565b6040805180820190915260208082527f6162636465666768696a6b6c6d6e6f707172737475767778797a323334353637908201526101018054849291600091829190611821906145e6565b905011611863576040518060400160405280600781526020017f697066733a2f2f000000000000000000000000000000000000000000000000008152506118f0565b6101018054611871906145e6565b80601f016020809104026020016040519081016040528092919081815260200182805461189d906145e6565b80156118ea5780601f106118bf576101008083540402835291602001916118ea565b820191906000526020600020905b8154815290600101906020018083116118cd57829003601f168201915b50505050505b600086815260fe602052604081205491925090829060ff1615611948576040518060400160405280600781526020017f626166796265690000000000000000000000000000000000000000000000000081525061197f565b6040518060400160405280600781526020017f6261666b726569000000000000000000000000000000000000000000000000008152505b6040516020016119909291906148a6565b60408051601f19818403018152919052905060026301701220600560006119b9600160206148d5565b905060005b6020811015611a685760006119d4826008614631565b8c901b60f881901c600896871b63ffffff001617959091506119f690876148ec565b95505b83861115611a5757611a0b84876148d5565b955086898787901c851681518110611a2557611a25614827565b602001015160f81c60f81b604051602001611a41929190614904565b60405160208183030381529060405296506119f9565b50611a618161494b565b90506119be565b508315611abe578487611a7b86856148d5565b85901b831681518110611a9057611a90614827565b602001015160f81c60f81b604051602001611aac929190614904565b60405160208183030381529060405294505b509298975050505050505050565b6097546001600160a01b03163314611b265760405162461bcd60e51b815260206004820181905260248201527f4f776e61626c653a2063616c6c6572206973206e6f7420746865206f776e657260448201526064016108cd565b6001600160a01b038116611ba25760405162461bcd60e51b815260206004820152602660248201527f4f776e61626c653a206e6577206f776e657220697320746865207a65726f206160448201527f646472657373000000000000000000000000000000000000000000000000000060648201526084016108cd565b611bab81613392565b50565b6101025415611be35760405162461bcd60e51b81526020600482015260016024820152600360fc1b60448201526064016108cd565b6000805b84811015612cf85736868683818110611c0257611c02614827565b9050602002810190611c149190614966565b905036858584818110611c2957611c29614827565b9050602002810190611c3b919061483d565b8235600090815260ff60205260409020549091506001600160a01b031615611c895760405162461bcd60e51b81526020600482015260016024820152603160f81b60448201526064016108cd565b600080611c9c60c0850160a0860161436e565b6001600160a01b03161415611cbd57611cb8602083018361436e565b611ccd565b611ccd60c0840160a0850161436e565b9050611cdd61014084018461485d565b15159050611eeb5760007fd5c13995ee2c903b8566a2b01173a2e42e98f3821f01841396633b28a9b0cb228435611d1a60e0870160c08801614993565b611d2a60a088016080890161436e565b611d3a60c0890160a08a0161436e565b611d4a60408a0160208b016149ae565b611d5a60608b0160408c016149e0565b611d6a60808c0160608d016149e0565b60408051602081019990995288019690965260ff90941660608701526001600160a01b039283166080870152911660a08501526fffffffffffffffffffffffffffffffff1660c084015267ffffffffffffffff90811660e0848101919091529116610100838101919091529086013561012083810191909152908601356101408301528501356101608201527fc5d2460186f7233c927e7db2dcc703c0e500b653ca82273b7bfad8045d85a4706101808201526101a001604051602081830303815290604052805190602001209050611e4b6097546001600160a01b031690565b6001600160a01b0316611eab611e65610160870187614a0a565b8080601f016020809104026020016040519081016040528093929190818152602001838380828437600092019190915250611ea5925086915061364a9050565b906136b3565b6001600160a01b031614611ee55760405162461bcd60e51b81526020600482015260016024820152601960f91b60448201526064016108cd565b50612996565b60606000805b611eff61014087018761485d565b90508110156127dd576000611f1861014088018861485d565b83818110611f2857611f28614827565b905060600201803603810190611f3e9190614a51565b805190915060ff166120875760208101516001600160a01b0316611faf57604081810151600090815260ff60205220546001600160a01b03163314611faa5760405162461bcd60e51b8152602060048201526002602482015261386160f01b60448201526064016108cd565b612747565b602081015160408083015190517f23250cae000000000000000000000000000000000000000000000000000000008152600481019190915233916001600160a01b0316906323250cae9060240160206040518083038186803b15801561201457600080fd5b505afa158015612028573d6000803e3d6000fd5b505050506040513d601f19601f8201168201806040525081019061204c9190614aba565b6001600160a01b031614611faa5760405162461bcd60e51b8152602060048201526002602482015261386160f01b60448201526064016108cd565b806000015160ff16600114156121c55760208101516001600160a01b03166120fa57604081810151600090815260ff60205220546001600160a01b03868116911614611faa5760405162461bcd60e51b81526020600482015260026024820152611c3160f11b60448201526064016108cd565b846001600160a01b031681602001516001600160a01b03166323250cae83604001516040518263ffffffff1660e01b815260040161213a91815260200190565b60206040518083038186803b15801561215257600080fd5b505afa158015612166573d6000803e3d6000fd5b505050506040513d601f19601f8201168201806040525081019061218a9190614aba565b6001600160a01b031614611faa5760405162461bcd60e51b81526020600482015260026024820152611c3160f11b60448201526064016108cd565b806000015160ff16600214156122f15760208101516001600160a01b031661225457336001600160a01b03166121fe8260400151611084565b6001600160a01b031614611faa5760405162461bcd60e51b815260206004820152600260248201527f396100000000000000000000000000000000000000000000000000000000000060448201526064016108cd565b602081015160408083015190517f6352211e000000000000000000000000000000000000000000000000000000008152600481019190915233916001600160a01b031690636352211e9060240160206040518083038186803b1580156122b957600080fd5b505afa1580156122cd573d6000803e3d6000fd5b505050506040513d601f19601f820116820180604052508101906121fe9190614aba565b806000015160ff16600314156124105760208101516001600160a01b031661238057846001600160a01b031661232a8260400151611084565b6001600160a01b031614611faa5760405162461bcd60e51b815260206004820152600260248201527f396200000000000000000000000000000000000000000000000000000000000060448201526064016108cd565b846001600160a01b031681602001516001600160a01b0316636352211e83604001516040518263ffffffff1660e01b81526004016123c091815260200190565b60206040518083038186803b1580156123d857600080fd5b505afa1580156123ec573d6000803e3d6000fd5b505050506040513d601f19601f8201168201806040525081019061232a9190614aba565b806000015160ff166004141561251e5760208101516001600160a01b031661248e5760408101516124403361119e565b1015611faa5760405162461bcd60e51b815260206004820152600360248201527f313061000000000000000000000000000000000000000000000000000000000060448201526064016108cd565b604081015160208201516001600160a01b03166370a08231336040516001600160e01b031960e084901b1681526001600160a01b03909116600482015260240160206040518083038186803b1580156124e657600080fd5b505afa1580156124fa573d6000803e3d6000fd5b505050506040513d601f19601f820116820180604052508101906124409190614ad7565b806000015160ff166005141561263c5760208101516001600160a01b031661259c57806040015161254e8661119e565b1015611faa5760405162461bcd60e51b815260206004820152600360248201527f313062000000000000000000000000000000000000000000000000000000000060448201526064016108cd565b604080820151602083015191517f70a082310000000000000000000000000000000000000000000000000000000081526001600160a01b038881166004830152919291909116906370a082319060240160206040518083038186803b15801561260457600080fd5b505afa158015612618573d6000803e3d6000fd5b505050506040513d601f19601f8201168201806040525081019061254e9190614ad7565b806000015160ff16600a14156126db57604081015161265b90846148ec565b9250620f42408311156126b05760405162461bcd60e51b815260206004820152600360248201527f313063000000000000000000000000000000000000000000000000000000000060448201526064016108cd565b611faa8160200151620f42408360400151346126cc9190614631565b6126d69190614650565b613115565b806000015160ff16600b1415612747576040805180820182526020808401516001600160a01b039081168352848401516bffffffffffffffffffffffff9081168385019081528c35600090815260fd9094529490922092519351909116600160a01b0292169190911790555b805160208083015160408085015181517fa8429bfd1dd4da6c67a09e5c5a89115acae264879c22f767979685932461d1c28186015260ff909516858301526001600160a01b0390921660608501526080808501929092528051808503909201825260a08401905280519101206127c29186919060c001614af0565b60408051601f19818403018152919052935050600101611ef1565b5060007fd5c13995ee2c903b8566a2b01173a2e42e98f3821f01841396633b28a9b0cb22863561281360e0890160c08a01614993565b61282360a08a0160808b0161436e565b61283360c08b0160a08c0161436e565b61284360408c0160208d016149ae565b61285360608d0160408e016149e0565b61286360808e0160608f016149e0565b8d60e001358e61010001358f61012001358d805190602001206040516020016129149c9b9a999897969594939291909b8c5260208c019a909a5260ff9890981660408b01526001600160a01b0396871660608b01529490951660808901526fffffffffffffffffffffffffffffffff9290921660a088015267ffffffffffffffff90811660c08801521660e08601526101008501919091526101208401526101408301526101608201526101800190565b60405160208183030381529060405280519060200120905061293e6097546001600160a01b031690565b6001600160a01b0316612958611e65610160890189614a0a565b6001600160a01b0316146129925760405162461bcd60e51b81526020600482015260016024820152601960f91b60448201526064016108cd565b5050505b60006129a860a085016080860161436e565b6001600160a01b031614612a1d57336129c760a085016080860161436e565b6001600160a01b031614612a1d5760405162461bcd60e51b815260206004820152600160248201527f330000000000000000000000000000000000000000000000000000000000000060448201526064016108cd565b42612a2e60608501604086016149e0565b67ffffffffffffffff161115612a865760405162461bcd60e51b815260206004820152600160248201527f340000000000000000000000000000000000000000000000000000000000000060448201526064016108cd565b42612a9760808501606086016149e0565b67ffffffffffffffff161015612aef5760405162461bcd60e51b815260206004820152600160248201527f350000000000000000000000000000000000000000000000000000000000000060448201526064016108cd565b61012083013515612b8a576000612b096020840184614a0a565b9050118015612b3e5750610120830135612b266020840184614a0a565b604051612b34929190614b12565b6040518091039020145b612b8a5760405162461bcd60e51b815260206004820152600160248201527f360000000000000000000000000000000000000000000000000000000000000060448201526064016108cd565b60e083013515612bfb57612baf60e0840135612ba96040850185614b22565b336136d7565b612bfb5760405162461bcd60e51b815260206004820152600260248201527f376100000000000000000000000000000000000000000000000000000000000060448201526064016108cd565b61010083013515612c6e57612c22610100840135612c1c6060850185614b22565b846136d7565b612c6e5760405162461bcd60e51b815260206004820152600260248201527f376200000000000000000000000000000000000000000000000000000000000060448201526064016108cd565b612c7e60e0840160c08501614993565b60ff1615612cb957612c9660e0840160c08501614993565b8335600090815260fe60205260409020805460ff191660ff929092169190911790555b612cc48184356133e4565b612cd460408401602085016149ae565b6fffffffffffffffffffffffffffffffff1685019450836001019350505050611be7565b50348114610e875760405162461bcd60e51b815260206004820152600260248201527f313100000000000000000000000000000000000000000000000000000000000060448201526064016108cd565b60006001600160e01b031982167f80ac58cd000000000000000000000000000000000000000000000000000000001480612dab57506001600160e01b031982167f5b5e139f00000000000000000000000000000000000000000000000000000000145b806107c057507f01ffc9a7000000000000000000000000000000000000000000000000000000006001600160e01b03198316146107c0565b600081815260696020526040902080546001600160a01b0319166001600160a01b0384169081179091558190612e1882611084565b6001600160a01b03167f8c5be1e5ebec7d5bd14f71427d1e84f3dd0314c0f7b2291e5b200ac8c7c3b92560405160405180910390a45050565b6000818152606760205260408120546001600160a01b0316612eca5760405162461bcd60e51b815260206004820152602c60248201527f4552433732313a206f70657261746f7220717565727920666f72206e6f6e657860448201526b34b9ba32b73a103a37b5b2b760a11b60648201526084016108cd565b6000612ed583611084565b9050806001600160a01b0316846001600160a01b03161480612f105750836001600160a01b0316612f0584610858565b6001600160a01b0316145b80612f4057506001600160a01b038082166000908152606a602090815260408083209388168352929052205460ff165b949350505050565b826001600160a01b0316612f5b82611084565b6001600160a01b031614612fd75760405162461bcd60e51b815260206004820152602960248201527f4552433732313a207472616e73666572206f6620746f6b656e2074686174206960448201527f73206e6f74206f776e000000000000000000000000000000000000000000000060648201526084016108cd565b6001600160a01b0382166130525760405162461bcd60e51b8152602060048201526024808201527f4552433732313a207472616e7366657220746f20746865207a65726f2061646460448201527f726573730000000000000000000000000000000000000000000000000000000060648201526084016108cd565b61305d600082612de3565b6001600160a01b03831660009081526068602052604081208054600192906130869084906148d5565b90915550506001600160a01b03821660009081526068602052604081208054600192906130b49084906148ec565b909155505060008181526067602052604080822080546001600160a01b0319166001600160a01b0386811691821790925591518493918716917fddf252ad1be2c89b69c2b068fc378daa952ba7f163c4a11628f55a4df523b3ef91a4505050565b600080600080600085875af1905080610a1f576040517f90b8ec1800000000000000000000000000000000000000000000000000000000815260040160405180910390fd5b600054610100900460ff1680613173575060005460ff16155b6131d65760405162461bcd60e51b815260206004820152602e60248201527f496e697469616c697a61626c653a20636f6e747261637420697320616c72656160448201526d191e481a5b9a5d1a585b1a5e995960921b60648201526084016108cd565b600054610100900460ff161580156131f8576000805461ffff19166101011790555b6132006137b5565b6132086137b5565b6132128383613866565b8015610a1f576000805461ff0019169055505050565b600054610100900460ff1680613241575060005460ff16155b6132a45760405162461bcd60e51b815260206004820152602e60248201527f496e697469616c697a61626c653a20636f6e747261637420697320616c72656160448201526d191e481a5b9a5d1a585b1a5e995960921b60648201526084016108cd565b600054610100900460ff161580156132c6576000805461ffff19166101011790555b6132128383613942565b600054610100900460ff16806132e9575060005460ff16155b61334c5760405162461bcd60e51b815260206004820152602e60248201527f496e697469616c697a61626c653a20636f6e747261637420697320616c72656160448201526d191e481a5b9a5d1a585b1a5e995960921b60648201526084016108cd565b600054610100900460ff1615801561336e576000805461ffff19166101011790555b6133766137b5565b61337e613a13565b8015611bab576000805461ff001916905550565b609780546001600160a01b038381166001600160a01b0319831681179093556040519116919082907f8be0079c531659141344cd1fd0a4f28419497f9722a3daafe3b4186f6b6457e090600090a35050565b6001600160a01b03821661343a5760405162461bcd60e51b815260206004820181905260248201527f4552433732313a206d696e7420746f20746865207a65726f206164647265737360448201526064016108cd565b6000818152606760205260409020546001600160a01b03161561349f5760405162461bcd60e51b815260206004820152601c60248201527f4552433732313a20746f6b656e20616c7265616479206d696e7465640000000060448201526064016108cd565b6001600160a01b03821660009081526068602052604081208054600192906134c89084906148ec565b909155505060008181526067602052604080822080546001600160a01b0319166001600160a01b03861690811790915590518392907fddf252ad1be2c89b69c2b068fc378daa952ba7f163c4a11628f55a4df523b3ef908290a45050565b600061353182611084565b905061353e600083612de3565b6001600160a01b03811660009081526068602052604081208054600192906135679084906148d5565b909155505060008281526067602052604080822080546001600160a01b0319169055518391906001600160a01b038416907fddf252ad1be2c89b69c2b068fc378daa952ba7f163c4a11628f55a4df523b3ef908390a45050565b6135cc848484612f48565b6135d884848484613aba565b6117435760405162461bcd60e51b815260206004820152603260248201527f4552433732313a207472616e7366657220746f206e6f6e20455243373231526560448201527f63656976657220696d706c656d656e746572000000000000000000000000000060648201526084016108cd565b60006107c0613657613c1a565b836040517f19010000000000000000000000000000000000000000000000000000000000006020820152602281018390526042810182905260009060620160405160208183030381529060405280519060200120905092915050565b60008060006136c28585613c9a565b915091506136cf81613d07565b509392505050565b6040516bffffffffffffffffffffffff19606083901b166020820152600090819060340160405160208183030381529060405280519060200120905060005b848110156137a957600086868381811061373257613732614827565b9050602002013590508083116137735760408051602081018590529081018290526060016040516020818303038152906040528051906020012092506137a0565b60408051602081018390529081018490526060016040516020818303038152906040528051906020012092505b50600101613716565b50909414949350505050565b600054610100900460ff16806137ce575060005460ff16155b6138315760405162461bcd60e51b815260206004820152602e60248201527f496e697469616c697a61626c653a20636f6e747261637420697320616c72656160448201526d191e481a5b9a5d1a585b1a5e995960921b60648201526084016108cd565b600054610100900460ff1615801561337e576000805461ffff19166101011790558015611bab576000805461ff001916905550565b600054610100900460ff168061387f575060005460ff16155b6138e25760405162461bcd60e51b815260206004820152602e60248201527f496e697469616c697a61626c653a20636f6e747261637420697320616c72656160448201526d191e481a5b9a5d1a585b1a5e995960921b60648201526084016108cd565b600054610100900460ff16158015613904576000805461ffff19166101011790555b825161391790606590602086019061407b565b50815161392b90606690602085019061407b565b508015610a1f576000805461ff0019169055505050565b600054610100900460ff168061395b575060005460ff16155b6139be5760405162461bcd60e51b815260206004820152602e60248201527f496e697469616c697a61626c653a20636f6e747261637420697320616c72656160448201526d191e481a5b9a5d1a585b1a5e995960921b60648201526084016108cd565b600054610100900460ff161580156139e0576000805461ffff19166101011790555b825160208085019190912083519184019190912060c99190915560ca558015610a1f576000805461ff0019169055505050565b600054610100900460ff1680613a2c575060005460ff16155b613a8f5760405162461bcd60e51b815260206004820152602e60248201527f496e697469616c697a61626c653a20636f6e747261637420697320616c72656160448201526d191e481a5b9a5d1a585b1a5e995960921b60648201526084016108cd565b600054610100900460ff16158015613ab1576000805461ffff19166101011790555b61337e33613392565b60006001600160a01b0384163b15613c1257604051630a85bd0160e11b81526001600160a01b0385169063150b7a0290613afe903390899088908890600401614b6c565b602060405180830381600087803b158015613b1857600080fd5b505af1925050508015613b48575060408051601f3d908101601f19168201909252613b4591810190614ba8565b60015b613bf8573d808015613b76576040519150601f19603f3d011682016040523d82523d6000602084013e613b7b565b606091505b508051613bf05760405162461bcd60e51b815260206004820152603260248201527f4552433732313a207472616e7366657220746f206e6f6e20455243373231526560448201527f63656976657220696d706c656d656e746572000000000000000000000000000060648201526084016108cd565b805181602001fd5b6001600160e01b031916630a85bd0160e11b149050612f40565b506001612f40565b6000613c957f8b73c3c69bb8fe3d512ecc4cf759cc79239f7b179b0ffacaa9a75d522b39400f613c4960c95490565b60ca546040805160208101859052908101839052606081018290524660808201523060a082015260009060c0016040516020818303038152906040528051906020012090509392505050565b905090565b600080825160411415613cd15760208301516040840151606085015160001a613cc587828585613ec2565b94509450505050610b10565b825160401415613cfb5760208301516040840151613cf0868383613faf565b935093505050610b10565b50600090506002610b10565b6000816004811115613d1b57613d1b614bc5565b1415613d245750565b6001816004811115613d3857613d38614bc5565b1415613d865760405162461bcd60e51b815260206004820152601860248201527f45434453413a20696e76616c6964207369676e6174757265000000000000000060448201526064016108cd565b6002816004811115613d9a57613d9a614bc5565b1415613de85760405162461bcd60e51b815260206004820152601f60248201527f45434453413a20696e76616c6964207369676e6174757265206c656e6774680060448201526064016108cd565b6003816004811115613dfc57613dfc614bc5565b1415613e555760405162461bcd60e51b815260206004820152602260248201527f45434453413a20696e76616c6964207369676e6174757265202773272076616c604482015261756560f01b60648201526084016108cd565b6004816004811115613e6957613e69614bc5565b1415611bab5760405162461bcd60e51b815260206004820152602260248201527f45434453413a20696e76616c6964207369676e6174757265202776272076616c604482015261756560f01b60648201526084016108cd565b6000807f7fffffffffffffffffffffffffffffff5d576e7357a4501ddfe92f46681b20a0831115613ef95750600090506003613fa6565b8460ff16601b14158015613f1157508460ff16601c14155b15613f225750600090506004613fa6565b6040805160008082526020820180845289905260ff881692820192909252606081018690526080810185905260019060a0016020604051602081039080840390855afa158015613f76573d6000803e3d6000fd5b5050604051601f1901519150506001600160a01b038116613f9f57600060019250925050613fa6565b9150600090505b94509492505050565b6000807f7fffffffffffffffffffffffffffffffffffffffffffffffffffffffffffffff831660ff84901c601b01613fe987828885613ec2565b935093505050935093915050565b828054614003906145e6565b90600052602060002090601f016020900481019282614025576000855561406b565b82601f1061403e5782800160ff1982351617855561406b565b8280016001018555821561406b579182015b8281111561406b578235825591602001919060010190614050565b506140779291506140ef565b5090565b828054614087906145e6565b90600052602060002090601f0160209004810192826140a9576000855561406b565b82601f106140c257805160ff191683800117855561406b565b8280016001018555821561406b579182015b8281111561406b5782518255916020019190600101906140d4565b5b8082111561407757600081556001016140f0565b6001600160e01b031981168114611bab57600080fd5b60006020828403121561412c57600080fd5b813561413781614104565b9392505050565b60005b83811015614159578181015183820152602001614141565b838111156117435750506000910152565b6000815180845261418281602086016020860161413e565b601f01601f19169290920160200192915050565b602081526000614137602083018461416a565b6000602082840312156141bb57600080fd5b5035919050565b6001600160a01b0381168114611bab57600080fd5b600080604083850312156141ea57600080fd5b82356141f5816141c2565b946020939093013593505050565b60008060006060848603121561421857600080fd5b8335614223816141c2565b92506020840135614233816141c2565b929592945050506040919091013590565b6000806040838503121561425757600080fd5b50508035926020909101359150565b60008083601f84011261427857600080fd5b50813567ffffffffffffffff81111561429057600080fd5b602083019150836020828501011115610b1057600080fd5b600080600080604085870312156142be57600080fd5b843567ffffffffffffffff808211156142d657600080fd5b6142e288838901614266565b909650945060208701359150808211156142fb57600080fd5b5061430887828801614266565b95989497509550505050565b60006040828403121561432657600080fd5b50919050565b6000806020838503121561433f57600080fd5b823567ffffffffffffffff81111561435657600080fd5b61436285828601614266565b90969095509350505050565b60006020828403121561438057600080fd5b8135614137816141c2565b60008083601f84011261439d57600080fd5b50813567ffffffffffffffff8111156143b557600080fd5b6020830191508360208260051b8501011115610b1057600080fd5b600080602083850312156143e357600080fd5b823567ffffffffffffffff8111156143fa57600080fd5b6143628582860161438b565b8015158114611bab57600080fd5b6000806040838503121561442757600080fd5b8235614432816141c2565b9150602083013561444281614406565b809150509250929050565b634e487b7160e01b600052604160045260246000fd5b604051601f8201601f1916810167ffffffffffffffff8111828210171561448c5761448c61444d565b604052919050565b600080600080608085870312156144aa57600080fd5b84356144b5816141c2565b93506020858101356144c6816141c2565b935060408601359250606086013567ffffffffffffffff808211156144ea57600080fd5b818801915088601f8301126144fe57600080fd5b8135818111156145105761451061444d565b614522601f8201601f19168501614463565b9150808252898482850101111561453857600080fd5b808484018584013760008482840101525080935050505092959194509250565b6000806040838503121561456b57600080fd5b8235614576816141c2565b91506020830135614442816141c2565b6000806000806040858703121561459c57600080fd5b843567ffffffffffffffff808211156145b457600080fd5b6145c08883890161438b565b909650945060208701359150808211156145d957600080fd5b506143088782880161438b565b600181811c908216806145fa57607f821691505b6020821081141561432657634e487b7160e01b600052602260045260246000fd5b634e487b7160e01b600052601160045260246000fd5b600081600019048311821515161561464b5761464b61461b565b500290565b60008261466d57634e487b7160e01b600052601260045260246000fd5b500490565b8054600090600181811c908083168061468c57607f831692505b60208084108214156146ae57634e487b7160e01b600052602260045260246000fd5b838852602088018280156146c957600181146146da57614705565b60ff19871682528282019750614705565b60008981526020902060005b878110156146ff578154848201529086019084016146e6565b83019850505b5050505050505092915050565b6040815260006147256040830185614672565b82810360208401526147378185614672565b95945050505050565b813561474b816141c2565b6001600160a01b03811690508154816001600160a01b03198216178355602084013561477681614406565b7fffffffffffffffffffffff0000000000000000000000000000000000000000009190911690911790151560a01b74ff00000000000000000000000000000000000000001617905550565b6040810182356147d0816141c2565b6001600160a01b0316825260208301356147e981614406565b80151560208401525092915050565b60208152816020820152818360408301376000818301604090810191909152601f909201601f19160101919050565b634e487b7160e01b600052603260045260246000fd5b60008235607e1983360301811261485357600080fd5b9190910192915050565b6000808335601e1984360301811261487457600080fd5b83018035915067ffffffffffffffff82111561488f57600080fd5b6020019150606081023603821315610b1057600080fd5b600083516148b881846020880161413e565b8351908301906148cc81836020880161413e565b01949350505050565b6000828210156148e7576148e761461b565b500390565b600082198211156148ff576148ff61461b565b500190565b6000835161491681846020880161413e565b7fff00000000000000000000000000000000000000000000000000000000000000939093169190920190815260010192915050565b600060001982141561495f5761495f61461b565b5060010190565b6000823561017e1983360301811261485357600080fd5b803560ff8116811461498e57600080fd5b919050565b6000602082840312156149a557600080fd5b6141378261497d565b6000602082840312156149c057600080fd5b81356fffffffffffffffffffffffffffffffff8116811461413757600080fd5b6000602082840312156149f257600080fd5b813567ffffffffffffffff8116811461413757600080fd5b6000808335601e19843603018112614a2157600080fd5b83018035915067ffffffffffffffff821115614a3c57600080fd5b602001915036819003821315610b1057600080fd5b600060608284031215614a6357600080fd5b6040516060810181811067ffffffffffffffff82111715614a8657614a8661444d565b604052614a928361497d565b81526020830135614aa2816141c2565b60208201526040928301359281019290925250919050565b600060208284031215614acc57600080fd5b8151614137816141c2565b600060208284031215614ae957600080fd5b5051919050565b60008351614b0281846020880161413e565b9190910191825250602001919050565b8183823760009101908152919050565b6000808335601e19843603018112614b3957600080fd5b83018035915067ffffffffffffffff821115614b5457600080fd5b6020019150600581901b3603821315610b1057600080fd5b60006001600160a01b03808716835280861660208401525083604083015260806060830152614b9e608083018461416a565b9695505050505050565b600060208284031215614bba57600080fd5b815161413781614104565b634e487b7160e01b600052602160045260246000fdfea264697066735822122054b6752f464df362422d7f34554de54e2c9f676c1f74b68bcf9a6da37924b2f464736f6c63430008090033",
  "linkReferences": {},
  "deployedLinkReferences": {}
}