{
  "_format": "hh-sol-artifact-1",
  "contractName": "C0",
  "sourceName": "contracts/C0.sol",
  "abi": [
    {
      "anonymous": false,
      "inputs": [
        {
          "indexed": true,
          "internalType": "address",
          "name": "owner",
          "type": "address"
        },
        {
          "indexed": true,
          "internalType": "address",
          "name": "approved",
          "type": "address"
        },
        {
          "indexed": true,
          "internalType": "uint256",
          "name": "tokenId",
          "type": "uint256"
        }
      ],
      "name": "Approval",
      "type": "event"
    },
    {
      "anonymous": false,
      "inputs": [
        {
          "indexed": true,
          "internalType": "address",
          "name": "owner",
          "type": "address"
        },
        {
          "indexed": true,
          "internalType": "address",
          "name": "operator",
          "type": "address"
        },
        {
          "indexed": false,
          "internalType": "bool",
          "name": "approved",
          "type": "bool"
        }
      ],
      "name": "ApprovalForAll",
      "type": "event"
    },
    {
      "anonymous": false,
      "inputs": [
        {
          "indexed": false,
          "internalType": "string",
          "name": "uri",
          "type": "string"
        }
      ],
      "name": "BaseURIUpdated",
      "type": "event"
    },
    {
      "anonymous": false,
      "inputs": [
        {
          "indexed": false,
          "internalType": "string",
          "name": "name",
          "type": "string"
        },
        {
          "indexed": false,
          "internalType": "string",
          "name": "symbol",
          "type": "string"
        }
      ],
      "name": "NSUpdated",
      "type": "event"
    },
    {
      "anonymous": false,
      "inputs": [
        {
          "indexed": true,
          "internalType": "address",
          "name": "previousOwner",
          "type": "address"
        },
        {
          "indexed": true,
          "internalType": "address",
          "name": "newOwner",
          "type": "address"
        }
      ],
      "name": "OwnershipTransferred",
      "type": "event"
    },
    {
      "anonymous": false,
      "inputs": [
        {
          "indexed": true,
          "internalType": "uint256",
          "name": "state",
          "type": "uint256"
        }
      ],
      "name": "StateUpdated",
      "type": "event"
    },
    {
      "anonymous": false,
      "inputs": [
        {
          "indexed": true,
          "internalType": "address",
          "name": "from",
          "type": "address"
        },
        {
          "indexed": true,
          "internalType": "address",
          "name": "to",
          "type": "address"
        },
        {
          "indexed": true,
          "internalType": "uint256",
          "name": "tokenId",
          "type": "uint256"
        }
      ],
      "name": "Transfer",
      "type": "event"
    },
    {
      "anonymous": false,
      "inputs": [
        {
          "components": [
            {
              "internalType": "address",
              "name": "account",
              "type": "address"
            },
            {
              "internalType": "bool",
              "name": "permanent",
              "type": "bool"
            }
          ],
          "indexed": false,
          "internalType": "struct C0.Withdrawer",
          "name": "withdrawer",
          "type": "tuple"
        }
      ],
      "name": "WithdrawerUpdated",
      "type": "event"
    },
    {
      "inputs": [],
      "name": "BODY_TYPE_HASH",
      "outputs": [
        {
          "internalType": "bytes32",
          "name": "",
          "type": "bytes32"
        }
      ],
      "stateMutability": "view",
      "type": "function"
    },
    {
      "inputs": [
        {
          "internalType": "address",
          "name": "to",
          "type": "address"
        },
        {
          "internalType": "uint256",
          "name": "tokenId",
          "type": "uint256"
        }
      ],
      "name": "approve",
      "outputs": [],
      "stateMutability": "nonpayable",
      "type": "function"
    },
    {
      "inputs": [
        {
          "internalType": "address",
          "name": "owner",
          "type": "address"
        }
      ],
      "name": "balanceOf",
      "outputs": [
        {
          "internalType": "uint256",
          "name": "",
          "type": "uint256"
        }
      ],
      "stateMutability": "view",
      "type": "function"
    },
    {
      "inputs": [],
      "name": "baseURI",
      "outputs": [
        {
          "internalType": "string",
          "name": "",
          "type": "string"
        }
      ],
      "stateMutability": "view",
      "type": "function"
    },
    {
      "inputs": [
        {
          "internalType": "uint256",
          "name": "_tokenId",
          "type": "uint256"
        }
      ],
      "name": "burn",
      "outputs": [],
      "stateMutability": "nonpayable",
      "type": "function"
    },
    {
      "inputs": [
        {
          "internalType": "uint256",
          "name": "tokenId",
          "type": "uint256"
        }
      ],
      "name": "getApproved",
      "outputs": [
        {
          "internalType": "address",
          "name": "",
          "type": "address"
        }
      ],
      "stateMutability": "view",
      "type": "function"
    },
    {
      "inputs": [
        {
          "components": [
            {
              "internalType": "uint256",
              "name": "id",
              "type": "uint256"
            },
            {
              "internalType": "address",
              "name": "receiver",
              "type": "address"
            },
            {
              "internalType": "address",
              "name": "royaltyReceiver",
              "type": "address"
            },
            {
              "internalType": "uint96",
              "name": "royaltyAmount",
              "type": "uint96"
            },
            {
              "internalType": "bool",
              "name": "raw",
              "type": "bool"
            }
          ],
          "internalType": "struct C0.Gift[]",
          "name": "gifts",
          "type": "tuple[]"
        }
      ],
      "name": "gift",
      "outputs": [],
      "stateMutability": "payable",
      "type": "function"
    },
    {
      "inputs": [
        {
          "internalType": "string",
          "name": "name",
          "type": "string"
        },
        {
          "internalType": "string",
          "name": "symbol",
          "type": "string"
        }
      ],
      "name": "initialize",
      "outputs": [],
      "stateMutability": "nonpayable",
      "type": "function"
    },
    {
      "inputs": [
        {
          "internalType": "address",
          "name": "owner",
          "type": "address"
        },
        {
          "internalType": "address",
          "name": "operator",
          "type": "address"
        }
      ],
      "name": "isApprovedForAll",
      "outputs": [
        {
          "internalType": "bool",
          "name": "",
          "type": "bool"
        }
      ],
      "stateMutability": "view",
      "type": "function"
    },
    {
      "inputs": [],
      "name": "name",
      "outputs": [
        {
          "internalType": "string",
          "name": "",
          "type": "string"
        }
      ],
      "stateMutability": "view",
      "type": "function"
    },
    {
      "inputs": [],
      "name": "owner",
      "outputs": [
        {
          "internalType": "address",
          "name": "",
          "type": "address"
        }
      ],
      "stateMutability": "view",
      "type": "function"
    },
    {
      "inputs": [
        {
          "internalType": "uint256",
          "name": "tokenId",
          "type": "uint256"
        }
      ],
      "name": "ownerOf",
      "outputs": [
        {
          "internalType": "address",
          "name": "",
          "type": "address"
        }
      ],
      "stateMutability": "view",
      "type": "function"
    },
    {
      "inputs": [],
      "name": "renounceOwnership",
      "outputs": [],
      "stateMutability": "nonpayable",
      "type": "function"
    },
    {
      "inputs": [
        {
          "internalType": "uint256",
          "name": "",
          "type": "uint256"
        }
      ],
      "name": "royalty",
      "outputs": [
        {
          "internalType": "address",
          "name": "receiver",
          "type": "address"
        },
        {
          "internalType": "uint96",
          "name": "amount",
          "type": "uint96"
        }
      ],
      "stateMutability": "view",
      "type": "function"
    },
    {
      "inputs": [
        {
          "internalType": "uint256",
          "name": "tokenId",
          "type": "uint256"
        },
        {
          "internalType": "uint256",
          "name": "value",
          "type": "uint256"
        }
      ],
      "name": "royaltyInfo",
      "outputs": [
        {
          "internalType": "address",
          "name": "receiver",
          "type": "address"
        },
        {
          "internalType": "uint256",
          "name": "royaltyAmount",
          "type": "uint256"
        }
      ],
      "stateMutability": "view",
      "type": "function"
    },
    {
      "inputs": [
        {
          "internalType": "address",
          "name": "from",
          "type": "address"
        },
        {
          "internalType": "address",
          "name": "to",
          "type": "address"
        },
        {
          "internalType": "uint256",
          "name": "tokenId",
          "type": "uint256"
        }
      ],
      "name": "safeTransferFrom",
      "outputs": [],
      "stateMutability": "nonpayable",
      "type": "function"
    },
    {
      "inputs": [
        {
          "internalType": "address",
          "name": "from",
          "type": "address"
        },
        {
          "internalType": "address",
          "name": "to",
          "type": "address"
        },
        {
          "internalType": "uint256",
          "name": "tokenId",
          "type": "uint256"
        },
        {
          "internalType": "bytes",
          "name": "_data",
          "type": "bytes"
        }
      ],
      "name": "safeTransferFrom",
      "outputs": [],
      "stateMutability": "nonpayable",
      "type": "function"
    },
    {
      "inputs": [
        {
          "internalType": "address",
          "name": "operator",
          "type": "address"
        },
        {
          "internalType": "bool",
          "name": "approved",
          "type": "bool"
        }
      ],
      "name": "setApprovalForAll",
      "outputs": [],
      "stateMutability": "nonpayable",
      "type": "function"
    },
    {
      "inputs": [
        {
          "internalType": "string",
          "name": "b",
          "type": "string"
        }
      ],
      "name": "setBaseURI",
      "outputs": [],
      "stateMutability": "nonpayable",
      "type": "function"
    },
    {
      "inputs": [
        {
          "internalType": "string",
          "name": "name_",
          "type": "string"
        },
        {
          "internalType": "string",
          "name": "symbol_",
          "type": "string"
        }
      ],
      "name": "setNS",
      "outputs": [],
      "stateMutability": "nonpayable",
      "type": "function"
    },
    {
      "inputs": [
        {
          "internalType": "uint256",
          "name": "_state",
          "type": "uint256"
        }
      ],
      "name": "setState",
      "outputs": [],
      "stateMutability": "nonpayable",
      "type": "function"
    },
    {
      "inputs": [
        {
          "components": [
            {
              "internalType": "address",
              "name": "account",
              "type": "address"
            },
            {
              "internalType": "bool",
              "name": "permanent",
              "type": "bool"
            }
          ],
          "internalType": "struct C0.Withdrawer",
          "name": "_withdrawer",
          "type": "tuple"
        }
      ],
      "name": "setWithdrawer",
      "outputs": [],
      "stateMutability": "nonpayable",
      "type": "function"
    },
    {
      "inputs": [],
      "name": "state",
      "outputs": [
        {
          "internalType": "uint256",
          "name": "",
          "type": "uint256"
        }
      ],
      "stateMutability": "view",
      "type": "function"
    },
    {
      "inputs": [
        {
          "internalType": "bytes4",
          "name": "interfaceId",
          "type": "bytes4"
        }
      ],
      "name": "supportsInterface",
      "outputs": [
        {
          "internalType": "bool",
          "name": "",
          "type": "bool"
        }
      ],
      "stateMutability": "view",
      "type": "function"
    },
    {
      "inputs": [],
      "name": "symbol",
      "outputs": [
        {
          "internalType": "string",
          "name": "",
          "type": "string"
        }
      ],
      "stateMutability": "view",
      "type": "function"
    },
    {
      "inputs": [
        {
          "components": [
            {
              "internalType": "uint256",
              "name": "id",
              "type": "uint256"
            },
            {
              "internalType": "uint128",
              "name": "value",
              "type": "uint128"
            },
            {
              "internalType": "uint64",
              "name": "start",
              "type": "uint64"
            },
            {
              "internalType": "uint64",
              "name": "end",
              "type": "uint64"
            },
            {
              "internalType": "bool",
              "name": "raw",
              "type": "bool"
            },
            {
              "internalType": "address",
              "name": "sender",
              "type": "address"
            },
            {
              "internalType": "address",
              "name": "receiver",
              "type": "address"
            },
            {
              "internalType": "address",
              "name": "royaltyReceiver",
              "type": "address"
            },
            {
              "internalType": "uint96",
              "name": "royaltyAmount",
              "type": "uint96"
            },
            {
              "internalType": "bytes32",
              "name": "merkleHash",
              "type": "bytes32"
            },
            {
              "internalType": "bytes32",
              "name": "puzzleHash",
              "type": "bytes32"
            },
            {
              "internalType": "bytes",
              "name": "signature",
              "type": "bytes"
            }
          ],
          "internalType": "struct C0.Body[]",
          "name": "bodies",
          "type": "tuple[]"
        },
        {
          "components": [
            {
              "internalType": "bytes",
              "name": "puzzle",
              "type": "bytes"
            },
            {
              "internalType": "bytes32[]",
              "name": "merkle",
              "type": "bytes32[]"
            }
          ],
          "internalType": "struct C0.Proof[]",
          "name": "proofs",
          "type": "tuple[]"
        }
      ],
      "name": "token",
      "outputs": [],
      "stateMutability": "payable",
      "type": "function"
    },
    {
      "inputs": [
        {
          "internalType": "uint256",
          "name": "tokenId",
          "type": "uint256"
        }
      ],
      "name": "tokenURI",
      "outputs": [
        {
          "internalType": "string",
          "name": "",
          "type": "string"
        }
      ],
      "stateMutability": "view",
      "type": "function"
    },
    {
      "inputs": [
        {
          "internalType": "address",
          "name": "from",
          "type": "address"
        },
        {
          "internalType": "address",
          "name": "to",
          "type": "address"
        },
        {
          "internalType": "uint256",
          "name": "tokenId",
          "type": "uint256"
        }
      ],
      "name": "transferFrom",
      "outputs": [],
      "stateMutability": "nonpayable",
      "type": "function"
    },
    {
      "inputs": [
        {
          "internalType": "address",
          "name": "newOwner",
          "type": "address"
        }
      ],
      "name": "transferOwnership",
      "outputs": [],
      "stateMutability": "nonpayable",
      "type": "function"
    },
    {
      "inputs": [
        {
          "internalType": "uint256",
          "name": "value",
          "type": "uint256"
        }
      ],
      "name": "withdraw",
      "outputs": [],
      "stateMutability": "payable",
      "type": "function"
    },
    {
      "inputs": [],
      "name": "withdrawer",
      "outputs": [
        {
          "internalType": "address",
          "name": "account",
          "type": "address"
        },
        {
          "internalType": "bool",
          "name": "permanent",
          "type": "bool"
        }
      ],
      "stateMutability": "view",
      "type": "function"
    },
    {
      "stateMutability": "payable",
      "type": "receive"
    }
  ],
  "bytecode": "0x608060405234801561001057600080fd5b50613fc4806100206000396000f3fe6080604052600436106101dc5760003560e01c80636c0360eb11610102578063b88d4fde11610095578063cdc1842411610064578063cdc1842414610567578063e814cb71146105b3578063e985e9c51461062c578063f2fde38b1461067557600080fd5b8063b88d4fde146104dc578063c19d93fb146104fc578063c87b56dd14610513578063ccc0b1ec1461053357600080fd5b806395d89b41116100d157806395d89b411461047457806397f300a214610489578063a22cb4651461049c578063a9e966b7146104bc57600080fd5b80636c0360eb146103fe57806370a0823114610413578063715018a6146104415780638da5cb5b1461045657600080fd5b8063316e2df01161017a5780634cd88b76116101495780634cd88b761461037e5780634fc41a421461039e57806355f804b3146103be5780636352211e146103de57600080fd5b8063316e2df01461030b57806335c938851461031e57806342842e0e1461033e57806342966c681461035e57600080fd5b8063095ea7b3116101b6578063095ea7b31461027757806323b872dd146102995780632a55205a146102b95780632e1a7d4d146102f857600080fd5b806301ffc9a7146101e857806306fdde031461021d578063081812fc1461023f57600080fd5b366101e357005b600080fd5b3480156101f457600080fd5b50610208610203366004613920565b610695565b60405190151581526020015b60405180910390f35b34801561022957600080fd5b506102326106d9565b6040516102149190613c84565b34801561024b57600080fd5b5061025f61025a366004613a3c565b61076b565b6040516001600160a01b039091168152602001610214565b34801561028357600080fd5b50610297610292366004613800565b610805565b005b3480156102a557600080fd5b506102976102b43660046136ba565b610937565b3480156102c557600080fd5b506102d96102d4366004613a54565b6109bf565b604080516001600160a01b039093168352602083019190915201610214565b610297610306366004613a3c565b610a2a565b610297610319366004613894565b610b8b565b34801561032a57600080fd5b50610297610339366004613998565b610ce3565b34801561034a57600080fd5b506102976103593660046136ba565b610de9565b34801561036a57600080fd5b50610297610379366004613a3c565b610e04565b34801561038a57600080fd5b50610297610399366004613998565b610e7d565b3480156103aa57600080fd5b506102976103b93660046139f5565b611007565b3480156103ca57600080fd5b506102976103d9366004613958565b611107565b3480156103ea57600080fd5b5061025f6103f9366004613a3c565b6111fd565b34801561040a57600080fd5b50610232611288565b34801561041f57600080fd5b5061043361042e36600461365f565b611317565b604051908152602001610214565b34801561044d57600080fd5b506102976113b1565b34801561046257600080fd5b506097546001600160a01b031661025f565b34801561048057600080fd5b50610232611417565b61029761049736600461382b565b611426565b3480156104a857600080fd5b506102976104b73660046137d3565b611afc565b3480156104c857600080fd5b506102976104d7366004613a3c565b611bc1565b3480156104e857600080fd5b506102976104f73660046136fa565b611ca3565b34801561050857600080fd5b506104336101025481565b34801561051f57600080fd5b5061023261052e366004613a3c565b611d31565b34801561053f57600080fd5b506104337fef88a383de8f188202770ab519a3f48557e9ce061b94bc6c69dcf13f19288d2b81565b34801561057357600080fd5b5061010054610594906001600160a01b03811690600160a01b900460ff1682565b604080516001600160a01b039093168352901515602083015201610214565b3480156105bf57600080fd5b506106006105ce366004613a3c565b60fd602052600090815260409020546001600160a01b03811690600160a01b90046bffffffffffffffffffffffff1682565b604080516001600160a01b0390931683526bffffffffffffffffffffffff909116602083015201610214565b34801561063857600080fd5b50610208610647366004613682565b6001600160a01b039182166000908152606a6020908152604080832093909416825291909152205460ff1690565b34801561068157600080fd5b5061029761069036600461365f565b6120a9565b60007f2a55205a000000000000000000000000000000000000000000000000000000006001600160e01b0319831614806106d357506106d38261218b565b92915050565b6060606580546106e890613e58565b80601f016020809104026020016040519081016040528092919081815260200182805461071490613e58565b80156107615780601f1061073657610100808354040283529160200191610761565b820191906000526020600020905b81548152906001019060200180831161074457829003601f168201915b5050505050905090565b6000818152606760205260408120546001600160a01b03166107e95760405162461bcd60e51b815260206004820152602c60248201527f4552433732313a20617070726f76656420717565727920666f72206e6f6e657860448201526b34b9ba32b73a103a37b5b2b760a11b60648201526084015b60405180910390fd5b506000908152606960205260409020546001600160a01b031690565b6000610810826111fd565b9050806001600160a01b0316836001600160a01b0316141561089a5760405162461bcd60e51b815260206004820152602160248201527f4552433732313a20617070726f76616c20746f2063757272656e74206f776e6560448201527f720000000000000000000000000000000000000000000000000000000000000060648201526084016107e0565b336001600160a01b03821614806108b657506108b68133610647565b6109285760405162461bcd60e51b815260206004820152603860248201527f4552433732313a20617070726f76652063616c6c6572206973206e6f74206f7760448201527f6e6572206e6f7220617070726f76656420666f7220616c6c000000000000000060648201526084016107e0565b6109328383612226565b505050565b610942335b82612294565b6109b45760405162461bcd60e51b815260206004820152603160248201527f4552433732313a207472616e736665722063616c6c6572206973206e6f74206f60448201527f776e6572206e6f7220617070726f76656400000000000000000000000000000060648201526084016107e0565b61093283838361238b565b600082815260fd602090815260408083208151808301909252546001600160a01b038116808352600160a01b9091046bffffffffffffffffffffffff169282018390528392620f424090610a139087613df6565b610a1d9190613dd6565b92509250505b9250929050565b6097546001600160a01b0316331480610a575750610100546001600160a01b0316336001600160a01b0316145b610aa35760405162461bcd60e51b815260206004820152600260248201527f313200000000000000000000000000000000000000000000000000000000000060448201526064016107e0565b6000808211610ab25747610ab4565b815b610100549091506000906001600160a01b031615610ade57610100546001600160a01b0316610aeb565b6097546001600160a01b03165b6001600160a01b03168260405160006040518083038185875af1925050503d8060008114610b35576040519150601f19603f3d011682016040523d82523d6000602084013e610b3a565b606091505b50509050806109325760405162461bcd60e51b815260206004820152600260248201527f313300000000000000000000000000000000000000000000000000000000000060448201526064016107e0565b6097546001600160a01b03163314610be55760405162461bcd60e51b815260206004820181905260248201527f4f776e61626c653a2063616c6c6572206973206e6f7420746865206f776e657260448201526064016107e0565b60005b818110156109325736838383818110610c1157634e487b7160e01b600052603260045260246000fd5b905060a002019050610c36816020016020810190610c2f919061365f565b8235612558565b6000610c48606083016040840161365f565b6001600160a01b031614610cda576040518060400160405280826040016020810190610c74919061365f565b6001600160a01b03168152602001610c926080840160608501613a9d565b6bffffffffffffffffffffffff9081169091528235600090815260fd6020908152604090912083519390910151909116600160a01b026001600160a01b039092169190911790555b50600101610be8565b6097546001600160a01b03163314610d3d5760405162461bcd60e51b815260206004820181905260248201527f4f776e61626c653a2063616c6c6572206973206e6f7420746865206f776e657260448201526064016107e0565b6101025415610d8e5760405162461bcd60e51b815260206004820152600260248201527f313600000000000000000000000000000000000000000000000000000000000060448201526064016107e0565b610d9a606585856134cf565b50610da7606683836134cf565b507f934066d47a89bfcab72db908a0701b9145131ee303cefb44553121c73419e8dd60656066604051610ddb929190613c97565b60405180910390a150505050565b61093283838360405180602001604052806000815250611ca3565b610e0d3361093c565b610e595760405162461bcd60e51b815260206004820152600160248201527f390000000000000000000000000000000000000000000000000000000000000060448201526064016107e0565b610e6281612576565b600090815260ff60205260409020805460ff19166001179055565b600054610100900460ff1680610e96575060005460ff16155b610ef95760405162461bcd60e51b815260206004820152602e60248201527f496e697469616c697a61626c653a20636f6e747261637420697320616c72656160448201526d191e481a5b9a5d1a585b1a5e995960921b60648201526084016107e0565b600054610100900460ff16158015610f1b576000805461ffff19166101011790555b610f8e85858080601f01602080910402602001604051908101604052809392919081815260200183838082843760009201919091525050604080516020601f8901819004810282018101909252878152925087915086908190840183828082843760009201919091525061261192505050565b610fe685858080601f016020809104026020016040519081016040528093929190818152602001838380828437600092019190915250506040805180820190915260018152603160f81b602082015291506126df9050565b610fee612787565b8015611000576000805461ff00191690555b5050505050565b6097546001600160a01b031633146110615760405162461bcd60e51b815260206004820181905260248201527f4f776e61626c653a2063616c6c6572206973206e6f7420746865206f776e657260448201526064016107e0565b61010054600160a01b900460ff16156110bc5760405162461bcd60e51b815260206004820152600260248201527f313100000000000000000000000000000000000000000000000000000000000060448201526064016107e0565b806101006110ca8282613ed4565b9050507f5d121f0c2b2c4877a2b0a1457c73ce1c28628e5705271cb91db3e49792715cf5816040516110fc9190613cc5565b60405180910390a150565b6097546001600160a01b031633146111615760405162461bcd60e51b815260206004820181905260248201527f4f776e61626c653a2063616c6c6572206973206e6f7420746865206f776e657260448201526064016107e0565b61010254156111b25760405162461bcd60e51b815260206004820152600260248201527f313500000000000000000000000000000000000000000000000000000000000060448201526064016107e0565b6111bf61010183836134cf565b507f6741b2fc379fad678116fe3d4d4b9a1a184ab53ba36b86ad0fa66340b1ab41ad82826040516111f1929190613c55565b60405180910390a15050565b6000818152606760205260408120546001600160a01b0316806106d35760405162461bcd60e51b815260206004820152602960248201527f4552433732313a206f776e657220717565727920666f72206e6f6e657869737460448201527f656e7420746f6b656e000000000000000000000000000000000000000000000060648201526084016107e0565b610101805461129690613e58565b80601f01602080910402602001604051908101604052809291908181526020018280546112c290613e58565b801561130f5780601f106112e45761010080835404028352916020019161130f565b820191906000526020600020905b8154815290600101906020018083116112f257829003601f168201915b505050505081565b60006001600160a01b0382166113955760405162461bcd60e51b815260206004820152602a60248201527f4552433732313a2062616c616e636520717565727920666f7220746865207a6560448201527f726f20616464726573730000000000000000000000000000000000000000000060648201526084016107e0565b506001600160a01b031660009081526068602052604090205490565b6097546001600160a01b0316331461140b5760405162461bcd60e51b815260206004820181905260248201527f4f776e61626c653a2063616c6c6572206973206e6f7420746865206f776e657260448201526064016107e0565b6114156000612849565b565b6060606680546106e890613e58565b61010254156114775760405162461bcd60e51b815260206004820152600160248201527f300000000000000000000000000000000000000000000000000000000000000060448201526064016107e0565b6000805b84811015611aac57368686838181106114a457634e487b7160e01b600052603260045260246000fd5b90506020028101906114b69190613d89565b9050368585848181106114d957634e487b7160e01b600052603260045260246000fd5b90506020028101906114eb9190613da9565b8235600090815260ff6020819052604090912054919250161561150d57600080fd5b60007fef88a383de8f188202770ab519a3f48557e9ce061b94bc6c69dcf13f19288d2b833561154260a0860160808701613904565b61155260c0870160a0880161365f565b61156260e0880160c0890161365f565b6115726040890160208a01613a0c565b61158260608a0160408b01613a75565b61159260808b0160608c01613a75565b6115a36101008c0160e08d0161365f565b6115b56101208d016101008e01613a9d565b60408051602081019b909b528a019890985295151560608901526001600160a01b03948516608089015292841660a08801526fffffffffffffffffffffffffffffffff90911660c087015267ffffffffffffffff90811660e08701521661010085015216610120838101919091526bffffffffffffffffffffffff90911661014083810191909152908501356101608301528401356101808201526101a00160405160208183030381529060405280519060200120905061167e6097546001600160a01b031690565b6001600160a01b03166116de611698610160860186613d44565b8080601f0160208091040260200160405190810160405280939291908181526020018383808284376000920191909152506116d8925086915061289b9050565b90612904565b6001600160a01b0316146117185760405162461bcd60e51b81526020600482015260016024820152603160f81b60448201526064016107e0565b600061172a60c0850160a0860161365f565b6001600160a01b03161461179f573361174960c0850160a0860161365f565b6001600160a01b03161461179f5760405162461bcd60e51b815260206004820152600160248201527f320000000000000000000000000000000000000000000000000000000000000060448201526064016107e0565b426117b06060850160408601613a75565b67ffffffffffffffff1611156118085760405162461bcd60e51b815260206004820152600160248201527f330000000000000000000000000000000000000000000000000000000000000060448201526064016107e0565b426118196080850160608601613a75565b67ffffffffffffffff1610156118715760405162461bcd60e51b815260206004820152600160248201527f340000000000000000000000000000000000000000000000000000000000000060448201526064016107e0565b610140830135156119065760006118888380613d44565b90501180156118ba57506101408301356118a28380613d44565b6040516118b0929190613b93565b6040518091039020145b6119065760405162461bcd60e51b815260206004820152600160248201527f350000000000000000000000000000000000000000000000000000000000000060448201526064016107e0565b610120830135156119925760006119206020840184613cfc565b905011801561194657506119466101208401356119406020850185613cfc565b33612928565b6119925760405162461bcd60e51b815260206004820152600160248201527f360000000000000000000000000000000000000000000000000000000000000060448201526064016107e0565b6119d360006119a760e0860160c0870161365f565b6001600160a01b0316146119ca576119c560e0850160c0860161365f565b6119cc565b335b8435612a14565b60006119e6610100850160e0860161365f565b6001600160a01b031614611a78576040805180820190915280611a10610100860160e0870161365f565b6001600160a01b03168152602001611a3061012086016101008701613a9d565b6bffffffffffffffffffffffff9081169091528435600090815260fd6020908152604090912083519390910151909116600160a01b026001600160a01b039092169190911790555b611a886040840160208501613a0c565b6fffffffffffffffffffffffffffffffff168501945083600101935050505061147b565b503481146110005760405162461bcd60e51b815260206004820152600160248201527f380000000000000000000000000000000000000000000000000000000000000060448201526064016107e0565b6001600160a01b038216331415611b555760405162461bcd60e51b815260206004820152601960248201527f4552433732313a20617070726f766520746f2063616c6c65720000000000000060448201526064016107e0565b336000818152606a602090815260408083206001600160a01b03871680855290835292819020805460ff191686151590811790915590519081529192917f17307eab39ab6107e8899845ad3d59bd9653f200f220920489ca2b5937696c31910160405180910390a35050565b6097546001600160a01b03163314611c1b5760405162461bcd60e51b815260206004820181905260248201527f4f776e61626c653a2063616c6c6572206973206e6f7420746865206f776e657260448201526064016107e0565b6101025460021415611c6f5760405162461bcd60e51b815260206004820152600260248201527f313400000000000000000000000000000000000000000000000000000000000060448201526064016107e0565b61010281905560405181907f118f8ba10d647100925b2343f3030d110623f17b284ced4316cbe4b8f138883f90600090a250565b611cad3383612294565b611d1f5760405162461bcd60e51b815260206004820152603160248201527f4552433732313a207472616e736665722063616c6c6572206973206e6f74206f60448201527f776e6572206e6f7220617070726f76656400000000000000000000000000000060648201526084016107e0565b611d2b84848484612b56565b50505050565b6000818152606760205260409020546060906001600160a01b0316611d985760405162461bcd60e51b815260206004820152600260248201527f313000000000000000000000000000000000000000000000000000000000000060448201526064016107e0565b6040805180820190915260208082527f6162636465666768696a6b6c6d6e6f707172737475767778797a323334353637908201526101018054849291600091829190611de390613e58565b905011611e25576040518060400160405280600781526020017f697066733a2f2f00000000000000000000000000000000000000000000000000815250611eb2565b6101018054611e3390613e58565b80601f0160208091040260200160405190810160405280929190818152602001828054611e5f90613e58565b8015611eac5780601f10611e8157610100808354040283529160200191611eac565b820191906000526020600020905b815481529060010190602001808311611e8f57829003601f168201915b50505050505b600086815260fe602052604081205491925090829060ff16611f09576040518060400160405280600781526020017f6261667962656900000000000000000000000000000000000000000000000000815250611f40565b6040518060400160405280600781526020017f6261666b726569000000000000000000000000000000000000000000000000008152505b604051602001611f51929190613bea565b60408051601f1981840301815291905290506002630170122060056000611f7a60016020613e15565b905060005b6020811015612037576000611f95826008613df6565b8c901b60f881901c600896871b63ffffff00161795909150611fb79087613dbe565b95505b8386111561202657611fcc8487613e15565b955086898787901c851681518110611ff457634e487b7160e01b600052603260045260246000fd5b602001015160f81c60f81b604051602001612010929190613ba3565b6040516020818303038152906040529650611fba565b5061203081613e8d565b9050611f7f565b50831561209b57848761204a8685613e15565b85901b83168151811061206d57634e487b7160e01b600052603260045260246000fd5b602001015160f81c60f81b604051602001612089929190613ba3565b60405160208183030381529060405294505b509298975050505050505050565b6097546001600160a01b031633146121035760405162461bcd60e51b815260206004820181905260248201527f4f776e61626c653a2063616c6c6572206973206e6f7420746865206f776e657260448201526064016107e0565b6001600160a01b03811661217f5760405162461bcd60e51b815260206004820152602660248201527f4f776e61626c653a206e6577206f776e657220697320746865207a65726f206160448201527f646472657373000000000000000000000000000000000000000000000000000060648201526084016107e0565b61218881612849565b50565b60006001600160e01b031982167f80ac58cd0000000000000000000000000000000000000000000000000000000014806121ee57506001600160e01b031982167f5b5e139f00000000000000000000000000000000000000000000000000000000145b806106d357507f01ffc9a7000000000000000000000000000000000000000000000000000000006001600160e01b03198316146106d3565b600081815260696020526040902080546001600160a01b0319166001600160a01b038416908117909155819061225b826111fd565b6001600160a01b03167f8c5be1e5ebec7d5bd14f71427d1e84f3dd0314c0f7b2291e5b200ac8c7c3b92560405160405180910390a45050565b6000818152606760205260408120546001600160a01b031661230d5760405162461bcd60e51b815260206004820152602c60248201527f4552433732313a206f70657261746f7220717565727920666f72206e6f6e657860448201526b34b9ba32b73a103a37b5b2b760a11b60648201526084016107e0565b6000612318836111fd565b9050806001600160a01b0316846001600160a01b031614806123535750836001600160a01b03166123488461076b565b6001600160a01b0316145b8061238357506001600160a01b038082166000908152606a602090815260408083209388168352929052205460ff165b949350505050565b826001600160a01b031661239e826111fd565b6001600160a01b03161461241a5760405162461bcd60e51b815260206004820152602960248201527f4552433732313a207472616e73666572206f6620746f6b656e2074686174206960448201527f73206e6f74206f776e000000000000000000000000000000000000000000000060648201526084016107e0565b6001600160a01b0382166124955760405162461bcd60e51b8152602060048201526024808201527f4552433732313a207472616e7366657220746f20746865207a65726f2061646460448201527f726573730000000000000000000000000000000000000000000000000000000060648201526084016107e0565b6124a0600082612226565b6001600160a01b03831660009081526068602052604081208054600192906124c9908490613e15565b90915550506001600160a01b03821660009081526068602052604081208054600192906124f7908490613dbe565b909155505060008181526067602052604080822080546001600160a01b0319166001600160a01b0386811691821790925591518493918716917fddf252ad1be2c89b69c2b068fc378daa952ba7f163c4a11628f55a4df523b3ef91a4505050565b612572828260405180602001604052806000815250612bd4565b5050565b6000612581826111fd565b905061258e600083612226565b6001600160a01b03811660009081526068602052604081208054600192906125b7908490613e15565b909155505060008281526067602052604080822080546001600160a01b0319169055518391906001600160a01b038416907fddf252ad1be2c89b69c2b068fc378daa952ba7f163c4a11628f55a4df523b3ef908390a45050565b600054610100900460ff168061262a575060005460ff16155b61268d5760405162461bcd60e51b815260206004820152602e60248201527f496e697469616c697a61626c653a20636f6e747261637420697320616c72656160448201526d191e481a5b9a5d1a585b1a5e995960921b60648201526084016107e0565b600054610100900460ff161580156126af576000805461ffff19166101011790555b6126b7612c52565b6126bf612c52565b6126c98383612d03565b8015610932576000805461ff0019169055505050565b600054610100900460ff16806126f8575060005460ff16155b61275b5760405162461bcd60e51b815260206004820152602e60248201527f496e697469616c697a61626c653a20636f6e747261637420697320616c72656160448201526d191e481a5b9a5d1a585b1a5e995960921b60648201526084016107e0565b600054610100900460ff1615801561277d576000805461ffff19166101011790555b6126c98383612ddf565b600054610100900460ff16806127a0575060005460ff16155b6128035760405162461bcd60e51b815260206004820152602e60248201527f496e697469616c697a61626c653a20636f6e747261637420697320616c72656160448201526d191e481a5b9a5d1a585b1a5e995960921b60648201526084016107e0565b600054610100900460ff16158015612825576000805461ffff19166101011790555b61282d612c52565b612835612eb0565b8015612188576000805461ff001916905550565b609780546001600160a01b038381166001600160a01b0319831681179093556040519116919082907f8be0079c531659141344cd1fd0a4f28419497f9722a3daafe3b4186f6b6457e090600090a35050565b60006106d36128a8612f57565b836040517f19010000000000000000000000000000000000000000000000000000000000006020820152602281018390526042810182905260009060620160405160208183030381529060405280519060200120905092915050565b60008060006129138585612fd7565b9150915061292081613044565b509392505050565b6040516bffffffffffffffffffffffff19606083901b166020820152600090819060340160405160208183030381529060405280519060200120905060005b84811015612a0857600086868381811061299157634e487b7160e01b600052603260045260246000fd5b9050602002013590508083116129d25760408051602081018590529081018290526060016040516020818303038152906040528051906020012092506129ff565b60408051602081018390529081018490526060016040516020818303038152906040528051906020012092505b50600101612967565b50909414949350505050565b6001600160a01b038216612a6a5760405162461bcd60e51b815260206004820181905260248201527f4552433732313a206d696e7420746f20746865207a65726f206164647265737360448201526064016107e0565b6000818152606760205260409020546001600160a01b031615612acf5760405162461bcd60e51b815260206004820152601c60248201527f4552433732313a20746f6b656e20616c7265616479206d696e7465640000000060448201526064016107e0565b6001600160a01b0382166000908152606860205260408120805460019290612af8908490613dbe565b909155505060008181526067602052604080822080546001600160a01b0319166001600160a01b03861690811790915590518392907fddf252ad1be2c89b69c2b068fc378daa952ba7f163c4a11628f55a4df523b3ef908290a45050565b612b6184848461238b565b612b6d84848484613245565b611d2b5760405162461bcd60e51b815260206004820152603260248201527f4552433732313a207472616e7366657220746f206e6f6e20455243373231526560448201527131b2b4bb32b91034b6b83632b6b2b73a32b960711b60648201526084016107e0565b612bde8383612a14565b612beb6000848484613245565b6109325760405162461bcd60e51b815260206004820152603260248201527f4552433732313a207472616e7366657220746f206e6f6e20455243373231526560448201527131b2b4bb32b91034b6b83632b6b2b73a32b960711b60648201526084016107e0565b600054610100900460ff1680612c6b575060005460ff16155b612cce5760405162461bcd60e51b815260206004820152602e60248201527f496e697469616c697a61626c653a20636f6e747261637420697320616c72656160448201526d191e481a5b9a5d1a585b1a5e995960921b60648201526084016107e0565b600054610100900460ff16158015612835576000805461ffff19166101011790558015612188576000805461ff001916905550565b600054610100900460ff1680612d1c575060005460ff16155b612d7f5760405162461bcd60e51b815260206004820152602e60248201527f496e697469616c697a61626c653a20636f6e747261637420697320616c72656160448201526d191e481a5b9a5d1a585b1a5e995960921b60648201526084016107e0565b600054610100900460ff16158015612da1576000805461ffff19166101011790555b8251612db4906065906020860190613553565b508151612dc8906066906020850190613553565b508015610932576000805461ff0019169055505050565b600054610100900460ff1680612df8575060005460ff16155b612e5b5760405162461bcd60e51b815260206004820152602e60248201527f496e697469616c697a61626c653a20636f6e747261637420697320616c72656160448201526d191e481a5b9a5d1a585b1a5e995960921b60648201526084016107e0565b600054610100900460ff16158015612e7d576000805461ffff19166101011790555b825160208085019190912083519184019190912060c99190915560ca558015610932576000805461ff0019169055505050565b600054610100900460ff1680612ec9575060005460ff16155b612f2c5760405162461bcd60e51b815260206004820152602e60248201527f496e697469616c697a61626c653a20636f6e747261637420697320616c72656160448201526d191e481a5b9a5d1a585b1a5e995960921b60648201526084016107e0565b600054610100900460ff16158015612f4e576000805461ffff19166101011790555b61283533612849565b6000612fd27f8b73c3c69bb8fe3d512ecc4cf759cc79239f7b179b0ffacaa9a75d522b39400f612f8660c95490565b60ca546040805160208101859052908101839052606081018290524660808201523060a082015260009060c0016040516020818303038152906040528051906020012090509392505050565b905090565b60008082516041141561300e5760208301516040840151606085015160001a6130028782858561339a565b94509450505050610a23565b825160401415613038576020830151604084015161302d868383613487565b935093505050610a23565b50600090506002610a23565b600081600481111561306657634e487b7160e01b600052602160045260246000fd5b141561306f5750565b600181600481111561309157634e487b7160e01b600052602160045260246000fd5b14156130df5760405162461bcd60e51b815260206004820152601860248201527f45434453413a20696e76616c6964207369676e6174757265000000000000000060448201526064016107e0565b600281600481111561310157634e487b7160e01b600052602160045260246000fd5b141561314f5760405162461bcd60e51b815260206004820152601f60248201527f45434453413a20696e76616c6964207369676e6174757265206c656e6774680060448201526064016107e0565b600381600481111561317157634e487b7160e01b600052602160045260246000fd5b14156131ca5760405162461bcd60e51b815260206004820152602260248201527f45434453413a20696e76616c6964207369676e6174757265202773272076616c604482015261756560f01b60648201526084016107e0565b60048160048111156131ec57634e487b7160e01b600052602160045260246000fd5b14156121885760405162461bcd60e51b815260206004820152602260248201527f45434453413a20696e76616c6964207369676e6174757265202776272076616c604482015261756560f01b60648201526084016107e0565b60006001600160a01b0384163b1561339257604051630a85bd0160e11b81526001600160a01b0385169063150b7a0290613289903390899088908890600401613c19565b602060405180830381600087803b1580156132a357600080fd5b505af19250505080156132d3575060408051601f3d908101601f191682019092526132d09181019061393c565b60015b613378573d808015613301576040519150601f19603f3d011682016040523d82523d6000602084013e613306565b606091505b5080516133705760405162461bcd60e51b815260206004820152603260248201527f4552433732313a207472616e7366657220746f206e6f6e20455243373231526560448201527131b2b4bb32b91034b6b83632b6b2b73a32b960711b60648201526084016107e0565b805181602001fd5b6001600160e01b031916630a85bd0160e11b149050612383565b506001612383565b6000807f7fffffffffffffffffffffffffffffff5d576e7357a4501ddfe92f46681b20a08311156133d1575060009050600361347e565b8460ff16601b141580156133e957508460ff16601c14155b156133fa575060009050600461347e565b6040805160008082526020820180845289905260ff881692820192909252606081018690526080810185905260019060a0016020604051602081039080840390855afa15801561344e573d6000803e3d6000fd5b5050604051601f1901519150506001600160a01b0381166134775760006001925092505061347e565b9150600090505b94509492505050565b6000807f7fffffffffffffffffffffffffffffffffffffffffffffffffffffffffffffff831660ff84901c601b016134c18782888561339a565b935093505050935093915050565b8280546134db90613e58565b90600052602060002090601f0160209004810192826134fd5760008555613543565b82601f106135165782800160ff19823516178555613543565b82800160010185558215613543579182015b82811115613543578235825591602001919060010190613528565b5061354f9291506135c7565b5090565b82805461355f90613e58565b90600052602060002090601f0160209004810192826135815760008555613543565b82601f1061359a57805160ff1916838001178555613543565b82800160010185558215613543579182015b828111156135435782518255916020019190600101906135ac565b5b8082111561354f57600081556001016135c8565b60008083601f8401126135ed578081fd5b50813567ffffffffffffffff811115613604578182fd5b6020830191508360208260051b8501011115610a2357600080fd5b60008083601f840112613630578182fd5b50813567ffffffffffffffff811115613647578182fd5b602083019150836020828501011115610a2357600080fd5b600060208284031215613670578081fd5b813561367b81613f55565b9392505050565b60008060408385031215613694578081fd5b823561369f81613f55565b915060208301356136af81613f55565b809150509250929050565b6000806000606084860312156136ce578081fd5b83356136d981613f55565b925060208401356136e981613f55565b929592945050506040919091013590565b6000806000806080858703121561370f578081fd5b843561371a81613f55565b9350602085013561372a81613f55565b925060408501359150606085013567ffffffffffffffff8082111561374d578283fd5b818701915087601f830112613760578283fd5b81358181111561377257613772613ebe565b604051601f8201601f19908116603f0116810190838211818310171561379a5761379a613ebe565b816040528281528a60208487010111156137b2578586fd5b82602086016020830137918201602001949094529598949750929550505050565b600080604083850312156137e5578182fd5b82356137f081613f55565b915060208301356136af81613f6a565b60008060408385031215613812578182fd5b823561381d81613f55565b946020939093013593505050565b60008060008060408587031215613840578384fd5b843567ffffffffffffffff80821115613857578586fd5b613863888389016135dc565b9096509450602087013591508082111561387b578384fd5b50613888878288016135dc565b95989497509550505050565b600080602083850312156138a6578182fd5b823567ffffffffffffffff808211156138bd578384fd5b818501915085601f8301126138d0578384fd5b8135818111156138de578485fd5b86602060a0830285010111156138f2578485fd5b60209290920196919550909350505050565b600060208284031215613915578081fd5b813561367b81613f6a565b600060208284031215613931578081fd5b813561367b81613f78565b60006020828403121561394d578081fd5b815161367b81613f78565b6000806020838503121561396a578182fd5b823567ffffffffffffffff811115613980578283fd5b61398c8582860161361f565b90969095509350505050565b600080600080604085870312156139ad578182fd5b843567ffffffffffffffff808211156139c4578384fd5b6139d08883890161361f565b909650945060208701359150808211156139e8578384fd5b506138888782880161361f565b600060408284031215613a06578081fd5b50919050565b600060208284031215613a1d578081fd5b81356fffffffffffffffffffffffffffffffff8116811461367b578182fd5b600060208284031215613a4d578081fd5b5035919050565b60008060408385031215613a66578182fd5b50508035926020909101359150565b600060208284031215613a86578081fd5b813567ffffffffffffffff8116811461367b578182fd5b600060208284031215613aae578081fd5b81356bffffffffffffffffffffffff8116811461367b578182fd5b60008151808452613ae1816020860160208601613e2c565b601f01601f19169290920160200192915050565b8054600090600181811c9080831680613b0f57607f831692505b6020808410821415613b2f57634e487b7160e01b86526022600452602486fd5b83885260208801828015613b4a5760018114613b5b57613b86565b60ff19871682528282019750613b86565b60008981526020902060005b87811015613b8057815484820152908601908401613b67565b83019850505b5050505050505092915050565b8183823760009101908152919050565b60008351613bb5818460208801613e2c565b7fff00000000000000000000000000000000000000000000000000000000000000939093169190920190815260010192915050565b60008351613bfc818460208801613e2c565b835190830190613c10818360208801613e2c565b01949350505050565b60006001600160a01b03808716835280861660208401525083604083015260806060830152613c4b6080830184613ac9565b9695505050505050565b60208152816020820152818360408301376000818301604090810191909152601f909201601f19160101919050565b60208152600061367b6020830184613ac9565b604081526000613caa6040830185613af5565b8281036020840152613cbc8185613af5565b95945050505050565b604081018235613cd481613f55565b6001600160a01b031682526020830135613ced81613f6a565b80151560208401525092915050565b6000808335601e19843603018112613d12578283fd5b83018035915067ffffffffffffffff821115613d2c578283fd5b6020019150600581901b3603821315610a2357600080fd5b6000808335601e19843603018112613d5a578283fd5b83018035915067ffffffffffffffff821115613d74578283fd5b602001915036819003821315610a2357600080fd5b6000823561017e19833603018112613d9f578182fd5b9190910192915050565b60008235603e19833603018112613d9f578182fd5b60008219821115613dd157613dd1613ea8565b500190565b600082613df157634e487b7160e01b81526012600452602481fd5b500490565b6000816000190483118215151615613e1057613e10613ea8565b500290565b600082821015613e2757613e27613ea8565b500390565b60005b83811015613e47578181015183820152602001613e2f565b83811115611d2b5750506000910152565b600181811c90821680613e6c57607f821691505b60208210811415613a0657634e487b7160e01b600052602260045260246000fd5b6000600019821415613ea157613ea1613ea8565b5060010190565b634e487b7160e01b600052601160045260246000fd5b634e487b7160e01b600052604160045260246000fd5b8135613edf81613f55565b6001600160a01b03811690508154816001600160a01b031982161783556020840135613f0a81613f6a565b7fffffffffffffffffffffff0000000000000000000000000000000000000000009190911690911790151560a01b74ff00000000000000000000000000000000000000001617905550565b6001600160a01b038116811461218857600080fd5b801515811461218857600080fd5b6001600160e01b03198116811461218857600080fdfea264697066735822122037cdf3767e8a12fabe67c691b29565aff15264b1749801d2167bfa46ed4e49bb64736f6c63430008040033",
  "linkReferences": {},
  "deployedLinkReferences": {}
}