{
  "_format": "hh-sol-artifact-1",
  "contractName": "C0",
  "sourceName": "contracts/C0.sol",
  "abi": [
    {
      "inputs": [],
      "name": "TransferFailed",
      "type": "error"
    },
    {
      "anonymous": false,
      "inputs": [
        {
          "indexed": true,
          "internalType": "address",
          "name": "owner",
          "type": "address"
        },
        {
          "indexed": true,
          "internalType": "address",
          "name": "approved",
          "type": "address"
        },
        {
          "indexed": true,
          "internalType": "uint256",
          "name": "tokenId",
          "type": "uint256"
        }
      ],
      "name": "Approval",
      "type": "event"
    },
    {
      "anonymous": false,
      "inputs": [
        {
          "indexed": true,
          "internalType": "address",
          "name": "owner",
          "type": "address"
        },
        {
          "indexed": true,
          "internalType": "address",
          "name": "operator",
          "type": "address"
        },
        {
          "indexed": false,
          "internalType": "bool",
          "name": "approved",
          "type": "bool"
        }
      ],
      "name": "ApprovalForAll",
      "type": "event"
    },
    {
      "anonymous": false,
      "inputs": [
        {
          "indexed": false,
          "internalType": "string",
          "name": "uri",
          "type": "string"
        }
      ],
      "name": "BaseURIUpdated",
      "type": "event"
    },
    {
      "anonymous": false,
      "inputs": [
        {
          "indexed": false,
          "internalType": "string",
          "name": "name",
          "type": "string"
        },
        {
          "indexed": false,
          "internalType": "string",
          "name": "symbol",
          "type": "string"
        }
      ],
      "name": "NSUpdated",
      "type": "event"
    },
    {
      "anonymous": false,
      "inputs": [
        {
          "indexed": true,
          "internalType": "address",
          "name": "previousOwner",
          "type": "address"
        },
        {
          "indexed": true,
          "internalType": "address",
          "name": "newOwner",
          "type": "address"
        }
      ],
      "name": "OwnershipTransferred",
      "type": "event"
    },
    {
      "anonymous": false,
      "inputs": [
        {
          "indexed": true,
          "internalType": "uint256",
          "name": "state",
          "type": "uint256"
        }
      ],
      "name": "StateUpdated",
      "type": "event"
    },
    {
      "anonymous": false,
      "inputs": [
        {
          "indexed": true,
          "internalType": "address",
          "name": "from",
          "type": "address"
        },
        {
          "indexed": true,
          "internalType": "address",
          "name": "to",
          "type": "address"
        },
        {
          "indexed": true,
          "internalType": "uint256",
          "name": "tokenId",
          "type": "uint256"
        }
      ],
      "name": "Transfer",
      "type": "event"
    },
    {
      "anonymous": false,
      "inputs": [
        {
          "components": [
            {
              "internalType": "address",
              "name": "account",
              "type": "address"
            },
            {
              "internalType": "bool",
              "name": "permanent",
              "type": "bool"
            }
          ],
          "indexed": false,
          "internalType": "struct C0.Withdrawer",
          "name": "withdrawer",
          "type": "tuple"
        }
      ],
      "name": "WithdrawerUpdated",
      "type": "event"
    },
    {
      "inputs": [],
      "name": "BODY_TYPE_HASH",
      "outputs": [
        {
          "internalType": "bytes32",
          "name": "",
          "type": "bytes32"
        }
      ],
      "stateMutability": "view",
      "type": "function"
    },
    {
      "inputs": [],
      "name": "PAYMENT_TYPE_HASH",
      "outputs": [
        {
          "internalType": "bytes32",
          "name": "",
          "type": "bytes32"
        }
      ],
      "stateMutability": "view",
      "type": "function"
    },
    {
      "inputs": [],
      "name": "RELATION_TYPE_HASH",
      "outputs": [
        {
          "internalType": "bytes32",
          "name": "",
          "type": "bytes32"
        }
      ],
      "stateMutability": "view",
      "type": "function"
    },
    {
      "inputs": [
        {
          "internalType": "address",
          "name": "to",
          "type": "address"
        },
        {
          "internalType": "uint256",
          "name": "tokenId",
          "type": "uint256"
        }
      ],
      "name": "approve",
      "outputs": [],
      "stateMutability": "nonpayable",
      "type": "function"
    },
    {
      "inputs": [
        {
          "internalType": "address",
          "name": "owner",
          "type": "address"
        }
      ],
      "name": "balanceOf",
      "outputs": [
        {
          "internalType": "uint256",
          "name": "",
          "type": "uint256"
        }
      ],
      "stateMutability": "view",
      "type": "function"
    },
    {
      "inputs": [],
      "name": "baseURI",
      "outputs": [
        {
          "internalType": "string",
          "name": "",
          "type": "string"
        }
      ],
      "stateMutability": "view",
      "type": "function"
    },
    {
      "inputs": [
        {
          "internalType": "uint256[]",
          "name": "_tokenIds",
          "type": "uint256[]"
        }
      ],
      "name": "burn",
      "outputs": [],
      "stateMutability": "nonpayable",
      "type": "function"
    },
    {
      "inputs": [
        {
          "internalType": "uint256",
          "name": "",
          "type": "uint256"
        }
      ],
      "name": "burned",
      "outputs": [
        {
          "internalType": "address",
          "name": "",
          "type": "address"
        }
      ],
      "stateMutability": "view",
      "type": "function"
    },
    {
      "inputs": [
        {
          "internalType": "uint256",
          "name": "",
          "type": "uint256"
        }
      ],
      "name": "encoding",
      "outputs": [
        {
          "internalType": "uint8",
          "name": "",
          "type": "uint8"
        }
      ],
      "stateMutability": "view",
      "type": "function"
    },
    {
      "inputs": [
        {
          "internalType": "uint256",
          "name": "tokenId",
          "type": "uint256"
        }
      ],
      "name": "getApproved",
      "outputs": [
        {
          "internalType": "address",
          "name": "",
          "type": "address"
        }
      ],
      "stateMutability": "view",
      "type": "function"
    },
    {
      "inputs": [
        {
          "components": [
            {
              "internalType": "uint256",
              "name": "id",
              "type": "uint256"
            },
            {
              "internalType": "address",
              "name": "receiver",
              "type": "address"
            },
            {
              "components": [
                {
                  "internalType": "uint8",
                  "name": "code",
                  "type": "uint8"
                },
                {
                  "internalType": "uint24",
                  "name": "value",
                  "type": "uint24"
                },
                {
                  "internalType": "address",
                  "name": "receiver",
                  "type": "address"
                }
              ],
              "internalType": "struct C0.Payment[]",
              "name": "payments",
              "type": "tuple[]"
            },
            {
              "internalType": "uint8",
              "name": "encoding",
              "type": "uint8"
            }
          ],
          "internalType": "struct C0.Gift[]",
          "name": "gifts",
          "type": "tuple[]"
        }
      ],
      "name": "gift",
      "outputs": [],
      "stateMutability": "payable",
      "type": "function"
    },
    {
      "inputs": [
        {
          "internalType": "string",
          "name": "name",
          "type": "string"
        },
        {
          "internalType": "string",
          "name": "symbol",
          "type": "string"
        }
      ],
      "name": "initialize",
      "outputs": [],
      "stateMutability": "nonpayable",
      "type": "function"
    },
    {
      "inputs": [
        {
          "internalType": "address",
          "name": "owner",
          "type": "address"
        },
        {
          "internalType": "address",
          "name": "operator",
          "type": "address"
        }
      ],
      "name": "isApprovedForAll",
      "outputs": [
        {
          "internalType": "bool",
          "name": "",
          "type": "bool"
        }
      ],
      "stateMutability": "view",
      "type": "function"
    },
    {
      "inputs": [],
      "name": "name",
      "outputs": [
        {
          "internalType": "string",
          "name": "",
          "type": "string"
        }
      ],
      "stateMutability": "view",
      "type": "function"
    },
    {
      "inputs": [],
      "name": "owner",
      "outputs": [
        {
          "internalType": "address",
          "name": "",
          "type": "address"
        }
      ],
      "stateMutability": "view",
      "type": "function"
    },
    {
      "inputs": [
        {
          "internalType": "uint256",
          "name": "tokenId",
          "type": "uint256"
        }
      ],
      "name": "ownerOf",
      "outputs": [
        {
          "internalType": "address",
          "name": "",
          "type": "address"
        }
      ],
      "stateMutability": "view",
      "type": "function"
    },
    {
      "inputs": [],
      "name": "renounceOwnership",
      "outputs": [],
      "stateMutability": "nonpayable",
      "type": "function"
    },
    {
      "inputs": [
        {
          "internalType": "uint256",
          "name": "",
          "type": "uint256"
        }
      ],
      "name": "royalty",
      "outputs": [
        {
          "internalType": "address",
          "name": "receiver",
          "type": "address"
        },
        {
          "internalType": "uint96",
          "name": "amount",
          "type": "uint96"
        }
      ],
      "stateMutability": "view",
      "type": "function"
    },
    {
      "inputs": [
        {
          "internalType": "uint256",
          "name": "tokenId",
          "type": "uint256"
        },
        {
          "internalType": "uint256",
          "name": "value",
          "type": "uint256"
        }
      ],
      "name": "royaltyInfo",
      "outputs": [
        {
          "internalType": "address",
          "name": "receiver",
          "type": "address"
        },
        {
          "internalType": "uint256",
          "name": "royaltyAmount",
          "type": "uint256"
        }
      ],
      "stateMutability": "view",
      "type": "function"
    },
    {
      "inputs": [
        {
          "internalType": "address",
          "name": "from",
          "type": "address"
        },
        {
          "internalType": "address",
          "name": "to",
          "type": "address"
        },
        {
          "internalType": "uint256",
          "name": "tokenId",
          "type": "uint256"
        }
      ],
      "name": "safeTransferFrom",
      "outputs": [],
      "stateMutability": "nonpayable",
      "type": "function"
    },
    {
      "inputs": [
        {
          "internalType": "address",
          "name": "from",
          "type": "address"
        },
        {
          "internalType": "address",
          "name": "to",
          "type": "address"
        },
        {
          "internalType": "uint256",
          "name": "tokenId",
          "type": "uint256"
        },
        {
          "internalType": "bytes",
          "name": "_data",
          "type": "bytes"
        }
      ],
      "name": "safeTransferFrom",
      "outputs": [],
      "stateMutability": "nonpayable",
      "type": "function"
    },
    {
      "inputs": [
        {
          "internalType": "address",
          "name": "operator",
          "type": "address"
        },
        {
          "internalType": "bool",
          "name": "approved",
          "type": "bool"
        }
      ],
      "name": "setApprovalForAll",
      "outputs": [],
      "stateMutability": "nonpayable",
      "type": "function"
    },
    {
      "inputs": [
        {
          "internalType": "string",
          "name": "b",
          "type": "string"
        }
      ],
      "name": "setBaseURI",
      "outputs": [],
      "stateMutability": "nonpayable",
      "type": "function"
    },
    {
      "inputs": [
        {
          "internalType": "string",
          "name": "name_",
          "type": "string"
        },
        {
          "internalType": "string",
          "name": "symbol_",
          "type": "string"
        }
      ],
      "name": "setNS",
      "outputs": [],
      "stateMutability": "nonpayable",
      "type": "function"
    },
    {
      "inputs": [
        {
          "internalType": "uint256",
          "name": "_state",
          "type": "uint256"
        }
      ],
      "name": "setState",
      "outputs": [],
      "stateMutability": "nonpayable",
      "type": "function"
    },
    {
      "inputs": [
        {
          "components": [
            {
              "internalType": "address",
              "name": "account",
              "type": "address"
            },
            {
              "internalType": "bool",
              "name": "permanent",
              "type": "bool"
            }
          ],
          "internalType": "struct C0.Withdrawer",
          "name": "_withdrawer",
          "type": "tuple"
        }
      ],
      "name": "setWithdrawer",
      "outputs": [],
      "stateMutability": "nonpayable",
      "type": "function"
    },
    {
      "inputs": [],
      "name": "state",
      "outputs": [
        {
          "internalType": "uint256",
          "name": "",
          "type": "uint256"
        }
      ],
      "stateMutability": "view",
      "type": "function"
    },
    {
      "inputs": [
        {
          "internalType": "bytes4",
          "name": "interfaceId",
          "type": "bytes4"
        }
      ],
      "name": "supportsInterface",
      "outputs": [
        {
          "internalType": "bool",
          "name": "",
          "type": "bool"
        }
      ],
      "stateMutability": "view",
      "type": "function"
    },
    {
      "inputs": [],
      "name": "symbol",
      "outputs": [
        {
          "internalType": "string",
          "name": "",
          "type": "string"
        }
      ],
      "stateMutability": "view",
      "type": "function"
    },
    {
      "inputs": [
        {
          "components": [
            {
              "internalType": "uint256",
              "name": "id",
              "type": "uint256"
            },
            {
              "internalType": "uint128",
              "name": "value",
              "type": "uint128"
            },
            {
              "internalType": "uint64",
              "name": "start",
              "type": "uint64"
            },
            {
              "internalType": "uint64",
              "name": "end",
              "type": "uint64"
            },
            {
              "internalType": "address",
              "name": "sender",
              "type": "address"
            },
            {
              "internalType": "address",
              "name": "receiver",
              "type": "address"
            },
            {
              "components": [
                {
                  "internalType": "uint8",
                  "name": "code",
                  "type": "uint8"
                },
                {
                  "internalType": "uint24",
                  "name": "value",
                  "type": "uint24"
                },
                {
                  "internalType": "address",
                  "name": "receiver",
                  "type": "address"
                }
              ],
              "internalType": "struct C0.Payment[]",
              "name": "payments",
              "type": "tuple[]"
            },
            {
              "internalType": "uint8",
              "name": "encoding",
              "type": "uint8"
            },
            {
              "internalType": "bytes32",
              "name": "sendersHash",
              "type": "bytes32"
            },
            {
              "internalType": "bytes32",
              "name": "receiversHash",
              "type": "bytes32"
            },
            {
              "internalType": "bytes32",
              "name": "puzzleHash",
              "type": "bytes32"
            },
            {
              "components": [
                {
                  "internalType": "uint8",
                  "name": "code",
                  "type": "uint8"
                },
                {
                  "internalType": "address",
                  "name": "addr",
                  "type": "address"
                },
                {
                  "internalType": "uint256",
                  "name": "id",
                  "type": "uint256"
                }
              ],
              "internalType": "struct C0.Relation[]",
              "name": "relations",
              "type": "tuple[]"
            },
            {
              "internalType": "bytes",
              "name": "signature",
              "type": "bytes"
            }
          ],
          "internalType": "struct C0.Body[]",
          "name": "bodies",
          "type": "tuple[]"
        },
        {
          "components": [
            {
              "internalType": "address",
              "name": "receiver",
              "type": "address"
            },
            {
              "internalType": "bytes",
              "name": "puzzle",
              "type": "bytes"
            },
            {
              "internalType": "bytes32[]",
              "name": "sendersProof",
              "type": "bytes32[]"
            },
            {
              "internalType": "bytes32[]",
              "name": "receiversProof",
              "type": "bytes32[]"
            }
          ],
          "internalType": "struct C0.Input[]",
          "name": "inputs",
          "type": "tuple[]"
        }
      ],
      "name": "token",
      "outputs": [],
      "stateMutability": "payable",
      "type": "function"
    },
    {
      "inputs": [
        {
          "internalType": "uint256",
          "name": "tokenId",
          "type": "uint256"
        }
      ],
      "name": "tokenURI",
      "outputs": [
        {
          "internalType": "string",
          "name": "",
          "type": "string"
        }
      ],
      "stateMutability": "view",
      "type": "function"
    },
    {
      "inputs": [
        {
          "internalType": "address",
          "name": "from",
          "type": "address"
        },
        {
          "internalType": "address",
          "name": "to",
          "type": "address"
        },
        {
          "internalType": "uint256",
          "name": "tokenId",
          "type": "uint256"
        }
      ],
      "name": "transferFrom",
      "outputs": [],
      "stateMutability": "nonpayable",
      "type": "function"
    },
    {
      "inputs": [
        {
          "internalType": "address",
          "name": "newOwner",
          "type": "address"
        }
      ],
      "name": "transferOwnership",
      "outputs": [],
      "stateMutability": "nonpayable",
      "type": "function"
    },
    {
      "inputs": [
        {
          "internalType": "uint256",
          "name": "value",
          "type": "uint256"
        }
      ],
      "name": "withdraw",
      "outputs": [],
      "stateMutability": "payable",
      "type": "function"
    },
    {
      "inputs": [],
      "name": "withdrawer",
      "outputs": [
        {
          "internalType": "address",
          "name": "account",
          "type": "address"
        },
        {
          "internalType": "bool",
          "name": "permanent",
          "type": "bool"
        }
      ],
      "stateMutability": "view",
      "type": "function"
    },
    {
      "stateMutability": "payable",
      "type": "receive"
    }
  ],
  "bytecode": "0x608060405234801561001057600080fd5b50614ea8806100206000396000f3fe6080604052600436106102385760003560e01c80636c0360eb11610138578063b88d4fde116100b0578063cdc184241161007f578063e814cb7111610064578063e814cb71146106ef578063e985e9c514610768578063f2fde38b146107b157600080fd5b8063cdc184241461066f578063e1b22046146106bb57600080fd5b8063b88d4fde146105e4578063c19d93fb14610604578063c87b56dd1461061b578063ccc0b1ec1461063b57600080fd5b806393d19f6d11610107578063a22cb465116100ec578063a22cb46514610584578063a9e966b7146105a4578063b80f55c9146105c457600080fd5b806393d19f6d1461052d57806395d89b411461056f57600080fd5b80636c0360eb146104c557806370a08231146104da578063715018a6146104fa5780638da5cb5b1461050f57600080fd5b80632e1a7d4d116101cb5780634cd88b761161019a57806355f804b31161017f57806355f804b3146104725780636352211e1461049257806369134991146104b257600080fd5b80634cd88b76146104325780634fc41a421461045257600080fd5b80632e1a7d4d1461039d57806334004598146103b057806335c93885146103f257806342842e0e1461041257600080fd5b8063095ea7b311610207578063095ea7b3146102e857806323250cae1461030857806323b872dd1461033e5780632a55205a1461035e57600080fd5b806301791b271461024457806301ffc9a71461025957806306fdde031461028e578063081812fc146102b057600080fd5b3661023f57005b600080fd5b610257610252366004614357565b6107d1565b005b34801561026557600080fd5b506102796102743660046143af565b6109a5565b60405190151581526020015b60405180910390f35b34801561029a57600080fd5b506102a36109e9565b604051610285919061442b565b3480156102bc57600080fd5b506102d06102cb36600461443e565b610a7b565b6040516001600160a01b039091168152602001610285565b3480156102f457600080fd5b5061025761030336600461446c565b610b10565b34801561031457600080fd5b506102d061032336600461443e565b60ff602052600090815260409020546001600160a01b031681565b34801561034a57600080fd5b50610257610359366004614498565b610c3d565b34801561036a57600080fd5b5061037e6103793660046144d9565b610cc5565b604080516001600160a01b039093168352602083019190915201610285565b6102576103ab36600461443e565b610d30565b3480156103bc57600080fd5b506103e47fac82d8b9ba5b5dc17dde8ad35b7209c7132c6529256b6a9cec43456cabb9b29181565b604051908152602001610285565b3480156103fe57600080fd5b5061025761040d36600461453d565b610e91565b34801561041e57600080fd5b5061025761042d366004614498565b610f97565b34801561043e57600080fd5b5061025761044d36600461453d565b610fb2565b34801561045e57600080fd5b5061025761046d3660046145a9565b61113c565b34801561047e57600080fd5b5061025761048d3660046145c1565b61123c565b34801561049e57600080fd5b506102d06104ad36600461443e565b611332565b6102576104c03660046145f7565b6113bd565b3480156104d157600080fd5b506102a3612671565b3480156104e657600080fd5b506103e46104f5366004614657565b612700565b34801561050657600080fd5b5061025761279a565b34801561051b57600080fd5b506097546001600160a01b03166102d0565b34801561053957600080fd5b5061055d61054836600461443e565b60fe6020526000908152604090205460ff1681565b60405160ff9091168152602001610285565b34801561057b57600080fd5b506102a3612800565b34801561059057600080fd5b5061025761059f366004614682565b61280f565b3480156105b057600080fd5b506102576105bf36600461443e565b6128d4565b3480156105d057600080fd5b506102576105df366004614357565b6129b6565b3480156105f057600080fd5b506102576105ff36600461472b565b612a63565b34801561061057600080fd5b506103e46101025481565b34801561062757600080fd5b506102a361063636600461443e565b612af1565b34801561064757600080fd5b506103e47fd0a7aa2f12f6635b8fcf1ff677c6a131c33d1c97cf6c6aad4fe3907f9c822b9b81565b34801561067b57600080fd5b506101005461069c906001600160a01b03811690600160a01b900460ff1682565b604080516001600160a01b039093168352901515602083015201610285565b3480156106c757600080fd5b506103e47fa8429bfd1dd4da6c67a09e5c5a89115acae264879c22f767979685932461d1c281565b3480156106fb57600080fd5b5061073c61070a36600461443e565b60fd602052600090815260409020546001600160a01b03811690600160a01b90046bffffffffffffffffffffffff1682565b604080516001600160a01b0390931683526bffffffffffffffffffffffff909116602083015201610285565b34801561077457600080fd5b506102796107833660046147ef565b6001600160a01b039182166000908152606a6020908152604080832093909416825291909152205460ff1690565b3480156107bd57600080fd5b506102576107cc366004614657565b612e74565b6097546001600160a01b031633146108305760405162461bcd60e51b815260206004820181905260248201527f4f776e61626c653a2063616c6c6572206973206e6f7420746865206f776e657260448201526064015b60405180910390fd5b61010254156108655760405162461bcd60e51b81526020600482015260016024820152600360fc1b6044820152606401610827565b60005b818110156109a057368383838181106108835761088361481d565b90506020028101906108959190614833565b90506108b16108aa6040830160208401614657565b8235612f56565b60006108c06040830183614853565b905011156109975760405180604001604052808280604001906108e39190614853565b60008181106108f4576108f461481d565b905060600201604001602081019061090c9190614657565b6001600160a01b031681526020016109276040840184614853565b60008181106109385761093861481d565b905060600201602001602081019061095091906148b4565b62ffffff1690528135600090815260fd60209081526040909120825192909101516bffffffffffffffffffffffff16600160a01b026001600160a01b039092169190911790555b50600101610868565b505050565b60007f2a55205a000000000000000000000000000000000000000000000000000000006001600160e01b0319831614806109e357506109e382613098565b92915050565b6060606580546109f8906148cf565b80601f0160208091040260200160405190810160405280929190818152602001828054610a24906148cf565b8015610a715780601f10610a4657610100808354040283529160200191610a71565b820191906000526020600020905b815481529060010190602001808311610a5457829003601f168201915b5050505050905090565b6000818152606760205260408120546001600160a01b0316610af45760405162461bcd60e51b815260206004820152602c60248201527f4552433732313a20617070726f76656420717565727920666f72206e6f6e657860448201526b34b9ba32b73a103a37b5b2b760a11b6064820152608401610827565b506000908152606960205260409020546001600160a01b031690565b6000610b1b82611332565b9050806001600160a01b0316836001600160a01b03161415610ba55760405162461bcd60e51b815260206004820152602160248201527f4552433732313a20617070726f76616c20746f2063757272656e74206f776e6560448201527f72000000000000000000000000000000000000000000000000000000000000006064820152608401610827565b336001600160a01b0382161480610bc15750610bc18133610783565b610c335760405162461bcd60e51b815260206004820152603860248201527f4552433732313a20617070726f76652063616c6c6572206973206e6f74206f7760448201527f6e6572206e6f7220617070726f76656420666f7220616c6c00000000000000006064820152608401610827565b6109a08383613133565b610c48335b826131a1565b610cba5760405162461bcd60e51b815260206004820152603160248201527f4552433732313a207472616e736665722063616c6c6572206973206e6f74206f60448201527f776e6572206e6f7220617070726f7665640000000000000000000000000000006064820152608401610827565b6109a0838383613298565b600082815260fd602090815260408083208151808301909252546001600160a01b038116808352600160a01b9091046bffffffffffffffffffffffff169282018390528392620f424090610d19908761491a565b610d239190614939565b92509250505b9250929050565b6097546001600160a01b0316331480610d5d5750610100546001600160a01b0316336001600160a01b0316145b610da95760405162461bcd60e51b815260206004820152600260248201527f33300000000000000000000000000000000000000000000000000000000000006044820152606401610827565b6000808211610db85747610dba565b815b610100549091506000906001600160a01b031615610de457610100546001600160a01b0316610df1565b6097546001600160a01b03165b6001600160a01b03168260405160006040518083038185875af1925050503d8060008114610e3b576040519150601f19603f3d011682016040523d82523d6000602084013e610e40565b606091505b50509050806109a05760405162461bcd60e51b815260206004820152600260248201527f33310000000000000000000000000000000000000000000000000000000000006044820152606401610827565b6097546001600160a01b03163314610eeb5760405162461bcd60e51b815260206004820181905260248201527f4f776e61626c653a2063616c6c6572206973206e6f7420746865206f776e65726044820152606401610827565b6101025415610f3c5760405162461bcd60e51b815260206004820152600260248201527f36300000000000000000000000000000000000000000000000000000000000006044820152606401610827565b610f4860658585614205565b50610f5560668383614205565b507f934066d47a89bfcab72db908a0701b9145131ee303cefb44553121c73419e8dd60656066604051610f899291906149fb565b60405180910390a150505050565b6109a083838360405180602001604052806000815250612a63565b600054610100900460ff1680610fcb575060005460ff16155b61102e5760405162461bcd60e51b815260206004820152602e60248201527f496e697469616c697a61626c653a20636f6e747261637420697320616c72656160448201526d191e481a5b9a5d1a585b1a5e995960921b6064820152608401610827565b600054610100900460ff16158015611050576000805461ffff19166101011790555b6110c385858080601f01602080910402602001604051908101604052809392919081815260200183838082843760009201919091525050604080516020601f8901819004810282018101909252878152925087915086908190840183828082843760009201919091525061346592505050565b61111b85858080601f016020809104026020016040519081016040528093929190818152602001838380828437600092019190915250506040805180820190915260018152603160f81b602082015291506135339050565b6111236135db565b8015611135576000805461ff00191690555b5050505050565b6097546001600160a01b031633146111965760405162461bcd60e51b815260206004820181905260248201527f4f776e61626c653a2063616c6c6572206973206e6f7420746865206f776e65726044820152606401610827565b61010054600160a01b900460ff16156111f15760405162461bcd60e51b815260206004820152600260248201527f32300000000000000000000000000000000000000000000000000000000000006044820152606401610827565b806101006111ff8282614a29565b9050507f5d121f0c2b2c4877a2b0a1457c73ce1c28628e5705271cb91db3e49792715cf5816040516112319190614aaa565b60405180910390a150565b6097546001600160a01b031633146112965760405162461bcd60e51b815260206004820181905260248201527f4f776e61626c653a2063616c6c6572206973206e6f7420746865206f776e65726044820152606401610827565b61010254156112e75760405162461bcd60e51b815260206004820152600260248201527f35300000000000000000000000000000000000000000000000000000000000006044820152606401610827565b6112f46101018383614205565b507f6741b2fc379fad678116fe3d4d4b9a1a184ab53ba36b86ad0fa66340b1ab41ad8282604051611326929190614ae1565b60405180910390a15050565b6000818152606760205260408120546001600160a01b0316806109e35760405162461bcd60e51b815260206004820152602960248201527f4552433732313a206f776e657220717565727920666f72206e6f6e657869737460448201527f656e7420746f6b656e00000000000000000000000000000000000000000000006064820152608401610827565b61010254156113f25760405162461bcd60e51b81526020600482015260016024820152600360fc1b6044820152606401610827565b6000805b8481101561262157368686838181106114115761141161481d565b90506020028101906114239190614b10565b9050368585848181106114385761143861481d565b905060200281019061144a9190614833565b8235600090815260ff60205260409020549091506001600160a01b0316156114985760405162461bcd60e51b81526020600482015260016024820152603160f81b6044820152606401610827565b6000806114ab60c0850160a08601614657565b6001600160a01b031614156114cc576114c76020830183614657565b6114dc565b6114dc60c0840160a08501614657565b90506000806114ee60c0860186614853565b9050111561169557606060005b61150860c0870187614853565b905081101561168557600061152060c0880188614853565b838181106115305761153061481d565b9050606002018036038101906115469190614b38565b805160208083015160408085015181517fac82d8b9ba5b5dc17dde8ad35b7209c7132c6529256b6a9cec43456cabb9b2919481019490945260ff9094169083015262ffffff1660608201526001600160a01b039091166080820152909150839060a001604051602081830303815290604052805190602001206040516020016115d0929190614b88565b60408051601f19818403018152919052815190935060ff166116215761161c8160400151620f4240836020015162ffffff163461160d919061491a565b6116179190614939565b61369d565b61167c565b604080518082018252828201516001600160a01b03908116825260208085015162ffffff168184019081528b35600090815260fd909252939020915192516bffffffffffffffffffffffff16600160a01b0292169190911790555b506001016114fb565b50805160209091012090506116b8565b507fc5d2460186f7233c927e7db2dcc703c0e500b653ca82273b7bfad8045d85a4705b6116c6610160850185614853565b151590506118d95760007fd0a7aa2f12f6635b8fcf1ff677c6a131c33d1c97cf6c6aad4fe3907f9c822b9b8535611704610100880160e08901614baa565b61171460a0890160808a01614657565b61172460c08a0160a08b01614657565b61173460408b0160208c01614bc5565b61174460608c0160408d01614bf7565b61175460808d0160608e01614bf7565b60408051602081019990995288019690965260ff90941660608701526001600160a01b039283166080870152911660a08501526fffffffffffffffffffffffffffffffff1660c084015267ffffffffffffffff90811660e084015216610100828101919091526101208281018590529087013561014083810191909152908701356101608301528601356101808201527fc5d2460186f7233c927e7db2dcc703c0e500b653ca82273b7bfad8045d85a4706101a08201526101c0016040516020818303038152906040528051906020012090506118396097546001600160a01b031690565b6001600160a01b0316611899611853610180880188614c21565b8080601f01602080910402602001604051908101604052809392919081815260200183838082843760009201919091525061189392508691506136e29050565b9061374b565b6001600160a01b0316146118d35760405162461bcd60e51b81526020600482015260016024820152601960f91b6044820152606401610827565b506122ba565b606060005b6118ec610160870187614853565b90508110156120d9576000611905610160880188614853565b838181106119155761191561481d565b90506060020180360381019061192b9190614c68565b805190915060ff16611a745760208101516001600160a01b031661199c57604081810151600090815260ff60205220546001600160a01b031633146119975760405162461bcd60e51b8152602060048201526002602482015261386160f01b6044820152606401610827565b612043565b602081015160408083015190517f23250cae000000000000000000000000000000000000000000000000000000008152600481019190915233916001600160a01b0316906323250cae9060240160206040518083038186803b158015611a0157600080fd5b505afa158015611a15573d6000803e3d6000fd5b505050506040513d601f19601f82011682018060405250810190611a399190614cb3565b6001600160a01b0316146119975760405162461bcd60e51b8152602060048201526002602482015261386160f01b6044820152606401610827565b806000015160ff1660011415611bb25760208101516001600160a01b0316611ae757604081810151600090815260ff60205220546001600160a01b038681169116146119975760405162461bcd60e51b81526020600482015260026024820152611c3160f11b6044820152606401610827565b846001600160a01b031681602001516001600160a01b03166323250cae83604001516040518263ffffffff1660e01b8152600401611b2791815260200190565b60206040518083038186803b158015611b3f57600080fd5b505afa158015611b53573d6000803e3d6000fd5b505050506040513d601f19601f82011682018060405250810190611b779190614cb3565b6001600160a01b0316146119975760405162461bcd60e51b81526020600482015260026024820152611c3160f11b6044820152606401610827565b806000015160ff1660021415611cde5760208101516001600160a01b0316611c4157336001600160a01b0316611beb8260400151611332565b6001600160a01b0316146119975760405162461bcd60e51b815260206004820152600260248201527f39610000000000000000000000000000000000000000000000000000000000006044820152606401610827565b602081015160408083015190517f6352211e000000000000000000000000000000000000000000000000000000008152600481019190915233916001600160a01b031690636352211e9060240160206040518083038186803b158015611ca657600080fd5b505afa158015611cba573d6000803e3d6000fd5b505050506040513d601f19601f82011682018060405250810190611beb9190614cb3565b806000015160ff1660031415611dfd5760208101516001600160a01b0316611d6d57846001600160a01b0316611d178260400151611332565b6001600160a01b0316146119975760405162461bcd60e51b815260206004820152600260248201527f39620000000000000000000000000000000000000000000000000000000000006044820152606401610827565b846001600160a01b031681602001516001600160a01b0316636352211e83604001516040518263ffffffff1660e01b8152600401611dad91815260200190565b60206040518083038186803b158015611dc557600080fd5b505afa158015611dd9573d6000803e3d6000fd5b505050506040513d601f19601f82011682018060405250810190611d179190614cb3565b806000015160ff1660041415611f0b5760208101516001600160a01b0316611e7b576040810151611e2d33612700565b10156119975760405162461bcd60e51b815260206004820152600360248201527f31306100000000000000000000000000000000000000000000000000000000006044820152606401610827565b604081015160208201516001600160a01b03166370a08231336040516001600160e01b031960e084901b1681526001600160a01b03909116600482015260240160206040518083038186803b158015611ed357600080fd5b505afa158015611ee7573d6000803e3d6000fd5b505050506040513d601f19601f82011682018060405250810190611e2d9190614cd0565b806000015160ff16600514156120435760208101516001600160a01b0316611f6f578060400151611f3b86612700565b10156119975760405162461bcd60e51b815260206004820152600360248201526218983160e91b6044820152606401610827565b604080820151602083015191517f70a082310000000000000000000000000000000000000000000000000000000081526001600160a01b038881166004830152919291909116906370a082319060240160206040518083038186803b158015611fd757600080fd5b505afa158015611feb573d6000803e3d6000fd5b505050506040513d601f19601f8201168201806040525081019061200f9190614cd0565b10156120435760405162461bcd60e51b815260206004820152600360248201526218983160e91b6044820152606401610827565b805160208083015160408085015181517fa8429bfd1dd4da6c67a09e5c5a89115acae264879c22f767979685932461d1c28186015260ff909516858301526001600160a01b0390921660608501526080808501929092528051808503909201825260a08401905280519101206120be9185919060c001614b88565b60408051601f198184030181529190529250506001016118de565b5060007fd0a7aa2f12f6635b8fcf1ff677c6a131c33d1c97cf6c6aad4fe3907f9c822b9b8635612110610100890160e08a01614baa565b61212060a08a0160808b01614657565b61213060c08b0160a08c01614657565b61214060408c0160208d01614bc5565b60408051602081019790975286019490945260ff90921660608501526001600160a01b0390811660808501521660a08301526fffffffffffffffffffffffffffffffff1660c082015260e00160408051601f198184030181529181526121ac9060608901908901614bf7565b6121bc6080890160608a01614bf7565b84516020808701919091206040805167ffffffffffffffff95861693810193909352939092169281019290925260608201869052610100808a013560808401526101208a013560a08401526101408a013560c084015260e08301919091520160408051601f19818403018152908290526122399291602001614ce9565b6040516020818303038152906040528051906020012090506122636097546001600160a01b031690565b6001600160a01b031661227d611853610180890189614c21565b6001600160a01b0316146122b75760405162461bcd60e51b81526020600482015260016024820152601960f91b6044820152606401610827565b50505b60006122cc60a0860160808701614657565b6001600160a01b03161461234157336122eb60a0860160808701614657565b6001600160a01b0316146123415760405162461bcd60e51b815260206004820152600160248201527f33000000000000000000000000000000000000000000000000000000000000006044820152606401610827565b426123526060860160408701614bf7565b67ffffffffffffffff1611156123aa5760405162461bcd60e51b815260206004820152600160248201527f34000000000000000000000000000000000000000000000000000000000000006044820152606401610827565b426123bb6080860160608701614bf7565b67ffffffffffffffff1610156124135760405162461bcd60e51b815260206004820152600160248201527f35000000000000000000000000000000000000000000000000000000000000006044820152606401610827565b610140840135156124ae57600061242d6020850185614c21565b9050118015612462575061014084013561244a6020850185614c21565b604051612458929190614d18565b6040518091039020145b6124ae5760405162461bcd60e51b815260206004820152600160248201527f36000000000000000000000000000000000000000000000000000000000000006044820152606401610827565b61010084013515612521576124d56101008501356124cf6040860186614d28565b3361376f565b6125215760405162461bcd60e51b815260206004820152600260248201527f37610000000000000000000000000000000000000000000000000000000000006044820152606401610827565b61012084013515612594576125486101208501356125426060860186614d28565b8561376f565b6125945760405162461bcd60e51b815260206004820152600260248201527f37620000000000000000000000000000000000000000000000000000000000006044820152606401610827565b6125a5610100850160e08601614baa565b60ff16156125e1576125be610100850160e08601614baa565b8435600090815260fe60205260409020805460ff191660ff929092169190911790555b6125ec828535612f56565b6125fc6040850160208601614bc5565b6fffffffffffffffffffffffffffffffff1686019550846001019450505050506113f6565b503481146111355760405162461bcd60e51b815260206004820152600260248201527f31310000000000000000000000000000000000000000000000000000000000006044820152606401610827565b610101805461267f906148cf565b80601f01602080910402602001604051908101604052809291908181526020018280546126ab906148cf565b80156126f85780601f106126cd576101008083540402835291602001916126f8565b820191906000526020600020905b8154815290600101906020018083116126db57829003601f168201915b505050505081565b60006001600160a01b03821661277e5760405162461bcd60e51b815260206004820152602a60248201527f4552433732313a2062616c616e636520717565727920666f7220746865207a6560448201527f726f2061646472657373000000000000000000000000000000000000000000006064820152608401610827565b506001600160a01b031660009081526068602052604090205490565b6097546001600160a01b031633146127f45760405162461bcd60e51b815260206004820181905260248201527f4f776e61626c653a2063616c6c6572206973206e6f7420746865206f776e65726044820152606401610827565b6127fe600061384d565b565b6060606680546109f8906148cf565b6001600160a01b0382163314156128685760405162461bcd60e51b815260206004820152601960248201527f4552433732313a20617070726f766520746f2063616c6c6572000000000000006044820152606401610827565b336000818152606a602090815260408083206001600160a01b03871680855290835292819020805460ff191686151590811790915590519081529192917f17307eab39ab6107e8899845ad3d59bd9653f200f220920489ca2b5937696c31910160405180910390a35050565b6097546001600160a01b0316331461292e5760405162461bcd60e51b815260206004820181905260248201527f4f776e61626c653a2063616c6c6572206973206e6f7420746865206f776e65726044820152606401610827565b61010254600214156129825760405162461bcd60e51b815260206004820152600260248201527f34300000000000000000000000000000000000000000000000000000000000006044820152606401610827565b61010281905560405181907f118f8ba10d647100925b2343f3030d110623f17b284ced4316cbe4b8f138883f90600090a250565b60005b818110156109a05760008383838181106129d5576129d561481d565b9050602002013590506129e8610c423390565b612a345760405162461bcd60e51b815260206004820152600260248201527f31350000000000000000000000000000000000000000000000000000000000006044820152606401610827565b612a3d8161389f565b600090815260ff6020526040902080546001600160a01b031916331790556001016129b9565b612a6d33836131a1565b612adf5760405162461bcd60e51b815260206004820152603160248201527f4552433732313a207472616e736665722063616c6c6572206973206e6f74206f60448201527f776e6572206e6f7220617070726f7665640000000000000000000000000000006064820152608401610827565b612aeb8484848461393a565b50505050565b6000818152606760205260409020546060906001600160a01b0316612b7e5760405162461bcd60e51b815260206004820152602f60248201527f4552433732314d657461646174613a2055524920717565727920666f72206e6f60448201527f6e6578697374656e7420746f6b656e00000000000000000000000000000000006064820152608401610827565b6040805180820190915260208082527f6162636465666768696a6b6c6d6e6f707172737475767778797a323334353637908201526101018054849291600091829190612bc9906148cf565b905011612c0b576040518060400160405280600781526020017f697066733a2f2f00000000000000000000000000000000000000000000000000815250612c98565b6101018054612c19906148cf565b80601f0160208091040260200160405190810160405280929190818152602001828054612c45906148cf565b8015612c925780601f10612c6757610100808354040283529160200191612c92565b820191906000526020600020905b815481529060010190602001808311612c7557829003601f168201915b50505050505b600086815260fe602052604081205491925090829060ff1615612cf0576040518060400160405280600781526020017f6261667962656900000000000000000000000000000000000000000000000000815250612d27565b6040518060400160405280600781526020017f6261666b726569000000000000000000000000000000000000000000000000008152505b604051602001612d38929190614ce9565b60408051601f1981840301815291905290506002630170122060056000612d6160016020614d72565b905060005b6020811015612e10576000612d7c82600861491a565b8c901b60f881901c600896871b63ffffff00161795909150612d9e9087614d89565b95505b83861115612dff57612db38487614d72565b955086898787901c851681518110612dcd57612dcd61481d565b602001015160f81c60f81b604051602001612de9929190614da1565b6040516020818303038152906040529650612da1565b50612e0981614de8565b9050612d66565b508315612e66578487612e238685614d72565b85901b831681518110612e3857612e3861481d565b602001015160f81c60f81b604051602001612e54929190614da1565b60405160208183030381529060405294505b509298975050505050505050565b6097546001600160a01b03163314612ece5760405162461bcd60e51b815260206004820181905260248201527f4f776e61626c653a2063616c6c6572206973206e6f7420746865206f776e65726044820152606401610827565b6001600160a01b038116612f4a5760405162461bcd60e51b815260206004820152602660248201527f4f776e61626c653a206e6577206f776e657220697320746865207a65726f206160448201527f64647265737300000000000000000000000000000000000000000000000000006064820152608401610827565b612f538161384d565b50565b6001600160a01b038216612fac5760405162461bcd60e51b815260206004820181905260248201527f4552433732313a206d696e7420746f20746865207a65726f20616464726573736044820152606401610827565b6000818152606760205260409020546001600160a01b0316156130115760405162461bcd60e51b815260206004820152601c60248201527f4552433732313a20746f6b656e20616c7265616479206d696e746564000000006044820152606401610827565b6001600160a01b038216600090815260686020526040812080546001929061303a908490614d89565b909155505060008181526067602052604080822080546001600160a01b0319166001600160a01b03861690811790915590518392907fddf252ad1be2c89b69c2b068fc378daa952ba7f163c4a11628f55a4df523b3ef908290a45050565b60006001600160e01b031982167f80ac58cd0000000000000000000000000000000000000000000000000000000014806130fb57506001600160e01b031982167f5b5e139f00000000000000000000000000000000000000000000000000000000145b806109e357507f01ffc9a7000000000000000000000000000000000000000000000000000000006001600160e01b03198316146109e3565b600081815260696020526040902080546001600160a01b0319166001600160a01b038416908117909155819061316882611332565b6001600160a01b03167f8c5be1e5ebec7d5bd14f71427d1e84f3dd0314c0f7b2291e5b200ac8c7c3b92560405160405180910390a45050565b6000818152606760205260408120546001600160a01b031661321a5760405162461bcd60e51b815260206004820152602c60248201527f4552433732313a206f70657261746f7220717565727920666f72206e6f6e657860448201526b34b9ba32b73a103a37b5b2b760a11b6064820152608401610827565b600061322583611332565b9050806001600160a01b0316846001600160a01b031614806132605750836001600160a01b031661325584610a7b565b6001600160a01b0316145b8061329057506001600160a01b038082166000908152606a602090815260408083209388168352929052205460ff165b949350505050565b826001600160a01b03166132ab82611332565b6001600160a01b0316146133275760405162461bcd60e51b815260206004820152602960248201527f4552433732313a207472616e73666572206f6620746f6b656e2074686174206960448201527f73206e6f74206f776e00000000000000000000000000000000000000000000006064820152608401610827565b6001600160a01b0382166133a25760405162461bcd60e51b8152602060048201526024808201527f4552433732313a207472616e7366657220746f20746865207a65726f2061646460448201527f72657373000000000000000000000000000000000000000000000000000000006064820152608401610827565b6133ad600082613133565b6001600160a01b03831660009081526068602052604081208054600192906133d6908490614d72565b90915550506001600160a01b0382166000908152606860205260408120805460019290613404908490614d89565b909155505060008181526067602052604080822080546001600160a01b0319166001600160a01b0386811691821790925591518493918716917fddf252ad1be2c89b69c2b068fc378daa952ba7f163c4a11628f55a4df523b3ef91a4505050565b600054610100900460ff168061347e575060005460ff16155b6134e15760405162461bcd60e51b815260206004820152602e60248201527f496e697469616c697a61626c653a20636f6e747261637420697320616c72656160448201526d191e481a5b9a5d1a585b1a5e995960921b6064820152608401610827565b600054610100900460ff16158015613503576000805461ffff19166101011790555b61350b6139c3565b6135136139c3565b61351d8383613a74565b80156109a0576000805461ff0019169055505050565b600054610100900460ff168061354c575060005460ff16155b6135af5760405162461bcd60e51b815260206004820152602e60248201527f496e697469616c697a61626c653a20636f6e747261637420697320616c72656160448201526d191e481a5b9a5d1a585b1a5e995960921b6064820152608401610827565b600054610100900460ff161580156135d1576000805461ffff19166101011790555b61351d8383613b50565b600054610100900460ff16806135f4575060005460ff16155b6136575760405162461bcd60e51b815260206004820152602e60248201527f496e697469616c697a61626c653a20636f6e747261637420697320616c72656160448201526d191e481a5b9a5d1a585b1a5e995960921b6064820152608401610827565b600054610100900460ff16158015613679576000805461ffff19166101011790555b6136816139c3565b613689613c21565b8015612f53576000805461ff001916905550565b600080600080600085875af19050806109a0576040517f90b8ec1800000000000000000000000000000000000000000000000000000000815260040160405180910390fd5b60006109e36136ef613cc8565b836040517f19010000000000000000000000000000000000000000000000000000000000006020820152602281018390526042810182905260009060620160405160208183030381529060405280519060200120905092915050565b600080600061375a8585613d48565b9150915061376781613db5565b509392505050565b6040516bffffffffffffffffffffffff19606083901b166020820152600090819060340160405160208183030381529060405280519060200120905060005b848110156138415760008686838181106137ca576137ca61481d565b90506020020135905080831161380b576040805160208101859052908101829052606001604051602081830303815290604052805190602001209250613838565b60408051602081018390529081018490526060016040516020818303038152906040528051906020012092505b506001016137ae565b50909414949350505050565b609780546001600160a01b038381166001600160a01b0319831681179093556040519116919082907f8be0079c531659141344cd1fd0a4f28419497f9722a3daafe3b4186f6b6457e090600090a35050565b60006138aa82611332565b90506138b7600083613133565b6001600160a01b03811660009081526068602052604081208054600192906138e0908490614d72565b909155505060008281526067602052604080822080546001600160a01b0319169055518391906001600160a01b038416907fddf252ad1be2c89b69c2b068fc378daa952ba7f163c4a11628f55a4df523b3ef908390a45050565b613945848484613298565b61395184848484613f70565b612aeb5760405162461bcd60e51b815260206004820152603260248201527f4552433732313a207472616e7366657220746f206e6f6e20455243373231526560448201527f63656976657220696d706c656d656e74657200000000000000000000000000006064820152608401610827565b600054610100900460ff16806139dc575060005460ff16155b613a3f5760405162461bcd60e51b815260206004820152602e60248201527f496e697469616c697a61626c653a20636f6e747261637420697320616c72656160448201526d191e481a5b9a5d1a585b1a5e995960921b6064820152608401610827565b600054610100900460ff16158015613689576000805461ffff19166101011790558015612f53576000805461ff001916905550565b600054610100900460ff1680613a8d575060005460ff16155b613af05760405162461bcd60e51b815260206004820152602e60248201527f496e697469616c697a61626c653a20636f6e747261637420697320616c72656160448201526d191e481a5b9a5d1a585b1a5e995960921b6064820152608401610827565b600054610100900460ff16158015613b12576000805461ffff19166101011790555b8251613b25906065906020860190614289565b508151613b39906066906020850190614289565b5080156109a0576000805461ff0019169055505050565b600054610100900460ff1680613b69575060005460ff16155b613bcc5760405162461bcd60e51b815260206004820152602e60248201527f496e697469616c697a61626c653a20636f6e747261637420697320616c72656160448201526d191e481a5b9a5d1a585b1a5e995960921b6064820152608401610827565b600054610100900460ff16158015613bee576000805461ffff19166101011790555b825160208085019190912083519184019190912060c99190915560ca5580156109a0576000805461ff0019169055505050565b600054610100900460ff1680613c3a575060005460ff16155b613c9d5760405162461bcd60e51b815260206004820152602e60248201527f496e697469616c697a61626c653a20636f6e747261637420697320616c72656160448201526d191e481a5b9a5d1a585b1a5e995960921b6064820152608401610827565b600054610100900460ff16158015613cbf576000805461ffff19166101011790555b6136893361384d565b6000613d437f8b73c3c69bb8fe3d512ecc4cf759cc79239f7b179b0ffacaa9a75d522b39400f613cf760c95490565b60ca546040805160208101859052908101839052606081018290524660808201523060a082015260009060c0016040516020818303038152906040528051906020012090509392505050565b905090565b600080825160411415613d7f5760208301516040840151606085015160001a613d73878285856140d0565b94509450505050610d29565b825160401415613da95760208301516040840151613d9e8683836141bd565b935093505050610d29565b50600090506002610d29565b6000816004811115613dc957613dc9614e03565b1415613dd25750565b6001816004811115613de657613de6614e03565b1415613e345760405162461bcd60e51b815260206004820152601860248201527f45434453413a20696e76616c6964207369676e617475726500000000000000006044820152606401610827565b6002816004811115613e4857613e48614e03565b1415613e965760405162461bcd60e51b815260206004820152601f60248201527f45434453413a20696e76616c6964207369676e6174757265206c656e677468006044820152606401610827565b6003816004811115613eaa57613eaa614e03565b1415613f035760405162461bcd60e51b815260206004820152602260248201527f45434453413a20696e76616c6964207369676e6174757265202773272076616c604482015261756560f01b6064820152608401610827565b6004816004811115613f1757613f17614e03565b1415612f535760405162461bcd60e51b815260206004820152602260248201527f45434453413a20696e76616c6964207369676e6174757265202776272076616c604482015261756560f01b6064820152608401610827565b60006001600160a01b0384163b156140c857604051630a85bd0160e11b81526001600160a01b0385169063150b7a0290613fb4903390899088908890600401614e19565b602060405180830381600087803b158015613fce57600080fd5b505af1925050508015613ffe575060408051601f3d908101601f19168201909252613ffb91810190614e55565b60015b6140ae573d80801561402c576040519150601f19603f3d011682016040523d82523d6000602084013e614031565b606091505b5080516140a65760405162461bcd60e51b815260206004820152603260248201527f4552433732313a207472616e7366657220746f206e6f6e20455243373231526560448201527f63656976657220696d706c656d656e74657200000000000000000000000000006064820152608401610827565b805181602001fd5b6001600160e01b031916630a85bd0160e11b149050613290565b506001613290565b6000807f7fffffffffffffffffffffffffffffff5d576e7357a4501ddfe92f46681b20a083111561410757506000905060036141b4565b8460ff16601b1415801561411f57508460ff16601c14155b1561413057506000905060046141b4565b6040805160008082526020820180845289905260ff881692820192909252606081018690526080810185905260019060a0016020604051602081039080840390855afa158015614184573d6000803e3d6000fd5b5050604051601f1901519150506001600160a01b0381166141ad576000600192509250506141b4565b9150600090505b94509492505050565b6000807f7fffffffffffffffffffffffffffffffffffffffffffffffffffffffffffffff831660ff84901c601b016141f7878288856140d0565b935093505050935093915050565b828054614211906148cf565b90600052602060002090601f0160209004810192826142335760008555614279565b82601f1061424c5782800160ff19823516178555614279565b82800160010185558215614279579182015b8281111561427957823582559160200191906001019061425e565b506142859291506142fd565b5090565b828054614295906148cf565b90600052602060002090601f0160209004810192826142b75760008555614279565b82601f106142d057805160ff1916838001178555614279565b82800160010185558215614279579182015b828111156142795782518255916020019190600101906142e2565b5b8082111561428557600081556001016142fe565b60008083601f84011261432457600080fd5b50813567ffffffffffffffff81111561433c57600080fd5b6020830191508360208260051b8501011115610d2957600080fd5b6000806020838503121561436a57600080fd5b823567ffffffffffffffff81111561438157600080fd5b61438d85828601614312565b90969095509350505050565b6001600160e01b031981168114612f5357600080fd5b6000602082840312156143c157600080fd5b81356143cc81614399565b9392505050565b60005b838110156143ee5781810151838201526020016143d6565b83811115612aeb5750506000910152565b600081518084526144178160208601602086016143d3565b601f01601f19169290920160200192915050565b6020815260006143cc60208301846143ff565b60006020828403121561445057600080fd5b5035919050565b6001600160a01b0381168114612f5357600080fd5b6000806040838503121561447f57600080fd5b823561448a81614457565b946020939093013593505050565b6000806000606084860312156144ad57600080fd5b83356144b881614457565b925060208401356144c881614457565b929592945050506040919091013590565b600080604083850312156144ec57600080fd5b50508035926020909101359150565b60008083601f84011261450d57600080fd5b50813567ffffffffffffffff81111561452557600080fd5b602083019150836020828501011115610d2957600080fd5b6000806000806040858703121561455357600080fd5b843567ffffffffffffffff8082111561456b57600080fd5b614577888389016144fb565b9096509450602087013591508082111561459057600080fd5b5061459d878288016144fb565b95989497509550505050565b6000604082840312156145bb57600080fd5b50919050565b600080602083850312156145d457600080fd5b823567ffffffffffffffff8111156145eb57600080fd5b61438d858286016144fb565b6000806000806040858703121561460d57600080fd5b843567ffffffffffffffff8082111561462557600080fd5b61463188838901614312565b9096509450602087013591508082111561464a57600080fd5b5061459d87828801614312565b60006020828403121561466957600080fd5b81356143cc81614457565b8015158114612f5357600080fd5b6000806040838503121561469557600080fd5b82356146a081614457565b915060208301356146b081614674565b809150509250929050565b634e487b7160e01b600052604160045260246000fd5b6040516060810167ffffffffffffffff811182821017156146f4576146f46146bb565b60405290565b604051601f8201601f1916810167ffffffffffffffff81118282101715614723576147236146bb565b604052919050565b6000806000806080858703121561474157600080fd5b843561474c81614457565b935060208581013561475d81614457565b935060408601359250606086013567ffffffffffffffff8082111561478157600080fd5b818801915088601f83011261479557600080fd5b8135818111156147a7576147a76146bb565b6147b9601f8201601f191685016146fa565b915080825289848285010111156147cf57600080fd5b808484018584013760008482840101525080935050505092959194509250565b6000806040838503121561480257600080fd5b823561480d81614457565b915060208301356146b081614457565b634e487b7160e01b600052603260045260246000fd5b60008235607e1983360301811261484957600080fd5b9190910192915050565b6000808335601e1984360301811261486a57600080fd5b83018035915067ffffffffffffffff82111561488557600080fd5b6020019150606081023603821315610d2957600080fd5b803562ffffff811681146148af57600080fd5b919050565b6000602082840312156148c657600080fd5b6143cc8261489c565b600181811c908216806148e357607f821691505b602082108114156145bb57634e487b7160e01b600052602260045260246000fd5b634e487b7160e01b600052601160045260246000fd5b600081600019048311821515161561493457614934614904565b500290565b60008261495657634e487b7160e01b600052601260045260246000fd5b500490565b8054600090600181811c908083168061497557607f831692505b602080841082141561499757634e487b7160e01b600052602260045260246000fd5b838852602088018280156149b257600181146149c3576149ee565b60ff198716825282820197506149ee565b60008981526020902060005b878110156149e8578154848201529086019084016149cf565b83019850505b5050505050505092915050565b604081526000614a0e604083018561495b565b8281036020840152614a20818561495b565b95945050505050565b8135614a3481614457565b6001600160a01b03811690508154816001600160a01b031982161783556020840135614a5f81614674565b7fffffffffffffffffffffff0000000000000000000000000000000000000000009190911690911790151560a01b74ff00000000000000000000000000000000000000001617905550565b604081018235614ab981614457565b6001600160a01b031682526020830135614ad281614674565b80151560208401525092915050565b60208152816020820152818360408301376000818301604090810191909152601f909201601f19160101919050565b6000823561019e1983360301811261484957600080fd5b803560ff811681146148af57600080fd5b600060608284031215614b4a57600080fd5b614b526146d1565b614b5b83614b27565b8152614b696020840161489c565b60208201526040830135614b7c81614457565b60408201529392505050565b60008351614b9a8184602088016143d3565b9190910191825250602001919050565b600060208284031215614bbc57600080fd5b6143cc82614b27565b600060208284031215614bd757600080fd5b81356fffffffffffffffffffffffffffffffff811681146143cc57600080fd5b600060208284031215614c0957600080fd5b813567ffffffffffffffff811681146143cc57600080fd5b6000808335601e19843603018112614c3857600080fd5b83018035915067ffffffffffffffff821115614c5357600080fd5b602001915036819003821315610d2957600080fd5b600060608284031215614c7a57600080fd5b614c826146d1565b614c8b83614b27565b81526020830135614c9b81614457565b60208201526040928301359281019290925250919050565b600060208284031215614cc557600080fd5b81516143cc81614457565b600060208284031215614ce257600080fd5b5051919050565b60008351614cfb8184602088016143d3565b835190830190614d0f8183602088016143d3565b01949350505050565b8183823760009101908152919050565b6000808335601e19843603018112614d3f57600080fd5b83018035915067ffffffffffffffff821115614d5a57600080fd5b6020019150600581901b3603821315610d2957600080fd5b600082821015614d8457614d84614904565b500390565b60008219821115614d9c57614d9c614904565b500190565b60008351614db38184602088016143d3565b7fff00000000000000000000000000000000000000000000000000000000000000939093169190920190815260010192915050565b6000600019821415614dfc57614dfc614904565b5060010190565b634e487b7160e01b600052602160045260246000fd5b60006001600160a01b03808716835280861660208401525083604083015260806060830152614e4b60808301846143ff565b9695505050505050565b600060208284031215614e6757600080fd5b81516143cc8161439956fea2646970667358221220ccd60c809a014cb8187ea493e33337ca62aa2c0882ffd6606408e1f2862ba23264736f6c63430008090033",
  "linkReferences": {},
  "deployedLinkReferences": {}
}